S022000053414D4432312D436F72652D434D30505F47434334382D6273702E737265637D
S21400000088550020BD580000B5590000DD060000E8
S21400001000000000000000000000000000000000DB
S214000020000000000000000000000000B5590000BD
S2140000300000000000000000B5590000B55900009F
S214000040B5590000B5590000B5590000B559000073
S214000050A1020000B5590000B5590000B5590000CE
S214000060B5590000553500006D3500008535000097
S2140000709D350000B5350000CD350000B5590000AF
S214000080B5590000B5590000B5190000C91900009F
S214000090DD190000F1190000051A0000B55900002E
S2140000A0B5590000B5590000B5590000B559000013
S2140000B00000000010B5064C2378002B07D1054B36
S2140000C0002B02D0044800E000BF0123237010BDBF
S2140000D08800002000000000C8310200084B10B560
S2140000E0002B03D00749084800E000BF0748036814
S2140000F0002B00D110BD064B002BFBD09847F9E72C
S214000100000000008C000020C8310200C831020048
S21400011000000000EFF3108372B60268016010461C
S21400012083F310887047C04680B584B000AF0200E5
S214000130FB1D1A700F23FB18FA1D127852091A704D
S2140001400F23FB181B78002B0CD1094BBB600F2329
S214000150FB181B789B0010229446BC446344083B63
S2140001601B6800E000231800BD4604B080BDC046F2
S2140001700018004080B584B000AF0200FB1D1A7066
S214000180FB1D1B7818000B4B98470300FB60FB1DFC
S2140001901B781F22134001229A401300BB60FB68A5
S2140001A01B69BA6813405A1E9341DBB21800BD465D
S2140001B004B080BD2901000080B584B000AF020005
S2140001C0FB1D1A70FB1D1B781800094B984703008F
S2140001D0FB60FB1D1B781F22134001229A40130070
S2140001E0BB60FB68BA681A61C046BD4604B080BDF5
S2140001F02901000080B582B000AF786008001100C9
S214000200FB1C021C1A70BB1C0A1C1A70BB1C1B7839
S214000210002B01D0172319E0FB1C1A780D4B920017
S214000220D358002B07D1FB1C1A780A4B920079682A
S214000230D15000230AE0FB1C1A78064B9200D258D5
S2140002407B689A4201D1002300E01D231800BD46BA
S21400025002B080BDA423002080B584B000AF0200A9
S214000260FB1D1A70BB1D0A1C1A70BB1D1B78002BC9
S2140002700ED1FB1D1B781800084B98470300FB6047
S214000280FB1D1B7801229A40FB68DA60002300E021
S21400029017231800BD4604B080BDC04629010000E3
S2140002A080B500AF154B00221A7020E0134B1B7868
S2140002B01800134B9847031E13D0104B1B781800DA
S2140002C0104B98470D4B1B781A000F4B9200D358D3
S2140002D0002B06D0094B1B781A000B4B9200D35804
S2140002E09847064B1B780133DAB2044B1A70034B5F
S2140002F01B780F2BDAD9C046BD4680BDA023002050
S21400030075010000B9010000A423002080B582B06A
S21400031000AF78607B6800221A70C046BD4602B007
S21400032080BDC04680B582B000AF02003960FB1DBC
S2140003301A70FB1D1B78012B0AD0022B0FD0002B46
S21400034014D10E4B0D4A91693A680A439A610FE040
S2140003500A4B0A4AD1693A680A43DA6108E0074B51
S214000360064A116A3A680A431A6201E0172300E057
S21400037000231800BD4602B080BDC0460004004001
S21400038080B582B000AF78607B6880221A707B6888
S21400039000225A707B6801229A707B680022DA700D
S2140003A0C046BD4602B080BD80B582B000AF020038
S2140003B0FB1D1A70064BFA1D127811001F220A4008
S2140003C0012191400A001A60C046BD4602B080BDB9
S2140003D000E100E080B584B000AF0200FB1D1A709B
S2140003E00F23FB18FA1D127852091A700F23FB18F8
S2140003F01B78002B0CD1094BBB600F23FB181B7816
S2140004009B0010229446BC446344083B1B6800E0F3
S21400041000231800BD4604B080BDC046001800404A
S21400042080B582B000AF0F4B3B6000237B6011E0CD
S2140004307B689B0008229446BC446344083B1B68C8
S2140004405B78DBB25BB2002B01DA012306E07B6847
S21400045001337B607B68002BEAD000231800BD4682
S21400046002B080BD0018004080B584B000AF2D4BB0
S2140004707B60402100202C4B98473B0018002B4BFC
S21400048098473B0000221A703B0019000520284BB5
S21400049098470520274B98470023FB6018E0FB6829
S2140004A09B0010229446BC4463440C3B1A68FB68CD
S2140004B09B0010218C46BC4463440C3B1B681B7895
S2140004C0DBB201210B43DBB21370FB680133FB6028
S2140004D0FB68002BE3D0C046174B9847031EFBD1A2
S2140004E00B23FB1800221A700DE00B23FB181A785A
S2140004F0124B92000021D1500B23FB181A780B23C5
S214000500FB1801321A700B23FB181B780F2BECD943
S21400051004200B4B98470B4B9847C046BD4604B08B
S21400052080BDC04600180040250300000D030000F3
S214000530495500008D55000021040000A42300202A
S214000540A90300004905000080B582B000AF154B36
S2140005503B6000237B6018E07B689B000822944683
S214000560BC446344083B1A687B689B0008218C46A1
S214000570BC446344083B1B681B78DBB202210B4378
S214000580DBB213707B6801337B607B68002BE3D0A3
S214000590C046054B9847031EFBD1C046BD4602B079
S2140005A080BDC046001800402104000080B582B01F
S2140005B000AF78607B6800221A607B6800225A6071
S2140005C07B6801221A727B6801225A727B680022BD
S2140005D09A727B680222DA72C046BD4602B080BDBF
S2140005E080B586B000AF02003960FB1D1A70082384
S2140005F0FB181800364B98473B685B68DAB208234E
S214000600FB181A700823FB1800225A703B681A7AE7
S2140006100823FB189A703B681B68DBB20822BA18DE
S214000620110018002B4B9847FB1D1B7818002A4B0F
S214000630984703003B61FB1D1B78072213409B0075
S214000640FB603B68DB7A7B613B689B7A002B03D0C0
S2140006507B69082213437B61FB1D1B78DB08DBB23A
S2140006601800FB1D1B78DB08DBB21A003B6906325C
S2140006709200D3580F21FA6891400A00D2431A40DC
S2140006807969FB6899400B001A4311003B69821D8B
S2140006909200D1503B685B7A002B0AD03B695A69BE
S2140006A0FB1D1B78012199400B001A433B695A61D8
S2140006B00AE03B695B69FA1D1278012191400A0045
S2140006C0D2431A403B695A61C046BD4606B080BD5B
S2140006D08103000035580000D503000080B500AF48
S2140006E0FEE7C04680B582B000AF0200FB1D1A7060
S2140006F0064BFA1D127811001F220A400121914074
S2140007000A001A60C046BD4602B080BD00E100E0A7
S21400071080B584B000AF78607B681B68FB60FB68C0
S214000720DB7BDBB21A00802313405A1E9341DBB2F8
S2140007301800BD4604B080BD80B582B000AF7860BA
S2140007407B6800221A707B6800229A707B68002201
S2140007509A807B6800229A717B6800221A817B68E7
S21400076000225A707B6800229A727B680022DA7236
S2140007707B6800221A737B6800229A737B680022CB
S2140007805A737B6800221A747B6800225A617B6861
S21400079000229A617B6800221A777B6800221A6220
S2140007A07B6800225A627B6800221A857B680022DA
S2140007B05A857B6800229A85C046BD4602B080BD39
S2140007C080B584B000AF78607B681B68FB60C0466D
S2140007D07B681800074B9847031EF9D1FB681B88F7
S2140007E09BB2022213439AB2FB681A80C046BD46EB
S2140007F004B080BD1107000080B584B000AF7860FB
S2140008007B681B68FB60C0467B681800054B9847F2
S214000810031EF9D1FB6880225A71C046BD4604B05B
S21400082080BDC0461107000080B584B000AF786078
S2140008307B681B68FB60C0467B6818000A4B9847BD
S214000840031EF9D1FB6800221A71C0467B681800A7
S214000850054B9847031EF9D1FB6840225A71C046E3
S214000860BD4604B080BDC0461107000080B582B00A
S21400087000AF7860044A7B68D3181B785BB2180018
S214000880BD4602B080BDC0460800002080B582B0DC
S21400089000AF78600A00FB1C1A707B681B681800A3
S2140008A0224B984703001800214B98470300180076
S2140008B0204B9847FB1C1B78022B0BD17B685B7E7A
S2140008C010221343DAB27B685A767B681B681022C4
S2140008D05A7326E0FB1C1B78032B0BD17B685B7ED0
S2140008E020221343DAB27B685A767B681B68202284
S2140008F05A7316E07B685B7E5AB2FB1C1B7801219C
S21400090099400B005BB213435BB2DAB27B685A764F
S2140009107B681B68FA1C1278012191400A00D2B24B
S2140009205A73C046BD4602B080BDC046951B000047
S2140009306D080000E506000080B500AF014B18000A
S214000940BD4680BD0024002080B500AF024B98470E
S214000950C046BD4680BDC04621E7000080B58EB0CB
S21400096000AF3B1D1800104B98473B1D01225A73E1
S2140009703B1D01229A733A1D0C490D4B18000D4B76
S21400098098470B4B18000C4B98470C49084B022213
S21400099018000B4B9847064B02211800094B984746
S2140009A0C046BD460EB080BD390700000034004288
S2140009B0E4230020E11B0000C107000049090000F5
S2140009C0411900008D08000080B500AF034B984722
S2140009D0034B984700231800BD4680BD5D09000004
S2140009E09918000080B500AF00231800BD4680BDF2
S2140009F090B585B000AF386079601F4B5C681B68A7
S214000A007A68A24205DB7A68A24230D13A689A42F6
S214000A102DD2194A3B687C6813605460174B180047
S214000A20174B98470120174B98470A0001003B6870
S214000A307C685B1A9441BB60FC60FB68002B05DC9D
S214000A40FB68002B0FD1BB68002B0CD0BB68DA000C
S214000A500A4B110018000C4B9847084B18000B4B1C
S214000A609847002304E00A4B9847030000E0002361
S214000A701800BD4605B090BD00000020E42300200D
S214000A80F9070000C50A00003D2000002908000004
S214000A9021E7000080B500AF00231800BD4680BDEA
S214000AA080B500AF00231800BD4680BD80B500AFFE
S214000AB000231800BD4680BD80B500AF0023180097
S214000AC0BD4680BD90B585B000AF0200FB1D1A7014
S214000AD00C4B984703000C00BB60FC60FB1D1B78AA
S214000AE0002B07D1084B19685A68BB68FC685B186E
S214000AF0544101E0BB68FC6818002100BD4605B003
S214000B0090BDC04619190000A800002080B500AFAF
S214000B1000231800BD4680BD80B584B000AF02003B
S214000B20FB1D1A700F23FB18FA1D1278D2091A70D3
S214000B300E23FB18FA1D127852091A700D4BBB6073
S214000B400F23FB181B78002B0FD10F23FB181B78E5
S214000B509B0010229446BC446344083B1A680E234C
S214000B60FB181B78DB01D31800E000231800BD46F5
S214000B7004B080BD0044004180B582B000AF0200E2
S214000B80FB1D1A70FB1D1B781800034B98470300CB
S214000B901800BD4602B080BD190B000080B582B0BB
S214000BA000AF78607B6800221A707B6801225A705A
S214000BB07B6800229A70C046BD4602B080BDC04623
S214000BC080B584B000AF0200FB1D1A70BB1D0A1C66
S214000BD01A70FB1D1B7818000D4B98470300FB602E
S214000BE0FB1D1B781F22134001229A401300BB6096
S214000BF0BB1D1B78002B03D0FB68BA689A6102E025
S214000C00FB68BA685A61C046BD4604B080BDC0469F
S214000C10790B000080B584B000AF78600C23FB1819
S214000C2018002C4B98477B681B78012118002A4B2C
S214000C3098477B685B7801211800274B98477B68AC
S214000C409B7801211800244B98470C23FB1802229E
S214000C501A700C23FB1800225A707B681B780C2233
S214000C60BA18110018001D4B98477B685B780C2259
S214000C70BA1811001800194B98477B689B780C220D
S214000C80BA1811001800154B98470C23FB180022C1
S214000C901A700C23FB1801225A707B68DB780C2232
S214000CA0BA18110018000D4B98477B681B790C2268
S214000CB0BA1811001800094B98477B685B790C221C
S214000CC0BA1811001800054B9847C046BD4604B038
S214000CD080BDC0469D0B0000C10B0000312E0000F9
S214000CE080B500AF0B4B98470B4B18000B4B984743
S214000CF00B4B1B689B68190053200A4B98470A4BFE
S214000D0018000A4B98470A4B984700231800BD4620
S214000D1080BDC04689580000C0170200150C0000B0
S214000D208400002035100000C8170200C90D02001C
S214000D302D22000080B582B000AF0200FB1D1A70A5
S214000D40064BFA1D127811001F220A40012191401D
S214000D500A001A60C046BD4602B080BD00E100E051
S214000D6080B584B000AF78607B681B68FB60FB686A
S214000D70DB695A1E9341DBB21800BD4604B080BD45
S214000D8080B582B000AF7860C0467B681800044B20
S214000D909847031EF9D1C046BD4602B080BDC04686
S214000DA0610D000080B582B000AF78607B6880225D
S214000DB0D2051A607B6800225A607B68FF221A817F
S214000DC07B6800229A727B680022DA727B68962221
S214000DD092011A627B682422012199547B6825229D
S214000DE0012199547B682622002199547B6827228A
S214000DF0002199547B6800229A627B6888225203FD
S214000E00DA607B682C22002199547B682D22002111
S214000E1099547B6800221A637B6800225A637B68B9
S214000E2000229A637B680022DA637B6800225A619C
S214000E307B6800221A827B680022DA767B680022B2
S214000E401A767B6800221A777B6800225A767B68BF
S214000E5013229A767B6800225A77C046BD4602B0B7
S214000E6080BDC04680B584B000AF78607B681B68E4
S214000E70FB607B681B681800094B98470300180046
S214000E80084B98477B681800074B9847FB681B6819
S214000E9002221A43FB681A60C046BD4604B080BDF5
S214000EA009350000350D0000810D000080B584B0C6
S214000EB000AFF860B9607A607A68B968FB681800B5
S214000EC0054B9847031E01D1012300E000231800BC
S214000ED0BD4604B080BDC0465146000080B582B015
S214000EE000AF78600A00FB1C1A70C046FB1C1B781B
S214000EF09AB27B6811001800044B9847031EF5D180
S214000F0000231800BD4602B080BDC046C54800009C
S214000F1080B584B000AF786039600E23FB180022DD
S214000F201A80C0460E23FA187B6811001800074B7B
S214000F309847031EF6D10E23FB181B88DAB23B68CF
S214000F401A70C046BD4604B080BDC04629490000A0
S214000F5080B584B000AFF860B9607A60104BFA686C
S214000F601A60104B104A1A60104B114A1A607A68C1
S214000F70B968FB6818000F4B98470F4B1B689B68B7
S214000F80002118000D4B98470B4B1B685B6800212F
S214000F9018000A4B9847C046BD4604B080BDC04600
S214000FA07024002074240020DD0E00006C24002035
S214000FB0110F0000AD0E000084000020DD0D0200C1
S214000FC080B590B000AF3B001800134B98473B002D
S214000FD0962292011A623B0080225203DA603B009E
S214000FE00E4A1A633B000E4A5A633B0001225242E5
S214000FF09A633B0001225242DA633A0009490A4BDF
S21400100018000A4B9847084B1800094B9847C046EB
S214001010BD4610B080BDC046A50D000002001600FB
S214001020020017000014004204240020510F0000A4
S214001030650E000080B582B000AF786039600A4B5C
S2140010401B78002B04D1094B9847074B01221A70D6
S2140010507B689AB2064B11001800064B98477B68CF
S2140010601800BD4602B080BDB0000020C10F0000D1
S21400107004240020C548000080B582B000AF0023DD
S2140010807B6007E0074A7B68D31800221A707B68EB
S21400109001337B607B68032BF4D9C046BD4602B0A3
S2140010A080BDC046B400002080B582B000AF786036
S2140010B00C4A7B68D3181B78012B04D17B68180078
S2140010C0094B98470AE07B681800084B9847031EB0
S2140010D004D1044A7B68D31801221A70C046BD4664
S2140010E002B080BDB4000020C1140000A1140000AE
S2140010F080B582B000AF78600A4A7B68D3181B7848
S214001100012B0AD17B681800074B9847031E04D1B1
S214001110044A7B68D31800221A70C046BD4602B047
S21400112080BDC046B4000020E114000080B584B045
S21400113000AF0200FB1D1A700F23FB18FA1D127871
S214001140D2091A700E23FB18FA1D127852091A706B
S2140011500D4BBB600F23FB181B78002B0FD10F2302
S214001160FB181B789B0010229446BC446344083B43
S2140011701A680E23FB181B78DB01D31800E0002347
S2140011801800BD4604B080BD0044004180B582B062
S21400119000AF0200FB1D1A70FB1D1B781800034BE6
S2140011A0984703001800BD4602B080BD2D11000010
S2140011B080B584B000AF0200FB1D1A70FB1D1B78C3
S2140011C018000B4B98470300FB60FB1D1B781F2283
S2140011D0134001229A401300BB60FB681B6ABA6882
S2140011E013405A1E9341DBB21800BD4604B080BDC2
S2140011F08D11000080B582B000AF0200FB1D1A7092
S214001200064BFA1D127811001F220A400121914058
S2140012100A001A60C046BD4602B080BD00E100E08C
S21400122080B582B000AF0200FB1D1A70074AFB1D96
S2140012301B7819001F230B40012199400B00190051
S2140012408023D150C046BD4602B080BD00E100E01C
S21400125080B584B000AF0200FB1D1A70FB1D1B7822
S214001260204AD35C1800204B98470300BB60BB683D
S214001270012B0FD1FB1D1B781C4AD35C012B04D11C
S2140012800F23FB1800221A7013E00F23FB1801220D
S2140012901A700EE0FB1D1B78144AD35C012B04D198
S2140012A00F23FB1801221A7003E00F23FB180022FD
S2140012B01A700F23FB181B78012B07D1FB1D1B7818
S2140012C00B4AD35C18000B4B984706E0FB1D1B78B7
S2140012D0074AD35C1800084B9847C046BD4604B082
S2140012E080BDC046DC170200B1110000E8170200FE
S2140012F0E4170200A9100000F110000090B585B0B8
S21400130000AF0200FB1D1A700F23FC18094B98470C
S21400131003002370FB1D1B781800074B98470F230C
S214001320FB181B781800054B9847C046BD4605B00D
S21400133090BDC046555A000051120000795A000070
S21400134080B500AF0420024B9847C046BD4680BD1E
S214001350F511000080B500AF0420024B9847C04648
S214001360BD4680BD2112000080B586B000AF786013
S2140013700C23FB1818001E4B98471E4A7B68D31890
S2140013801B781A000C23FB181A601B4A7B68D318BC
S2140013901B781A000C23FB185A600C23FB1801223A
S2140013A01A720C23FB180322DA72144A7B68D318CD
S2140013B01B780C22BA1811001800114B9847114BD5
S2140013C07A689200D0580D4A7B68D3181B780022A2
S2140013D019000D4B9847094A7B68D3181B780021E3
S2140013E018000A4B9847C046BD4606B080BDC046AA
S2140013F0AD050000DC170200D8170200E017020057
S214001400E1050000EC170200F5010000590200009B
S21400141080B500AF084B98470020084B984701203E
S214001420064B98470220054B98470320034B9847E6
S214001430C046BD4680BDC046791000006913000056
S21400144080B500AF0020044B9847044B1800044BAF
S2140014509847C046BD4680BDFD120000FC1702003E
S214001460C90D020080B500AF0120024B9847C04668
S214001470BD4680BDFD12000080B500AF0220024BC5
S2140014809847C046BD4680BDFD12000080B500AF3F
S2140014900320024B9847C046BD4680BDFD120000A3
S2140014A080B582B000AF78607B6819000120034BDE
S2140014B0984703001800BD4602B080BD51E6000004
S2140014C080B582B000AF78607B6819000120034BBE
S2140014D0984703001800BD4602B080BD71E60000C4
S2140014E080B582B000AF78607B6819000120034B9E
S2140014F0984703001800BD4602B080BD61E60000B4
S21400150080B500AF014B1800BD4680BD38240020D2
S21400151080B500AF024B9847C046BD4680BDC0466A
S214001520E929000080B500AF80231800BD4680BDC5
S21400153080B500AF20231800BD4680BD80B500AF43
S214001540014B1800BD4680BDB800002080B500AF36
S214001550C0461800BD4680BD80B500AFC046180026
S214001560BD4680BD80B588B000AFF860B9607A60CF
S2140015703B601E23FB18BA681A705AE01F23FB183C
S2140015807A681A7048E01D23FB181F22BA181278D2
S214001590D2081A701D23FB181B78DA01FB68D218D4
S2140015A01E23FB181B78D318BB611723FB181F22BA
S2140015B0BA18127807210A401A70BB691B781A00FD
S2140015C01723FB181B781A411300DAB21623FB18F0
S2140015D001210A401A701623FB181B78002B0AD02C
S2140015E01F23FB1819781E23FB181B7801221800EE
S2140015F0154B984709E01F23FB1819781E23FB1884
S2140016001B7800221800104B98471F23FB181A78E7
S2140016101F23FB1801321A701F23FB181A78BB6AA7
S2140016209A42B0DB1E23FB181A781E23FB180132E1
S2140016301A701E23FB181A783B689A429EDBC04637
S2140016401800BD4608B080BD652A000080B500AF12
S214001650C046BD4680BDC04680B500AF024B984729
S214001660C046BD4680BDC0461114000080B500AF20
S214001670024B9847C046BD4680BDC0465513000085
S21400168080B500AF024B9847C046BD4680BDC046F9
S2140016904113000080B582B000AF0200FB1D1A7037
S2140016A0064BFA1D127811001F220A4001219140B4
S2140016B00A001A60C046BD4602B080BD00E100E0E8
S2140016C080B584B000AF78607B681B68FB60FB6801
S2140016D0DB7BDBB21A00802313405A1E9341DBB239
S2140016E01800BD4604B080BD80B582B000AF7860FB
S2140016F07B6800221A707B6800229A707B68002242
S2140017009A807B6800229A717B6800221A817B6827
S21400171000225A707B6800229A727B680022DA7276
S2140017207B6800221A737B6800229A737B6800220B
S2140017305A737B6800221A747B6800225A617B68A1
S21400174000229A617B6800221A777B6800221A6260
S2140017507B6800225A627B6800221A857B6800221A
S2140017605A857B6800229A85C046BD4602B080BD79
S21400177080B584B000AF78607B681B68FB60C046AD
S2140017807B681800074B9847031EF9D1FB681B8837
S2140017909BB2022213439AB2FB681A80C046BD462B
S2140017A004B080BDC116000080B582B000AF78607E
S2140017B0044A7B68D3181B785BB21800BD4602B09B
S2140017C080BDC0461000002080B582B000AF7860B3
S2140017D00A00FB1C1A707B681B681800224B98478F
S2140017E003001800214B984703001800204B984729
S2140017F0FB1C1B78022B0BD17B685B7E10221343ED
S214001800DAB27B685A767B681B6810225A7326E029
S214001810FB1C1B78032B0BD17B685B7E20221343BB
S214001820DAB27B685A767B681B6820225A7316E009
S2140018307B685B7E5AB2FB1C1B78012199400B002B
S2140018405BB213435BB2DAB27B685A767B681B687E
S214001850FA1C1278012191400A00D2B25A73C0468F
S214001860BD4602B080BDC046951B0000A91700000B
S2140018709516000090B500AF064B5C681B6801210A
S21400188000225B185441034A13605460C046BD46AC
S21400189090BDC046B802002090B58FB000AF144A85
S2140018A000230024136054603B1D1800114B98471A
S2140018B03B1D114A5A853B1D20229A713A1D0F493D
S2140018C00F4B18000F4B98470D4B18000E4B9847C0
S2140018D00E490B4B022218000D4B9847084B02216D
S2140018E018000C4B9847C046BD460FB090BDC0468A
S2140018F0B8020020E91600001F030000002C00427A
S2140019003C240020E11B0000711700007518000041
S21400191041190000C9170000B0B500AF064B1868A3
S2140019205968064C0A220023A04703000C00180042
S2140019302100BD46B0BDC046B80200207DDD0100D6
S21400194080B584B000AFF860B960FB1D1A70FB1D4F
S2140019501A78FB6802329200B968D150FB1D1B78DA
S214001960022B07D1FB681B7E10221343DAB2FB68FA
S2140019701A7619E0FB1D1B78032B07D1FB681B7E2C
S21400198020221343DAB2FB681A760DE0FB681B7E52
S2140019905AB2FB1D1B78012199400B005BB2134322
S2140019A05BB2DAB2FB681A7600231800BD4604B0B4
S2140019B080BDC04680B500AF0020024B9847C046A9
S2140019C0BD4680BD191A000080B500AF0120024B4D
S2140019D09847C046BD4680BD191A000080B500AFC6
S2140019E00220024B9847C046BD4680BD191A00002B
S2140019F080B500AF0320024B9847C046BD4680BD69
S214001A00191A000080B500AF0420024B9847C04664
S214001A10BD4680BD191A000080B584B000AF020034
S214001A20FB1D1A70FB1D1A78284B9200D358FB60DA
S214001A30FB681B689B7BDBB2FA68127E1340DAB247
S214001A40FB68597E0B23FB180A401A700B23FB1801
S214001A501B780122134008D0FB689B68FA681000C8
S214001A609847FB681B6801229A730B23FB181B78A8
S214001A700222134008D0FB68DB68FA68100098471B
S214001A80FB681B6802229A730B23FB181B78102234
S214001A90134008D0FB681B69FA6810009847FB687B
S214001AA01B6810229A730B23FB181B782022134006
S214001AB008D0FB685B69FA6810009847FB681B68EB
S214001AC020229A73C046BD4604B080BD582400202C
S214001AD080B582B000AF78607B6800221A70C0467E
S214001AE0BD4602B080BDC04680B582B000AF0200E1
S214001AF03960FB1D1A70FB1D1B78012B0AD0022BC8
S214001B000FD0002B14D10E4B0D4A91693A680A4348
S214001B109A610FE00A4B0A4AD1693A680A43DA61C9
S214001B2008E0074B064A116A3A680A431A6201E05F
S214001B30172300E000231800BD4602B080BDC04653
S214001B400004004080B582B000AF78607B688022D9
S214001B501A707B6800225A707B6801229A707B6834
S214001B600022DA70C046BD4602B080BD80B584B0A3
S214001B7000AF78607B681B68FB60FB68DB7BDBB2D2
S214001B801A00802313405A1E9341DBB21800BD464C
S214001B9004B080BD90B589B000AF78600823FB180C
S214001BA00E4A13CA13C303CA03C30023FB610DE026
S214001BB00823FB18FA699200D2587B689A4202D131
S214001BC0FB69DBB206E0FB690133FB61FB69042BB2
S214001BD0EED900231800BD4609B090BD0C180200CF
S214001BE090B58DB000AFF860B9607A602E23FB1810
S214001BF000221A802D23FB1800221A702C23FB18B3
S214001C0000221A702923FC18BB681800BF4B98479F
S214001C10030023702423FA18BD4B10001900052377
S214001C201A00BC4B98471823FA18BB4B1000190033
S214001C300A231A00B74B98472B23FB1800221A706A
S214001C400EE02B23FB181A78FB6802329200002164
S214001C50D1502B23FB181A782B23FB1801321A704D
S214001C602B23FB181B78032BEBD9FB6800221A7674
S214001C70FB6800225A762923FB181A78A74B920095
S214001C80F968D150FB68BA681A607B689B78082BA5
S214001C9008D12923FB181B7803330122134001D0F7
S214001CA01723C4E17B689A78FB681A71BB681B88A7
S214001CB09BB21A000123134001D00523B7E1BB688D
S214001CC0DB7BDBB21A001023134001D01C23AEE1ED
S214001CD0BB681B889BB21A000223134001D01C234A
S214001CE0A5E17B681B7C002B17D01423FB1818007B
S214001CF08B4B98477B689B69DAB21423FB181A70E3
S214001D001423FB1801225A707B685B69DBB214222D
S214001D10BA1811001800834B98477B681B7F002B6E
S214001D2017D01423FB1818007D4B98477B685B6A16
S214001D30DAB21423FB181A701423FB1801225A7007
S214001D407B681B6ADBB21422BA1811001800754BA8
S214001D5098472923FB181A781823FB185200D35AE1
S214001D6019000220704B98477B689B78082B0BD194
S214001D702923FB181B785A1C1823FB185200D35A29
S214001D8019000220684B98471023FB181800674B71
S214001D9098477B681A781023FB181A702923FB18BB
S214001DA01B782422BA18D35C1022BA181100180027
S214001DB05F4B98472923FB181B782422BA18D35C5C
S214001DC018005C4B98477B689A787B689B7913432E
S214001DD0DBB29AB27B681B89134399B27B689A88F8
S214001DE02E23FB180A431A807B685B78002B08D0EA
S214001DF02E23FB182E22BA181288802109010A43C6
S214001E001A80C046FB6818004B4B9847031EF9D152
S214001E10BB682E22BA1812881A807B685B7B002B60
S214001E2003D02D23FB1804221A707B689B7B002BA3
S214001E3007D02D23FB182D22BA18127801210A4349
S214001E401A70C046FB6818003B4B9847031EF9D132
S214001E50BB68FF221A712D23FB181B78002B0BD0B2
S214001E60C046FB681800344B9847031EF9D1BB6880
S214001E702D22BA1812785A712C23FB187A68927A97
S214001E801A702A23FB1800221A701CE02A23FB185B
S214001E901B787A68D318DB7A002B0DD02A23FB1820
S214001EA01B7810229A401300D9B22C23FB182C2240
S214001EB0BA1812780A431A702A23FB181A782A23AB
S214001EC0FB1801321A702A23FB181B78012BDDD968
S214001ED0C046FB681800184B9847031EF9D1BB682C
S214001EE02C22BA1812789A71C046FB681800124B5A
S214001EF09847031EF9D1FB681B79042B1ED0082BCC
S214001F0000D170E0002B4BD090E0C046951B00003F
S214001F1020180200B90C02002818020058240020DD
S214001F20451B000035580000E91A0000D11A0000D1
S214001F30495500008D5500006D1B0000C046FB682B
S214001F4018003D4B9847031EF9D17B6828229A5CFF
S214001F50BB681A74C046FB681800374B9847031EC8
S214001F60F9D17B6829229A5CBB681A75C046FB6863
S214001F701800314B9847031EF9D17B682A229A5CD9
S214001F80BB681A76C046FB6818002B4B9847031EA2
S214001F90F9D17B682B229A5CBB685A76002346E010
S214001FA0C046FB681800244B9847031EF9D17B688F
S214001FB01A8DBB681A82C046FB6818001E4B9847ED
S214001FC0031EF9D17B685A8DBB681A83C046FB682E
S214001FD01800194B9847031EF9D17B689A8DBB6889
S214001FE05A83002323E0C046FB681800124B98472C
S214001FF0031EF9D17B689A6ABB681A61C046FB6803
S21400200018000D4B9847031EF9D17B68DA6ABB6847
S2140020109A61C046FB681800074B9847031EF9D123
S2140020207B681A6BBB68DA61002300E01723180090
S214002030BD460DB090BDC0466D1B000080B584B097
S21400204000AF786039607B681B68FB60C0467B68C1
S2140020501800114B9847031EF9D17B681B79042B97
S21400206004D0082B0ED0002B06D010E03B68DAB266
S214002070FB681A7500230BE03B689AB2FB681A836C
S214002080002305E0FB683A689A61002300E0172306
S2140020901800BD4604B080BD6D1B000080B586B03C
S2140020A000AFF860B9607A6000237B61FB68002BA4
S2140020B012D001235B4213E00B4B1A680B4B1B68D4
S2140020C0B96818009047BB680133BB607B69013371
S2140020D07B617B68013B7B607B68002BECDC7B696B
S2140020E01800BD4606B080BD6C2400207024002079
S2140020F080B586B000AFF860B9607A6000237B6177
S214002100FB68012B1DD0FB68022B1AD0FB68032B43
S21400211017D001235B4218E00E4B1A680E4B186866
S214002120BB68591CB9601B7819009047031E02DA79
S21400213001235B4209E07B6901337B617B68013BDD
S2140021407B607B68002BE7D17B691800BD4606B034
S21400215080BDC046742400207024002080B500AFE7
S214002160014B1800BD4680BD7824002080B584B0A1
S21400217000AFF860B9607A607B689B685A1E7B681F
S2140021809A607B689B68002B0ADA7B689A687B6893
S2140021909B699A420EDBBB68FF2213400A2B09D0CC
S2140021A07B681B68591C7A681160BA68D2B21A70CC
S2140021B01B7806E07A68B968FB681800034B9847F6
S2140021C003001800BD4604B080BDC046610F020083
S2140021D080B582B000AF78607B68074A934205D925
S2140021E07B68064A934201D8002300E001231800CA
S2140021F0BD4602B080BDC046FFFFFF1FFE7F002029
S21400220080B582B000AF7860064B1868054B1B6837
S2140022109A687B681900044B9847C046BD4602B0D2
S21400222080BDC046840000206D21000080B584B0CB
S21400223000AF104B98470300FB60FB68002B14D0E0
S214002240FB680022002118000B4B98470300BB6078
S214002250BB68002B05DBFB681800084B984703009B
S2140022607B60FB681800064B9847C046BD4604B026
S21400227080BDC046BD3D0100C93D0100D53D010001
S214002280DD3D010080B584B000AF0200FB1D1A7072
S2140022900F23FB18FA1D1278D2091A700E23FB18AA
S2140022A0FA1D127852091A700D4BBB600F23FB18EB
S2140022B01B78002B0FD10F23FB181B789B001022D6
S2140022C09446BC446344083B1A680E23FB181B78EC
S2140022D0DB01D31800E000231800BD4604B080BD23
S2140022E00044004180B582B000AF0200FB1D1A70AA
S2140022F0FB1D1B781800034B984703001800BD46CB
S21400230002B080BD8522000080B582B000AF786044
S2140023107B6800221A707B6801225A707B68002254
S2140023209A70C046BD4602B080BDC04680B584B037
S21400233000AF0200FB1D1A70BB1D0A1C1A70FB1DA5
S2140023401B7818000D4B98470300FB60FB1D1B789D
S2140023501F22134001229A401300BB60BB1D1B784E
S214002360002B03D0FB68BA689A6102E0FB68BA6883
S2140023705A61C046BD4604B080BDC046E522000096
S21400238080B582B000AF0200FB1D1A70064BFA1D26
S214002390127811001F220A40012191400A001A609B
S2140023A0C046BD4602B080BD00E100E080B584B006
S2140023B000AF78607B681B68FB60FB68DB695A1EB1
S2140023C09341DBB21800BD4604B080BD80B582B034
S2140023D000AF78607B6801221A707B6800225A6022
S2140023E07B6800229A607B68C0229203DA607B6872
S2140023F000221A747B6800225A747B6801229A7441
S2140024007B680122DA747B6800221A757B682422B6
S214002410002199547B6818330C22002118000A4BBF
S21400242098477B68094A9A617B6800229A627B68B3
S2140024300022DA627B6800221A637B6800225A63F5
S214002440C046BD4602B080BDF50C0200A086010065
S21400245080B582B000AF78607B680A221A707B680D
S21400246000225A707B6800229A70C046BD4602B0B1
S21400247080BDC04680B584B000AF786039603B68E8
S2140024801A787B681A703B685A787B685A703B6883
S2140024909A787B689A700C23FB1818000B4B9847A9
S2140024A00C23FB1801221A707B681B780C22BA18C2
S2140024B011001800064B98477B681B78012118000E
S2140024C0044B9847C046BD4604B080BD09230000B3
S2140024D0312E00002D23000080B584B000AF786058
S2140024E07B681B68FB607B681B6818000B4B984773
S2140024F0030018000A4B9847C0467B681800094B33
S2140025009847031EF9D1FB681B6802221A43FB6832
S2140025101A60C046BD4604B080BDC04609350000FE
S21400252081230000AD23000080B582B000AF786044
S2140025307B68002B0CD0084B7A685A60064B00224A
S2140025409A60C046044B1A6880235B021340F9D099
S214002550C046BD4602B080BD10E000E080B582B047
S21400256000AF0020104B98470200104B1049100097
S214002570984703001A0013009B009B185B007B60C3
S214002580002125200B4B98477B6818000A4B98477C
S21400259001212520074B98477B681800064B984773
S2140025A0C046BD4602B080BD71540000A1D90100EE
S2140025B040420F002D2300002925000080B500AF03
S2140025C0AF20024B9847C046BD4680BDA1270000FD
S2140025D080B582B000AF0200FB1D1A708120064B4A
S2140025E09847FB1D1B781800034B9847FB1D1B786C
S2140025F01800BD4602B080BDA127000080B500AF20
S214002600A620024B9847C046BD4680BDA1270000C5
S21400261080B590B000AF3B1D1800254B98473B1D7A
S21400262005221A703A1D234B11001800224B9847BA
S2140026300823FB181800214B98470823FB18802214
S2140026405202DA600823FB181D4A9A620823FB1818
S21400265001225242DA620823FB181A4A1A63082338
S214002660FB18194A5A630823FB18184A9A6108236C
S214002670FA181749174B1800174B9847154B1800B0
S214002680164B98473B001800154B98473B00012215
S2140026901A703B0019002620124B98473B00190081
S2140026A02520104B9847C046BD4610B080BDC0469A
S2140026B051240000B824002075240000CD2300001B
S2140026C003000400030006000300070040420F005A
S2140026D0000800427C240020D13A0000D9240000E3
S2140026E009230000312E000080B500AF244B984728
S2140026F0244B9847244B984701212520234B984785
S214002700A820234B98471F20214B9847D320204BC7
S214002710984700201E4B984740201D4B9847A12005
S2140027201B4B9847C8201A4B9847DA20184B9847F7
S2140027300220174B98478F20164B9847A420144B1F
S2140027409847154B9847D520114B98478020104B3B
S21400275098478D200E4B984714200D4B9847DB204A
S2140027600B4B984740200A4B9847D920084B984770
S214002770F120074B9847094B9847C046BD4680BD99
S21400278049280000112600005D2500002D230000CA
S214002790A1270000D1250000FD250000BD25000072
S2140027A080B582B000AF0200FB1D1A700C490D4BBD
S2140027B0012218000C4B9847002126200B4B984707
S2140027C0F91D084B01221800094B98470449054B90
S2140027D000221800044B9847C046BD4602B080BD94
S2140027E0B82400207C240020613C00002D2300003B
S2140027F0513D000080B582B000AF0200FB1D1A708C
S2140028000C490D4B012218000C4B9847012126203D
S2140028100B4B9847F91D084B01221800094B9847A7
S2140028200449054B00221800044B9847C046BD4695
S21400283002B080BDB82400207C240020613C00004B
S2140028402D230000513D000080B500AF00200F4B47
S214002850984702000E4B1A600D4B18680D4BFA2273
S2140028609100984703001A00094B1A60084B186835
S214002870084BFA229100984703001A00064B1A608C
S214002880064B05221A60C046BD4680BD7154000046
S21400289018000020A1D901001C00002010E000E074
S2140028A080B582B000AF7860034B7A681A60C04685
S2140028B0BD4602B080BDC046C002002090B583B0C1
S2140028C000AF040008001100FB1D221C1A70BB1D7F
S2140028D0021C1A707B1D0A1C1A70084B1A68FB1D16
S2140028E01B78DB011900BB1D1B78CB18D3187A1D8B
S2140028F012781A70C046BD4603B090BDC0020020D4
S21400290080B582B000AF0200FB1D1A70BB1D0A1C0A
S2140029101A70074B1A68FB1D1B78DB011900BB1DDC
S2140029201B78CB18D3181B781800BD4602B080BDA4
S214002930C002002080B582B000AF0200FB1D1A70F6
S214002940FB1DFA1D12780F210A401A70FB1D1B781A
S214002950502252421343DBB21800034B9847C0463E
S214002960BD4602B080BDC046A127000080B582B03B
S21400297000AF0200FB1D1A70FB1DFA1D12787F21A6
S2140029800A401A70FB1D1B781B09DBB2102213438A
S214002990DBB21800064B9847FB1D1B780F2213402E
S2140029A0DBB21800024B9847C046BD4602B080BD59
S2140029B0A127000080B582B000AF0200FB1D1A7090
S2140029C0FB1DFA1D12783F210A401A70FB1D1B786A
S2140029D040221343DBB21800024B9847C046BD4660
S2140029E002B080BDA127000090B583B000AF184BA1
S2140029F01800184B9847184B98470020174B9847D5
S214002A00FB1D00221A701AE0BB1D00221A700CE093
S214002A10BB1D1978FB1D187801230022104CA04717
S214002A20BB1D1A78BB1D01321A70BB1D1B785BB22A
S214002A30002BEDDAFB1D1A78FB1D01321A70FB1D08
S214002A401B78032BE0D9C046BD4603B090BDC046F8
S214002A50C4020020A1280000E9260000B5290000D5
S214002A60592B000090B585B000AF04000800110097
S214002A70FB1D221C1A70BB1D021C1A707B1D0A1C33
S214002A801A70FB1D1B785BB2002B5DDBBB1D1B7831
S214002A901F2B59D80E23FB18BA1D1278D2081A70AD
S214002AA0BB1D1A780E23FB181B78DB00D31A0122F5
S214002AB09A400D23FB181A700F23FC18FB1D1A787A
S214002AC00E23FB181B7811001800214B98470300B3
S214002AD023707B1D1B78012B04D0022B1DD0002BEE
S214002AE00BD025E00F23FB180F22B9180D22BA18B9
S214002AF0097812780A431A701AE00D23FB181B781F
S214002B005BB2DB435BB20F22BA18127852B21340A4
S214002B105AB20F23FB181A700AE00F23FB180F2275
S214002B20B9180D22BA18097812784A401A70C046A9
S214002B300F23FB181A78FB1D19780E23FB1818783C
S214002B400023044CA04700E0C046BD4605B090BD3B
S214002B50F92B0000592B0000B0B582B000AF05007D
S214002B600C0010001900FB1D2A1C1A70BB1D221C2D
S214002B701A707B1D021C1A703B1D0A1C1A703B1D26
S214002B801B7801225340DBB2002B0DD0BB1D1A78F8
S214002B90FB1D1B7811001800124B984703001A0003
S214002BA07B1D1B78934218D07B1D1A78BB1D1978A5
S214002BB0FB1D1B7818000C4B9847FB1D1B78180054
S214002BC00A4B9847BB1D1B781800094B98477B1D7E
S214002BD01B781800074B984700E0C046BD4602B079
S214002BE0B0BDC04601290000BD2800003529000000
S214002BF06D290000F527000080B582B000AF020006
S214002C00FB1D1A70BB1D0A1C1A70BB1D1A78FB1D13
S214002C101B7811001800034B984703001800BD46A8
S214002C2002B080BD0129000080B582B000AF104B15
S214002C301B68002B12D1EFF310837B607B68002BA0
S214002C4009D172B6BFF35F8F0A4B00221A700A4B87
S214002C5001221A7002E0084B00221A70044B1B680F
S214002C605A1C034B1A60C046BD4602B080BDC04623
S214002C70C404002020000020C804002080B500AF57
S214002C800B4B1B685A1E0A4B1A60094B1B68002B1D
S214002C900AD1084B1B78DBB2002B05D0064B01226D
S214002CA01A70BFF35F8F62B6C046BD4680BDC04691
S214002CB0C4040020C80400202000002080B584B092
S214002CC000AF0200FB1D1A700F23FB18FA1D1278C6
S214002CD0D2091A700E23FB18FA1D127852091A70C0
S214002CE00D4BBB600F23FB181B78002B0FD10F2357
S214002CF0FB181B789B0010229446BC446344083B98
S214002D001A680E23FB181B78DB01D31800E000239B
S214002D101800BD4604B080BD0044004180B582B0B6
S214002D2000AF0200FB1D1A70FB1D1B781800034B3A
S214002D30984703001800BD4602B080BDBD2C0000B9
S214002D4080B582B000AF78607B6800221A707B681E
S214002D5001225A707B6800229A70C046BD4602B0B7
S214002D6080BDC04680B584B000AF0200FB1D1A705F
S214002D70BB1D0A1C1A70FB1D1B7818000D4B9847CC
S214002D800300FB60FB1D1B781F22134001229A40A4
S214002D901300BB60BB1D1B78002B03D0FB68BA6812
S214002DA09A6102E0FB68BA685A61C046BD4604B044
S214002DB080BDC0461D2D000080B582B000AF3B1D13
S214002DC018000E4B98473B1D01221A703B1D190038
S214002DD03E200B4B984701213E200A4B98473B1D4F
S214002DE000221A703B1D01225A703B1D19000F204D
S214002DF0034B9847C046BD4602B080BD412D00003B
S214002E00312E0000652D000080B582B000AF7860DE
S214002E107B6880221A707B6800225A707B680122C9
S214002E209A707B680022DA70C046BD4602B080BD4C
S214002E3080B584B000AF02003960FB1D1A700C2309
S214002E40FB181800104B98470C23FB1880221A70AA
S214002E503B681A780C23FB185A703B685A780C2388
S214002E60FB189A703B689A780C23FB18DA700C23D0
S214002E70FA18FB1D1B7811001800044B9847C04633
S214002E80BD4604B080BDC046092E0000355800007F
S214002E9080B582B000AF78607B6800221A70C046AA
S214002EA0BD4602B080BDC046F0B58DB000AFB8607C
S214002EB0F9603A607B60002300243B627C6200235A
S214002EC00024BB61FC613F23FB6253E0FB6A203BAE
S214002ED0002B04DB01229A4013007B610BE0FB6AA7
S214002EE02022D31A0122DA4013000021FA6A914008
S214002EF00A0013437B610122FB6A9A4013003B6180
S214002F00BB69FC69DB186441BB61FC61BB683A695C
S214002F101A401500FB687A691A4016002B003343E6
S214002F2007D0BB6901221343BB61FB690022134330
S214002F30FB617A68FB699A4219D87A68FB699A42FB
S214002F4003D13A68BB699A4211D8B969FA693B68F5
S214002F507C68C91AA2410B001400BB61FC613A6A86
S214002F603B6913433B627A6A7B6913437B62FB6A65
S214002F70013BFB62FB6A002BA8DA3B6A7C6A1800FE
S214002F802100BD460DB0F0BD80B586B000AFF8603C
S214002F90B9607A601623FB1800221A80BB683B6172
S214002FA0BB685A08FB689A4201D2402326E0BB68F9
S214002FB05B083B610AE03A69FB68D31A3B6116235B
S214002FC0FB181A881623FB1801321A803A69FB6828
S214002FD09A42F0D21623FB181622BA181288013A23
S214002FE01A801623FB181B88FF2B01D9402305E007
S214002FF07B681622BA1812881A8000231800BD466D
S21400300006B080BDF0B59DB000AFF863B9637A63D3
S2140030103322BA18137000230024BB65FC65002316
S21400302000243B657C6500230024BB66FC66002309
S2140030303B66582330229446BC4463441A78FB6BA4
S2140030405A43BB6B9A4201D94023C6E03323FB1890
S2140030501B78002B3DD1582330229446BC44634451
S2140030601B78DBB23B6100237B61FB6BBB600023FC
S214003070FB605C4CBA68FB6838697969A047030056
S2140030800C001B00FB640023BB64BB6B3B6000238F
S2140030907B60B86CF96C3A687B68534CA0470300B9
S2140030A00C00BB65FC6500210122BB6DFC6DC91AD6
S2140030B0A2410B0014003B657C653B6D1B0C7A6DD2
S2140030C016041E433B6D1D043300BB660023FB66DF
S2140030D07DE03323FB181B78012B00D077E03723E5
S2140030E030229446BC44634400221A704EE0BB6B08
S2140030F0BB620023FB62B86AF96A03005B0F0A0032
S214003100D2001343FB640300DB00BB64FB6B3B6233
S21400311000237B62582330229446BC4463441B78C9
S214003120DBB2BB610023FB612E4CBA69FB69386ACF
S214003130796AA04703000C003B647C643B6C7C6CA3
S214003140B86CF96C1A002300274CA04703000C004B
S2140031503B66372330229446BC4463441B783A6E61
S214003160D31A3B663B6EDB083B663B6E1F4A9342B8
S21400317015D9372330229446BC4463441A78372343
S21400318030218C46BC44634401321A703723302207
S2140031909446BC4463441B78072BA8D900E0C0467D
S2140031A0372330229446BC4463441B78082B01D155
S2140031B0402312E0372330229446BC4463441B78F5
S2140031C05B031A003B6E1343BB660023FB66BB6EB5
S2140031D0FC6E9AB27B6B1A8000231800BD461DB0A9
S2140031E0F0BDC046C5DD0100A92E0000FF1F00008F
S2140031F080B584B000AF0200FB1D1A70BB1D0A1C10
S2140032001A701A4B1B7801225340DBB2002B03D1F5
S214003210BB1D1B78002B1BD00C23FB181800144B6F
S21400322098470C23FB18FA1D12781A700C23FB180B
S214003230190013200F4B984713200F4B98470B4B42
S214003240FA1D12785A70094B01221A70002308E002
S214003250064B5B78FA1D12789A4201D1002300E0F3
S2140032601D231800BD4604B080BDC046CC04002017
S214003270912E0000495500008D55000080B582B0A3
S21400328000AF78600A00FB1C1A707B684D4A9342B8
S2140032903FD04C4A934206D84B4A93420FD04B4AF3
S2140032A0934221D089E04A4A934200D15BE0494AE2
S2140032B0934200D16CE0484A93423FD07DE0FB1C2D
S2140032C01B78012B0AD002DC002B05D075E0022B00
S2140032D006D0032B06D070E0404B6FE0404B6DE00D
S2140032E0404B6BE0404B69E0FB1C1B78012B0AD07F
S2140032F002DC002B05D060E0022B06D0032B06D0A4
S2140033005BE003235AE0394B58E0394B56E0394B23
S21400331054E0FB1C1B78012B0AD002DC002B05D0E6
S2140033204BE0022B06D0032B06D046E0324B45E09E
S214003330324B43E0324B41E0324B3FE0FB1C1B7804
S214003340012B0AD002DC002B05D036E0022B06D07B
S214003350032B06D031E02C4B30E02C4B2EE02C4BD0
S2140033602CE02C4B2AE0FB1C1B78012B0AD002DC3D
S214003370002B05D021E0022B06D0032B06D01CE044
S214003380254B1BE0254B19E0254B17E0254B15E098
S214003390FB1C1B78012B0AD002DC002B05D00CE0AE
S2140033A0022B06D0032B06D007E01F4B06E01F4B70
S2140033B004E01F4B02E01F4B00E000231800BD4650
S2140033C002B080BD0010004200080042000C00421F
S2140033D000180042001C00420014004203000400D3
S2140033E003000500030006000300070003000100B9
S2140033F003001E0003001F0003000800030009006E
S21400340003000A0003000B00030010000300110075
S214003410030012000300130003000C0003000D005D
S21400342003000E0003000F00030016000300170041
S214003430030018000300190090B58BB000AF786049
S2140034400C23FB180F4A13CA13C313CA13C3002353
S2140034507B620EE00C23FB187A6A9200D3581A1E81
S2140034607B689A4202D17B6ADBB206E07B6A013354
S2140034707B627B6A052BEDD900231800BD460BB096
S21400348090BDC0463418020080B582B000AF02007E
S214003490FB1D1A70C046BD4602B080BD80B584B024
S2140034A000AF02003960FB1D1A70134B1B78012217
S2140034B05340DBB2002B15D00023FB600CE00F4B13
S2140034C0FA6892000E49D1500E4BFA68920000211D
S2140034D0D150FB680133FB60FB68052BEFD9064B28
S2140034E001221A70FB1D1A78044B92003968D150DD
S2140034F0C046BD4604B080BDCE040020D0040020E7
S21400350089340000BC24002090B585B000AF7860F8
S2140035100823FA180C4B1000190006231A000B4B50
S21400352098470F23FC187B681800094B9847030040
S21400353023700F23FB181B780822BA18D35C5BB2E3
S2140035401800BD4605B090BD4C180200B90C02002C
S2140035503934000080B500AF034B1B680020984745
S214003560C046BD4680BDC046D004002080B500AF32
S214003570034B5B6801209847C046BD4680BDC046E9
S214003580D004002080B500AF034B9B68022098470C
S214003590C046BD4680BDC046D004002080B500AF02
S2140035A0034BDB6803209847C046BD4680BDC04637
S2140035B0D004002080B500AF034B1B690420984759
S2140035C0C046BD4680BDC046D004002080B500AFD2
S2140035D0034B5B6905209847C046BD4680BDC04684
S2140035E0D004002080B582B000AF78607B6880226F
S2140035F01A707B6800225A707B6801229A707B687A
S2140036000022DA70C046BD4602B080BD80B584B0E8
S21400361000AF0200FB1D1A700F23FB18FA1D12786C
S214003620D2091A700E23FB18FA1D127852091A7066
S2140036300D4BBB600F23FB181B78002B0FD10F23FD
S214003640FB181B789B0010229446BC446344083B3E
S2140036501A680E23FB181B78DB01D31800E0002342
S2140036601800BD4604B080BD0044004180B582B05D
S21400367000AF0200FB1D1A70FB1D1B781800034BE1
S214003680984703001800BD4602B080BD0D36000006
S21400369080B584B000AF0200FB1D1A70BB1D0A1C6B
S2140036A01A70FB1D1B7818000D4B98470300FB6033
S2140036B0FB1D1B781F22134001229A401300BB609B
S2140036C0BB1D1B78002B03D0FB68BA689A6102E02A
S2140036D0FB68BA685A61C046BD4604B080BDC046A5
S2140036E06D36000080B582B000AF78607B6800223F
S2140036F01A70C046BD4602B080BDC04680B582B0D6
S21400370000AF02003960FB1D1A70FB1D1B78012BF1
S2140037100AD0022B0FD0002B14D10E4B0D4A916904
S2140037203A680A439A610FE00A4B0A4AD1693A6836
S2140037300A43DA6108E0074B064A116A3A680A4308
S2140037401A6201E0172300E000231800BD4602B00D
S21400375080BDC0460004004080B500AF054B9B7896
S214003760DBB21A00022313405A1E9341DBB2180044
S214003770BD4680BD0020004180B584B000AF7860B3
S2140037807B681B68FB60FB681B7EDBB21A000223AB
S21400379013405A1E9341DBB21800BD4604B080BDEC
S2140037A080B584B000AF78607B681B68FB60FB6800
S2140037B01B7EDBB21A00012313405A1E9341DBB274
S2140037C01800BD4604B080BD80B584B000AF7860F8
S2140037D07B681B68FB60FB681B7EDBB21A00042359
S2140037E013405A1E9341DBB21800BD4604B080BD9C
S2140037F080B584B000AF78600A00BB1C1A807B6876
S2140038001B68FB607B6818000A4B984703001A0089
S21400381001235340DBB2002B01D0052306E0BB1C7E
S2140038201B88DB05DA0DFB689A6200231800BD468C
S21400383004B080BDA137000080B584B000AF7860CA
S21400384039607B681B68BB607B6818001B4B984719
S21400385003001A0001235340DBB2002B01D01023D3
S21400386027E00F23FB1800221A70BB685B8B9BB205
S2140038701A000423134006D00F23FB181E221A70CA
S214003880BB6804225A837B689B79012B08D1BB68EE
S2140038909B6A9BB2DB05DB0D9AB23B681A8005E09B
S2140038A0BB689B6ADBB29AB23B681A800F23FB1890
S2140038B01B781800BD4604B080BDC046C93700005E
S2140038C090B593B000AF786039607B681B687B6307
S2140038D07B681B683B631C23FB181800754B9847D6
S2140038E01C23FB1800225A703B681B78002B03D160
S2140038F01C23FB1800229A703B689A6A0C23FB185C
S2140039001A603B68DA6A0C23FB185A603B681A6B2D
S2140039100C23FB189A603B685A6B0C23FB18DA6082
S2140039204723FB1800221A702CE04723FB181A784E
S2140039300C23FB189200D3583B643B6C002B09D138
S2140039404723FB181A783B6B110018005A4B984710
S21400395003003B643B6C01330DD03B6CDAB21C2396
S214003960FB181A703B6C1B0CDBB21C22BA18110039
S2140039701800524B98474723FB181A784723FB1822
S21400398001321A704723FB181B78032BCDD93B68EE
S2140039901A787B685A713B681A7C7B689A713B6818
S2140039A09A7C7B68DA713B681A7D7B681A720A23F8
S2140039B0FB1800221A800023FB630023BB633B68CE
S2140039C01B78012B29D17B681B6818003C4B984755
S2140039D00300FB62FB6A1433BB62BB6ADBB21800EF
S2140039E0384B984703007B623B689B692322BC18D0
S2140039F00A22BA18796A1800334B984703002370D6
S214003A002323FB181B78002B01D017234EE00A2334
S214003A10FB181B88DAB27B6B1A733B685B68FA6B21
S214003A201343FB633B689B68FA6B1343FB633B687B
S214003A30DB68FA6B1343FB633B681B7C1A00BB6BAB
S214003A401343BB633B685B7C002B03D11F4B98473B
S214003A50031E03D0FB6B80221343FB633B689B7CF7
S214003A60002B04D0BB6B802292021343BB633B68DF
S214003A70DB7C002B04D0BB6B802292001343BB631D
S214003A803B681B7D002B04D0BB6B80229201134346
S214003A90BB637B6B1A68FB6B1A437B6B1A607B6B92
S214003AA05A68BB6B1A437B6B5A6000231800BD46EE
S214003AB013B090BDE53500007D320000355800009B
S214003AC0393400006D560000892F00005937000079
S214003AD090B58BB000AFF860B9607A60FB68BA68E2
S214003AE01A60FB681B683B623B6A1B680222134035
S214003AF001D01C239CE03B6A1B680122134001D0C6
S214003B00052395E0FB681B6818004B4B984703009D
S214003B10FB61FB690233BB61FB6914337B610122E5
S214003B20BB699A40130019000220444B98471023A3
S214003B30FB181800424B98477B6824229A5C102397
S214003B40FB181A707B69DBB21022BA181100180035
S214003B503C4B98477B69DBB218003B4B98477B6829
S214003B6024229B5C00211800384B98477B681B7802
S214003B70012B05D13B6A1B680C221A433B6A1A606C
S214003B802723FB1800221A7010E02723FB181B7847
S214003B90FA6802339B00D318043300221A602723E6
S214003BA0FB181A782723FB1801321A702723FB18F4
S214003BB01B78062BE9D9FB680022DA62FB68002234
S214003BC09A62FB6800229A86FB6800221A86FB68C7
S214003BD0362200219954FB68372200219954FB684D
S214003BE0382200219954FB6803225A72FB6800228F
S214003BF01A71FB681B681322BC1818000E4B9847F6
S214003C0003002370124A1323FB181B7811001800B8
S214003C10104B98471323FB181A780F4B9200F9683D
S214003C20D1507A68FB68110018000C4B98470300C7
S214003C301800BD460BB090BD39340000FD360000BC
S214003C40E5360000495500008D550000F1310000B2
S214003C50F53F00009D340000BC240020C138000061
S214003C6080B586B000AFF860B960FB1D1A70FB68BF
S214003C705B79012B01D015235CE0FB681B7A0122DF
S214003C805340DBB2002B54D0FB1D1B78002B4AD0D0
S214003C90BB685B78002B3FD0FB681800274B984723
S214003CA003001A0001235340DBB2002B07D0BB6889
S214003CB01B7801211800224B984705233AE0BB6881
S214003CC01B78002118001E4B9847BB689B789AB259
S214003CD0FB68110018001B4B9847FB68DB79012234
S214003CE05340DBB2002B24D0C046FB681800164BAE
S214003CF0984703001A0001235340DBB2002BF4D18F
S214003D001623FB1800221A801623FA18FB681100E7
S214003D1018000E4B98470CE0BB681B780021180073
S214003D20074B984705E0BB681B7801211800044B39
S214003D30984700231800BD4606B080BDA137000096
S214003D4091360000F1370000C9370000393800000E
S214003D5080B586B000AFF860B960BB1D1A80FB68FE
S214003D6038229B5CDBB2052B01D1052387E0BB1D07
S214003D701B88002B01D1172381E01623FB18002295
S214003D801A801423FB18BA1D12881A805FE0C046FA
S214003D90FB6818003C4B984703001A000123534069
S214003DA0DBB2002BF4D11623FB181B881622BA1898
S214003DB0591C11801A00BB689B181A781223FB182E
S214003DC01A80FB689B79012B15D11623FB181B88DC
S214003DD01622BA18591C11801A00BB689B181B784B
S214003DE01B021AB21223FB1800215B5E13431AB2A1
S214003DF01223FB181A801223FB181A88FB6811007E
S214003E001800224B9847FB68DB791422BA18142155
S214003E10791809881180002B19D0C046FB68180055
S214003E201B4B984703001A0001235340DBB2002BBC
S214003E30F4D11023FA18FB6811001800154B9847A8
S214003E401423FB181A881423FB18013A1A80BB1D8A
S214003E501B88BA1D591E1180002B98D1FB685B7910
S214003E60012B0BD1C046FB6818000B4B984703008C
S214003E701A0001235340DBB2002BF4D100231800B4
S214003E80BD4606B080BDC046A1370000F137000031
S214003E90C9370000393800007937000080B584B093
S214003EA000AF78607B681B68BB607B68DB6A1B784A
S214003EB0DAB20E23FB181A807B68DB6A5A1C7B6812
S214003EC0DA627B689B79012B13D17B68DB6A1B78EF
S214003ED0DBB21B021AB20E23FB1800215B5E1343F3
S214003EE01AB20E23FB181A807B68DB6A5A1C7B68A2
S214003EF0DA620E23FB181B88DB05DA0DBB689A62B4
S214003F007B689B8E9BB2013B9AB27B689A86C046C2
S214003F10BD4604B080BDC04680B584B000AF7860B2
S214003F207B681B68FB60084B1B881A00FB689A625C
S214003F307B685B8E9BB2013B9AB27B685A86C04612
S214003F40BD4604B080BDC046D424002080B584B0F1
S214003F5000AF78607B681B68FB600A23FB180022B2
S214003F601A80FB689A6A0A23FB181A807B685B8EA5
S214003F709BB2013B9AB27B685A86C046BD4604B0E7
S214003F8080BDC04680B584B000AF78607B681B6893
S214003F90FB60FB689B6A9AB20A23FB18D205D20D17
S214003FA01A807B689B6A0A22BA181288D2B21A70E4
S214003FB07B689B6A5A1C7B689A627B689B79012B9C
S214003FC00DD17B689B6A0A22BA181288120A92B22E
S214003FD0D2B21A707B689B6A5A1C7B689A627B68AE
S214003FE01B8E9BB2013B9AB27B681A86C046BD46C2
S214003FF004B080BD80B586B000AF0200FB1D1A700D
S214004000FB1D1A78964B9200D3587B617B691B6820
S2140040103B617B6937229A5C7B693621595C0F23AA
S214004020FB180A401A703B691B7EDAB20C23FB1899
S2140040301A803B699B7DDBB29AB20C23FB180C21DD
S214004040791809880A401A800C23FB181B8801225D
S214004050134038D07B695B79012B10D17B695B7A82
S214004060DBB2002B0BD17B6918007E4B98477B692F
S2140040705B8E9BB2002B02D13B6901221A757B69CD
S2140040805B79012B1FD17B695B7ADBB2002B1AD0E0
S2140040907B691800744B98477B699B8E9BB2002BFC
S2140040A011D13B6901221A757B695B7ADBB2012B61
S2140040B009D17B69DB7901225340DBB2002B02D0A9
S2140040C03B6902229A750C23FB181B8804221340B6
S2140040D000D17EE03B695B8B9BB21A000423134041
S2140040E022D07B695B7ADBB2012B14D07B69382245
S2140040F01E2199547B6903225A723B6905221A7560
S2140041000F23FB181B780822134004D07B699B6999
S2140041107A69100098473B699A6A0A23FB181A8046
S2140041203B6904225A8354E07B695B7ADBB2012B3D
S2140041301ED17B6918004D4B98477B695B8E9BB2FE
S214004140002B46D13B6904221A757B693822002170
S21400415099547B6903225A720F23FB181B7801229D
S214004160134036D07B69DB687A691000984730E0E8
S2140041707B6918003E4B98477B691B8E9BB2002BD1
S21400418027D17B693822002199543B6904221A758D
S2140041907B695B7ADBB2022B0BD10F23FB181B78F3
S2140041A00422134015D07B695B697A691000984732
S2140041B00FE07B695B7ADBB2002B0AD10F23FB187A
S2140041C01B780222134004D07B691B697A691000B1
S2140041D098470C23FB181B880222134024D07B69C7
S2140041E05B79012B20D17B695B7ADBB2012B1BD17B
S2140041F07B69DB7901225340DBB2002B14D03B698C
S21400420002221A757B6903225A727B6938220021C2
S21400421099540F23FB181B780122134004D07B69A6
S214004220DB687A69100098470C23FB181B888022ED
S214004230134010D03B6980221A753B6980221A769B
S2140042400F23FB181B784022134004D07B695B6A5F
S2140042507A6910009847C046BD4606B080BDC04685
S214004260BC240020193F00009D3E00004D3F00008A
S214004270853F000080B582B000AF78607B68002282
S2140042801A70C046BD4602B080BDC04680B582B03A
S21400429000AF02003960FB1D1A70FB1D1B78012B56
S2140042A00AD0022B0FD0002B14D10E4B0D4A916969
S2140042B03A680A439A610FE00A4B0A4AD1693A689B
S2140042C00A43DA6108E0074B064A116A3A680A436D
S2140042D01A6201E0172300E000231800BD4602B072
S2140042E080BDC0460004004080B582B000AF786054
S2140042F07B6880221A707B6800225A707B680122D5
S2140043009A707B680022DA70C046BD4602B080BD57
S21400431080B500AF054B9B78DBB21A000223134032
S2140043205A1E9341DBB21800BD4680BD00200041F6
S21400433080B584B000AF78607B681B68FB60FB6864
S214004340DB695A1E9341DBB21800BD4604B080BD3F
S21400435080B582B000AF7860C0467B681800044B1A
S2140043609847031EF9D1C046BD4602B080BDC04680
S21400437031430000B0B58CB002AF786039607B681E
S2140043801B68BB617B681B681800AB4B9847030033
S2140043907B617B6914333B6100237B6200233B62B5
S2140043A00A23FB1800221A801F23FB1800221A700B
S2140043B01E23FB1810221A703B681B8A8022D2012B
S2140043C093421CD08022D201934206DC002B0DD0F3
S2140043D080229201934224D035E0C022D20193423B
S2140043E028D080221202934212D02CE01F23FB1802
S2140043F000221A701E23FB1810221A7023E01F23B7
S214004400FB1800221A701E23FB1808221A701AE0E6
S2140044101F23FB1800221A701E23FB1803221A7093
S21400442011E01F23FB1801221A701E23FB1810220E
S2140044301A7008E01F23FB1801221A701E23FB18AF
S21400444008221A70C0463B681A683B68DB681A4345
S2140044503B685B6913433A68128A13433A68127ED4
S214004460120213433A682621525C520713437B62BA
S2140044701D23FB1800221A703B685B68FB60FB6814
S214004480002B1ED08022520593424FD13B68272234
S2140044909B5C01225340DBB2002B46D03B681D6A72
S2140044A03B69DBB21800654B984701001D23FC18DA
S2140044B00A23FB181A002800614B98470300237054
S2140044C033E03B6827229B5C002B14D03B68186ABD
S2140044D03B68996A1D23FC181F23FB181D780A23C6
S2140044E0FA181E23FB181B7800932B00554DA8477F
S2140044F0030023701AE03B681D6A3B69DBB21800B4
S2140045004E4B98471D23FC181F23FB1819780A23C7
S214004510FA181E23FB181B7800930B0001002800D6
S214004520484DA8470300237000E0C0461D23FB1833
S2140045301B78002B03D01D23FB181B7877E03B6805
S2140045405B7E002B03D03B689A7EBB699A737B68C0
S21400455018003D4B98470A23FB181A88BB699A81B6
S2140045607A6AFB6813437B623B6827229B5C0122C6
S2140045705340DBB2002B03D07B6A042213437B62DA
S2140045803B685B7E9A023B681B7F5B021A433B6874
S2140045905B7F1B021A433B6824215B5C5B041A4367
S2140045A03B6825215B5C1B0413433B623B689B7A9C
S2140045B01A003B6A13433B623B68DB7A1A003B6A8D
S2140045C013433B623B681B89FF2B0BD07B6A802220
S2140045D0520413437B623B681B891A003B6A1343F1
S2140045E03B6208E03B68DB7E002B04D07B6A8022BF
S2140045F0D20413437B623B682C229B5C002B03D1C6
S214004600124B9847031E03D07B6A802213437B62BB
S2140046107B6818000C4B9847BB693A6A5A607B68FF
S2140046201800094B9847BB697A6A1A60002318007D
S214004630BD460AB0B0BDC046393400006D56000015
S214004640892F000005300000514300001143000090
S21400465090B593B000AFF860B9607A603B23FB1862
S21400466000221A70FB68BA681A60FB681B687B63D6
S214004670FB681B681800864B984703003B633B6B40
S2140046800233FB623B6B1433BB627B6B1B680122FD
S214004690134001D00523F6E07B6B1B680222134013
S2140046A001D01C23EFE00122FB6A9A401300190098
S2140046B00220784B98472423FB181800764B98471F
S2140046C07B682D229A5C2423FB181A70BB6ADBB227
S2140046D02422BA1811001800704B9847BB6ADBB248
S2140046E018006F4B98477B682D229B5C00211800B2
S2140046F06C4B98477B68DA7AFB685A717B68242291
S2140047009A5CFB689A717B6825229A5CFB68DA7172
S2140047107B68DA7EFB681A727B681A7FFB685A72BF
S2140047203B23FC187A68FB68110018005E4B98471C
S214004730030023703B23FB181B78002B03D03B237E
S214004740FB181B789FE02023FB181800574B984750
S2140047502023FB1800225A702023FB1800229A7090
S2140047607B681A6B1023FB181A607B685A6B102341
S214004770FB185A607B689A6B1023FB189A607B685C
S214004780DA6B1023FB18DA604723FB1800221A7036
S2140047902CE04723FB181A781023FB189200D358F6
S2140047A03B643B6C002B09D14723FB181A78BB6887
S2140047B0110018003E4B984703003B643B6C0133E6
S2140047C00DD03B6CDAB22023FB181A703B6C1B0C26
S2140047D0DBB22022BA1811001800364B9847472340
S2140047E0FB181A784723FB1801321A704723FB1868
S2140047F01B78032BCDD90023FB630AE0FA68FB6B1A
S21400480002339B00D318043300221A60FB6B01337B
S214004810FB63FB6B052BF1D9FB6800229A62FB68F1
S21400482000225A62FB680022DA85FB6800229A851D
S214004830FB68302200219954FB68312200219954EC
S214004840FB68322200219954FB68332200219954D8
S214004850FB681B682722BC1818000D4B98470300FE
S2140048602370154A2723FB181B7811001800134BDA
S21400487098472723FB181A78114B9200F968D150F5
S2140048803B23FB181B781800BD4613B090BDC046EE
S214004890393400008D420000754200004955000082
S2140048A08D550000F131000075430000E94200001C
S2140048B07D32000035580000594A00009D34000043
S2140048C0BC24002080B584B000AF78600A00BB1C12
S2140048D01A807B681B68FB607B68DB79012253408B
S2140048E0DBB2002B01D01C2317E07B68DB8D9BB26C
S2140048F0002B01D0052310E07B681800094B984771
S214004900FB68BA1C12881A85C046FB681B7EDBB2A1
S2140049101A0002231340F8D000231800BD4604B046
S21400492080BDC0465143000080B584B000AF7860BB
S21400493039607B681B68FB607B689B79012253406B
S214004940DBB2002B01D01C235EE07B689B8D9BB204
S214004950002B01D0052357E0FB681B7EDBB21A0054
S2140049600423134001D105234EE07B681800284B32
S2140049709847FB685B8B9BB2DAB20B23FB183F2190
S2140049800A401A700B23FB181B78002B36D00B231B
S214004990FB181B780222134004D0FB6802225A83BD
S2140049A01A2331E00B23FB181B780422134004D093
S2140049B0FB6804225A831E2326E00B23FB181B7871
S2140049C00122134004D0FB6801225A8313231BE004
S2140049D00B23FB181B781022134004D0FB68102210
S2140049E05A83422310E00B23FB181B782022134027
S2140049F004D0FB6820225A83412305E0FB681B8D08
S214004A009AB23B681A8000231800BD4604B080BDE9
S214004A105143000080B584B000AF78607B681B68A7
S214004A20FB60FB68DB695A1E9341DBB21800BD468B
S214004A3004B080BD80B582B000AF7860C0467B68A9
S214004A401800044B9847031EF9D1C046BD4602B075
S214004A5080BDC046154A000080B588B000AF020091
S214004A60FB1D1A70FB1D1A78A34B9200D358BB612E
S214004A70BB691B687B61BB691800A04B98477B69C4
S214004A801B7EDAB21223FB181A807B699B7DDBB291
S214004A909AB21223FB181221791809880A401A8044
S214004AA0BB6930229B5CBA693121525C1340DAB292
S214004AB01023FB181A801223FB181B8801221340B0
S214004AC044D0BB69DB8D9BB2002B3CD0BB699B6A94
S214004AD01B78DAB21C23FB181A80BB699B6A5A1C27
S214004AE0BB699A62BB695B79012B13D1BB699B6A70
S214004AF01B78DBB21B021AB21C23FB1800215B5E7C
S214004B0013431AB21C23FB181A80BB699B6A5A1CF3
S214004B10BB699A621C23FB181B88DB05DB0D9AB267
S214004B207B691A85BB69DB8D9BB2013B9BB2BA6978
S214004B30191CD185002B09D17B6901221A757B6966
S214004B4002229A7502E07B6901221A751223FB186D
S214004B501B880222134011D07B6902221A75BB699A
S214004B603322002199541023FB181B88012213407E
S214004B7004D0BB69DB68BA69100098471223FB189B
S214004B801B880422134000D1BDE0BB699B8D9BB2FD
S214004B90002B00D1B4E07B695B8B9BB2DAB21F239B
S214004BA0FB183F210A401A701F23FB181B780822A7
S214004BB0134007D01F23FB181F22BA1812780821AB
S214004BC08A431A701F23FB181B78002B50D01F2314
S214004BD0FB181B780222134007D0BB6932221A2129
S214004BE099547B6902225A8336E01F23FB181B78F0
S214004BF00422134007D0BB6932221E2199547B69D8
S214004C0004225A8328E01F23FB181B780122134036
S214004C1007D0BB693222132199547B6901225A833B
S214004C201AE01F23FB181B781022134007D0BB691D
S214004C303222422199547B6910225A830CE01F23AA
S214004C40FB181B782022134006D0BB693222412174
S214004C5099547B6920225A831023FB181B88042250
S214004C60134050D0BB695B69BA69100098474AE0A8
S214004C707B691B8D9AB20E23FB18D205D20D1A80C3
S214004C80BB695B6A0E22BA181288D2B21A70BB6968
S214004C905B6A5A1CBB695A62BB695B79012B0DD1F2
S214004CA0BB695B6A0E22BA181288120A92B2D2B296
S214004CB01A70BB695B6A5A1CBB695A62BB699B8DDA
S214004CC09BB2013B9BB2BA69191C9185002B1AD185
S214004CD07B6904221A75BB6932220021995410237D
S214004CE0FB181B88022213400DD0BB691B69BA69EA
S214004CF01000984707E0C046BC240020354A000054
S214004D007B6904221A751223FB181B881022134095
S214004D1010D07B6910221A757B6910221A76102330
S214004D20FB181B881022134004D0BB69DB69BA69E4
S214004D30100098471223FB181B882022134010D01F
S214004D407B6920221A757B6920221A761023FB18AD
S214004D501B880822134004D0BB699B69BA691000FF
S214004D6098471223FB181B880822134010D07B6933
S214004D7008221A757B6908221A761023FB181B88EE
S214004D802022134004D0BB691B6ABA6910009847FA
S214004D90C046BD4608B080BD80B582B000AF786022
S214004DA07B6801225A607B6800225A707B68062264
S214004DB01A707B6800221A727B6800225A72C046FC
S214004DC0BD4602B080BDC04680B582B000AF7860F8
S214004DD07B6803221A707B6800225A707B68012267
S214004DE09A70C046BD4602B080BDC04680B582B04F
S214004DF000AF0200FB1D1A70034AFB1D1B781372DE
S214004E00C046BD4602B080BD0004004080B582B0FA
S214004E1000AF0200FB1D1A70BB1D0A1C1A70FB1D9A
S214004E201B78012B08D0022B0BD0002B0ED10B4A7F
S214004E30BB1D1B7853720BE0084ABB1D1B78937290
S214004E4006E0064ABB1D1B78D37201E0172300E07C
S214004E5000231800BD4602B080BDC04600040040D6
S214004E6080B582B000AF0200FB1D1A70084AFB1D19
S214004E701B780F210B40D9B253680F200140490020
S214004E801E2083430B435360C046BD4602B080BD20
S214004E900040004180B500AFC046044BDB681022DE
S214004EA01340FAD0C046BD4680BDC046000800404C
S214004EB080B500AF0C4B02229A840C4B98470A4AE6
S214004EC00B4B9B68D362084A094B5B689362064BA0
S214004ED000229A84054B9847034A054B1B689BB2F1
S214004EE09384C046BD4680BD00080040954E000035
S214004EF0E804002080B582B000AF0200FB1D1A70E7
S214004F00FB1D1B78082B40D89A00224BD3181B6831
S214004F109F46214B1B6939E0204B1B6A9B059B0F64
S214004F20DBB21A001E4BD34030E080231B022DE07C
S214004F3080231B022AE0184B5B6927E0164B1B6890
S214004F400222134001D1002320E0164B9847124B53
S214004F501B680422134009D00020134B9847020018
S214004F600D4B9B681B041B0C53430FE00F4B0DE0CF
S214004F700A4A5023D35CDBB21A000423134001D143
S214004F80002303E0044BDB6800E000231800BD4666
S214004F9002B080BD54180200E8040020000800405B
S214004FA000127A00954E00006D560000006CDC0280
S214004FB080B584B000AF78601A4B1B6AFB607B68D4
S214004FC01B781A1C03231340DAB20D23FB180321A7
S214004FD00A4010001A7803218A43111C021C0A4357
S214004FE01A707B689A780C23FB18D0011A787F21F8
S214004FF00A40111C021C0A431A707B685A780C235C
S214005000FB1801210A4090011A7840218A43111C9E
S214005010021C0A431A70034BFA681A62C046BD4661
S21400502004B080BD0008004080B582B000AF02002A
S214005030FB1D1A70FB1D1B78082B3BD89A00214BD2
S214005040D3181B689F46204B1F4A126A02210A4348
S2140050501A62002331E01C4B1B4A926902210A4364
S2140050609A6129E0184A184B1B8A9BB202210B430F
S2140050709BB2138220E0144A134B9B8A9BB20221F8
S2140050800B439BB2938217E0104B1B6802221A4315
S2140050900E4B1A600E4B98470EE00B4A0A49442303
S2140050A0CB5CDBB202210B43D9B24423D15403E0DC
S2140050B0002302E0172300E000231800BD4602B0DC
S2140050C080BDC0467818020000080040E8040020B2
S2140050D0B14E000080B582B000AF3B0001221A70CE
S2140050E000237B6009E07B68DBB23A001100180001
S2140050F0054B98477B6801337B607B68242BF2D98D
S214005100C046BD4602B080BD4955000080B5A0B07F
S21400511000AF364BC222D2009A600020344B98472C
S214005120344B98477C23FB181800334B98477C2356
S214005130FB1800221A707C23FB1801229A707C232D
S214005140FB1800225A707C23FB1818002B4B98473C
S21400515006202B4B98472B4B98474C23FB181800E0
S214005160294B98474C23FB1806221A704C23FB1831
S21400517010225A604C23FB1800221A724C23FB188C
S21400518000225A724C23FB18190003201F4B984725
S21400519003201F4B984700201E4B984700210020F5
S2140051A01D4B9847002101201B4B984700210220E9
S2140051B0194B98473B1D1800134B98473B1D06227A
S2140051C01A703B1D01225A603B1D00221A723B1DBD
S2140051D000225A723B1D190000200C4B98470020F5
S2140051E00B4B9847C046BD4620B080BD0008004027
S2140051F0614E0000D5500000C94D0000B14F0000C0
S21400520029500000C1520000994D0000F1520000E4
S21400521015540000ED4D00000D4E000080B582B024
S21400522000AF02003960FB1D1A70FB1D1B78012BB6
S2140052300AD0022B0FD0002B14D10E4B0D4A9169C9
S2140052403A680A439A610FE00A4B0A4AD1693A68FB
S2140052500A43DA6108E0074B064A116A3A680A43CD
S2140052601A6201E0172300E000231800BD4602B0D2
S21400527080BDC0460004004080B500AF024B984792
S214005280C046BD4680BDC046292C000080B500AF94
S214005290024B9847C046BD4680BDC0467D2C0000E8
S2140052A080B500AF054B5B78DBB25BB2002B01DA52
S2140052B0012300E000231800BD4680BD000C00401E
S2140052C080B500AF08210020074B9847074B012206
S2140052D01A70C046054B1B78DBB21A000123134038
S2140052E0F8D1C046BD4680BD1D520000000C0040EF
S2140052F080B586B000AF02003960FB1D1A70FB1D3A
S2140053001B787B61FB1D1B783B613B681B781B028F
S2140053101A007B6913437B613B685B78002B04D0E3
S2140053207B698022D20213437B613B685B7A002B49
S21400533004D07B698022120313437B613B685B6861
S214005340012B2CD93B685A683B685B68013B1340CD
S2140053501AD10023FB600223BB6005E0FB68013323
S214005360FB60BB685B00BB603B685A68BB689A42E0
S214005370F4D8FB681B023A6913433B617B698022C1
S214005380520313437B610AE03B685B681B023A6981
S21400539013433B617B698022920213437B613B6827
S2140053A01B7A002B04D07B698022920313437B6117
S2140053B0C046134B9847031EFBD1124B9847124A20
S2140053C0FB1D1B781370C0460D4B9847031EFBD180
S2140053D00E4B3A699A60C046094B9847031EFBD1AC
S2140053E00A4B0A4A51688022520211407A690A43DF
S2140053F05A60074B9847C046BD4606B080BDC046BB
S214005400A152000079520000080C0040000C004039
S2140054108D52000080B582B000AF0200FB1D1A70EE
S214005420C0460E4B9847031EFBD10D4B98470D4ABE
S214005430FB1D1B781370C046084B9847031EFBD114
S214005440094B094A5268802149020A435A60074BB1
S2140054509847C046BD4602B080BDC046A152000077
S21400546079520000040C0040000C00408D520000F1
S21400547080B586B000AF0200FB1D1A70C0462A4BEE
S2140054809847031EFBD1294B9847294AFB1D1B78DA
S2140054901370C046244B9847031EFBD1254B5B6810
S2140054A0DB04DB0EDBB21800234B984703007B615E
S2140054B01F4AFB1D1B7813701E4B5B68DB02DB0F5D
S2140054C0DAB21323FB181A701C4AFB1D1B781370E4
S2140054D0C046154B9847031EFBD1164B9B681B0214
S2140054E01B0C9BB2FB60164B98471323FB181B78CC
S2140054F0002B09D1FB68012B06D9124BF968786995
S214005500984703007B610AE01323FB181B78002BE7
S21400551005D0FB6801337A69DA4013007B617B694A
S2140055201800BD4606B080BDA152000079520000AA
S214005530040C0040000C0040F54E0000080C004033
S2140055408D520000A1D9010080B584B000AF0200E2
S2140055503960FB1D1A70FB1D1B78FB603B681B78CF
S2140055601B021A00FB681343FB60FB1D1B78180028
S214005570044B9847044BFA6892B25A80C046BD4620
S21400558004B080BDD5550000000C004080B582B048
S21400559000AF0200FB1D1A700A4B98470A4AFB1D13
S2140055A01B7813700949094B5B889BB28022D20195
S2140055B013439BB24B80064B9847C046BD4602B08D
S2140055C080BDC04679520000020C0040000C00402E
S2140055D08D52000080B584B000AF0200FB1D1A702B
S2140055E01C4B98471C4AFB1D1B7813701B4B5B8893
S2140055F01B051B0FDBB2FB60184A538818490B408B
S2140056005380164A154B5B889BB216490B409BB2DB
S2140056105380C046114B5B889BB21A008023DB0187
S2140056201340F7D10D4AFB68DBB2191C0F230B4061
S214005630D9B25388081C0F210140080208490B40C4
S214005640191C031C0B435380074B9847C046BD46A6
S21400565004B080BD79520000020C0040000C0040EF
S214005660FFF0FFFFFFBFFFFF8D52000080B584B044
S21400567000AF0200FB1D1A700D4B98470D4AFB1D2C
S2140056801B7813700C4B5B881B051B0FDAB20F23BD
S214005690FB181A70094B98470F23FB181B78180045
S2140056A0074B984703001800BD4604B080BDC046AF
S2140056B079520000020C0040000C00408D520000A1
S2140056C07154000080B584B000AF0200FB1D1A7054
S2140056D00F23FB18FA1D1278D2091A700E23FB1836
S2140056E0FA1D127852091A700D4BBB600F23FB1877
S2140056F01B78002B0FD10F23FB181B789B00102262
S2140057009446BC446344083B1A680E23FB181B7877
S214005710DB01D31800E000231800BD4604B080BDAE
S2140057200044004180B588B000AFF860B9607A6088
S2140057300023FB617B68DB7801225340DBB2002B41
S21400574035D07B681B78802B0BD0FB6980225202F9
S2140057501343FB617B681B781B061A00FB69134327
S214005760FB617B685B78002B03D07B685B78022B41
S21400577010D1FB69802292021343FB617B689B7801
S214005780002B04D0FB698022D2021343FB61FB6826
S214005790BA685A607B685B78012B03D07B685B78BD
S2140057A0022B07D1FB69224A1340FB6102E0FB682B
S2140057B0BA685A60BB681B041B0CBB61BB681B0C39
S2140057C07B61BA69FB691343A022D2051A43FB68C2
S2140057D09A627A69FB691343D02212061A43FB6861
S2140057E09A627B68DB7801225340DBB2002B1AD02A
S2140057F0FA698023DB0213400AD07B689B78012B72
S21400580003D1FB68BA689A6102E0FB68BA685A611D
S2140058107B685B78012B03D07B685B78022B02D118
S214005820FB68BA689A60C046BD4608B080BDC046F0
S214005830FFFFFBFF80B584B000AF02003960FB1DA0
S2140058401A70FB1D1B7818000A4B98470300FB6074
S214005850FB1D1B781F22134001229A401300BB60D9
S2140058603A68B968FB681800034B9847C046BD46BF
S21400587004B080BDC55600002557000080B500AFB7
S214005880C046BD4680BDC04680B500AF064B9847B3
S214005890064B9847064B9847064B9847064B984743
S2140058A0C046BD4680BDC0460D510000B92D000063
S2140058B07D580000690400007D58000080B582B065
