:1000000050200020A10E00009D0E00009D0E00005B
:1000100000000000000000000000000000000000E0
:100020000000000000000000000000009D0E000025
:1000300000000000000000009D0E00009D0E00006A
:100040009D0E00009D0E00009D0E00009D0E000004
:100050009D0E00009D0E00009D0E00009D0E0000F4
:100060009D0E00009D0E00009D0E00009D0E0000E4
:100070009D0E00009D0E00009D0E00009D0E0000D4
:100080009D0E00009D0E00009D0E00009D0E0000C4
:100090009D0E00009D0E00009D0E00009D0E0000B4
:1000A0009D0E00009D0E00009D0E00009D0E0000A4
:1000B0000000000010B5064C2378002B07D1054B3B
:1000C000002B02D0044800E000BF0123237010BDC4
:1000D0000400002000000000A4120000084B10B52E
:1000E000002B03D00749084800E000BF0748036819
:1000F000002B00D110BD064B002BFBD09847F9E731
:100100000000000008000020A4120000A41200005B
:10011000000000000C4B1B68002B10D1EFF3108384
:10012000002B09D172B6BFF35F8F0022074B1A7004
:100130000132074B1A7002E00022054B1A70024A86
:100140001368013313607047200000200000002076
:1001500024000020084B1A68013A1A601B68002B23
:1001600009D1064B1B78002B05D00122044B1A70D5
:10017000BFF35F8F62B6704720000020240000208C
:1001800000000020F0B583B001AC012565700027A8
:10019000A770257021003E20064EB0478022D20570
:1001A000054B9A612770657021000F20B04703B09E
:1001B000F0BDC046BD0100008044004100B583B0E1
:1001C00001AB80221A700A785A704A789A708A783D
:1001D000DA701900014B984703B000BD3D0E0000D6
:1001E00010B5490840230024814201D20AE01C00D6
:1001F000091A631C9BB28842F9D94023FF2C01D80D
:1002000014800023180010BDF0B55F4656464D46D9
:100210004446F0B489B00C00059212AA117802008D
:100220004A434025A24200D9C6E0002B51D102002A
:1002300008000021644DA8478346260000270023BC
:10024000002400930194002200233F2020218C46AB
:100250001F390296039720246442041903D40D0029
:10026000A540A84604E06446241A0D00E540A846CF
:100270000C008440A14614001D00A4185D4122001A
:100280002B0046465F463E4203D00E002643320016
:100290002B00029C039D9D420FD801D194420CD8A3
:1002A000029C039D121BAB414D46009E019F3543AE
:1002B0003C0046463443009501940138CBD20022DD
:1002C000012300980199121A8B41120C1B041A4346
:1002D0006FE00022012B6CD1630F0493E30098467A
:1002E0000A0000230021384CA04704000D00002321
:1002F0009C46069320339B460126634607930023C2
:100300000293002200233F21009401950F00202139
:100310004942791803D430008840844604E05946A5
:10032000C91B3000C84084463100B94089461000DE
:1003300019008018594102000B0044464D462C40DC
:10034000A2466446049D2C40A446544665462C4370
:1003500003D03400044322000B0000980199994215
:100360000AD801D1904207D800980199121A8B41FE
:100370000299484601430291013FC8D2009C019D69
:100380000299079A8B1ADB0810498B420BD9069BFE
:100390000133DBB2190006931300013307930829D8
:1003A000ADD1402508E04025069A082A04D0520322
:1003B0001A43059B1A800025280009B03CBC9046D2
:1003C0009946A246AB46F0BD81110000FF1F000018
:1003D00010B582B004000E4B1B78002B01D0002911
:1003E0000DD001A90C7013200A4B984713200A4B1B
:1003F0009847074B5C7001221A70002006E0044BFE
:100400005B78834201D01D2000E0002002B010BDC7
:1004100028000020450D0000B90C0000444B984214
:1004200033D006D8434B98420DD0434B98421BD053
:100430006FE0424B98424AD0414B984258D0414BD2
:10044000984266D132E0012906D0002963D0022902
:1004500006D0032906D001E03B4867E0002065E0B4
:100460003A4863E03A4861E0012906D0002954D0B7
:10047000022906D0032906D001E0364856E00020C4
:1004800054E0354852E0354850E0012906D00029B3
:1004900045D0022906D0032906D001E0304845E0C6
:1004A000002043E02F4841E02F483FE0012906D0DB
:1004B000002936D0022906D0032906D001E02B48B6
:1004C00034E0002032E02A4830E02A482EE00129BA
:1004D00006D0002927D0022906D0032906D001E042
:1004E000254823E0002021E024481FE024481DE0A7
:1004F000012906D0002918D0022906D0032906D0E8
:1005000001E0204812E0002010E01F480EE01F48E4
:100510000CE000200AE01E4808E0032006E01D4829
:1005200004E01D4802E01D4800E01D487047C04639
:100530000010004200080042000C00420018004277
:10054000001C0042001400420300050003000600E6
:10055000030007000300010003001E0003001F004A
:100560000300090003000A0003000B000300110050
:10057000030012000300130003000D0003000E002F
:1005800003000F0003001700030018000300190008
:1005900003000400030008000300100003000C0027
:1005A0000300160030B587B00C4B6A4632CB32C21E
:1005B00032CB32C2009B834206D001239A006946A7
:1005C0005258824203D100E00023D8B203E0013345
:1005D000062BF3D1002007B030BDC0462412000026
:1005E000F0B55F4656464D464446F0B491B005001E
:1005F0000C00160029600800AC4B984722680523C0
:10060000D20700D549E122681733920700D544E1AB
:10061000A7490A6A871C1B3BBB4013430B620FA907
:100620002D27F35D0B701430C3B202931800A14B59
:1006300098470298A04B9847F05D00219F4B984740
:10064000F37A6B712423F35CAB712523F35CEB71BC
:10065000F37E2B72337F6B722B6898461800934B96
:100660009847143000220E2306A98C4663441A8052
:10067000328A02928023DB019A421AD004D8802366
:100680009B019A420BD0E9E0C023DB01029A9A4217
:100690000AD080231B029A4200D1E4E0DEE010235E
:1006A00006930F3B0793E2E008230693073B07936B
:1006B000DDE033680393F3689B4673699A46337EA3
:1006C00004932623F35C059373689946002B15D099
:1006D00080235B05994536D12723F35C002B36D167
:1006E000336A1F00C0B2764B984701000E2206AB5A
:1006F0009C4662443800734B984725E008230693D4
:10070000002307932723F35C002B0BD0069B009359
:10071000079B0E2206A98C466244B16A306A6A4F72
:10072000B84711E0336A1F00C0B2654B984701001B
:10073000069B0093079B0E2206A88446624438005D
:10074000614FB84700E00020031E00D0A5E0737E93
:10075000002B02D0B37E424693732A68029FD3696E
:10076000002BFCD10E3306AA944663441B884246F4
:100770009381039B5A461343524613434A461343FD
:100780001F43049B1B021F43059B5B071F4327233B
:10079000F35C002B01D104331F43717E8902337F48
:1007A0005B021943727F120211432423F25C52044C
:1007B00011430133F25C12040B001343B17AF27A55
:1007C000114319433389FF2B04D08022520417436D
:1007D000194305E0F37E002B02D08023DB041F4386
:1007E0002C23F35C002B03D1384B9B789B0701D55E
:1007F00080231F432A68D369002BFCD143465960EC
:100800002A68D369002BFCD143461F600EAB8022BF
:100810001A7000225A70DA709A70336B0A93736BF5
:100820000B93B36B0C93F36B02930D9300270EADF8
:10083000274EF9B2BB000AAA9858002802D120001E
:10084000244B9847431C04D02870000CC0B22900E8
:10085000B0470137042FECD100231EE0102306938C
:100860000023079303E003230693002307933368D1
:100870000393F3689B4673699A46337E0493262359
:10088000F35C059373689946002B00D13AE7802307
:100890005B05994500D11FE759E7180011B03CBC32
:1008A00090469946A246AB46F0BDC046A50500005D
:1008B00000040040450D0000B90C0000D103000009
:1008C000610D0000E101000009020000002000416C
:1008D0003D0E00001D040000C3791C22002B0DD02A
:1008E0000368187E173AC00708D5DA69002AFCD1D8
:1008F000198502211A7E0A42FCD00022100070479E
:1009000010B5082803D880001B4B1B589F460020B9
:1009100030E01A4B18692DE0194B1B6A9B059B0FA1
:100920001848D84026E0154B586923E0134B1B6844
:10093000022018401ED012491022CB681A42FCD067
:100940000E4B1B685B0714D500200F4B98470B4BD1
:100950009B681B041B0C58430CE05023084AD35CD3
:1009600000205B0706D5054BD86803E08020000215
:1009700000E0064810BDC0463C1200002C000020DC
:100980000008004000127A00610D0000006CDC02DB
:1009900070B50C4C236A01788578427801200240BA
:1009A00092014026B343134302002A40D2017F3014
:1009B0008343134303220A40120203490B401343AB
:1009C000236270BD00080040FFFCFFFF082803D829
:1009D0008000254B1B589F46172044E0234A116A8C
:1009E00002230B43136200203DE0204A9169022359
:1009F0000B439361002036E01C4A118A02230B430B
:100A0000138200202FE0194A918A02230B4393821C
:100A1000002028E016490B68022213430B60134B99
:100A20009A8419000E32CB681A42FCD0104A9168A1
:100A30000E4BD96252689A6200229A8419001032D1
:100A4000CB681A42FCD00A4B1B689BB2074A9384BE
:100A5000002008E005494422885C022303438B54AC
:100A6000002000E0002070476012000000080040F5
:100A70002C00002030B585B0C222D2001A4B9A60FB
:100A80001A4A53681E218B43536001236A46137030
:100A90000024174DE0B26946A8470134252CF9D14E
:100AA00003A800244470012585700470114B9847F9
:100AB0000620114B9847114B9847114B1C725C72E2
:100AC0009C72DC7201956B465C7006236A4613705B
:100AD00014725472694600200A4B984700200A4B52
:100AE000984705B030BDC0460008004000400041B6
:100AF000450D000091090000CD0900000D0B00001C
:100B000000040040310B0000E90B0000064A916927
:100B100008230B4393610122044B1A7019000B78D0
:100B20001342FCD17047C04600040040000C004056
:100B300070B5060005000C78240204434B78002BA6
:100B400002D08023DB021C434B7A002B02D080238F
:100B50001B031C434868012818D9431E184210D1B2
:100B6000022806D90223002201325B009842FBD8FA
:100B700000E0002212023243150080235B031C4375
:100B800004E00502354380239B021C430B7A002BB3
:100B900002D080239B031C430F4A53785BB2002B87
:100BA000FBDB0E4B98470E4B1E700B4A53785BB223
:100BB000002BFBDB084B9D601A0053785BB2002BC7
:100BC000FBDB054A516880235B020B401C435460E9
:100BD000044B984770BDC046000C00401501000052
:100BE000080C00405501000010B504000B4A537872
:100BF0005BB2002BFBDB0A4B98470A4B1C70074A81
:100C000053785BB2002BFBDB044A53688021490216
:100C10000B435360044B984710BDC046000C004086
:100C200015010000040C00405501000070B50400DF
:100C30001A4A53785BB2002BFBDB194B9847194BD0
:100C40001C70164A53785BB2002BFBDB134E7068A6
:100C5000C004C00E144B98470500124B1C707668F8
:100C6000F602F60F114B1C700C4A53785BB2002B46
:100C7000FBDB0A4B9C682402240C0D4B9847002E8A
:100C800007D1012C07D9210028000A4B98470500FD
:100C900001E00134E540280070BDC046000C004072
:100CA00015010000040C004001090000080C004080
:100CB000550100006910000010B50400064B98476C
:100CC000064B1C70064A51888023DB010B4353807E
:100CD000044B984710BDC04615010000020C0040AF
:100CE000000C00405501000010B504000F4B984760
:100CF0000F4B1C700F4B5A881205100F59880E4A63
:100D00000A405A8059880D4A0A405A8019008022A8
:100D1000D2014B881342FCD106494C880202064B93
:100D2000234013434B80064B984710BD150100002C
:100D3000020C0040000C0040FFF0FFFFFFBFFFFF70
:100D40005501000010B50C7824020443024B98476B
:100D5000A4B2024B5C8010BDE90C0000000C004006
:100D600010B50400064B9847064B1C70064B5C8878
:100D70002405240F054B98472000054B984710BDCC
:100D800015010000020C0040000C0040550100005D
:100D90002D0C000030B5D378002B1ED11378802B9A
:100DA00004D01B0680246402234300E0002354780F
:100DB0000225AC430AD19478002C03D18024A402EC
:100DC000234302E0C024E402234341605478013C01
:100DD000012C12D8184C23400FE041600B041B0C6F
:100DE000A024E405234383620B0CD0242406234370
:100DF0008362D378002B18D01CE00C04240CA025AF
:100E0000ED052C431C4384620C0CD0252D062C438D
:100E10001C438462D478002C0CD15B0305D59378F5
:100E2000012B01D1816100E041615378013B012B2D
:100E300000D8816030BDC046FFFFFBFF10B5030046
:100E40000A00C1090020002904D15809C001054940
:100E50008C4660441F210B401E399940024B984735
:100E600010BDC04600440041950D00007047C046CB
:100E700010B5054B9847054B9847054B9847054BD0
:100E80009847054B984710BD750A00008501000082
:100E90006D0E00006D0E00006D0E0000FEE7C046F6
:100EA00070B52E4B2E4A9A4203D02E4B2B4A9A42B3
:100EB00004D32D4B2D4A9A4210D31EE02C4A294BC5
:100EC00003339B1A9B0801339B00002223482449CB
:100ED0008C58845004329A42FAD1EAE7254A224BD0
:100EE00003339B1A9B0801339B0000221F480021FB
:100EF0001418216004329A42FAD11F4AFF211F4B75
:100F00008B439360FD3990235B001D4AD1501D48EF
:100F1000C3780324A34302221343C370C3780C266F
:100F2000B34308210B43C370174B987B3025A8436C
:100F30000500202028439873987BB04301439973A0
:100F4000997BA1430A439A73104A516880230B434B
:100F500053600F4B98470F4B9847FEE70000002067
:100F6000A412000004000020500000200400002013
:100F7000040000200800002000ED00E00000000058
:100F80000070004100500041004800410040004115
:100F9000D91100003910000030B591B08023DB0575
:100FA000009300230193FF2269460A8100228B727D
:100FB000CB72962189010891012124206C4621548D
:100FC0000130215425316354013163540A930531B2
:100FD00063540131635405932382E37622762277AA
:100FE00062761323A376627780235B0303930D4B12
:100FF0000C930D4B0D9301235B420E930F930B4DFE
:101000000B4C6A460B492800A0470028F9D1074B32
:101010001A68D369002BFCD1116802330B431360AB
:1010200011B030BD0200160002001700440000207D
:10103000E10500000014004270B5074B9847074BCC
:1010400098470824064E074D79213000A847013CF7
:10105000002CF9D1002070BD710E0000990F000026
:1010600044000020D9080000002243088B4274D3BA
:1010700003098B425FD3030A8B4244D3030B8B4299
:1010800028D3030C8B420DD3FF22090212BA030CA2
:101090008B4202D31212090265D0030B8B4219D383
:1010A00000E0090AC30B8B4201D3CB03C01A5241A3
:1010B000830B8B4201D38B03C01A5241430B8B42EB
:1010C00001D34B03C01A5241030B8B4201D30B03D4
:1010D000C01A5241C30A8B4201D3CB02C01A5241FB
:1010E000830A8B4201D38B02C01A5241430A8B42BE
:1010F00001D34B02C01A5241030A8B4201D30B02A7
:10110000C01A5241CDD2C3098B4201D3CB01C01AC0
:10111000524183098B4201D38B01C01A52414309CA
:101120008B4201D34B01C01A524103098B4201D3B8
:101130000B01C01A5241C3088B4201D3CB00C01A25
:10114000524183088B4201D38B00C01A524143089D
:101150008B4201D34B00C01A5241411A00D20146C2
:10116000524110467047FFE701B5002000F006F835
:1011700002BDC0460029F7D076E770477047C046E9
:10118000F0B54F464646C0B41604360C99463300B7
:1011900005042C0C070C150C63437E436F43654319
:1011A0001C0CAD1964199C46A64203D980235B022E
:1011B000984647446346250CEF191D044B464A43A5
:1011C00043432D0C240464199918C91920000CBC40
:1011D00090469946F0BDC0460E4B70B500251E00E6
:1011E0000D4CE41AA410A54204D0AB00F358984764
:1011F0000135F8E700F046F8084B00251E00084CC2
:10120000E41AA410A54204D0AB00F3589847013566
:10121000F8E770BD901200009012000090120000DC
:101220009412000000080042000C0042001000422E
:101230000014004200180042001C00421209000085
:101240000E0900000E0900006C0900006C09000086
:1012500026090000180900002C0900005A090000A6
:10126000F8090000D8090000D8090000640A00004D
:10127000EA090000060A0000DC090000140A000068
:10128000540A0000F8B5C046F8BC08BC9E4670473A
:10129000DD000000F8B5C046F8BC08BC9E467047AB
:0412A000B500000095
:0412A4000100000045
:0400000300000EA14A
:00000001FF
