:10000000204200202941000021420000DD060000BE
:1000100000000000000000000000000000000000E0
:10002000000000000000000000000000214200006D
:1000300000000000000000002142000021420000FA
:100040002142000021420000214200002142000024
:10005000A1020000214200002142000021420000D4
:1000600021420000512A0000692A0000812A000074
:10007000992A0000B12A0000C92A0000214200008C
:1000800021420000214200005518000069180000BC
:100090007D18000091180000A51800002142000002
:1000A00021420000214200002142000021420000C4
:1000B0000000000010B5064C2378002B07D1054B3B
:1000C000002B02D0044800E000BF0123237010BDC4
:1000D000800000200000000000B20100084B10B5B5
:1000E000002B03D00749084800E000BF0748036819
:1000F000002B00D110BD064B002BFBD09847F9E731
:10010000000000008400002000B2010000B20100E5
:1001100000000000EFF3108372B602680160104621
:1001200083F310887047C04680B584B000AF0200EA
:10013000FB1D1A700F23FB18FA1D127852091A7052
:100140000F23FB181B78002B0CD1094BBB600F232E
:10015000FB181B789B0010229446BC446344083B68
:100160001B6800E000231800BD4604B080BDC046F7
:100170000018004080B584B000AF0200FB1D1A706B
:10018000FB1D1B7818000B4B98470300FB60FB1D01
:100190001B781F22134001229A401300BB60FB68AA
:1001A0001B69BA6813405A1E9341DBB21800BD4662
:1001B00004B080BD2901000080B584B000AF02000A
:1001C000FB1D1A70FB1D1B781800094B9847030094
:1001D000FB60FB1D1B781F22134001229A40130075
:1001E000BB60FB68BA681A61C046BD4604B080BDFA
:1001F0002901000080B582B000AF786008001100CE
:10020000FB1C021C1A70BB1C0A1C1A70BB1C1B783E
:10021000002B01D0172319E0FB1C1A780D4B92001C
:10022000D358002B07D1FB1C1A780A4B920079682F
:10023000D15000230AE0FB1C1A78064B9200D258DA
:100240007B689A4201D1002300E01D231800BD46BF
:1002500002B080BD7C1F002080B584B000AF0200DA
:10026000FB1D1A70BB1D0A1C1A70BB1D1B78002BCE
:100270000ED1FB1D1B781800084B98470300FB604C
:10028000FB1D1B7801229A40FB68DA60002300E026
:1002900017231800BD4604B080BDC04629010000E8
:1002A00080B500AF154B00221A7020E0134B1B786D
:1002B0001800134B9847031E13D0104B1B781800DF
:1002C000104B98470D4B1B781A000F4B9200D358D8
:1002D000002B06D0094B1B781A000B4B9200D35809
:1002E0009847064B1B780133DAB2044B1A70034B64
:1002F0001B780F2BDAD9C046BD4680BD781F002081
:1003000075010000B90100007C1F002080B582B09B
:1003100000AF78607B6800221A70C046BD4602B00C
:1003200080BDC04680B582B000AF02003960FB1DC1
:100330001A70FB1D1B78012B0AD0022B0FD0002B4B
:1003400014D10E4B0D4A91693A680A439A610FE045
:100350000A4B0A4AD1693A680A43DA6108E0074B56
:10036000064A116A3A680A431A6201E0172300E05C
:1003700000231800BD4602B080BDC0460004004006
:1003800080B582B000AF78607B6880221A707B688D
:1003900000225A707B6801229A707B680022DA7012
:1003A000C046BD4602B080BD80B582B000AF02003D
:1003B000FB1D1A70064BFA1D127811001F220A400D
:1003C000012191400A001A60C046BD4602B080BDBE
:1003D00000E100E080B584B000AF0200FB1D1A70A0
:1003E0000F23FB18FA1D127852091A700F23FB18FD
:1003F0001B78002B0CD1094BBB600F23FB181B781B
:100400009B0010229446BC446344083B1B6800E0F8
:1004100000231800BD4604B080BDC046001800404F
:1004200080B582B000AF0F4B3B6000237B6011E0D2
:100430007B689B0008229446BC446344083B1B68CD
:100440005B78DBB25BB2002B01DA012306E07B684C
:1004500001337B607B68002BEAD000231800BD4687
:1004600002B080BD0018004080B584B000AF2D4BB5
:100470007B60402100202C4B98473B0018002B4B01
:1004800098473B0000221A703B0019000520284BBA
:1004900098470520274B98470023FB6018E0FB682E
:1004A0009B0010229446BC4463440C3B1A68FB68D2
:1004B0009B0010218C46BC4463440C3B1B681B789A
:1004C000DBB201210B43DBB21370FB680133FB602D
:1004D000FB68002BE3D0C046174B9847031EFBD1A7
:1004E0000B23FB1800221A700DE00B23FB181A785F
:1004F000124B92000021D1500B23FB181A780B23CA
:10050000FB1801321A700B23FB181B780F2BECD948
:1005100004200B4B98470B4B9847C046BD4604B090
:1005200080BDC04600180040250300000D030000F8
:10053000B53D0000F93D0000210400007C1F0020B3
:10054000A90300004905000080B582B000AF154B3B
:100550003B6000237B6018E07B689B000822944688
:10056000BC446344083B1A687B689B0008218C46A6
:10057000BC446344083B1B681B78DBB202210B437D
:10058000DBB213707B6801337B607B68002BE3D0A8
:10059000C046054B9847031EFBD1C046BD4602B07E
:1005A00080BDC046001800402104000080B582B024
:1005B00000AF78607B6800221A607B6800225A6076
:1005C0007B6801221A727B6801225A727B680022C2
:1005D0009A727B680222DA72C046BD4602B080BDC4
:1005E00080B586B000AF02003960FB1D1A70082389
:1005F000FB181800364B98473B685B68DAB2082353
:10060000FB181A700823FB1800225A703B681A7AEC
:100610000823FB189A703B681B68DBB20822BA18E3
:10062000110018002B4B9847FB1D1B7818002A4B14
:10063000984703003B61FB1D1B78072213409B007A
:10064000FB603B68DB7A7B613B689B7A002B03D0C5
:100650007B69082213437B61FB1D1B78DB08DBB23F
:100660001800FB1D1B78DB08DBB21A003B69063261
:100670009200D3580F21FA6891400A00D2431A40E1
:100680007969FB6899400B001A4311003B69821D90
:100690009200D1503B685B7A002B0AD03B695A69C3
:1006A000FB1D1B78012199400B001A433B695A61DD
:1006B0000AE03B695B69FA1D1278012191400A004A
:1006C000D2431A403B695A61C046BD4606B080BD60
:1006D00081030000A1400000D503000080B500AFF9
:1006E000FEE7C04680B582B000AF0200FB1D1A7065
:1006F000064BFA1D127811001F220A400121914079
:100700000A001A60C046BD4602B080BD00E100E0AC
:1007100080B584B000AF78607B681B68FB60FB68C5
:10072000DB7BDBB21A00802313405A1E9341DBB2FD
:100730001800BD4604B080BD80B582B000AF7860BF
:100740007B6800221A707B6800229A707B68002206
:100750009A807B6800229A717B6800221A817B68EC
:1007600000225A707B6800229A727B680022DA723B
:100770007B6800221A737B6800229A737B680022D0
:100780005A737B6800221A747B6800225A617B6866
:1007900000229A617B6800221A777B6800221A6225
:1007A0007B6800225A627B6800221A857B680022DF
:1007B0005A857B6800229A85C046BD4602B080BD3E
:1007C00080B584B000AF78607B681B68FB60C04672
:1007D0007B681800074B9847031EF9D1FB681B88FC
:1007E0009BB2022213439AB2FB681A80C046BD46F0
:1007F00004B080BD1107000080B584B000AF786000
:100800007B681B68FB60C0467B681800054B9847F7
:10081000031EF9D1FB6880225A71C046BD4604B060
:1008200080BDC0461107000080B584B000AF78607D
:100830007B681B68FB60C0467B6818000A4B9847C2
:10084000031EF9D1FB6800221A71C0467B681800AC
:10085000054B9847031EF9D1FB6840225A71C046E8
:10086000BD4604B080BDC0461107000080B582B00F
:1008700000AF7860044A7B68D3181B785BB218001D
:10088000BD4602B080BDC0460800002080B582B0E1
:1008900000AF78600A00FB1C1A707B681B681800A8
:1008A000224B984703001800214B9847030018007B
:1008B000204B9847FB1C1B78022B0BD17B685B7E7F
:1008C00010221343DAB27B685A767B681B681022C9
:1008D0005A7326E0FB1C1B78032B0BD17B685B7ED5
:1008E00020221343DAB27B685A767B681B68202289
:1008F0005A7316E07B685B7E5AB2FB1C1B780121A1
:1009000099400B005BB213435BB2DAB27B685A7654
:100910007B681B68FA1C1278012191400A00D2B250
:100920005A73C046BD4602B080BDC046351A0000AD
:100930006D080000E506000080B500AF014B18000F
:10094000BD4680BDD81F002080B500AF024B984740
:10095000C046BD4680BDC04669B8000080B58EB0B7
:1009600000AF3B1D1800104B98473B1D01225A73E6
:100970003B1D01229A733A1D0C490D4B18000D4B7B
:1009800098470B4B18000C4B98470C49084B022218
:1009900018000B4B9847064B02211800094B98474B
:1009A000C046BD460EB080BD39070000003400428D
:1009B000BC1F0020811A0000C10700004909000087
:1009C000E11700008D08000080B500AF034B984789
:1009D000034B984700231800BD4680BD5D09000009
:1009E0003917000080B500AF00231800BD4680BD58
:1009F00090B585B000AF386079601F4B5C681B68AC
:100A00007A68A24205DB7A68A24230D13A689A42FB
:100A10002DD2194A3B687C6813605460174B18004C
:100A2000174B98470120174B98470A0001003B6875
:100A30007C685B1A9441BB60FC60FB68002B05DCA2
:100A4000FB68002B0FD1BB68002B0CD0BB68DA0011
:100A50000A4B110018000C4B9847084B18000B4B21
:100A60009847002304E00A4B9847030000E0002366
:100A70001800BD4605B090BD00000020BC1F00203E
:100A8000F9070000C50A0000DD1E0000290800006B
:100A900069B8000080B500AF00231800BD4680BDD6
:100AA00080B500AF00231800BD4680BD80B500AF03
:100AB00000231800BD4680BD80B500AF002318009C
:100AC000BD4680BD90B585B000AF0200FB1D1A7019
:100AD0000C4B984703000C00BB60FC60FB1D1B78AF
:100AE000002B07D1084B19685A68BB68FC685B1873
:100AF000544101E0BB68FC6818002100BD4605B008
:100B000090BDC046B9170000A000002080B500AF1E
:100B100000231800BD4680BD80B584B000AF020040
:100B2000FB1D1A700F23FB18FA1D1278D2091A70D8
:100B30000E23FB18FA1D127852091A700D4BBB6078
:100B40000F23FB181B78002B0FD10F23FB181B78EA
:100B50009B0010229446BC446344083B1A680E2351
:100B6000FB181B78DB01D31800E000231800BD46FA
:100B700004B080BD0044004180B582B000AF0200E7
:100B8000FB1D1A70FB1D1B781800034B98470300D0
:100B90001800BD4602B080BD190B000080B582B0C0
:100BA00000AF78607B6800221A707B6801225A705F
:100BB0007B6800229A70C046BD4602B080BDC04628
:100BC00080B584B000AF0200FB1D1A70BB1D0A1C6B
:100BD0001A70FB1D1B7818000D4B98470300FB6033
:100BE000FB1D1B781F22134001229A401300BB609B
:100BF000BB1D1B78002B03D0FB68BA689A6102E02A
:100C0000FB68BA685A61C046BD4604B080BDC046A4
:100C1000790B000080B584B000AF78600C23FB181E
:100C200018002C4B98477B681B78012118002A4B31
:100C300098477B685B7801211800274B98477B68B1
:100C40009B7801211800244B98470C23FB180222A3
:100C50001A700C23FB1800225A707B681B780C2238
:100C6000BA18110018001D4B98477B685B780C225E
:100C7000BA1811001800194B98477B689B780C2212
:100C8000BA1811001800154B98470C23FB180022C6
:100C90001A700C23FB1801225A707B68DB780C2237
:100CA000BA18110018000D4B98477B681B790C226D
:100CB000BA1811001800094B98477B685B790C2221
:100CC000BA1811001800054B9847C046BD4604B03D
:100CD00080BDC0469D0B0000C10B00002D2300000D
:100CE00080B500AF0B4B98470B4B18000B4B984748
:100CF0000B4B1B689B68190053200A4B98470A4B03
:100D000018000A4B98470A4B984700231800BD4625
:100D100080BDC046F540000090A50100150C000004
:100D2000780000203510000098A50100999B010073
:100D3000CD20000080B582B000AF0200FB1D1A700C
:100D4000064BFA1D127811001F220A400121914022
:100D50000A001A60C046BD4602B080BD00E100E056
:100D600080B584B000AF78607B681B68FB60FB686F
:100D7000DB695A1E9341DBB21800BD4604B080BD4A
:100D800080B582B000AF7860C0467B681800044B25
:100D90009847031EF9D1C046BD4602B080BDC0468B
:100DA000610D000080B582B000AF78607B68802262
:100DB000D2051A607B6800225A607B68FF221A8184
:100DC0007B6800229A727B680022DA727B68962226
:100DD00092011A627B682422012199547B682522A2
:100DE000012199547B682622002199547B6827228F
:100DF000002199547B6800229A627B688822520302
:100E0000DA607B682C22002199547B682D22002116
:100E100099547B6800221A637B6800225A637B68BE
:100E200000229A637B680022DA637B6800225A61A1
:100E30007B6800221A827B680022DA767B680022B7
:100E40001A767B6800221A777B6800225A767B68C4
:100E500013229A767B6800225A77C046BD4602B0BC
:100E600080BDC04680B584B000AF78607B681B68E9
:100E7000FB607B681B681800094B9847030018004B
:100E8000084B98477B681800074B9847FB681B681E
:100E900002221A43FB681A60C046BD4604B080BDFA
:100EA000052A0000350D0000810D000080B584B0DA
:100EB00000AFF860B9607A607A68B968FB681800BA
:100EC000054B9847031E01D1012300E000231800C1
:100ED000BD4604B080BDC046BD2E000080B582B0C6
:100EE00000AF78600A00FB1C1A70C046FB1C1B7820
:100EF0009AB27B6811001800044B9847031EF5D185
:100F000000231800BD4602B080BDC046313100004C
:100F100080B584B000AF786039600E23FB180022E2
:100F20001A80C0460E23FA187B6811001800074B80
:100F30009847031EF6D10E23FB181B88DAB23B68D4
:100F40001A70C046BD4604B080BDC0469531000051
:100F500080B584B000AFF860B9607A60104BFA6871
:100F60001A60104B104A1A60104B114A1A607A68C6
:100F7000B968FB6818000F4B98470F4B1B689B68BC
:100F8000002118000D4B98470B4B1B685B68002134
:100F900018000A4B9847C046BD4604B080BDC04605
:100FA0004420002048200020DD0E000040200020CA
:100FB000110F0000AD0E000078000020AD9B010075
:100FC00080B590B000AF3B001800134B98473B0032
:100FD000962292011A623B0080225203DA603B00A3
:100FE0000E4A1A633B000E4A5A633B0001225242EA
:100FF0009A633B0001225242DA633A0009490A4BE4
:1010000018000A4B9847084B1800094B9847C046F0
:10101000BD4610B080BDC046A50D00000200160000
:101020000200170000140042DC1F0020510F0000D6
:10103000650E000080B582B000AF786039600A4B61
:101040001B78002B04D1094B9847074B01221A70DB
:101050007B689AB2064B11001800064B98477B68D4
:101060001800BD4602B080BDA8000020C10F0000DE
:10107000DC1F00203131000080B582B000AF0023BA
:101080007B6007E0074A7B68D31800221A707B68F0
:1010900001337B607B68032BF4D9C046BD4602B0A8
:1010A00080BDC046AC00002080B582B000AF786043
:1010B0000C4A7B68D3181B78012B04D17B6818007D
:1010C000094B98470AE07B681800084B9847031EB5
:1010D00004D1044A7B68D31801221A70C046BD4669
:1010E00002B080BDAC000020B914000099140000CB
:1010F00080B582B000AF78600A4A7B68D3181B784D
:10110000012B0AD17B681800074B9847031E04D1B6
:10111000044A7B68D31800221A70C046BD4602B04C
:1011200080BDC046AC000020D914000080B584B05A
:1011300000AF0200FB1D1A700F23FB18FA1D127876
:10114000D2091A700E23FB18FA1D127852091A7070
:101150000D4BBB600F23FB181B78002B0FD10F2307
:10116000FB181B789B0010229446BC446344083B48
:101170001A680E23FB181B78DB01D31800E000234C
:101180001800BD4604B080BD0044004180B582B067
:1011900000AF0200FB1D1A70FB1D1B781800034BEB
:1011A000984703001800BD4602B080BD2D11000015
:1011B00080B584B000AF0200FB1D1A70FB1D1B78C8
:1011C00018000B4B98470300FB60FB1D1B781F2288
:1011D000134001229A401300BB60FB681B6ABA6887
:1011E00013405A1E9341DBB21800BD4604B080BDC7
:1011F0008D11000080B582B000AF0200FB1D1A7097
:10120000064BFA1D127811001F220A40012191405D
:101210000A001A60C046BD4602B080BD00E100E091
:1012200080B582B000AF0200FB1D1A70074AFB1D9B
:101230001B7819001F230B40012199400B00190056
:101240008023D150C046BD4602B080BD00E100E021
:1012500080B584B000AF0200FB1D1A70FB1D1B7827
:10126000214AD35C1800214B98470300BB60BB6840
:10127000012B0FD1FB1D1B781D4AD35C012B04D120
:101280000F23FB1800221A7013E00F23FB18012212
:101290001A700EE0FB1D1B78154AD35C012B04D19C
:1012A0000F23FB1801221A7003E00F23FB18002202
:1012B0001A700F23FB181B78012B09D1FB1D1B781B
:1012C0000C4AD35C18000C4B98470C4B984706E02F
:1012D000FB1D1B78074AD35C1800094B9847C04692
:1012E000BD4604B080BDC046ACA50100B1110000F0
:1012F000B8A50100B4A50100A910000009B80000BC
:10130000F110000090B585B000AF0200FB1D1A700F
:101310000F23FC18094B984703002370FB1D1B7813
:101320001800074B98470F23FB181B781800054B34
:101330009847C046BD4605B090BDC046C1420000BA
:1013400051120000E542000080B500AF0420024BBE
:101350009847C046BD4680BDF511000080B500AF7E
:101360000420024B9847C046BD4680BD21120000B4
:1013700080B586B000AF78600C23FB1818001E4BB8
:1013800098471E4A7B68D3181B781A000C23FB1859
:101390001A601B4A7B68D3181B781A000C23FB18B1
:1013A0005A600C23FB1801221A720C23FB1803222B
:1013B000DA72144A7B68D3181B780C22BA18110011
:1013C0001800114B9847114B7A689200D0580D4A7B
:1013D0007B68D3181B78002219000D4B9847094AE7
:1013E0007B68D3181B78002118000A4B9847C04629
:1013F000BD4606B080BDC046AD050000ACA50100ED
:10140000A8A50100B0A50100E1050000BCA50100F0
:10141000F50100005902000080B500AF084B984765
:101420000020084B98470120064B98470220054BA7
:1014300098470320034B9847C046BD4680BDC04631
:10144000791000007113000080B500AF0020024B3E
:101450009847C046BD4680BD0513000080B500AF6B
:101460000120024B9847C046BD4680BD05130000D1
:1014700080B500AF0220024B9847C046BD4680BDF4
:101480000513000080B500AF0320024B9847C0460B
:10149000BD4680BD0513000080B582B000AF786006
:1014A0007B6819000120034B984703001800BD46D4
:1014B00002B080BDD9B7000080B582B000AF7860BF
:1014C0007B6819000120034B984703001800BD46B4
:1014D00002B080BDF9B7000080B582B000AF78607F
:1014E0007B6819000120034B984703001800BD4694
:1014F00002B080BDE9B7000080B500AF024B98474D
:10150000C046BD4680BDC0461914000080B500AF7E
:10151000024B9847C046BD4680BDC0465D130000E3
:1015200080B500AF024B9847C046BD4680BDC0465F
:101530004913000080B582B000AF0200FB1D1A7095
:10154000064BFA1D127811001F220A40012191401A
:101550000A001A60C046BD4602B080BD00E100E04E
:1015600080B584B000AF78607B681B68FB60FB6867
:10157000DB7BDBB21A00802313405A1E9341DBB29F
:101580001800BD4604B080BD80B582B000AF786061
:101590007B6800221A707B6800229A707B680022A8
:1015A0009A807B6800229A717B6800221A817B688E
:1015B00000225A707B6800229A727B680022DA72DD
:1015C0007B6800221A737B6800229A737B68002272
:1015D0005A737B6800221A747B6800225A617B6808
:1015E00000229A617B6800221A777B6800221A62C7
:1015F0007B6800225A627B6800221A857B68002281
:101600005A857B6800229A85C046BD4602B080BDDF
:1016100080B584B000AF78607B681B68FB60C04613
:101620007B681800074B9847031EF9D1FB681B889D
:101630009BB2022213439AB2FB681A80C046BD4691
:1016400004B080BD6115000080B582B000AF786045
:10165000044A7B68D3181B785BB21800BD4602B001
:1016600080BDC0461000002080B582B000AF786019
:101670000A00FB1C1A707B681B681800224B9847F5
:1016800003001800214B984703001800204B98478F
:10169000FB1C1B78022B0BD17B685B7E1022134353
:1016A000DAB27B685A767B681B6810225A7326E090
:1016B000FB1C1B78032B0BD17B685B7E2022134322
:1016C000DAB27B685A767B681B6820225A7316E070
:1016D0007B685B7E5AB2FB1C1B78012199400B0092
:1016E0005BB213435BB2DAB27B685A767B681B68E5
:1016F000FA1C1278012191400A00D2B25A73C046F6
:10170000BD4602B080BDC046351A00004916000033
:101710003515000090B500AF064B5C681B680121D1
:1017200000225B185441034A13605460C046BD4612
:1017300090BDC046B000002090B58FB000AF144AF5
:1017400000230024136054603B1D1800114B984780
:101750003B1D114A5A853B1D20229A713A1D0F49A3
:101760000F4B18000F4B98470D4B18000E4B984726
:101770000E490B4B022218000D4B9847084B0221D3
:1017800018000C4B9847C046BD460FB090BDC046F0
:10179000B0000020891500001F030000002C00424B
:1017A00010200020811A00001116000015170000FB
:1017B000E117000069160000B0B500AF064B1868CD
:1017C0005968064C0A220023A04703000C001800A9
:1017D0002100BD46B0BDC046B00000204D6B0100E9
:1017E00080B584B000AFF860B960FB1D1A70FB1DB6
:1017F0001A78FB6802329200B968D150FB1D1B7841
:10180000022B07D1FB681B7E10221343DAB2FB6860
:101810001A7619E0FB1D1B78032B07D1FB681B7E92
:1018200020221343DAB2FB681A760DE0FB681B7EB8
:101830005AB2FB1D1B78012199400B005BB2134388
:101840005BB2DAB2FB681A7600231800BD4604B01A
:1018500080BDC04680B500AF0020024B9847C0460F
:10186000BD4680BDB918000080B500AF0120024B15
:101870009847C046BD4680BDB918000080B500AF8E
:101880000220024B9847C046BD4680BDB9180000F3
:1018900080B500AF0320024B9847C046BD4680BDCF
:1018A000B918000080B500AF0420024B9847C0462D
:1018B000BD4680BDB918000080B584B000AF0200FD
:1018C000FB1D1A70FB1D1A78284B9200D358FB6041
:1018D000FB681B689B7BDBB2FA68127E1340DAB2AE
:1018E000FB68597E0B23FB180A401A700B23FB1868
:1018F0001B780122134008D0FB689B68FA6810002F
:101900009847FB681B6801229A730B23FB181B780E
:101910000222134008D0FB68DB68FA681000984781
:10192000FB681B6802229A730B23FB181B7810229A
:10193000134008D0FB681B69FA6810009847FB68E1
:101940001B6810229A730B23FB181B78202213406C
:1019500008D0FB685B69FA6810009847FB681B6851
:1019600020229A73C046BD4604B080BD2C200020C2
:1019700080B582B000AF78607B6800221A70C046E4
:10198000BD4602B080BDC04680B582B000AF020047
:101990003960FB1D1A70FB1D1B78012B0AD0022B2E
:1019A0000FD0002B14D10E4B0D4A91693A680A43AF
:1019B0009A610FE00A4B0A4AD1693A680A43DA6130
:1019C00008E0074B064A116A3A680A431A6201E0C6
:1019D000172300E000231800BD4602B080BDC046BA
:1019E0000004004080B582B000AF78607B68802240
:1019F0001A707B6800225A707B6801229A707B689B
:101A00000022DA70C046BD4602B080BD80B584B009
:101A100000AF78607B681B68FB60FB68DB7BDBB238
:101A20001A00802313405A1E9341DBB21800BD46B2
:101A300004B080BD90B589B000AF78600823FB1872
:101A40000E4A13CA13C303CA03C30023FB610DE08C
:101A50000823FB18FA699200D2587B689A4202D197
:101A6000FB69DBB206E0FB690133FB61FB69042B18
:101A7000EED900231800BD4609B090BDCCA50100E9
:101A800090B58DB000AFF860B9607A602E23FB1876
:101A900000221A802D23FB1800221A702C23FB1819
:101AA00000221A702923FC18BB681800BF4B984706
:101AB000030023702423FA18BD4B100019000523DE
:101AC0001A00BC4B98471823FA18BB4B100019009A
:101AD0000A231A00B74B98472B23FB1800221A70D1
:101AE0000EE02B23FB181A78FB68023292000021CB
:101AF000D1502B23FB181A782B23FB1801321A70B4
:101B00002B23FB181B78032BEBD9FB6800221A76DA
:101B1000FB6800225A762923FB181A78A74B9200FB
:101B2000F968D150FB68BA681A607B689B78082B0B
:101B300008D12923FB181B7803330122134001D05D
:101B40001723C4E17B689A78FB681A71BB681B880D
:101B50009BB21A000123134001D00523B7E1BB68F3
:101B6000DB7BDBB21A001023134001D01C23AEE153
:101B7000BB681B889BB21A000223134001D01C23B0
:101B8000A5E17B681B7C002B17D01423FB181800E1
:101B90008B4B98477B689B69DAB21423FB181A7049
:101BA0001423FB1801225A707B685B69DBB2142294
:101BB000BA1811001800834B98477B681B7F002BD5
:101BC00017D01423FB1818007D4B98477B685B6A7D
:101BD000DAB21423FB181A701423FB1801225A706E
:101BE0007B681B6ADBB21422BA1811001800754B0F
:101BF00098472923FB181A781823FB185200D35A48
:101C000019000220704B98477B689B78082B0BD1FA
:101C10002923FB181B785A1C1823FB185200D35A8F
:101C200019000220684B98471023FB181800674BD7
:101C300098477B681A781023FB181A702923FB1821
:101C40001B782422BA18D35C1022BA18110018008D
:101C50005F4B98472923FB181B782422BA18D35CC2
:101C600018005C4B98477B689A787B689B79134394
:101C7000DBB29AB27B681B89134399B27B689A885E
:101C80002E23FB180A431A807B685B78002B08D050
:101C90002E23FB182E22BA181288802109010A432C
:101CA0001A80C046FB6818004B4B9847031EF9D1B9
:101CB000BB682E22BA1812881A807B685B7B002BC7
:101CC00003D02D23FB1804221A707B689B7B002B0A
:101CD00007D02D23FB182D22BA18127801210A43B0
:101CE0001A70C046FB6818003B4B9847031EF9D199
:101CF000BB68FF221A712D23FB181B78002B0BD019
:101D0000C046FB681800344B9847031EF9D1BB68E6
:101D10002D22BA1812785A712C23FB187A68927AFD
:101D20001A702A23FB1800221A701CE02A23FB18C1
:101D30001B787A68D318DB7A002B0DD02A23FB1886
:101D40001B7810229A401300D9B22C23FB182C22A6
:101D5000BA1812780A431A702A23FB181A782A2311
:101D6000FB1801321A702A23FB181B78012BDDD9CE
:101D7000C046FB681800184B9847031EF9D1BB6892
:101D80002C22BA1812789A71C046FB681800124BC0
:101D90009847031EF9D1FB681B79042B1ED0082B32
:101DA00000D170E0002B4BD090E0C046351A000007
:101DB000E0A50100899A0100E8A501002C2000207F
:101DC000E5190000A1400000891900007119000008
:101DD000B53D0000F93D00000D1A0000C046FB684B
:101DE00018003D4B9847031EF9D17B6828229A5C66
:101DF000BB681A74C046FB681800374B9847031E2F
:101E0000F9D17B6829229A5CBB681A75C046FB68C9
:101E10001800314B9847031EF9D17B682A229A5C3F
:101E2000BB681A76C046FB6818002B4B9847031E08
:101E3000F9D17B682B229A5CBB685A76002346E076
:101E4000C046FB681800244B9847031EF9D17B68F5
:101E50001A8DBB681A82C046FB6818001E4B984753
:101E6000031EF9D17B685A8DBB681A83C046FB6894
:101E70001800194B9847031EF9D17B689A8DBB68EF
:101E80005A83002323E0C046FB681800124B984792
:101E9000031EF9D17B689A6ABB681A61C046FB6869
:101EA00018000D4B9847031EF9D17B68DA6ABB68AE
:101EB0009A61C046FB681800074B9847031EF9D18A
:101EC0007B681A6BBB68DA61002300E017231800F7
:101ED000BD460DB090BDC0460D1A000080B584B05F
:101EE00000AF786039607B681B68FB60C0467B6828
:101EF0001800114B9847031EF9D17B681B79042BFE
:101F000004D0082B0ED0002B06D010E03B68DAB2CC
:101F1000FB681A7500230BE03B689AB2FB681A83D2
:101F2000002305E0FB683A689A61002300E017236C
:101F30001800BD4604B080BD0D1A000080B586B003
:101F400000AFF860B9607A6000237B61FB68002B0A
:101F500012D001235B4213E00B4B1A680B4B1B683A
:101F6000B96818009047BB680133BB607B690133D7
:101F70007B617B68013B7B607B68002BECDC7B69D1
:101F80001800BD4606B080BD40200020442000203F
:101F900080B586B000AFF860B9607A6000237B61DD
:101FA000FB68012B1DD0FB68022B1AD0FB68032BAA
:101FB00017D001235B4218E00E4B1A680E4B1868CD
:101FC000BB68591CB9601B7819009047031E02DAE0
:101FD00001235B4209E07B6901337B617B68013B44
:101FE0007B607B68002BE7D17B691800BD4606B09B
:101FF00080BDC046482000204420002080B500AFAE
:10200000014B1800BD4680BD4C20002080B584B037
:1020100000AFF860B9607A607B689B685A1E7B6885
:102020009A607B689B68002B0ADA7B689A687B68F9
:102030009B699A420EDBBB68FF2213400A2B09D032
:102040007B681B68591C7A681160BA68D2B21A7032
:102050001B7806E07A68B968FB681800034B98475C
:1020600003001800BD4604B080BDC046319D01008C
:1020700080B582B000AF78607B68074A934205D98B
:102080007B68064A934201D8002300E00123180030
:10209000BD4602B080BDC046FFFFFF1FFE7F00208F
:1020A00080B582B000AF7860064B1868054B1B689E
:1020B0009A687B681900044B9847C046BD4602B039
:1020C00080BDC046780000200D20000080B584B09F
:1020D00000AF104B98470300FB60FB68002B14D047
:1020E000FB680022002118000B4B98470300BB60DF
:1020F000BB68002B05DBFB681800084B9847030002
:102100007B60FB681800064B9847C046BD4604B08C
:1021100080BDC046C9D10000D9D10000E5D1000082
:10212000EDD1000080B582B000AF104B1B68002BD2
:1021300012D1EFF310837B607B68002B09D172B65C
:10214000BFF35F8F0A4B00221A700A4B01221A70EC
:1021500002E0084B00221A70044B1B685A1C034B08
:102160001A60C046BD4602B080BDC046B80000201F
:1021700015000020BC00002080B500AF0B4B1B6891
:102180005A1E0A4B1A60094B1B68002B0AD1084BD8
:102190001B78DBB2002B05D0064B01221A70BFF36F
:1021A0005F8F62B6C046BD4680BDC046B800002005
:1021B000BC0000201500002080B584B000AF0200F4
:1021C000FB1D1A700F23FB18FA1D1278D2091A7022
:1021D0000E23FB18FA1D127852091A700D4BBB60C2
:1021E0000F23FB181B78002B0FD10F23FB181B7834
:1021F0009B0010229446BC446344083B1A680E239B
:10220000FB181B78DB01D31800E000231800BD4643
:1022100004B080BD0044004180B582B000AF020030
:10222000FB1D1A70FB1D1B781800034B9847030019
:102230001800BD4602B080BDB921000080B582B053
:1022400000AF78607B6800221A707B6801225A70A8
:102250007B6800229A70C046BD4602B080BDC04671
:1022600080B584B000AF0200FB1D1A70BB1D0A1CB4
:102270001A70FB1D1B7818000D4B98470300FB607C
:10228000FB1D1B781F22134001229A401300BB60E4
:10229000BB1D1B78002B03D0FB68BA689A6102E073
:1022A000FB68BA685A61C046BD4604B080BDC046EE
:1022B0001922000080B582B000AF3B1D18000E4B04
:1022C00098473B1D01221A703B1D19003E200B4B05
:1022D000984701213E200A4B98473B1D00221A7067
:1022E0003B1D01225A703B1D19000F20034B9847DC
:1022F000C046BD4602B080BD3D2200002D23000037
:102300006122000080B582B000AF78607B688022D7
:102310001A707B6800225A707B6801229A707B6871
:102320000022DA70C046BD4602B080BD80B584B0E0
:1023300000AF02003960FB1D1A700C23FB18180057
:10234000104B98470C23FB1880221A703B681A78B0
:102350000C23FB185A703B685A780C23FB189A70B0
:102360003B689A780C23FB18DA700C23FA18FB1DD3
:102370001B7811001800044B9847C046BD4604B0B6
:1023800080BDC04605230000A140000080B582B09A
:1023900000AF78607B6800221A70C046BD4602B06C
:1023A00080BDC046F0B58DB000AFB860F9603A604E
:1023B0007B60002300243B627C6200230024BB611D
:1023C000FC613F23FB6253E0FB6A203B002B04DBF4
:1023D00001229A4013007B610BE0FB6A2022D31A92
:1023E0000122DA4013000021FA6A91400A001343E7
:1023F0007B610122FB6A9A4013003B61BB69FC6967
:10240000DB186441BB61FC61BB683A691A40150086
:10241000FB687A691A4016002B00334307D0BB696A
:1024200001221343BB61FB6900221343FB617A68FD
:10243000FB699A4219D87A68FB699A4203D13A68D3
:10244000BB699A4211D8B969FA693B687C68C91AB4
:10245000A2410B001400BB61FC613A6A3B69134363
:102460003B627A6A7B6913437B62FB6A013BFB62D6
:10247000FB6A002BA8DA3B6A7C6A18002100BD4683
:102480000DB0F0BD80B586B000AFF860B9607A607D
:102490001623FB1800221A80BB683B61BB685A08F0
:1024A000FB689A4201D2402326E0BB685B083B618F
:1024B0000AE03A69FB68D31A3B611623FB181A88B5
:1024C0001623FB1801321A803A69FB689A42F0D24F
:1024D0001623FB181622BA181288013A1A801623FE
:1024E000FB181B88FF2B01D9402305E07B681622CF
:1024F000BA1812881A8000231800BD4606B080BDA5
:10250000F0B59DB000AFF863B9637A633322BA18AF
:10251000137000230024BB65FC65002300243B6589
:102520007C6500230024BB66FC6600233B665823C1
:1025300030229446BC4463441A78FB6B5A43BB6B0D
:102540009A4201D94023C6E03323FB181B78002BA5
:102550003DD1582330229446BC4463441B78DBB2FF
:102560003B6100237B61FB6BBB600023FB605C4C29
:10257000BA68FB6838697969A04703000C001B0042
:10258000FB640023BB64BB6B3B6000237B60B86CC7
:10259000F96C3A687B68534CA04703000C00BB659C
:1025A000FC6500210122BB6DFC6DC91AA2410B0024
:1025B00014003B657C653B6D1B0C7A6D16041E4355
:1025C0003B6D1D043300BB660023FB667DE03323B7
:1025D000FB181B78012B00D077E03723302294467C
:1025E000BC44634400221A704EE0BB6BBB62002304
:1025F000FB62B86AF96A03005B0F0A00D20013435A
:10260000FB640300DB00BB64FB6B3B6200237B626B
:10261000582330229446BC4463441B78DBB2BB6130
:102620000023FB612E4CBA69FB69386A796AA047BE
:1026300003000C003B647C643B6C7C6CB86CF96CF4
:102640001A002300274CA04703000C003B663723E9
:1026500030229446BC4463441B783A6ED31A3B66DE
:102660003B6EDB083B663B6E1F4A934215D937230E
:1026700030229446BC4463441A78372330218C4678
:10268000BC44634401321A70372330229446BC4460
:1026900063441B78072BA8D900E0C04637233022BB
:1026A0009446BC4463441B78082B01D1402312E0BC
:1026B000372330229446BC4463441B785B031A00E2
:1026C0003B6E1343BB660023FB66BB6EFC6E9AB287
:1026D0007B6B1A8000231800BD461DB0F0BDC046BC
:1026E000956B0100A5230000FF1F000080B584B09A
:1026F00000AF0200FB1D1A70BB1D0A1C1A701A4B9A
:102700001B7801225340DBB2002B03D1BB1D1B7889
:10271000002B1BD00C23FB181800144B98470C23DC
:10272000FB18FA1D12781A700C23FB1819001320DD
:102730000F4B984713200F4B98470B4BFA1D1278FD
:102740005A70094B01221A70002308E0064B5B788F
:10275000FA1D12789A4201D1002300E01D231800CF
:10276000BD4604B080BDC046C00000208D230000DF
:10277000B53D0000F93D000080B582B000AF786043
:102780000A00FB1C1A707B684D4A93423FD04C4AAA
:10279000934206D84B4A93420FD04B4A934221D0E2
:1027A00089E04A4A934200D15BE0494A934200D112
:1027B0006CE0484A93423FD07DE0FB1C1B78012B24
:1027C0000AD002DC002B05D075E0022B06D0032BCB
:1027D00006D070E0404B6FE0404B6DE0404B6BE04B
:1027E000404B69E0FB1C1B78012B0AD002DC002B5C
:1027F00005D060E0022B06D0032B06D05BE003235C
:102800005AE0394B58E0394B56E0394B54E0FB1C49
:102810001B78012B0AD002DC002B05D04BE0022BE9
:1028200006D0032B06D046E0324B45E0324B43E066
:10283000324B41E0324B3FE0FB1C1B78012B0AD0AE
:1028400002DC002B05D036E0022B06D0032B06D08D
:1028500031E02C4B30E02C4B2EE02C4B2CE02C4B61
:102860002AE0FB1C1B78012B0AD002DC002B05D0D0
:1028700021E0022B06D0032B06D01CE0254B1BE0E9
:10288000254B19E0254B17E0254B15E0FB1C1B7869
:10289000012B0AD002DC002B05D00CE0022B06D065
:1028A000032B06D007E01F4B06E01F4B04E01F4B35
:1028B00002E01F4B00E000231800BD4602B080BDBF
:1028C0000010004200080042000C004200180042C4
:1028D000001C004200140042030004000300050035
:1028E00003000600030007000300010003001E00B0
:1028F00003001F00030008000300090003000A0092
:1029000003000B000300100003001100030012007D
:102910000300130003000C0003000D0003000E0071
:1029200003000F0003001600030017000300180047
:102930000300190090B58BB000AF78600C23FB1832
:102940000F4A13CA13C313CA13C300237B620EE0DA
:102950000C23FB187A6A9200D3581A1E7B689A429D
:1029600002D17B6ADBB206E07B6A01337B627B6A61
:10297000052BEDD900231800BD460BB090BDC04615
:10298000F4A5010080B582B000AF0200FB1D1A70F3
:10299000C046BD4602B080BD80B584B000AF020025
:1029A0003960FB1D1A70134B1B7801225340DBB2B8
:1029B000002B15D00023FB600CE00F4BFA6892004F
:1029C0000E49D1500E4BFA6892000021D150FB689D
:1029D0000133FB60FB68052BEFD9064B01221A700F
:1029E000FB1D1A78044B92003968D150C046BD4691
:1029F00004B080BDC2000020C40000208529000072
:102A00005020002090B585B000AF78600823FA18F8
:102A10000C4B1000190006231A000B4B98470F238C
:102A2000FC187B681800094B9847030023700F239C
:102A3000FB181B780822BA18D35C5BB21800BD469D
:102A400005B090BD0CA60100899A0100352900004F
:102A500080B500AF034B1B6800209847C046BD46B9
:102A600080BDC046C400002080B500AF034B5B684A
:102A700001209847C046BD4680BDC046C400002026
:102A800080B500AF034B9B6802209847C046BD4607
:102A900080BDC046C400002080B500AF034BDB689A
:102AA00003209847C046BD4680BDC046C4000020F4
:102AB00080B500AF034B1B6904209847C046BD4654
:102AC00080BDC046C400002080B500AF034B5B69E9
:102AD00005209847C046BD4680BDC046C4000020C2
:102AE00080B582B000AF78607B6800221A70C04663
:102AF000BD4602B080BDC04680B582B000AF0200C6
:102B00003960FB1D1A70FB1D1B78012B0AD0022BAC
:102B10000FD0002B14D10E4B0D4A91693A680A432D
:102B20009A610FE00A4B0A4AD1693A680A43DA61AE
:102B300008E0074B064A116A3A680A431A6201E044
:102B4000172300E000231800BD4602B080BDC04638
:102B50000004004080B582B000AF78607B688022BE
:102B60001A707B6800225A707B6801229A707B6819
:102B70000022DA70C046BD4602B080BD80B500AF0D
:102B8000054B9B78DBB21A00022313405A1E934177
:102B9000DBB21800BD4680BD0020004180B584B086
:102BA00000AF78607B681B68FB60FB68DB695A1EBE
:102BB0009341DBB21800BD4604B080BD80B582B041
:102BC00000AF7860C0467B681800044B9847031E2E
:102BD000F9D1C046BD4602B080BDC0469D2B000065
:102BE000B0B58CB002AF786039607B681B68BB61A0
:102BF0007B681B681800AB4B984703007B617B69BF
:102C000014333B6100237B6200233B620A23FB18E1
:102C100000221A801F23FB1800221A701E23FB18A3
:102C200010221A703B681B8A8022D20193421CD06A
:102C30008022D201934206DC002B0DD0802292012B
:102C4000934224D035E0C022D201934228D0802282
:102C50001202934212D02CE01F23FB1800221A709C
:102C60001E23FB1810221A7023E01F23FB180022DA
:102C70001A701E23FB1808221A701AE01F23FB1873
:102C800000221A701E23FB1803221A7011E01F2362
:102C9000FB1801221A701E23FB1810221A7008E07C
:102CA0001F23FB1801221A701E23FB1808221A701A
:102CB000C0463B681A683B68DB681A433B685B693F
:102CC00013433A68128A13433A68127E120213437E
:102CD0003A682621525C520713437B621D23FB187E
:102CE00000221A703B685B68FB60FB68002B1ED0FB
:102CF0008022520593424FD13B6827229B5C0122E0
:102D00005340DBB2002B46D03B681D6A3B69DBB207
:102D10001800654B984701001D23FC180A23FB1877
:102D20001A002800614B98470300237033E03B688A
:102D300027229B5C002B14D03B68186A3B68996A79
:102D40001D23FC181F23FB181D780A23FA181E23C5
:102D5000FB181B7800932B00554DA84703002370E8
:102D60001AE03B681D6A3B69DBB218004E4B98477E
:102D70001D23FC181F23FB1819780A23FA181E2399
:102D8000FB181B7800930B0001002800484DA84752
:102D90000300237000E0C0461D23FB181B78002BA6
:102DA00003D01D23FB181B7877E03B685B7E002B6C
:102DB00003D03B689A7EBB699A737B6818003D4BD1
:102DC00098470A23FB181A88BB699A817A6AFB68BC
:102DD00013437B623B6827229B5C01225340DBB29A
:102DE000002B03D07B6A042213437B623B685B7E2B
:102DF0009A023B681B7F5B021A433B685B7F1B02A6
:102E00001A433B6824215B5C5B041A433B68252121
:102E10005B5C1B0413433B623B689B7A1A003B6A72
:102E200013433B623B68DB7A1A003B6A13433B6205
:102E30003B681B89FF2B0BD07B6A80225204134313
:102E40007B623B681B891A003B6A13433B6208E0C4
:102E50003B68DB7E002B04D07B6A8022D2041343C4
:102E60007B623B682C229B5C002B03D1124B984762
:102E7000031E03D07B6A802213437B627B681800A9
:102E80000C4B9847BB693A6A5A607B681800094B3B
:102E90009847BB697A6A1A6000231800BD460AB0D9
:102EA000B0BDC04635290000D93E00008524000091
:102EB00001250000BD2B00007D2B000090B593B0D4
:102EC00000AFF860B9607A603B23FB1800221A70EB
:102ED000FB68BA681A60FB681B687B63FB681B6849
:102EE0001800864B984703003B633B6B0233FB6241
:102EF0003B6B1433BB627B6B1B680122134001D018
:102F00000523F6E07B6B1B680222134001D01C23D3
:102F1000EFE00122FB6A9A40130019000220784B6F
:102F200098472423FB181800764B98477B682D227E
:102F30009A5C2423FB181A70BB6ADBB22422BA18ED
:102F400011001800704B9847BB6ADBB218006F4B3A
:102F500098477B682D229B5C002118006C4B98479A
:102F60007B68DA7AFB685A717B6824229A5CFB687A
:102F70009A717B6825229A5CFB68DA717B68DA7E3D
:102F8000FB681A727B681A7FFB685A723B23FC1835
:102F90007A68FB68110018005E4B984703002370A5
:102FA0003B23FB181B78002B03D03B23FB181B781B
:102FB0009FE02023FB181800574B98472023FB184D
:102FC00000225A702023FB1800229A707B681A6B2B
:102FD0001023FB181A607B685A6B1023FB185A6089
:102FE0007B689A6B1023FB189A607B68DA6B10235E
:102FF000FB18DA604723FB1800221A702CE04723E5
:10300000FB181A781023FB189200D3583B643B6CD2
:10301000002B09D14723FB181A78BB681100180050
:103020003E4B984703003B643B6C01330DD03B6C37
:10303000DAB22023FB181A703B6C1B0CDBB2202287
:10304000BA1811001800364B98474723FB181A7816
:103050004723FB1801321A704723FB181B78032BF8
:10306000CDD90023FB630AE0FA68FB6B02339B00B7
:10307000D318043300221A60FB6B0133FB63FB6B34
:10308000052BF1D9FB6800229A62FB6800225A6284
:10309000FB680022DA85FB6800229A85FB683022F3
:1030A00000219954FB68312200219954FB68322297
:1030B00000219954FB68332200219954FB681B6856
:1030C0002722BC1818000D4B984703002370154A9F
:1030D0002723FB181B7811001800134B9847272350
:1030E000FB181A78114B9200F968D1503B23FB185A
:1030F0001B781800BD4613B090BDC04635290000AE
:10310000F92A0000E12A0000B53D0000F93D000069
:10311000ED260000E12B0000552B00007927000070
:10312000A1400000C5320000992900005020002075
:1031300080B584B000AF78600A00BB1C1A807B6841
:103140001B68FB607B68DB7901225340DBB2002BFC
:1031500001D01C2317E07B68DB8D9BB2002B01D0D4
:10316000052310E07B681800094B9847FB68BA1CE0
:1031700012881A85C046FB681B7EDBB21A00022348
:103180001340F8D000231800BD4604B080BDC046EF
:10319000BD2B000080B584B000AF786039607B68DB
:1031A0001B68FB607B689B7901225340DBB2002BDC
:1031B00001D01C235EE07B689B8D9BB2002B01D06D
:1031C000052357E0FB681B7EDBB21A000423134083
:1031D00001D105234EE07B681800284B9847FB6817
:1031E0005B8B9BB2DAB20B23FB183F210A401A70AB
:1031F0000B23FB181B78002B36D00B23FB181B78F6
:103200000222134004D0FB6802225A831A2331E0C1
:103210000B23FB181B780422134004D0FB68042204
:103220005A831E2326E00B23FB181B780122134030
:1032300004D0FB6801225A8313231BE00B23FB18E5
:103240001B781022134004D0FB6810225A834223BB
:1032500010E00B23FB181B782022134004D0FB68DE
:1032600020225A83412305E0FB681B8D9AB23B68FC
:103270001A8000231800BD4604B080BDBD2B00009D
:1032800080B584B000AF78607B681B68FB60FB682A
:10329000DB695A1E9341DBB21800BD4604B080BD05
:1032A00080B582B000AF7860C0467B681800044BE0
:1032B0009847031EF9D1C046BD4602B080BDC04646
:1032C0008132000080B588B000AF0200FB1D1A708B
:1032D000FB1D1A78A34B9200D358BB61BB691B68D6
:1032E0007B61BB691800A04B98477B691B7EDAB2F3
:1032F0001223FB181A807B699B7DDBB29AB21223E2
:10330000FB181221791809880A401A80BB693022FB
:103310009B5CBA693121525C1340DAB21023FB186E
:103320001A801223FB181B880122134044D0BB696A
:10333000DB8D9BB2002B3CD0BB699B6A1B78DAB259
:103340001C23FB181A80BB699B6A5A1CBB699A62D2
:10335000BB695B79012B13D1BB699B6A1B78DBB21C
:103360001B021AB21C23FB1800215B5E13431AB226
:103370001C23FB181A80BB699B6A5A1CBB699A62A2
:103380001C23FB181B88DB05DB0D9AB27B691A85B1
:10339000BB69DB8D9BB2013B9BB2BA69191CD1851D
:1033A000002B09D17B6901221A757B6902229A756B
:1033B00002E07B6901221A751223FB181B88022286
:1033C000134011D07B6902221A75BB693322002198
:1033D00099541023FB181B880122134004D0BB69A9
:1033E000DB68BA69100098471223FB181B88042277
:1033F000134000D1BDE0BB699B8D9BB2002B00D177
:10340000B4E07B695B8B9BB2DAB21F23FB183F21D0
:103410000A401A701F23FB181B780822134007D09C
:103420001F23FB181F22BA18127808218A431A702A
:103430001F23FB181B78002B50D01F23FB181B7871
:103440000222134007D0BB6932221A2199547B69AA
:1034500002225A8336E01F23FB181B7804221340F4
:1034600007D0BB6932221E2199547B6904225A83FA
:1034700028E01F23FB181B780122134007D0BB69EB
:103480003222132199547B6901225A831AE01F23A7
:10349000FB181B781022134007D0BB69322242214F
:1034A00099547B6910225A830CE01F23FB181B7868
:1034B0002022134006D0BB693222412199547B69F6
:1034C00020225A831023FB181B880422134050D05B
:1034D000BB695B69BA69100098474AE07B691B8D3C
:1034E0009AB20E23FB18D205D20D1A80BB695B6A13
:1034F0000E22BA181288D2B21A70BB695B6A5A1CC3
:10350000BB695A62BB695B79012B0DD1BB695B6AF0
:103510000E22BA181288120A92B2D2B21A70BB697D
:103520005B6A5A1CBB695A62BB699B8D9BB2013BAB
:103530009BB2BA69191C9185002B1AD17B690422B0
:103540001A75BB693222002199541023FB181B887D
:10355000022213400DD0BB691B69BA69100098475D
:1035600007E0C04650200020A13200007B69042201
:103570001A751223FB181B881022134010D07B6988
:1035800010221A757B6910221A761023FB181B88EB
:103590001022134004D0BB69DB69BA691000984758
:1035A0001223FB181B882022134010D07B69202295
:1035B0001A757B6920221A761023FB181B880822B3
:1035C000134004D0BB699B69BA6910009847122365
:1035D000FB181B880822134010D07B6908221A753B
:1035E0007B6908221A761023FB181B8820221340BF
:1035F00004D0BB691B6ABA6910009847C046BD4633
:1036000008B080BD80B582B000AF78607B680122D1
:103610005A607B6800225A707B6806221A707B68A9
:1036200000221A727B6800225A72C046BD4602B060
:1036300080BDC04680B582B000AF78607B68032251
:103640001A707B6800225A707B6801229A70C0460B
:10365000BD4602B080BDC04680B582B000AF02005A
:10366000FB1D1A70034AFB1D1B781372C046BD4632
:1036700002B080BD0004004080B582B000AF0200FF
:10368000FB1D1A70BB1D0A1C1A70FB1D1B78012B39
:1036900008D0022B0BD0002B0ED10B4ABB1D1B7880
:1036A00053720BE0084ABB1D1B78937206E0064A72
:1036B000BB1D1B78D37201E0172300E00023180024
:1036C000BD4602B080BDC0460004004080B582B057
:1036D00000AF0200FB1D1A70084AFB1D1B780F216A
:1036E0000B40D9B253680F20014049001E2083438C
:1036F0000B435360C046BD4602B080BD0040004150
:1037000080B500AFC046044BDB6810221340FAD0EE
:10371000C046BD4680BDC0460008004080B500AF31
:103720000C4B02229A840C4B98470A4A0B4B9B681D
:10373000D362084A094B5B689362064B00229A8465
:10374000054B9847034A054B1B689BB29384C046C0
:10375000BD4680BD0008004001370000DC000020AD
:1037600080B582B000AF0200FB1D1A70FB1D1B78F4
:10377000082B40D89A00224BD3181B689F46214B38
:103780001B6939E0204B1B6A9B059B0FDBB21A00BB
:103790001E4BD34030E080231B022DE080231B0210
:1037A0002AE0184B5B6927E0164B1B680222134086
:1037B00001D1002320E0164B9847124B1B680422CE
:1037C000134009D00020134B984702000D4B9B6813
:1037D0001B041B0C53430FE00F4B0DE00A4A502310
:1037E000D35CDBB21A000423134001D1002303E0B1
:1037F000044BDB6800E000231800BD4602B080BD2A
:1038000014A60100DC0000200008004000127A002D
:1038100001370000D93E0000006CDC0280B584B0A6
:1038200000AF78601A4B1B6AFB607B681B781A1C20
:1038300003231340DAB20D23FB1803210A401000C2
:103840001A7803218A43111C021C0A431A707B68F0
:103850009A780C23FB18D0011A787F210A40111C9A
:10386000021C0A431A707B685A780C23FB1801214A
:103870000A4090011A7840218A43111C021C0A4315
:103880001A70034BFA681A62C046BD4604B080BD88
:103890000008004080B582B000AF0200FB1D1A7026
:1038A000FB1D1B78082B3BD89A00214BD3181B68B3
:1038B0009F46204B1F4A126A02210A431A620023C4
:1038C00031E01C4B1B4A926902210A439A6129E0AC
:1038D000184A184B1B8A9BB202210B439BB21382DE
:1038E00020E0144A134B9B8A9BB202210B439BB2EC
:1038F000938217E0104B1B6802221A430E4B1A608A
:103900000E4B98470EE00B4A0A494423CB5CDBB2CE
:1039100002210B43D9B24423D15403E0002302E037
:10392000172300E000231800BD4602B080BDC0464A
:1039300038A6010000080040DC0000201D37000010
:1039400080B582B000AF3B0001221A7000237B607B
:1039500009E07B68DBB23A0011001800054B98477C
:103960007B6801337B607B68242BF2D9C046BD465F
:1039700002B080BDB53D000080B5A0B000AF364BB1
:10398000C222D2009A600020344B9847344B9847AB
:103990007C23FB181800334B98477C23FB1800222C
:1039A0001A707C23FB1801229A707C23FB180022DA
:1039B0005A707C23FB1818002B4B984706202B4B82
:1039C00098472B4B98474C23FB181800294B9847D6
:1039D0004C23FB1806221A704C23FB1810225A6045
:1039E0004C23FB1800221A724C23FB1800225A7237
:1039F0004C23FB18190003201F4B984703201F4B33
:103A0000984700201E4B9847002100201D4B9847E7
:103A1000002101201B4B984700210220194B984799
:103A20003B1D1800134B98473B1D06221A703B1D87
:103A300001225A603B1D00221A723B1D00225A725D
:103A40003B1D190000200C4B984700200B4B98475A
:103A5000C046BD4620B080BD00080040CD36000005
:103A600041390000353600001D380000953800004F
:103A70002D3B0000053600005D3B0000813C00004E
:103A8000593600007936000080B582B000AF0200E0
:103A90003960FB1D1A70FB1D1B78012B0AD0022B0D
:103AA0000FD0002B14D10E4B0D4A91693A680A438E
:103AB0009A610FE00A4B0A4AD1693A680A43DA610F
:103AC00008E0074B064A116A3A680A431A6201E0A5
:103AD000172300E000231800BD4602B080BDC04699
:103AE0000004004080B500AF024B9847C046BD4679
:103AF00080BDC0462521000080B500AF024B98472D
:103B0000C046BD4680BDC0467921000080B500AFEB
:103B1000054B5B78DBB25BB2002B01DA012300E0DE
:103B200000231800BD4680BD000C004080B500AFEA
:103B300008210020074B9847074B01221A70C04606
:103B4000054B1B78DBB21A0001231340F8D1C046A5
:103B5000BD4680BD893A0000000C004080B586B0AB
:103B600000AF02003960FB1D1A70FB1D1B787B61E2
:103B7000FB1D1B783B613B681B781B021A007B69AD
:103B800013437B613B685B78002B04D07B69802208
:103B9000D20213437B613B685B7A002B04D07B69C4
:103BA0008022120313437B613B685B68012B2CD995
:103BB0003B685A683B685B68013B13401AD100239D
:103BC000FB600223BB6005E0FB680133FB60BB6860
:103BD0005B00BB603B685A68BB689A42F4D8FB68DC
:103BE0001B023A6913433B617B69802252031343F2
:103BF0007B610AE03B685B681B023A6913433B61E7
:103C00007B698022920213437B613B681B7A002B05
:103C100004D07B698022920313437B61C046134B1F
:103C20009847031EFBD1124B9847124AFB1D1B7885
:103C30001370C0460D4B9847031EFBD10E4B3A69DB
:103C40009A60C046094B9847031EFBD10A4B0A4AAB
:103C500051688022520211407A690A435A60074B28
:103C60009847C046BD4606B080BDC0460D3B00002B
:103C7000E53A0000080C0040000C0040F93A000052
:103C800080B582B000AF0200FB1D1A70C0460E4B1B
:103C90009847031EFBD10D4B98470D4AFB1D1B781F
:103CA0001370C046084B9847031EFBD1094B094AC5
:103CB0005268802149020A435A60074B9847C04620
:103CC000BD4602B080BDC0460D3B0000E53A000095
:103CD000040C0040000C0040F93A000080B586B0AA
:103CE00000AF0200FB1D1A70C0462A4B9847031E06
:103CF000FBD1294B9847294AFB1D1B781370C046FE
:103D0000244B9847031EFBD1254B5B68DB04DB0E7D
:103D1000DBB21800234B984703007B611F4AFB1D51
:103D20001B7813701E4B5B68DB02DB0FDAB21323C8
:103D3000FB181A701C4AFB1D1B781370C046154BEC
:103D40009847031EFBD1164B9B681B021B0C9BB2B2
:103D5000FB60164B98471323FB181B78002B09D1E7
:103D6000FB68012B06D9124BF96878699847030064
:103D70007B610AE01323FB181B78002B05D0FB683E
:103D800001337A69DA4013007B617B691800BD4614
:103D900006B080BD0D3B0000E53A0000040C004079
:103DA000000C004061370000080C0040F93A0000A8
:103DB0007167010080B584B000AF02003960FB1D5F
:103DC0001A70FB1D1B78FB603B681B781B021A00F6
:103DD000FB681343FB60FB1D1B781800044B9847DE
:103DE000044BFA6892B25A80C046BD4604B080BD0A
:103DF000413E0000000C004080B582B000AF0200E0
:103E0000FB1D1A700A4B98470A4AFB1D1B7813705A
:103E10000949094B5B889BB28022D20113439BB2B4
:103E20004B80064B9847C046BD4602B080BDC04699
:103E3000E53A0000020C0040000C0040F93A000096
:103E400080B584B000AF0200FB1D1A701C4B984770
:103E50001C4AFB1D1B7813701B4B5B881B051B0F3B
:103E6000DBB2FB60184A538818490B405380164A4E
:103E7000154B5B889BB216490B409BB25380C046E2
:103E8000114B5B889BB21A008023DB011340F7D1F2
:103E90000D4AFB68DBB2191C0F230B40D9B25388C3
:103EA000081C0F210140080208490B40191C031C83
:103EB0000B435380074B9847C046BD4604B080BDB6
:103EC000E53A0000020C0040000C0040FFF0FFFF4C
:103ED000FFBFFFFFF93A000080B584B000AF0200D9
:103EE000FB1D1A700D4B98470D4AFB1D1B78137074
:103EF0000C4B5B881B051B0FDAB20F23FB181A70E3
:103F0000094B98470F23FB181B781800074B98475D
:103F100003001800BD4604B080BDC046E53A00006D
:103F2000020C0040000C0040F93A0000DD3C0000AB
:103F300080B584B000AF0200FB1D1A700F23FB1880
:103F4000FA1D1278D2091A700E23FB18FA1D127886
:103F500052091A700D4BBB600F23FB181B78002B06
:103F60000FD10F23FB181B789B0010229446BC44F2
:103F70006344083B1A680E23FB181B78DB01D31837
:103F800000E000231800BD4604B080BD004400419D
:103F900080B588B000AFF860B9607A600023FB613B
:103FA0007B68DB7801225340DBB2002B35D07B6885
:103FB0001B78802B0BD0FB69802252021343FB61DC
:103FC0007B681B781B061A00FB691343FB617B6847
:103FD0005B78002B03D07B685B78022B10D1FB69E8
:103FE000802292021343FB617B689B78002B04D0F4
:103FF000FB698022D2021343FB61FB68BA685A60F6
:104000007B685B78012B03D07B685B78022B07D140
:10401000FB69224A1340FB6102E0FB68BA685A6000
:10402000BB681B041B0CBB61BB681B0C7B61BA69C2
:10403000FB691343A022D2051A43FB689A627A698E
:10404000FB691343D02212061A43FB689A627B680D
:10405000DB7801225340DBB2002B1AD0FA698023AF
:10406000DB0213400AD07B689B78012B03D1FB68ED
:10407000BA689A6102E0FB68BA685A617B685B784B
:10408000012B03D07B685B78022B02D1FB68BA68F6
:104090009A60C046BD4608B080BDC046FFFFFBFF2A
:1040A00080B584B000AF02003960FB1D1A70FB1DA3
:1040B0001B7818000A4B98470300FB60FB1D1B7818
:1040C0001F22134001229A401300BB603A68B9686E
:1040D000FB681800034B9847C046BD4604B080BD3E
:1040E000313F0000913F000080B500AFC046BD46A3
:1040F00080BDC04680B500AF064B9847064B984739
:10410000064B9847064B9847064B9847C046BD4616
:1041100080BDC04679390000B5220000E9400000AA
:1041200069040000E940000080B582B000AF2F4B69
:104130007B602F4B3B607A683B689A420CD007E06B
:104140003B681A1D3A607A68111D796012681A601E
:104150003A68284B9A42F3D3274B3B6004E03B6814
:104160001A1D3A6000221A603A68244B9A42F6D32C
:10417000234B7B60234B7A68FF218A439A60224A53
:1041800090235B000221D150204AD37803218B4336
:10419000191C02230B43D3701C4AD3780C218B4388
:1041A000191C08230B43D370194A937B30218B438E
:1041B000191C20230B439373154A937B0C218B43CB
:1041C000191C08230B439373114A937B03218B43E0
:1041D000191C02230B4393730E4A536880210B432F
:1041E00053600D4B98470D4B9847FEE700B2010016
:1041F000000000207C00002080000020042100201E
:104200000000000000ED00E000700041005000419F
:1042100000480041004000413D9A0100E10C0000CF
:1042200080B500AFFEE7C04680B584B000AF7860CF
:104230000A4B1B68002B02D1084B094A1A60074B36
:104240001B68FB60054B1A687B68D218034B1A6029
:10425000FB681800BD4604B080BDC046F4000020D5
:104260002042002080B582B000AF786001235B421D
:104270001800BD4602B080BD80B582B000AF786046
:1042800039603B68802292015A6000231800BD46C5
:1042900002B080BD80B582B000AF78600123180005
:1042A000BD4602B080BDC04680B584B000AFF860A6
:1042B000B9607A6000231800BD4604B080BDC046D6
:1042C00080B500AF064B1B78DBB2012B01D1002378
:1042D00003E0034B01221A7001231800BD4680BD84
:1042E000F800002080B582B000AF0200FB1D1A70FC
:1042F000FB1D1B78012B02D1034B00221A70C04614
:10430000BD4602B080BDC046F8000020000000009D
:10431000B6070081E85A000020020700B4550000EB
:1043200000000000785200001C0010000000000097
:10433000B7070081F85A0000200308006C52000003
:10434000000000003451000064001C000000000068
:10435000B8070381085B000000023600AC52000081
:1043600018510000245100000C000800000000005B
:10437000BB070081285B000028010B0030510000C2
:10438000000000003451000004000000BCA2000046
:10439000B7070381385B0000200235006C51000034
:1043A000000000005C5200002C0010000000000023
:1043B000B3070281585B00000002230098510000FF
:1043C00078510000885100000C000000000000003F
:1043D000B0070381785B000028015800A05100005D
:1043E00000000000CC56000004000000BCA2000049
:1043F000BE070081C85B000000034600E4510000D6
:10440000D8510000F0510000080004000000000036
:10441000BD070381D85B000030013A00D856000088
:10442000FC510000845800000C000000A87E000031
:10443000B3070281E85B0000300550008857000098
:10444000DC580000F458000018001000C4A200005E
:10445000B1070381F85B0000300159000C520000E5
:1044600000000000CC56000004000000BCA20000C8
:10447000BD070081685C000030020C00D4540000CD
:10448000000000005C52000014000800309400009E
:10449000BA070081785C0000300205006C52000011
:1044A000000000007852000024001800D87D0000B1
:1044B000B7070181885C0000300117008C520000B2
:1044C000000000003059000004000000BCA2000001
:1044D000BE070281A85C000028015700BC52000002
:1044E00000000000CC56000004000000BCA2000048
:1044F000B2070381B85C000000025A00D8520000E5
:10450000C8520000E0520000080000000000000057
:10451000BC070281C85C000030015600F052000068
:10452000E8520000CC56000004000000BCA20000CD
:10453000BB070181D85C000030024D0074550000BB
:10454000F4520000A453000004000000BCA20000CC
:10455000BA070181E85C000020024B00E85500002A
:10456000085300001C530000080004000000000075
:10457000B1070181F85C0000000348005C530000B3
:1045800050530000685300000C00040000000000BD
:10459000B8070181085D0000300118009053000049
:1045A000000000003059000004000000BCA2000020
:1045B000BB070281185D000028015500A0530000D0
:1045C00000000000A453000004000000BCA2000092
:1045D000B5070281285D00003002520090540000AF
:1045E000B8530000C85300000C000400BC9A00003F
:1045F000BF070081385D000030014700DC53000038
:1046000000000000205500000400000008850000A4
:10461000B4070081485D000030013D00E053000018
:10462000000000008458000004000000BCA200004C
:10463000B3070181585D0000200211004C570000B3
:10464000E4530000EC5300002400140000000000BC
:10465000B4070181685D000030011200F8530000CA
:10466000000000003059000004000000BCA200005F
:10467000B9070181885D000030051C004C55000021
:10468000DC580000F458000018001000C4A200001C
:10469000B8070081F85D000030034100905500002C
:1046A000DC580000F458000018001000C4A20000FC
:1046B000B7070081485E0000300140002054000030
:1046C000185400002454000004000000BCA20000A4
:1046D000BA070381585E000001003800E85000006E
:1046E000B7070181685E000020024A005C540000A8
:1046F000485400006454000010000C00000000004A
:10470000B3070081885E0000300162009854000009
:1047100000000000CC56000004000000BCA2000015
:10472000BF070081A85E000030020E00B8540000F0
:10473000A8540000C05400000C000400A493000022
:10474000BC070081B85E000030030D00D4540000A7
:1047500000000000E0540000140008003094000045
:10476000B5070081C85E000030030600F054000069
:1047700000000000FC54000024001800048B00001E
:10478000B6070181D85E000030041600985600007C
:10479000DC580000F458000018001000C4A200000B
:1047A000BB070081E85E0000300144001C5500009A
:1047B000105500002055000004000000BCA20000BD
:1047C000B5070081F85E000000023E003855000089
:1047D0002C550000405500000C00080000000000AF
:1047E000BF070281085F000030041B004C55000029
:1047F000DC580000F458000018001000C4A20000AB
:10480000B2070381385F000030032600D057000054
:10481000DC580000F458000018001000C4A200008A
:10482000B6070381485F0000300214009055000075
:10483000DC580000F458000018001000C4A200006A
:10484000B0070381585F000030031A00885600004B
:10485000DC580000F458000018001000C4A200004A
:10486000B2070281785F0000300219000859000089
:10487000DC580000F458000018001000C4A200002A
:10488000B9070381885F000001005C00604A0000F6
:10489000B5070181B85F0000200249009C55000067
:1048A00000000000A4550000080004000000000003
:1048B000BB070381D85F000020013900BC55000010
:1048C00000000000845800000C00040000000000FC
:1048D000BD070381E85F000028015F00CC550000A0
:1048E000C0550000CC56000004000000BCA200002F
:1048F000B2070081F85F000028016100D055000078
:1049000000000000CC56000004000000BCA2000023
:10491000BB0703810860000001005D00804D0000BE
:10492000B90701811860000020034C00E855000021
:10493000D4550000F45500001000080000000000ED
:10494000B4070081286000003002630018560000A0
:1049500008560000205600000C000400BC9A00001D
:10496000B30700813860000030013C002C56000085
:10497000000000008458000004000000BCA20000F9
:10498000BF0703814860000001003B007450000035
:10499000B2070081786100000100020006000000FB
:1049A000B90700812861000001000A000B00000027
:1049B000B3070081586100000100030009000000F6
:1049C000B10701818861000030030F0030560000FC
:1049D000000000003059000014000C00C4950000D5
:1049E000B8070081486100000100090004000000D0
:1049F000B407008168610000300204003C560000EA
:104A0000000000004456000008000400F89D00006B
:104A1000B1070081186100000100010007000000DB
:104A2000BA070181D860000030041D0088560000DC
:104A3000DC580000F458000018001000C4A2000068
:104A4000B5070381E86000003003150098560000A8
:104A5000DC580000F458000018001000C4A2000048
:104A6000BA070381F8600000300113000859000004
:104A7000DC580000F458000018001000C4A2000028
:104A8000BB0700810861000030016500C8560000C6
:104A900000000000CC56000008000400BCA200008A
:104AA000BC0700819861000030000000D85600006B
:104AB00000000000DC56000004000000BCA2000062
:104AC000B7070281A86100002801540000570000C8
:104AD000EC5600000457000004000000BCA20000D7
:104AE000BF070381B8610000100160001C5700007F
:104AF0000C570000205700001400040084A00000A0
:104B0000BC070181C861000020021E003057000070
:104B100028570000385700001C000C009CA0000023
:104B2000B7070381D8610000300110004C57000026
:104B300044570000545700001C000C009CA00000CB
:104B4000B6070081E861000030043F0068570000AC
:104B500060570000F458000018001000C4A20000C4
:104B6000BD070081F861000030044500785700005F
:104B7000DC580000F458000018001000C4A2000027
:104B8000BF0702810862000030044F008857000010
:104B9000DC580000F458000018001000C4A2000007
:104BA000B407028118620000300551009C570000D4
:104BB000DC580000F458000018001000C4A20000E7
:104BC000B40703812862000030045B00B057000086
:104BD000DC580000F458000018001000C4A20000C7
:104BE000B30703813862000030043200C057000070
:104BF000DC580000F458000018001000C4A20000A7
:104C0000B10703814862000030043100D057000032
:104C1000DC580000F458000018001000C4A2000086
:104C2000BE0702815862000030053000E0570000E6
:104C3000DC580000F458000018001000C4A2000066
:104C4000B007018168620000300429001458000098
:104C5000DC580000F458000018001000C4A2000046
:104C6000BD0702817862000030042F00F457000075
:104C7000DC580000F458000018001000C4A2000026
:104C8000BC0702818862000030042E000458000036
:104C9000DC580000F458000018001000C4A2000006
:104CA000BB0702819862000030052D0014580000F7
:104CB000DC580000F458000018001000C4A20000E6
:104CC000BA070281A862000030032C0028580000B7
:104CD000DC580000F458000018001000C4A20000C6
:104CE000B9070281B862000030042B00345800007C
:104CF000DC580000F458000018001000C4A20000A6
:104D0000B8070281C862000030052A00445800003C
:104D1000DC580000F458000018001000C4A2000085
:104D2000B7070281D86200003004280058580000FC
:104D3000DC580000F458000018001000C4A2000065
:104D4000BA070081E862000001004300080000008B
:104D5000B9070081F8620000010042000A0000006B
:104D6000B507008108630000010064000500000031
:104D7000B50703811863000001003400604D000096
:104D8000BC0703812863000001005E00E04A0000C8
:104D9000B40703813863000001003300204B00009A
:104DA000B90703814863000001003700A04A0000F2
:104DB000B007028158630000300222007C580000D6
:104DC000685800008458000004000000BCA20000E5
:104DD000BE0701816863000020022100AC5800007A
:104DE0009858000030590000140000000000000036
:104DF000B60702817863000030042700B458000031
:104E0000DC580000F458000018001000C4A2000094
:104E1000B00702818863000020044E00CC580000D7
:104E2000C4580000F45800001800100000000000F2
:104E3000B50702819863000030042500E4580000A3
:104E4000DC580000F458000018001000C4A2000054
:104E5000B4070281A8630000300424000859000050
:104E6000005900001859000018001000C4A20000EA
:104E7000B1070281B863000020021F00245900001E
:104E80000000000030590000180010000000000071
:104E9000BD070181C86300002003200024590000E1
:104EA0000000000030590000180010000000000051
:104EB000BE070381185B0000060000000000000030
:104EC000B6070381485B0000240300006C5100001A
:104ED00000000000B3070381685B0000340100009C
:104EE0009851000090510000B2070181885B0000DA
:104EF00004020000E4510000B4510000BD0702812B
:104F0000985B00000600000000000000BC07008164
:104F1000A85B00000600010000000000B40701814A
:104F2000B85B00000600010000000000BE0703811E
:104F3000085C00000600010000000000B8070181C5
:104F4000185C0000240100005C540000285200009E
:104F5000B7070081285C0000060002000000000086
:104F6000B2070081385C00000601010044520000D5
:104F7000B0070181485C000034010000B854000013
:104F80004C520000BE070081585C00003401000054
:104F90005852000000000000B3070181985C000037
:104FA00004010000AC520000A0520000B2070181D1
:104FB000785D000034020000305600000000000060
:104FC000BA070281985D00000600010000000000A1
:104FD000B9070281A85D0000060002000000000081
:104FE000B8070281B85D0000060003000000000061
:104FF000B8070081C85D0000060001000000000045
:10500000B1070081D85D000006000200000000002A
:10501000B8070381E85D0000060000000000000002
:10502000BE070181085E00000600010000000000CC
:10503000BF070181185E00000600000000000000AC
:10504000BD070181285E000006010300085400002E
:10505000B9070081385E0000060000000000000073
:10506000B6070081785E0000340100009054000013
:1050700080540000B1070081985E00000602020023
:105080009C540000BC070181185F0000340100003F
:105090007455000060550000BF070181285F0000C3
:1050A00034010000AC5800007C550000B1070281BB
:1050B000685F00003403000008590000DC5800005D
:1050C000B2070281985F000024010000245900000B
:1050D00000000000B6070181A85F00002401000065
:1050E0009C55000000000000BC070381C85F000061
:1050F00034010000B455000000000000BA07008130
:10510000386100002C010000305600000000000053
:10511000505000001C4F0000000001001051000022
:105120001451000040840000E86C0000FC6C00009A
:10513000A04A000088990000D8990000347A000045
:10514000F06E0000406F0000505000000050000062
:1051500050500000505000001C4F00005050000004
:105160001C4F0000B04E00006C750000A04A00000B
:10517000E850000090430000000002004851000089
:10518000000000004C510000147800002C78000052
:105190000000000050510000A04A0000D44E000062
:1051A000A04A00003050000020500000504F000086
:1051B0004050000000000100545100005851000010
:1051C000105000005C820000604F0000F07C000086
:1051D000505000001C4F0000000001005C51000016
:1051E00060510000A04A0000984F0000E84E000007
:1051F000408400003C7C0000747800000000000047
:10520000645100005050000000500000A04A00000F
:10521000FC4E0000A891000030500000205000001B
:10522000405000002050000000000300A451000086
:10523000A8510000AC510000B051000050500000D7
:105240001C4F000001000000105000000000010091
:10525000C0510000C8510000A04A00008899000019
:10526000D8990000347A000000830000A04A0000B2
:10527000E85000009044000088990000D899000090
:10528000347A000060830000E0830000A04A000040
:1052900050500000F04F0000047E0000504F00000E
:1052A00000000100D0510000D4510000A04A0000CD
:1052B000984F000010500000947E0000A04A0000AB
:1052C000FC4E0000E08000000000020004520000DC
:1052D0000000000008520000A04A0000D44E000068
:1052E000D87B0000F07B000000000000105200009E
:1052F000A04A000000000300185200001C520000E9
:10530000000000002052000000000300385400009C
:10531000245200000000000044540000889900005E
:10532000D8990000F87B00000C7C00002C7C000069
:105330003050000020500000504F0000405000004E
:1053400050500000F04F000078890000504F0000DE
:10535000000001003C52000040520000A04A000042
:10536000984F0000E84E0000408400003C7C0000A4
:10537000547C0000105000005C820000604F000070
:105380002482000074500000C07C0000D47C000027
:10539000A04A0000FC4E0000F48300000C4F000007
:1053A000A04A000088990000D8990000EC7D000018
:1053B00094980000BCA2000000000200905200007F
:1053C000945200009C520000047E0000D899000016
:1053D000307E0000505000001C4F0000A04A00002A
:1053E000A04A000000000000B4520000DC9600005B
:1053F000D8990000947E0000A04A000030500000C0
:10540000205000004050000001000000305000001B
:10541000305000004050000000000000C05200006A
:10542000A04A000088990000D8990000E0800000A0
:10543000505000002C4F0000305000002050000061
:10544000504F0000405000000000030030530000A7
:1054500034530000385300003C530000A04A0000C1
:105460003C4F000088990000D89900004C81000052
:1054700050500000F04F000078890000504F0000AD
:105480000000020040530000445300004C53000051
:10549000A04A000060500000A04A00000200000086
:1054A000604F000010500000000002007453000024
:1054B0007C53000084530000A04A0000704F00009D
:1054C00088990000D89900000C8200002482000016
:1054D0005C820000A04A0000E85000007044000018
:1054E00088990000D8990000EC8200000083000039
:1054F000A04A0000E8500000904400008899000095
:10550000D89900000883000060830000E083000059
:1055100000000100945300009C530000A04A0000CA
:1055200088990000D8990000F48300000000010071
:10553000D4530000D8530000A04A0000984F000048
:1055400040840000EC84000000850000A04A0000B8
:10555000604A00006048000040480000E04700004A
:1055600000000300FC530000005400000000000095
:1055700004540000A04A0000845000000000030012
:10558000105400000000000000000000145400004F
:10559000A04A0000604A000020480000A04A000025
:1055A000D450000088990000D89900002488000099
:1055B00060880000A04A0000E8500000A04A0000F7
:1055C000000001003054000034540000A04A0000E4
:1055D000A04A000000000300385400003C540000C2
:1055E0004054000044540000A04A000084500000D1
:1055F0005045000088990000D8990000D888000024
:10560000148900005089000000000200705400005E
:10561000745400007C540000A04A00006050000058
:1056200078890000D899000098890000A04A0000FD
:10563000A04A0000FC500000AC4F0000A04A00004F
:10564000D450000088990000D8990000CC9E00003A
:10565000EC9D000050500000C04F0000D04F0000F3
:10566000E04F000050500000F04F00005096000046
:1056700000500000105000007C9600001050000008
:105680009CA5000050500000A04A0000604A0000A5
:105690006048000040480000A04A0000604A000046
:1056A00020480000404A0000305000002050000018
:1056B00040500000305000004050000050500000AA
:1056C0005050000050500000A04A0000889900008F
:1056D000D8990000A8910000A04A00008899000015
:1056E000D8990000D8950000D8950000000003006C
:1056F00054560000585600005C56000060560000EA
:10570000A04A0000F0950000D899000000000200B7
:10571000645600006856000070560000A04A000061
:1057200050960000589600000000000074560000DB
:10573000A04A0000204B0000DC960000D899000031
:105740007C960000000000007C560000A04A00008B
:10575000204B0000DC960000D89900009CA50000BA
:105760000000000084560000A04A0000604A0000CB
:1057700060480000AC500000A04A0000604A0000F1
:1057800020480000404A0000A04A0000604A000093
:1057900020480000404A0000804B0000A04A000062
:1057A000604A000020480000404A0000804B000092
:1057B000A04A0000604A000020480000404A000063
:1057C000A04A0000604A000020480000404A000053
:1057D000A04A0000604A0000204800000048000085
:1057E000A04A0000604A00006048000040480000F5
:1057F000E0470000A04A0000604A00002048000086
:1058000000480000A04A0000604A00002048000054
:10581000404A0000A04A0000604A00002048000002
:10582000404A0000404C0000A04A0000604A0000CE
:1058300020480000A04A0000604A00002048000004
:10584000404A0000A04A0000604A000020480000D2
:10585000404A0000404C0000A04A0000604A00009E
:1058600020480000404A000000000300A856000045
:10587000AC56000000000000B0560000A04A000036
:105880008450000088990000D89900008898000092
:1058900094980000BCA2000000000300B456000071
:1058A0000000000000000000B8560000A04A000000
:1058B00098500000A04A0000604A00002048000004
:1058C0000048000000000000BC560000A04A000094
:1058D000604A000060480000AC500000000000007A
:1058E000C0560000A04A0000604A00006048000066
:1058F00040480000F4980000D8990000BC980000CF
:1059000000000000C4560000A04A0000604A0000E9
:1059100060480000AC500000F4980000D8990000E6
:1059200054990000A04A0000C0500000704E0000D2
:1059300088990000D8990000909D0000A882A3E0FB
:10594000590100009A7CB9090000000066000000BF
:1059500029B6000004000000885A000047B6000085
:1059600004000000B85A000080B5000004000000E8
:10597000285A000078B500000400000068590000B3
:105980009CB5000007000000D4590000EAB50000F3
:1059900009000000345A00000DB2000008000000A9
:1059A000645A0000DBB5000008000000285A00001F
:1059B000A5AF000005000000285A000029B600002D
:1059C00004000000645A00007FB1000005000000E0
:1059D000705A000006B6000007000000A45900003D
:1059E000DCAF000007000000C45A00003AB6000017
:1059F00003000000000000006FB100000300000081
:105A0000B85A000064B5000002000000D45900003C
:105A1000D8B5000003000000D45900006FB10000A9
:105A200003000000885A000036B6000004000000A1
:105A3000EC59000001B6000005000000885A000083
:105A400064B5000002000000645A00003AB500008E
:105A500007000000285A000034B6000002000000D1
:105A6000285A00004BB600000400000000000000AF
:105A70000DB600000200000000000000CCB10000E4
:105A8000040000000000000006B60000070000004F
:105A9000705A000029B6000004000000B85A000047
:105AA00006B60000070000004C5A000064B5000074
:105AB00002000000B85A00002DB6000007000000E8
:105AC000585A000047B6000004000000645A000065
:105AD00016B4000003000000C45A000010B5000016
