:1000000088200020F1070000ED070000ED07000048
:1000100000000000000000000000000000000000E0
:10002000000000000000000000000000ED070000DC
:100030000000000000000000ED070000ED070000D8
:10004000ED070000ED070000ED070000ED070000E0
:1000500009020000ED070000ED070000ED070000B9
:10006000ED070000ED070000ED070000ED070000C0
:10007000ED070000ED070000ED070000ED070000B0
:10008000ED070000ED070000ED070000ED070000A0
:10009000ED070000ED070000ED070000ED07000090
:1000A000ED070000ED070000ED070000ED07000080
:1000B0000000000010B5064C2378002B07D1054B3B
:1000C000002B02D0044800E000BF0123237010BDC4
:1000D00004000020000000001C0A0000084B10B5BE
:1000E000002B03D00749084800E000BF0748036819
:1000F000002B00D110BD064B002BFBD09847F9E731
:1001000000000000080000201C0A00001C0A00007B
:10011000000000000C4B1B68002B10D1EFF3108384
:10012000002B09D172B6BFF35F8F0022074B1A7004
:100130000132074B1A7002E00022054B1A70024A86
:100140001368013313607047200000200000002076
:1001500024000020084B1A68013A1A601B68002B23
:1001600009D1064B1B78002B05D00122044B1A70D5
:10017000BFF35F8F62B6704720000020240000208C
:1001800000000020F0B583B001AC012565700027A8
:10019000A770257021003E20064EB0478022D20570
:1001A000054B9A612770657021000F20B04703B09E
:1001B000F0BDC0467D030000804400411723002AA3
:1001C0000DD18B00074A9B58002B03D18900885022
:1001D000002304E0834201D01D2300E00023180027
:1001E0007047C046440000201723002907D1002291
:1001F0001F2800D8034A01238340D360002318003E
:100200007047C0460018004070B50022154B1A70A8
:1002100000231F25144E134C1F2B19D90FE000216A
:1002200000E012490A619B009B59002B00D09847BF
:1002300023780133DBB223700F2BEDD911E02900B5
:10024000194001228A40002109691142E7D1EFE7F4
:100250002900194001228A40044909691142E0D16C
:10026000E6E770BD40000020440000200018004078
:10027000044A117802230B43137053785BB2002BAE
:10028000FBDB70470018004000B583B0124A91694B
:1002900040230B43936101A900230B7005200F4BF2
:1002A000984705200E4B98470E4A117801230B43BF
:1002B000137053785BB2002BFBDB0B4B1900403102
:1002C000002204C39942FCD11022084B1A60084B4B
:1002D000984703B000BDC04600040040C9060000B6
:1002E0003D060000001800404400002000E100E04E
:1002F0007102000000230360436001220272427217
:1003000083720233C3727047F0B583B005000C00EE
:1003100001A900234B70CB7023790B70237A8B706B
:100320002078144B984700201F2D00D81248072131
:1003300029408900E27AA37A002B01D008231A43CE
:10034000EB089B00C3189E690F278F40BE438A406D
:1003500032439A61637A002B05D042690123AB4096
:100360001343436104E043690122AA40934343617C
:1003700003B0F0BD8D0700000018004000B583B049
:1003800001AB80221A700A785A704A789A708A787B
:10039000DA701900014B984703B000BD8D070000CB
:1003A00070B50C4C236A01788578427801200240B0
:1003B00092014026B343134302002A40D2017F300A
:1003C0008343134303220A40120203490B401343A1
:1003D000236270BD00080040FFFCFFFF082803D81F
:1003E0008000254B1B589F46172044E0234A116A82
:1003F00002230B43136200203DE0204A916902234F
:100400000B439361002036E01C4A118A02230B4300
:10041000138200202FE0194A918A02230B43938212
:10042000002028E016490B68022213430B60134B8F
:100430009A8419000E32CB681A42FCD0104A916897
:100440000E4BD96252689A6200229A8419001032C7
:10045000CB681A42FCD00A4B1B689BB2074A9384B4
:10046000002008E005494422885C022303438B54A2
:10047000002000E000207047D8090000000800407C
:100480002800002030B585B0C222D2001A4B9A60F5
:100490001A4A53681E218B43536001236A46137026
:1004A0000024174DE0B26946A8470134252CF9D144
:1004B00003A800244470012585700470114B9847EF
:1004C0000620114B9847114B9847114B1C725C72D8
:1004D0009C72DC7201956B465C7006236A46137051
:1004E00014725472694600200A4B984700200A4B48
:1004F000984705B030BDC0460008004000400041AC
:10050000C9060000A1030000DD0300001D05000076
:100510000004004041050000F9050000064A916909
:1005200008230B4393610122044B1A7019000B78C6
:100530001342FCD17047C04600040040000C00404C
:1005400070B5060005000C78240204434B78002B9C
:1005500002D08023DB021C434B7A002B02D0802385
:100560001B031C434868012818D9431E184210D1A8
:10057000022806D90223002201325B009842FBD8F0
:1005800000E0002212023243150080235B031C436B
:1005900004E00502354380239B021C430B7A002BA9
:1005A00002D080239B031C430F4A53785BB2002B7D
:1005B000FBDB0E4B98470E4B1E700B4A53785BB219
:1005C000002BFBDB084B9D601A0053785BB2002BBD
:1005D000FBDB054A516880235B020B401C435460DF
:1005E000044B984770BDC046000C00401501000048
:1005F000080C00405501000010B504000B4A537868
:100600005BB2002BFBDB0A4B98470A4B1C70074A76
:1006100053785BB2002BFBDB044A5368802149020C
:100620000B435360044B984710BDC046000C00407C
:1006300015010000040C00405501000010B5040035
:10064000064B9847064B1C70064A51888023DB01F5
:100650000B435380044B984710BDC0461501000062
:10066000020C0040000C00405501000010B50400D1
:100670000F4B98470F4B1C700F4B5A881205100FE9
:1006800059880E4A0A405A8059880D4A0A405A80B1
:1006900019008022D2014B881342FCD106494C88B4
:1006A0000202064B234013434B80064B984710BD74
:1006B00015010000020C0040000C0040FFF0FFFF9D
:1006C000FFBFFFFF5501000010B50C782402044362
:1006D000024B9847A4B2024B5C8010BD6D0600002F
:1006E000000C004030B5D378002B1ED11378802B3E
:1006F00004D01B0680246402234300E000235478C6
:100700000225AC430AD19478002C03D18024A402A2
:10071000234302E0C024E402234341605478013CB7
:10072000012C12D8184C23400FE041600B041B0C25
:10073000A024E405234383620B0CD0242406234326
:100740008362D378002B18D01CE00C04240CA02565
:10075000ED052C431C4384620C0CD0252D062C4344
:100760001C438462D478002C0CD15B0305D59378AC
:10077000012B01D1816100E041615378013B012BE4
:1007800000D8816030BDC046FFFFFBFF10B50300FD
:100790000A00C1090020002904D15809C0010549F7
:1007A0008C4660441F210B401E399940024B9847EC
:1007B00010BDC04600440041E50600007047C04639
:1007C00010B5054B9847054B9847054B9847054B87
:1007D0009847054B984710BD85040000850100002F
:1007E000BD07000089020000BD070000FEE7C0460B
:1007F00070B52E4B2E4A9A4203D02E4B2B4A9A426A
:1008000004D32D4B2D4A9A4210D31EE02C4A294B7B
:1008100003339B1A9B0801339B0000222348244981
:100820008C58845004329A42FAD1EAE7254A224B86
:1008300003339B1A9B0801339B0000221F480021B1
:100840001418216004329A42FAD11F4AFF211F4B2B
:100850008B439360FD3990235B001D4AD1501D48A6
:10086000C3780324A34302221343C370C3780C2626
:10087000B34308210B43C370174B987B3025A84323
:100880000500202028439873987BB0430143997357
:10089000997BA1430A439A73104A516880230B4302
:1008A00053600F4B98470F4B9847FEE7000000201E
:1008B0001C0A000004000020840000200400002026
:1008C000040000200800002000ED00E0000000000F
:1008D00000700041005000410048004100400041CC
:1008E0008D09000061090000064B1B6A1B0404D53A
:1008F0008022D205044B9A6103E08022D205024B8C
:100900005A617047004400418044004110B584B0F2
:1009100001AC2000074B98470F230193002363602D
:10092000013323720233E37221000F20024B9847F8
:1009300004B010BDF50200000903000010B500224C
:100940000F210448044B984700210F20034B984780
:1009500010BDC046E9080000BD010000E90100002B
:1009600010B5064B9847064B9847064B984701220F
:10097000054B1A70BFF35F8F62B6FEE7C107000038
:100980000D0900003D090000000000200E4B70B56D
:1009900000251E000D4CE41AA410A54204D0AB00A3
:1009A000F35898470135F8E700F028F8084B002580
:1009B0001E00084CE41AA410A54204D0AB00F35862
:1009C00098470135F8E770BD080A0000080A0000E2
:1009D000080A00000C0A000008040000E8030000F8
:1009E000E803000074040000FA030000160400008D
:1009F000EC0300002404000064040000F8B5C046C5
:100A0000F8BC08BC9E467047DD000000F8B5C04643
:0C0A1000F8BC08BC9E467047B500000012
:040A1C0001000000D5
:04000003000007F101
:00000001FF
