:1000000040200020510700004D0700004D07000070
:1000100000000000000000000000000000000000E0
:100020000000000000000000000000004D0700007C
:1000300000000000000000004D070000490800001B
:100040004D0700004D0700004D0700004D07000060
:100050004D0700004D0700004D0700004D07000050
:100060004D0700004D0700004D0700004D07000040
:100070004D0700004D0700004D0700004D07000030
:100080004D0700004D0700004D0700004D07000020
:100090004D0700004D0700004D0700004D07000010
:1000A0004D0700004D0700004D0700004D07000000
:1000B0000000000010B5064C2378002B07D1054B3B
:1000C000002B02D0044800E000BF0123237010BDC4
:1000D0000400002000000000900A0000084B10B54A
:1000E000002B03D00749084800E000BF0748036819
:1000F000002B00D110BD064B002BFBD09847F9E731
:100100000000000008000020900A0000900A000093
:10011000000000000C4B1B68002B10D1EFF3108384
:10012000002B09D172B6BFF35F8F0022074B1A7004
:100130000132074B1A7002E00022054B1A70024A86
:100140001368013313607047200000200000002076
:1001500024000020084B1A68013A1A601B68002B23
:1001600009D1064B1B78002B05D00122044B1A70D5
:10017000BFF35F8F62B6704720000020240000208C
:1001800000000020F0B583B001AC012565700027A8
:10019000A770257021003E20064EB0478022D20570
:1001A000054B9A612770657021000F20B04703B09E
:1001B000F0BDC046BD0100008044004100B583B0E1
:1001C00001AB80221A700A785A704A789A708A783D
:1001D000DA701900014B984703B000BDED0600002E
:1001E00010B5082803D880001B4B1B589F460020E1
:1001F00030E01A4B18692DE0194B1B6A9B059B0FC9
:100200001848D84026E0154B586923E0134B1B686B
:10021000022018401ED012491022CB681A42FCD08E
:100220000E4B1B685B0714D500200F4B98470B4BF8
:100230009B681B041B0C58430CE05023084AD35CFA
:1002400000205B0706D5054BD86803E0802000023C
:1002500000E0064810BDC046280A00002800002023
:100260000008004000127A0011060000006CDC0259
:1002700070B50C4C236A01788578427801200240E1
:1002800092014026B343134302002A40D2017F303B
:100290008343134303220A40120203490B401343D2
:1002A000236270BD00080040FFFCFFFF082803D850
:1002B0008000254B1B589F46172044E0234A116AB3
:1002C00002230B43136200203DE0204A9169022380
:1002D0000B439361002036E01C4A118A02230B4332
:1002E000138200202FE0194A918A02230B43938244
:1002F000002028E016490B68022213430B60134BC1
:100300009A8419000E32CB681A42FCD0104A9168C8
:100310000E4BD96252689A6200229A8419001032F8
:10032000CB681A42FCD00A4B1B689BB2074A9384E5
:10033000002008E005494422885C022303438B54D3
:10034000002000E0002070474C0A00000008004038
:100350002800002030B585B0C222D2001A4B9A6026
:100360001A4A53681E218B43536001236A46137057
:100370000024174DE0B26946A8470134252CF9D175
:1003800003A800244470012585700470114B984720
:100390000620114B9847114B9847114B1C725C7209
:1003A0009C72DC7201956B465C7006236A46137082
:1003B00014725472694600200A4B984700200A4B79
:1003C000984705B030BDC0460008004000400041DD
:1003D000F505000071020000AD020000ED03000011
:1003E0000004004011040000C9040000064A91699D
:1003F00008230B4393610122044B1A7019000B78F8
:100400001342FCD17047C04600040040000C00407D
:1004100070B5060005000C78240204434B78002BCD
:1004200002D08023DB021C434B7A002B02D08023B6
:100430001B031C434868012818D9431E184210D1D9
:10044000022806D90223002201325B009842FBD821
:1004500000E0002212023243150080235B031C439C
:1004600004E00502354380239B021C430B7A002BDA
:1004700002D080239B031C430F4A53785BB2002BAE
:10048000FBDB0E4B98470E4B1E700B4A53785BB24A
:10049000002BFBDB084B9D601A0053785BB2002BEE
:1004A000FBDB054A516880235B020B401C43546010
:1004B000044B984770BDC046000C00401501000079
:1004C000080C00405501000010B504000B4A537899
:1004D0005BB2002BFBDB0A4B98470A4B1C70074AA8
:1004E00053785BB2002BFBDB044A5368802149023E
:1004F0000B435360044B984710BDC046000C0040AE
:1005000015010000040C00405501000070B5040006
:100510001A4A53785BB2002BFBDB194B9847194BF7
:100520001C70164A53785BB2002BFBDB134E7068CD
:10053000C004C00E144B98470500124B1C7076681F
:10054000F602F60F114B1C700C4A53785BB2002B6D
:10055000FBDB0A4B9C682402240C0D4B9847002EB1
:1005600007D1012C07D9210028000A4B9847050024
:1005700001E00134E540280070BDC046000C004099
:1005800015010000040C0040E1010000080C0040CF
:1005900055010000C508000010B504000F4B984736
:1005A0000F4B1C700F4B5A881205100F59880E4ABA
:1005B0000A405A8059880D4A0A405A801900802200
:1005C000D2014B881342FCD106494C880202064BEB
:1005D000234013434B80064B984710BD1501000084
:1005E000020C0040000C0040FFF0FFFFFFBFFFFFC8
:1005F0005501000010B50C7824020443024B9847C3
:10060000A4B2024B5C8010BD99050000000C0040B4
:1006100010B50400064B9847064B1C70064B5C88CF
:100620002405240F054B98472000054B984710BD23
:1006300015010000020C0040000C004055010000B4
:100640000D05000030B5D378002B1ED11378802B18
:1006500004D01B0680246402234300E00023547866
:100660000225AC430AD19478002C03D18024A40243
:10067000234302E0C024E402234341605478013C58
:10068000012C12D8184C23400FE041600B041B0CC6
:10069000A024E405234383620B0CD02424062343C7
:1006A0008362D378002B18D01CE00C04240CA02506
:1006B000ED052C431C4384620C0CD0252D062C43E5
:1006C0001C438462D478002C0CD15B0305D593784D
:1006D000012B01D1816100E041615378013B012B85
:1006E00000D8816030BDC046FFFFFBFF10B503009E
:1006F0000A00C1090020002904D15809C001054998
:100700008C4660441F210B401E399940024B98478C
:1007100010BDC04600440041450600007047C04679
:1007200010B5054B9847054B9847054B9847054B27
:100730009847054B984710BD550300008501000000
:100740001D0700001D0700001D070000FEE7C04652
:1007500070B52E4B2E4A9A4203D02E4B2B4A9A420A
:1007600004D32D4B2D4A9A4210D31EE02C4A294B1C
:1007700003339B1A9B0801339B0000222348244922
:100780008C58845004329A42FAD1EAE7254A224B27
:1007900003339B1A9B0801339B0000221F48002152
:1007A0001418216004329A42FAD11F4AFF211F4BCC
:1007B0008B439360FD3990235B001D4AD1501D4847
:1007C000C3780324A34302221343C370C3780C26C7
:1007D000B34308210B43C370174B987B3025A843C4
:1007E0000500202028439873987BB04301439973F8
:1007F000997BA1430A439A73104A516880230B43A3
:1008000053600F4B98470F4B9847FEE700000020BE
:10081000900A000004000020400000200400002096
:10082000040000200800002000ED00E000000000AF
:10083000007000410050004100480041004000416C
:10084000DD090000590800008022D205014BDA6161
:100850007047C0468044004100B583B0124B9847B2
:100860000020124B98470138114B98420DD8114A7D
:10087000506011490B6A1B021B0AC020000603438B
:100880000B62002393600733136001A901234B70AF
:1008900000228A700B703E20084B98478022D205B8
:1008A000074B9A61FEE7C046210700000D050000D6
:1008B000FFFFFF0010E000E000ED00E0BD010000E0
:1008C00080440041002243088B4274D303098B42C9
:1008D0005FD3030A8B4244D3030B8B4228D3030C10
:1008E0008B420DD3FF22090212BA030C8B4202D3B2
:1008F0001212090265D0030B8B4219D300E0090ADA
:10090000C30B8B4201D3CB03C01A5241830B8B42E2
:1009100001D38B03C01A5241430B8B4201D34B03CB
:10092000C01A5241030B8B4201D30B03C01A524130
:10093000C30A8B4201D3CB02C01A5241830A8B42B5
:1009400001D38B02C01A5241430A8B4201D34B029E
:10095000C01A5241030A8B4201D30B02C01A524102
:10096000CDD2C3098B4201D3CB01C01A52418309B6
:100970008B4201D38B01C01A524143098B4201D3F0
:100980004B01C01A524103098B4201D30B01C01A1B
:100990005241C3088B4201D3CB00C01A5241830895
:1009A0008B4201D38B00C01A524143088B4201D3C2
:1009B0004B00C01A5241411A00D201465241104622
:1009C0007047FFE701B5002000F006F802BDC04601
:1009D0000029F7D076E770477047C0460E4B70B5D8
:1009E00000251E000D4CE41AA410A54204D0AB0053
:1009F000F35898470135F8E700F03AF8084B00251E
:100A00001E00084CE41AA410A54204D0AB00F35811
:100A100098470135F8E770BD7C0A00007C0A0000A9
:100A20007C0A0000800A0000F2010000EE010000D4
:100A3000EE0100004C0200004C0200000602000023
:100A4000F80100000C0200003A020000D802000089
:100A5000B8020000B802000044030000CA0200000F
:100A6000E6020000BC020000F402000034030000B3
:100A7000F8B5C046F8BC08BC9E467047DD000000D3
:100A8000F8B5C046F8BC08BC9E467047B5000000EB
:040A90000100000061
:0400000300000751A1
:00000001FF
