:1000000018400020C53B0000BD3C00008D040000EE
:1000100000000000000000000000000000000000E0
:10002000000000000000000000000000BD3C0000D7
:100030000000000000000000BD3C0000BD3C0000CE
:10004000BD3C0000BD3C0000BD3C0000BD3C0000CC
:10005000F5010000BD3C0000BD3C0000BD3C0000BF
:10006000BD3C0000ED240000052500001D2500001A
:10007000352500004D25000065250000BD3C000031
:10008000BD3C0000BD3C0000F11200000513000063
:10009000191300002D13000041130000BD3C0000A7
:1000A000BD3C0000BD3C0000BD3C0000BD3C00006C
:1000B0000000000010B5064C2378002B07D1054B3B
:1000C000002B02D0044800E000BF0123237010BDC4
:1000D000800000200000000028880100084B10B5B7
:1000E000002B03D00749084800E000BF0748036819
:1000F000002B00D110BD064B002BFBD09847F9E731
:1001000000000000840000202888010028880100E9
:1001100000000000EFF3108372B602680160104621
:1001200083F310887047C04680B584B000AF0200EA
:10013000FB1D1A700F23FB18FA1D127852091A7052
:100140000F23FB181B78002B0CD1094BBB600F232E
:10015000FB181B789B0010229446BC446344083B68
:100160001B6800E000231800BD4604B080BDC046F7
:100170000018004080B584B000AF0200FB1D1A706B
:10018000FB1D1B7818000B4B98470300FB60FB1D01
:100190001B781F22134001229A401300BB60FB68AA
:1001A0001B69BA6813405A1E9341DBB21800BD4662
:1001B00004B080BD2901000080B584B000AF02000A
:1001C000FB1D1A70FB1D1B781800094B9847030094
:1001D000FB60FB1D1B781F22134001229A40130075
:1001E000BB60FB68BA681A61C046BD4604B080BDFA
:1001F0002901000080B500AF154B00221A7020E0E5
:10020000134B1B781800134B9847031E13D0104B49
:100210001B781800104B98470D4B1B781A000F4B9A
:100220009200D358002B06D0094B1B781A000B4BB9
:100230009200D3589847064B1B780133DAB2044B2F
:100240001A70034B1B780F2BDAD9C046BD4680BD10
:10025000681F002075010000B90100006C1F00201C
:1002600080B582B000AF78607B6800221A70C0460B
:10027000BD4602B080BDC04680B582B000AF02006E
:100280003960FB1D1A70FB1D1B78012B0AD0022B55
:100290000FD0002B14D10E4B0D4A91693A680A43D6
:1002A0009A610FE00A4B0A4AD1693A680A43DA6157
:1002B00008E0074B064A116A3A680A431A6201E0ED
:1002C000172300E000231800BD4602B080BDC046E1
:1002D0000004004080B582B000AF0200FB1D1A7020
:1002E000064BFA1D127811001F220A40012191408D
:1002F0000A001A60C046BD4602B080BD00E100E0C1
:1003000080B582B000AF0F4B3B6000237B6011E0F3
:100310007B689B0008229446BC446344083B1B68EE
:100320005B78DBB25BB2002B01DA012306E07B686D
:1003300001337B607B68002BEAD000231800BD46A8
:1003400002B080BD0018004080B584B000AF2D4BD6
:100350007B60402100202C4B98473B0018002B4B22
:1003600098473B0000221A703B0019000520284BDB
:1003700098470520274B98470023FB6018E0FB684F
:100380009B0010229446BC4463440C3B1A68FB68F3
:100390009B0010218C46BC4463440C3B1B681B78BB
:1003A000DBB201210B43DBB21370FB680133FB604E
:1003B000FB68002BE3D0C046174B9847031EFBD1C8
:1003C0000B23FB1800221A700DE00B23FB181A7880
:1003D000124B92000021D1500B23FB181A780B23EB
:1003E000FB1801321A700B23FB181B780F2BECD96A
:1003F00004200B4B98470B4B9847C046BD4604B0B2
:1004000080BDC04600180040790200006102000073
:100410005138000095380000010300006C1F0020D7
:10042000D50200002904000080B582B000AF154B52
:100430003B6000237B6018E07B689B0008229446A9
:10044000BC446344083B1A687B689B0008218C46C7
:10045000BC446344083B1B681B78DBB202210B439E
:10046000DBB213707B6801337B607B68002BE3D0C9
:10047000C046054B9847031EFBD1C046BD4602B09F
:1004800080BDC046001800400103000080B500AFE9
:10049000FEE7C04680B582B000AF0200FB1D1A70B7
:1004A000064BFA1D127811001F220A4001219140CB
:1004B0000A001A60C046BD4602B080BD00E100E0FF
:1004C00080B584B000AF78607B681B68FB60FB6818
:1004D000DB7BDBB21A00802313405A1E9341DBB250
:1004E0001800BD4604B080BD80B582B000AF786012
:1004F0007B6800221A707B6800229A707B68002259
:100500009A807B6800229A717B6800221A817B683E
:1005100000225A707B6800229A727B680022DA728D
:100520007B6800221A737B6800229A737B68002222
:100530005A737B6800221A747B6800225A617B68B8
:1005400000229A617B6800221A777B6800221A6277
:100550007B6800225A627B6800221A857B68002231
:100560005A857B6800229A85C046BD4602B080BD90
:1005700080B584B000AF78607B681B68FB60C046C4
:100580007B681800074B9847031EF9D1FB681B884E
:100590009BB2022213439AB2FB681A80C046BD4642
:1005A00004B080BDC104000080B584B000AF7860A5
:1005B0007B681B68FB60C0467B681800054B98474A
:1005C000031EF9D1FB6880225A71C046BD4604B0B3
:1005D00080BDC046C104000080B584B000AF786023
:1005E0007B681B68FB60C0467B6818000A4B984715
:1005F000031EF9D1FB6800221A71C0467B681800FF
:10060000054B9847031EF9D1FB6840225A71C0463A
:10061000BD4604B080BDC046C104000080B582B0B4
:1006200000AF7860044A7B68D3181B785BB218006F
:10063000BD4602B080BDC0460800002080B582B033
:1006400000AF78600A00FB1C1A707B681B681800FA
:10065000224B984703001800214B984703001800CD
:10066000204B9847FB1C1B78022B0BD17B685B7ED1
:1006700010221343DAB27B685A767B681B6810221B
:100680005A7326E0FB1C1B78032B0BD17B685B7E27
:1006900020221343DAB27B685A767B681B682022DB
:1006A0005A7316E07B685B7E5AB2FB1C1B780121F3
:1006B00099400B005BB213435BB2DAB27B685A76A7
:1006C0007B681B68FA1C1278012191400A00D2B2A3
:1006D0005A73C046BD4602B080BDC046D11400006A
:1006E0001D0600009504000080B500AF014B180006
:1006F000BD4680BDC81F002080B500AF024B9847A3
:10070000C046BD4680BDC0463D99000080B58EB054
:1007100000AF3B1D1800104B98473B1D01225A7338
:100720003B1D01229A733A1D0C490D4B18000D4BCD
:1007300098470B4B18000C4B98470C49084B02226A
:1007400018000B4B9847064B02211800094B98479D
:10075000C046BD460EB080BDE90400000034004232
:10076000AC1F00201D15000071050000F9060000F7
:100770007D1200003D06000080B500AF034B984796
:10078000034B984700231800BD4680BD0D070000AD
:10079000D511000080B500AF00231800BD4680BD14
:1007A00090B585B000AF386079601F4B5C681B68FE
:1007B0007A68A24205DB7A68A24230D13A689A424E
:1007C0002DD2194A3B687C6813605460174B18009F
:1007D000174B98470120174B98470A0001003B68C8
:1007E0007C685B1A9441BB60FC60FB68002B05DCF5
:1007F000FB68002B0FD1BB68002B0CD0BB68DA0064
:100800000A4B110018000C4B9847084B18000B4B73
:100810009847002304E00A4B9847030000E00023B8
:100820001800BD4605B090BD00000020AC1F0020A0
:10083000A90500007508000079190000D90500001D
:100840003D99000080B500AF00231800BD4680BD73
:1008500080B500AF00231800BD4680BD80B500AF55
:1008600000231800BD4680BD80B500AF00231800EE
:10087000BD4680BD90B585B000AF0200FB1D1A706B
:100880000C4B984703000C00BB60FC60FB1D1B7801
:10089000002B07D1084B19685A68BB68FC685B18C5
:1008A000544101E0BB68FC6818002100BD4605B05A
:1008B00090BDC04655120000A000002080B500AFDA
:1008C00000231800BD4680BD80B500AF094B984796
:1008D000094B1B689B6819005320084B9847084B2D
:1008E0001800084B9847084B984700231800BD464E
:1008F00080BDC046913B0000780000200D0C000038
:10090000487F010051750100691B000080B582B06D
:1009100000AF0200FB1D1A70064BFA1D1278110081
:100920001F220A40012191400A001A60C046BD46BC
:1009300002B080BD00E100E080B584B000AF786017
:100940007B681B68FB60FB68DB695A1E9341DBB266
:100950001800BD4604B080BD80B582B000AF78609D
:10096000C0467B681800044B9847031EF9D1C04667
:10097000BD4602B080BDC0463909000080B582B0D6
:1009800000AF78607B688022D2051A607B68002205
:100990005A607B68FF221A817B6800229A727B680A
:1009A0000022DA727B68962292011A627B68242206
:1009B000012199547B682522012199547B682622C4
:1009C000002199547B682722002199547B680022DA
:1009D0009A627B6888225203DA607B682C220021AD
:1009E00099547B682D22002199547B6800221A6358
:1009F0007B6800225A637B6800229A637B6800222E
:100A0000DA637B6800225A617B6800221A827B6865
:100A10000022DA767B6800221A767B6800221A7739
:100A20007B6800225A767B6813229A767B680022C4
:100A30005A77C046BD4602B080BDC04680B584B07E
:100A400000AF78607B681B68FB607B681B681800E0
:100A5000094B984703001800084B98477B6818001B
:100A6000074B9847FB681B6802221A43FB681A6011
:100A7000C046BD4604B080BDA12400000D090000A1
:100A80005909000080B584B000AFF860B9607A60A1
:100A90007A68B968FB681800054B9847031E01D1B6
:100AA000012300E000231800BD4604B080BDC0460D
:100AB0005929000080B582B000AF78600A00FB1CA5
:100AC0001A70C046FB1C1B789AB27B681100180094
:100AD000044B9847031EF5D100231800BD4602B011
:100AE00080BDC046CD2B000080B584B000AF7860DB
:100AF00039600E23FB1800221A80C0460E23FA1814
:100B00007B6811001800074B9847031EF6D10E238F
:100B1000FB181B88DAB23B681A70C046BD4604B0A9
:100B200080BDC046312C000080B584B000AFF860B5
:100B3000B9607A60104BFA681A60104B104A1A605C
:100B4000104B114A1A607A68B968FB6818000F4B9D
:100B500098470F4B1B689B68002118000D4B984766
:100B60000B4B1B685B68002118000A4B9847C04676
:100B7000BD4604B080BDC04634200020382000208F
:100B8000B50A000030200020E90A0000850A0000B4
:100B9000780000206575010080B590B000AF3B0083
:100BA0001800134B98473B00962292011A623B00B3
:100BB00080225203DA603B000E4A1A633B000E4A61
:100BC0005A633B00012252429A633B000122524287
:100BD000DA633A0009490A4B18000A4B9847084B58
:100BE0001800094B9847C046BD4610B080BDC046AE
:100BF0007D090000020016000200170000140042E8
:100C0000CC1F0020290B00003D0A000080B582B0F7
:100C100000AF786039600A4B1B78002B04D1094B78
:100C20009847074B01221A707B689AB2064B110055
:100C30001800064B98477B681800BD4602B080BD7F
:100C4000A8000020990B0000CC1F0020CD2B000035
:100C500080B584B000AF0200FB1D1A700F23FB1893
:100C6000FA1D1278D2091A700E23FB18FA1D127899
:100C700052091A700D4BBB600F23FB181B78002B19
:100C80000FD10F23FB181B789B0010229446BC4405
:100C90006344083B1A680E23FB181B78DB01D3184A
:100CA00000E000231800BD4604B080BD00440041B0
:100CB00080B582B000AF0200FB1D1A70FB1D1B78CF
:100CC0001800034B984703001800BD4602B080BDD2
:100CD000510C000080B582B000AF78607B680022C4
:100CE0001A707B6801225A707B6800229A70C04695
:100CF000BD4602B080BDC04680B584B000AF0200E2
:100D0000FB1D1A70BB1D0A1C1A70FB1D1B781800F6
:100D10000D4B98470300FB60FB1D1B781F221340FF
:100D200001229A401300BB60BB1D1B78002B03D02F
:100D3000FB68BA689A6102E0FB68BA685A61C0460B
:100D4000BD4604B080BDC046B10C000080B584B083
:100D500000AF78600C23FB1818002C4B98477B6879
:100D60001B78012118002A4B98477B685B7801218A
:100D70001800274B98477B689B7801211800244B6B
:100D800098470C23FB1802221A700C23FB18002230
:100D90005A707B681B780C22BA18110018001D4B82
:100DA00098477B685B780C22BA1811001800194B21
:100DB00098477B689B780C22BA1811001800154BD5
:100DC00098470C23FB1800221A700C23FB180122F1
:100DD0005A707B68DB780C22BA18110018000D4B92
:100DE00098477B681B790C22BA1811001800094B30
:100DF00098477B685B790C22BA1811001800054BE4
:100E00009847C046BD4604B080BDC046D50C000022
:100E1000F90C0000C91D000080B584B000AF7860F7
:100E20000A00FB1C1A70FB1C1B78002B02D0012B44
:100E300006D00BE00F23FB187A6812781A700BE0CB
:100E40000F23FB187A6852781A7005E00F23FB18FD
:100E50007A6892781A70C0460F23FB181B78180026
:100E6000BD4604B080BDC04690B585B000AF786087
:100E700008001100FB1C021C1A70BB1C0A1C1A7013
:100E80000F23FC18FB1C1A787B68110018000D4B0F
:100E9000984703002370BB1C1B785A1E9341DBB29A
:100EA00001225340DBB21A1C01231340DAB20F2394
:100EB000FB181B7811001800034B9847C046BD462D
:100EC00005B090BD190E0000F90C000080B582B08D
:100ED00000AF3B1D18000B4B98473B1D01221A70B9
:100EE0003B1D19003E20084B984701213E20074B2F
:100EF0009847074B1800074B984704231800BD4636
:100F000002B080BDD50C0000C91D0000F90C000026
:100F1000587F01004D0D000080B582B000AF7860B1
:100F200039607B68012B15D002DC002B05D044E032
:100F3000022B20D0032B2FD03FE03B68002B04DD99
:100F400000213E201F4B984737E001213E201D4BDA
:100F5000984732E03B68002B06DD1B4B0122002145
:100F600018001A4B984728E0174B00220021180060
:100F7000164B984721E03B68002B06DD124B0122FF
:100F800001211800114B984717E00F4B0022012157
:100F900018000E4B984710E03B68002B06DD0A4B0B
:100FA000012202211800094B984705E0064B002258
:100FB00002211800054B9847C046C046BD4602B006
:100FC00080BDC046F90C0000587F0100690E00008A
:100FD00080B582B000AF0200FB1D1A70064BFA1DEF
:100FE000127811001F220A40012191400A001A6064
:100FF000C046BD4602B080BD00E100E080B584B0CF
:1010000000AF78607B681B68FB60FB68DB7BDBB252
:101010001A00802313405A1E9341DBB21800BD46CC
:1010200004B080BD80B582B000AF78607B680022DC
:101030001A707B6800229A707B6800229A807B6815
:1010400000229A717B6800221A817B6800225A7004
:101050007B6800229A727B680022DA727B68002229
:101060001A737B6800229A737B6800225A737B682C
:1010700000221A747B6800225A617B6800229A6100
:101080007B6800221A777B6800221A627B68002244
:101090005A627B6800221A857B6800225A857B6829
:1010A00000229A85C046BD4602B080BD80B584B09E
:1010B00000AF78607B681B68FB60C0467B681800E7
:1010C000074B9847031EF9D1FB681B889BB202228D
:1010D00013439AB2FB681A80C046BD4604B080BD77
:1010E000FD0F000080B582B000AF7860044A7B68D5
:1010F000D3181B785BB21800BD4602B080BDC04655
:101100001000002080B582B000AF78600A00FB1CA0
:101110001A707B681B681800224B98470300180060
:10112000214B984703001800204B9847FB1C1B7865
:10113000022B0BD17B685B7E10221343DAB27B68F3
:101140005A767B681B6810225A7326E0FB1C1B78BA
:10115000032B0BD17B685B7E20221343DAB27B68C2
:101160005A767B681B6820225A7316E07B685B7E88
:101170005AB2FB1C1B78012199400B005BB2134350
:101180005BB2DAB27B685A767B681B68FA1C12780D
:10119000012191400A00D2B25A73C046BD4602B046
:1011A00080BDC046D1140000E5100000D10F000042
:1011B00090B500AF064B5C681B68012100225B18EC
:1011C0005441034A13605460C046BD4690BDC046BA
:1011D000B000002090B58FB000AF144A0023002467
:1011E000136054603B1D1800114B98473B1D114A7A
:1011F0005A853B1D20229A713A1D0F490F4B18004A
:101200000F4B98470D4B18000E4B98470E490B4B50
:10121000022218000D4B9847084B022118000C4B76
:101220009847C046BD460FB090BDC046B0000020F4
:10123000251000001F030000002C004200200020A9
:101240001D150000AD100000B11100007D1200005E
:1012500005110000B0B500AF064B18685968064C80
:101260000A220023A04703000C0018002100BD46FD
:10127000B0BDC046B00000200545010080B584B077
:1012800000AFF860B960FB1D1A70FB1D1A78FB688F
:1012900002329200B968D150FB1D1B78022B07D196
:1012A000FB681B7E10221343DAB2FB681A7619E042
:1012B000FB1D1B78032B07D1FB681B7E20221343E9
:1012C000DAB2FB681A760DE0FB681B7E5AB2FB1D92
:1012D0001B78012199400B005BB213435BB2DAB279
:1012E000FB681A7600231800BD4604B080BDC046D6
:1012F00080B500AF0020024B9847C046BD4680BD78
:101300005513000080B500AF0120024B9847C0463E
:10131000BD4680BD5513000080B500AF0220024BD2
:101320009847C046BD4680BD5513000080B500AF4C
:101330000320024B9847C046BD4680BD55130000B0
:1013400080B500AF0420024B9847C046BD4680BD23
:101350005513000080B584B000AF0200FB1D1A7069
:10136000FB1D1A78284B9200D358FB60FB681B6862
:101370009B7BDBB2FA68127E1340DAB2FB68597EBF
:101380000B23FB180A401A700B23FB181B78012251
:10139000134008D0FB689B68FA6810009847FB6808
:1013A0001B6801229A730B23FB181B78022213403F
:1013B00008D0FB68DB68FA6810009847FB681B6878
:1013C00002229A730B23FB181B781022134008D0BB
:1013D000FB681B69FA6810009847FB681B681022BD
:1013E0009A730B23FB181B782022134008D0FB684C
:1013F0005B69FA6810009847FB681B6820229A73A3
:10140000C046BD4604B080BD1C20002080B582B01F
:1014100000AF78607B6800221A70C046BD4602B0FB
:1014200080BDC04680B582B000AF02003960FB1DB0
:101430001A70FB1D1B78012B0AD0022B0FD0002B3A
:1014400014D10E4B0D4A91693A680A439A610FE034
:101450000A4B0A4AD1693A680A43DA6108E0074B45
:10146000064A116A3A680A431A6201E0172300E04B
:1014700000231800BD4602B080BDC04600040040F5
:1014800080B582B000AF78607B6880221A707B687C
:1014900000225A707B6801229A707B680022DA7001
:1014A000C046BD4602B080BD80B584B000AF786054
:1014B0007B681B68FB60FB68DB7BDBB21A00802368
:1014C00013405A1E9341DBB21800BD4604B080BDE4
:1014D00090B589B000AF78600823FB180E4A13CA94
:1014E00013C303CA03C30023FB610DE00823FB18E9
:1014F000FA699200D2587B689A4202D1FB69DBB24A
:1015000006E0FB690133FB61FB69042BEED9002384
:101510001800BD4609B090BD607F010090B58DB048
:1015200000AFF860B9607A602E23FB1800221A80A1
:101530002D23FB1800221A702C23FB1800221A708E
:101540002923FC18BB681800BF4B98470300237081
:101550002423FA18BD4B1000190005231A00BC4BB8
:1015600098471823FA18BB4B100019000A231A00D9
:10157000B74B98472B23FB1800221A700EE02B2341
:10158000FB181A78FB68023292000021D1502B23FD
:10159000FB181A782B23FB1801321A702B23FB1827
:1015A0001B78032BEBD9FB6800221A76FB6800221C
:1015B0005A762923FB181A78A74B9200F968D15064
:1015C000FB68BA681A607B689B78082B08D12923CE
:1015D000FB181B7803330122134001D01723C4E109
:1015E0007B689A78FB681A71BB681B889BB21A00EB
:1015F0000123134001D00523B7E1BB68DB7BDBB2DD
:101600001A001023134001D01C23AEE1BB681B88D5
:101610009BB21A000223134001D01C23A5E17B6872
:101620001B7C002B17D01423FB1818008B4B9847FA
:101630007B689B69DAB21423FB181A701423FB1819
:1016400001225A707B685B69DBB21422BA18110060
:101650001800834B98477B681B7F002B17D01423FF
:10166000FB1818007D4B98477B685B6ADAB214233D
:10167000FB181A701423FB1801225A707B681B6A2E
:10168000DBB21422BA1811001800754B98472923B1
:10169000FB181A781823FB185200D35A190002209D
:1016A000704B98477B689B78082B0BD12923FB183C
:1016B0001B785A1C1823FB185200D35A1900022019
:1016C000684B98471023FB181800674B98477B68B6
:1016D0001A781023FB181A702923FB181B78242270
:1016E000BA18D35C1022BA18110018005F4B984743
:1016F0002923FB181B782422BA18D35C18005C4BF2
:1017000098477B689A787B689B791343DBB29AB2DF
:101710007B681B89134399B27B689A882E23FB1838
:101720000A431A807B685B78002B08D02E23FB18B5
:101730002E22BA181288802109010A431A80C04655
:10174000FB6818004B4B9847031EF9D1BB682E224B
:10175000BA1812881A807B685B7B002B03D02D237C
:10176000FB1804221A707B689B7B002B07D02D236B
:10177000FB182D22BA18127801210A431A70C046AC
:10178000FB6818003B4B9847031EF9D1BB68FF224A
:101790001A712D23FB181B78002B0BD0C046FB6859
:1017A0001800344B9847031EF9D1BB682D22BA1894
:1017B00012785A712C23FB187A68927A1A702A23AD
:1017C000FB1800221A701CE02A23FB181B787A6889
:1017D000D318DB7A002B0DD02A23FB181B7810229C
:1017E0009A401300D9B22C23FB182C22BA18127875
:1017F0000A431A702A23FB181A782A23FB1801328D
:101800001A702A23FB181B78012BDDD9C046FB6810
:101810001800184B9847031EF9D1BB682C22BA1840
:1018200012789A71C046FB681800124B9847031E45
:10183000F9D1FB681B79042B1ED0082B00D170E076
:10184000002B4BD090E0C046D1140000747F010003
:10185000417401007C7F01001C20002081140000E5
:101860003D3B0000251400000D140000513800001D
:1018700095380000A9140000C046FB6818003D4BD5
:101880009847031EF9D17B6828229A5CBB681A74BA
:10189000C046FB681800374B9847031EF9D17B6898
:1018A00029229A5CBB681A75C046FB681800314B48
:1018B0009847031EF9D17B682A229A5CBB681A7686
:1018C000C046FB6818002B4B9847031EF9D17B6874
:1018D0002B229A5CBB685A76002346E0C046FB6820
:1018E0001800244B9847031EF9D17B681A8DBB68FA
:1018F0001A82C046FB6818001E4B9847031EF9D198
:101900007B685A8DBB681A83C046FB681800194B68
:101910009847031EF9D17B689A8DBB685A830023D0
:1019200023E0C046FB681800124B9847031EF9D10C
:101930007B689A6ABB681A61C046FB6818000D4B49
:101940009847031EF9D17B68DA6ABB689A61C04682
:10195000FB681800074B9847031EF9D17B681A6B88
:10196000BB68DA61002300E017231800BD460DB004
:1019700090BDC046A914000080B584B000AF786067
:1019800039607B681B68FB60C0467B681800114BA0
:101990009847031EF9D17B681B79042B04D0082BD0
:1019A0000ED0002B06D010E03B68DAB2FB681A7547
:1019B00000230BE03B689AB2FB681A83002305E022
:1019C000FB683A689A61002300E017231800BD46BF
:1019D00004B080BDA914000080B586B000AFF860E7
:1019E000B9607A6000237B61FB68002B12D0012371
:1019F0005B4213E00B4B1A680B4B1B68B96818006D
:101A00009047BB680133BB607B6901337B617B68B6
:101A1000013B7B607B68002BECDC7B691800BD46DA
:101A200006B080BD302000203420002080B586B074
:101A300000AFF860B9607A6000237B61FB68012B1E
:101A40001DD0FB68022B1AD0FB68032B17D0012393
:101A50005B4218E00E4B1A680E4B1868BB68591CA5
:101A6000B9601B7819009047031E02DA01235B421C
:101A700009E07B6901337B617B68013B7B607B68AC
:101A8000002BE7D17B691800BD4606B080BDC0467B
:101A9000382000203420002080B500AF014B180012
:101AA000BD4680BD3C20002080B584B000AFF8600A
:101AB000B9607A607B689B685A1E7B689A607B6815
:101AC0009B68002B0ADA7B689A687B689B699A425C
:101AD0000EDBBB68FF2213400A2B09D07B681B6812
:101AE000591C7A681160BA68D2B21A701B7806E085
:101AF0007A68B968FB681800034B98470300180020
:101B0000BD4604B080BDC046E976010080B582B014
:101B100000AF78607B68074A934205D97B68064A24
:101B2000934201D8002300E001231800BD4602B013
:101B300080BDC046FFFFFF1FFE7F002080B582B042
:101B400000AF7860064B1868054B1B689A687B6885
:101B50001900044B9847C046BD4602B080BDC04640
:101B600078000020A91A000080B584B000AF104BA7
:101B700098470300FB60FB68002B14D0FB68002231
:101B8000002118000B4B98470300BB60BB68002B7B
:101B900005DBFB681800084B984703007B60FB6877
:101BA0001800064B9847C046BD4604B080BDC046ED
:101BB000C1B10000D1B10000DDB10000E5B100000D
:101BC00080B582B000AF104B1B68002B12D1EFF331
:101BD00010837B607B68002B09D172B6BFF35F8FE7
:101BE0000A4B00221A700A4B01221A7002E0084BBD
:101BF00000221A70044B1B685A1C034B1A60C04623
:101C0000BD4602B080BDC046B800002015000020CF
:101C1000BC00002080B500AF0B4B1B685A1E0A4B5E
:101C20001A60094B1B68002B0AD1084B1B78DBB2EA
:101C3000002B05D0064B01221A70BFF35F8F62B6EE
:101C4000C046BD4680BDC046B8000020BC00002094
:101C50001500002080B584B000AF0200FB1D1A7093
:101C60000F23FB18FA1D1278D2091A700E23FB18E5
:101C7000FA1D127852091A700D4BBB600F23FB1826
:101C80001B78002B0FD10F23FB181B789B00102211
:101C90009446BC446344083B1A680E23FB181B7827
:101CA000DB01D31800E000231800BD4604B080BD5E
:101CB0000044004180B582B000AF0200FB1D1A70E5
:101CC000FB1D1B781800034B984703001800BD4606
:101CD00002B080BD551C000080B582B000AF7860B6
:101CE0007B6800221A707B6801225A707B68002290
:101CF0009A70C046BD4602B080BDC04680B584B073
:101D000000AF0200FB1D1A70BB1D0A1C1A70FB1DE0
:101D10001B7818000D4B98470300FB60FB1D1B78D8
:101D20001F22134001229A401300BB60BB1D1B7889
:101D3000002B03D0FB68BA689A6102E0FB68BA68BE
:101D40005A61C046BD4604B080BDC046B51C000007
:101D500080B582B000AF3B1D18000E4B98473B1D6D
:101D600001221A703B1D19003E200B4B98470121A0
:101D70003E200A4B98473B1D00221A703B1D012252
:101D80005A703B1D19000F20034B9847C046BD46B3
:101D900002B080BDD91C0000C91D0000FD1C000060
:101DA00080B582B000AF78607B6880221A707B6853
:101DB00000225A707B6801229A707B680022DA70D8
:101DC000C046BD4602B080BD80B584B000AF020001
:101DD0003960FB1D1A700C23FB181800104B984734
:101DE0000C23FB1880221A703B681A780C23FB180E
:101DF0005A703B685A780C23FB189A703B689A78A3
:101E00000C23FB18DA700C23FA18FB1D1B78110049
:101E10001800044B9847C046BD4604B080BDC0467C
:101E2000A11D00003D3B000080B582B000AF78608E
:101E30007B6800221A70C046BD4602B080BDC04615
:101E4000F0B58DB000AFB860F9603A607B600023F8
:101E500000243B627C6200230024BB61FC613F23C1
:101E6000FB6253E0FB6A203B002B04DB01229A401B
:101E700013007B610BE0FB6A2022D31A0122DA40B7
:101E800013000021FA6A91400A0013437B6101228A
:101E9000FB6A9A4013003B61BB69FC69DB18644133
:101EA000BB61FC61BB683A691A401500FB687A693E
:101EB0001A4016002B00334307D0BB69012213439D
:101EC000BB61FB6900221343FB617A68FB699A429C
:101ED00019D87A68FB699A4203D13A68BB699A4279
:101EE00011D8B969FA693B687C68C91AA2410B002C
:101EF0001400BB61FC613A6A3B6913433B627A6A36
:101F00007B6913437B62FB6A013BFB62FB6A002B2C
:101F1000A8DA3B6A7C6A18002100BD460DB0F0BD0E
:101F200080B586B000AFF860B9607A601623FB1800
:101F300000221A80BB683B61BB685A08FB689A4262
:101F400001D2402326E0BB685B083B610AE03A69A6
:101F5000FB68D31A3B611623FB181A881623FB185B
:101F600001321A803A69FB689A42F0D21623FB18B4
:101F70001622BA181288013A1A801623FB181B88F9
:101F8000FF2B01D9402305E07B681622BA1812887E
:101F90001A8000231800BD4606B080BDF0B59DB084
:101FA00000AFF863B9637A633322BA181370002361
:101FB0000024BB65FC65002300243B657C65002391
:101FC0000024BB66FC6600233B66582330229446FF
:101FD000BC4463441A78FB6B5A43BB6B9A4201D9E9
:101FE0004023C6E03323FB181B78002B3DD1582338
:101FF00030229446BC4463441B78DBB23B6100232F
:102000007B61FB6BBB600023FB605C4CBA68FB68C8
:1020100038697969A04703000C001B00FB640023AA
:10202000BB64BB6B3B6000237B60B86CF96C3A68A7
:102030007B68534CA04703000C00BB65FC65002186
:102040000122BB6DFC6DC91AA2410B0014003B6557
:102050007C653B6D1B0C7A6D16041E433B6D1D04A5
:102060003300BB660023FB667DE03323FB181B783F
:10207000012B00D077E0372330229446BC446344E0
:1020800000221A704EE0BB6BBB620023FB62B86A91
:10209000F96A03005B0F0A00D2001343FB640300DC
:1020A000DB00BB64FB6B3B6200237B625823302266
:1020B0009446BC4463441B78DBB2BB610023FB61E4
:1020C0002E4CBA69FB69386A796AA04703000C0094
:1020D0003B647C643B6C7C6CB86CF96C1A0023002C
:1020E000274CA04703000C003B6637233022944660
:1020F000BC4463441B783A6ED31A3B663B6EDB08E4
:102100003B663B6E1F4A934215D9372330229446D3
:10211000BC4463441A78372330218C46BC44634462
:1021200001321A70372330229446BC4463441B7832
:10213000072BA8D900E0C046372330229446BC4480
:1021400063441B78082B01D1402312E0372330224F
:102150009446BC4463441B785B031A003B6E1343F4
:10216000BB660023FB66BB6EFC6E9AB27B6B1A806B
:1021700000231800BD461DB0F0BDC0464D4501000E
:10218000411E0000FF1F000080B584B000AF0200B8
:10219000FB1D1A70BB1D0A1C1A701A4B1B780122FA
:1021A0005340DBB2002B03D1BB1D1B78002B1BD08F
:1021B0000C23FB181800144B98470C23FB18FA1D2E
:1021C00012781A700C23FB18190013200F4B984734
:1021D00013200F4B98470B4BFA1D12785A70094B7E
:1021E00001221A70002308E0064B5B78FA1D127872
:1021F0009A4201D1002300E01D231800BD4604B01F
:1022000080BDC046C0000020291E000051380000DB
:102210009538000080B582B000AF78600A00FB1CE2
:102220001A707B684D4A93423FD04C4A934206D87D
:102230004B4A93420FD04B4A934221D089E04A4AFD
:10224000934200D15BE0494A934200D16CE0484A96
:1022500093423FD07DE0FB1C1B78012B0AD002DCAF
:10226000002B05D075E0022B06D0032B06D070E0C2
:10227000404B6FE0404B6DE0404B6BE0404B69E002
:10228000FB1C1B78012B0AD002DC002B05D060E080
:10229000022B06D0032B06D05BE003235AE0394B18
:1022A00058E0394B56E0394B54E0FB1C1B78012BAE
:1022B0000AD002DC002B05D04BE0022B06D0032B0A
:1022C00006D046E0324B45E0324B43E0324B41E032
:1022D000324B3FE0FB1C1B78012B0AD002DC002BA9
:1022E00005D036E0022B06D0032B06D031E02C4B74
:1022F00030E02C4B2EE02C4B2CE02C4B2AE0FB1C2E
:102300001B78012B0AD002DC002B05D021E0022B28
:1023100006D0032B06D01CE0254B1BE0254B19E013
:10232000254B17E0254B15E0FB1C1B78012B0AD031
:1023300002DC002B05D00CE0022B06D0032B06D0CC
:1023400007E01F4B06E01F4B04E01F4B02E01F4B52
:1023500000E000231800BD4602B080BD001000421E
:1023600000080042000C004200180042001C00421D
:1023700000140042030004000300050003000600EF
:10238000030007000300010003001E0003001F00FC
:10239000030008000300090003000A0003000B000B
:1023A00003001000030011000300120003001300DB
:1023B00003000C0003000D0003000E0003000F00DB
:1023C00003001600030017000300180003001900A3
:1023D00090B58BB000AF78600C23FB180F4A13CA7E
:1023E00013C313CA13C300237B620EE00C23FB1834
:1023F0007A6A9200D3581A1E7B689A4202D17B6A8D
:10240000DBB206E07B6A01337B627B6A052BEDD988
:1024100000231800BD460BB090BDC046887F010068
:1024200080B582B000AF0200FB1D1A70C046BD46E9
:1024300002B080BD80B584B000AF02003960FB1DE2
:102440001A70134B1B7801225340DBB2002B15D0BE
:102450000023FB600CE00F4BFA6892000E49D1504C
:102460000E4BFA6892000021D150FB680133FB60EB
:10247000FB68052BEFD9064B01221A70FB1D1A7859
:10248000044B92003968D150C046BD4604B080BDAF
:10249000C2000020C40000202124000040200020B1
:1024A00090B585B000AF78600823FA180C4B100087
:1024B000190006231A000B4B98470F23FC187B6862
:1024C0001800094B9847030023700F23FB181B7853
:1024D0000822BA18D35C5BB21800BD4605B090BDA7
:1024E000A07F010041740100D123000080B500AF3E
:1024F000034B1B6800209847C046BD4680BDC046C0
:10250000C400002080B500AF034B5B6801209847F2
:10251000C046BD4680BDC046C400002080B500AFA7
:10252000034B9B6802209847C046BD4680BDC0460D
:10253000C400002080B500AF034BDB680320984740
:10254000C046BD4680BDC046C400002080B500AF77
:10255000034B1B6904209847C046BD4680BDC0465A
:10256000C400002080B500AF034B5B69052098478D
:10257000C046BD4680BDC046C400002080B582B0C4
:1025800000AF78607B6800221A70C046BD4602B07A
:1025900080BDC04680B582B000AF02003960FB1D2F
:1025A0001A70FB1D1B78012B0AD0022B0FD0002BB9
:1025B00014D10E4B0D4A91693A680A439A610FE0B3
:1025C0000A4B0A4AD1693A680A43DA6108E0074BC4
:1025D000064A116A3A680A431A6201E0172300E0CA
:1025E00000231800BD4602B080BDC0460004004074
:1025F00080B582B000AF78607B6880221A707B68FB
:1026000000225A707B6801229A707B680022DA707F
:10261000C046BD4602B080BD80B500AF054B9B787B
:10262000DBB21A00022313405A1E9341DBB218009A
:10263000BD4680BD0020004180B584B000AF786009
:102640007B681B68FB60FB68DB695A1E9341DBB249
:102650001800BD4604B080BD80B582B000AF786080
:10266000C0467B681800044B9847031EF9D1C0464A
:10267000BD4602B080BDC04639260000B0B58CB062
:1026800002AF786039607B681B68BB617B681B6840
:102690001800AB4B984703007B617B6914333B61A7
:1026A00000237B6200233B620A23FB1800221A806E
:1026B0001F23FB1800221A701E23FB1810221A7009
:1026C0003B681B8A8022D20193421CD08022D20117
:1026D000934206DC002B0DD080229201934224D03D
:1026E00035E0C022D201934228D0802212029342C8
:1026F00012D02CE01F23FB1800221A701E23FB1897
:1027000010221A7023E01F23FB1800221A701E23C8
:10271000FB1808221A701AE01F23FB1800221A70F7
:102720001E23FB1803221A7011E01F23FB1801223D
:102730001A701E23FB1810221A7008E01F23FB18C2
:1027400001221A701E23FB1808221A70C0463B682B
:102750001A683B68DB681A433B685B6913433A6855
:10276000128A13433A68127E120213433A682621F2
:10277000525C520713437B621D23FB1800221A7020
:102780003B685B68FB60FB68002B1ED08022520513
:1027900093424FD13B6827229B5C01225340DBB21E
:1027A000002B46D03B681D6A3B69DBB21800654BC5
:1027B000984701001D23FC180A23FB181A00280063
:1027C000614B98470300237033E03B6827229B5CF2
:1027D000002B14D03B68186A3B68996A1D23FC18CB
:1027E0001F23FB181D780A23FA181E23FB181B78D9
:1027F00000932B00554DA847030023701AE03B6857
:102800001D6A3B69DBB218004E4B98471D23FC182C
:102810001F23FB1819780A23FA181E23FB181B78AC
:1028200000930B0001002800484DA84703002370C7
:1028300000E0C0461D23FB181B78002B03D01D238E
:10284000FB181B7877E03B685B7E002B03D03B686E
:102850009A7EBB699A737B6818003D4B98470A23A0
:10286000FB181A88BB699A817A6AFB6813437B62FA
:102870003B6827229B5C01225340DBB2002B03D034
:102880007B6A042213437B623B685B7E9A023B684F
:102890001B7F5B021A433B685B7F1B021A433B684A
:1028A00024215B5C5B041A433B6825215B5C1B04B1
:1028B00013433B623B689B7A1A003B6A13433B62BB
:1028C0003B68DB7A1A003B6A13433B623B681B8917
:1028D000FF2B0BD07B6A8022520413437B623B6840
:1028E0001B891A003B6A13433B6208E03B68DB7EAE
:1028F000002B04D07B6A8022D20413437B623B68A6
:102900002C229B5C002B03D1124B9847031E03D053
:102910007B6A802213437B627B6818000C4B9847CC
:10292000BB693A6A5A607B681800094B9847BB69D3
:102930007A6A1A6000231800BD460AB0B0BDC046CE
:10294000D123000075390000211F00009D1F0000E9
:10295000592600001926000090B593B000AFF8602A
:10296000B9607A603B23FB1800221A70FB68BA68D2
:102970001A60FB681B687B63FB681B681800864B4A
:10298000984703003B633B6B0233FB623B6B1433A2
:10299000BB627B6B1B680122134001D00523F6E06C
:1029A0007B6B1B680222134001D01C23EFE0012245
:1029B000FB6A9A40130019000220784B98472423A1
:1029C000FB181800764B98477B682D229A5C2423CD
:1029D000FB181A70BB6ADBB22422BA181100180067
:1029E000704B9847BB6ADBB218006F4B98477B6807
:1029F0002D229B5C002118006C4B98477B68DA7A8B
:102A0000FB685A717B6824229A5CFB689A717B6828
:102A100025229A5CFB68DA717B68DA7EFB681A72A1
:102A20007B681A7FFB685A723B23FC187A68FB6844
:102A3000110018005E4B9847030023703B23FB18DE
:102A40001B78002B03D03B23FB181B789FE020232F
:102A5000FB181800574B98472023FB1800225A7088
:102A60002023FB1800229A707B681A6B1023FB1836
:102A70001A607B685A6B1023FB185A607B689A6B4C
:102A80001023FB189A607B68DA6B1023FB18DA605E
:102A90004723FB1800221A702CE04723FB181A78F2
:102AA0001023FB189200D3583B643B6C002B09D1D8
:102AB0004723FB181A78BB68110018003E4B984753
:102AC00003003B643B6C01330DD03B6CDAB2202336
:102AD000FB181A703B6C1B0CDBB22022BA181100D9
:102AE0001800364B98474723FB181A784723FB18E2
:102AF00001321A704723FB181B78032BCDD9002312
:102B0000FB630AE0FA68FB6B02339B00D3180433C3
:102B100000221A60FB6B0133FB63FB6B052BF1D9C1
:102B2000FB6800229A62FB6800225A62FB6800225E
:102B3000DA85FB6800229A85FB68302200219954CF
:102B4000FB68312200219954FB68322200219954FC
:102B5000FB68332200219954FB681B682722BC18AC
:102B600018000D4B984703002370154A2723FB18C4
:102B70001B7811001800134B98472723FB181A786D
:102B8000114B9200F968D1503B23FB181B781800B9
:102B9000BD4613B090BDC046D1230000952500006E
:102BA0007D25000051380000953800008921000083
:102BB0007D260000F1250000152200003D3B0000AD
:102BC000612D0000352400004020002080B584B035
:102BD00000AF78600A00BB1C1A807B681B68FB6032
:102BE0007B68DB7901225340DBB2002B01D01C2330
:102BF00017E07B68DB8D9BB2002B01D0052310E032
:102C00007B681800094B9847FB68BA1C12881A8524
:102C1000C046FB681B7EDBB21A0002231340F8D0CB
:102C200000231800BD4604B080BDC04659260000F0
:102C300080B584B000AF786039607B681B68FB604A
:102C40007B689B7901225340DBB2002B01D01C230F
:102C50005EE07B689B8D9BB2002B01D0052357E083
:102C6000FB681B7EDBB21A000423134001D105234D
:102C70004EE07B681800284B9847FB685B8B9BB243
:102C8000DAB20B23FB183F210A401A700B23FB1802
:102C90001B78002B36D00B23FB181B780222134025
:102CA00004D0FB6802225A831A2331E00B23FB185D
:102CB0001B780422134004D0FB6804225A831E238D
:102CC00026E00B23FB181B780122134004D0FB687D
:102CD00001225A8313231BE00B23FB181B781022BD
:102CE000134004D0FB6810225A83422310E00B23C8
:102CF000FB181B782022134004D0FB6820225A8343
:102D0000412305E0FB681B8D9AB23B681A800023C3
:102D10001800BD4604B080BD5926000080B584B0BF
:102D200000AF78607B681B68FB60FB68DB695A1E3C
:102D30009341DBB21800BD4604B080BD80B582B0BF
:102D400000AF7860C0467B681800044B9847031EAC
:102D5000F9D1C046BD4602B080BDC0461D2D000061
:102D600080B588B000AF0200FB1D1A70FB1D1A78F9
:102D7000A34B9200D358BB61BB691B687B61BB69E5
:102D80001800A04B98477B691B7EDAB21223FB1810
:102D90001A807B699B7DDBB29AB21223FB18122149
:102DA000791809880A401A80BB6930229B5CBA698D
:102DB0003121525C1340DAB21023FB181A8012231F
:102DC000FB181B880122134044D0BB69DB8D9BB2EA
:102DD000002B3CD0BB699B6A1B78DAB21C23FB1822
:102DE0001A80BB699B6A5A1CBB699A62BB695B7992
:102DF000012B13D1BB699B6A1B78DBB21B021AB291
:102E00001C23FB1800215B5E13431AB21C23FB1822
:102E10001A80BB699B6A5A1CBB699A621C23FB1807
:102E20001B88DB05DB0D9AB27B691A85BB69DB8DDC
:102E30009BB2013B9BB2BA69191CD185002B09D109
:102E40007B6901221A757B6902229A7502E07B690F
:102E500001221A751223FB181B880222134011D07D
:102E60007B6902221A75BB69332200219954102311
:102E7000FB181B880122134004D0BB69DB68BA69C8
:102E8000100098471223FB181B880422134000D11E
:102E9000BDE0BB699B8D9BB2002B00D1B4E07B6988
:102EA0005B8B9BB2DAB21F23FB183F210A401A70DA
:102EB0001F23FB181B780822134007D01F23FB1881
:102EC0001F22BA18127808218A431A701F23FB1890
:102ED0001B78002B50D01F23FB181B7802221340B5
:102EE00007D0BB6932221A2199547B6902225A8386
:102EF00036E01F23FB181B780422134007D0BB6960
:102F000032221E2199547B6904225A8328E01F2310
:102F1000FB181B780122134007D0BB693222132112
:102F200099547B6901225A831AE01F23FB181B78EE
:102F30001022134007D0BB693222422199547B6989
:102F400010225A830CE01F23FB181B782022134009
:102F500006D0BB693222412199547B6920225A83D1
:102F60001023FB181B880422134050D0BB695B69F7
:102F7000BA69100098474AE07B691B8D9AB20E230C
:102F8000FB18D205D20D1A80BB695B6A0E22BA18F3
:102F90001288D2B21A70BB695B6A5A1CBB695A624A
:102FA000BB695B79012B0DD1BB695B6A0E22BA1834
:102FB0001288120A92B2D2B21A70BB695B6A5A1CAA
:102FC000BB695A62BB699B8D9BB2013B9BB2BA69DC
:102FD000191C9185002B1AD17B6904221A75BB69D3
:102FE0003222002199541023FB181B88022213401F
:102FF0000DD0BB691B69BA691000984707E0C0464D
:10300000402000203D2D00007B6904221A75122308
:10301000FB181B881022134010D07B6910221A75F0
:103020007B6910221A761023FB181B88102213408C
:1030300004D0BB69DB69BA69100098471223FB18FA
:103040001B882022134010D07B6920221A757B69CF
:1030500020221A761023FB181B880822134004D064
:10306000BB699B69BA69100098471223FB181B883B
:103070000822134010D07B6908221A757B69082248
:103080001A761023FB181B882022134004D0BB693A
:103090001B6ABA6910009847C046BD4608B080BD9B
:1030A00080B582B000AF78607B6801225A607B688F
:1030B00000225A707B6806221A707B6800221A72FE
:1030C0007B6800225A72C046BD4602B080BDC04631
:1030D00080B582B000AF78607B6803221A707B688D
:1030E00000225A707B6801229A70C046BD4602B029
:1030F00080BDC04680B582B000AF0200FB1D1A70D3
:10310000034AFB1D1B781372C046BD4602B080BD4A
:103110000004004080B582B000AF0200FB1D1A70B1
:10312000BB1D0A1C1A70FB1D1B78012B08D0022B3B
:103130000BD0002B0ED10B4ABB1D1B7853720BE03A
:10314000084ABB1D1B78937206E0064ABB1D1B781C
:10315000D37201E0172300E000231800BD4602B03F
:1031600080BDC0460004004080B582B000AF0200C0
:10317000FB1D1A70084AFB1D1B780F210B40D9B2AA
:1031800053680F20014049001E2083430B435360C6
:10319000C046BD4602B080BD0040004180B500AFD2
:1031A000C046044BDB6810221340FAD0C046BD462F
:1031B00080BDC0460008004080B500AF0C4B022225
:1031C0009A840C4B98470A4A0B4B9B68D362084A77
:1031D000094B5B689362064B00229A84054B984723
:1031E000034A054B1B689BB29384C046BD4680BD15
:1031F000000800409D310000DC00002080B582B056
:1032000000AF0200FB1D1A70FB1D1B78082B40D875
:103210009A00224BD3181B689F46214B1B6939E04B
:10322000204B1B6A9B059B0FDBB21A001E4BD34041
:1032300030E080231B022DE080231B022AE0184B84
:103240005B6927E0164B1B680222134001D1002363
:1032500020E0164B9847124B1B680422134009D0FC
:103260000020134B984702000D4B9B681B041B0C5E
:1032700053430FE00F4B0DE00A4A5023D35CDBB2FF
:103280001A000423134001D1002303E0044BDB6840
:1032900000E000231800BD4602B080BDA87F0100F9
:1032A000DC0000200008004000127A009D31000080
:1032B00075390000006CDC0280B584B000AF786026
:1032C0001A4B1B6AFB607B681B781A1C0323134094
:1032D000DAB20D23FB1803210A4010001A780321EB
:1032E0008A43111C021C0A431A707B689A780C23CB
:1032F000FB18D0011A787F210A40111C021C0A43D6
:103300001A707B685A780C23FB1801210A4090013F
:103310001A7840218A43111C021C0A431A70034B7D
:10332000FA681A62C046BD4604B080BD000800407D
:1033300080B582B000AF0200FB1D1A70FB1D1B7828
:10334000082B3BD89A00214BD3181B689F46204B73
:103350001F4A126A02210A431A62002331E01C4B01
:103360001B4A926902210A439A6129E0184A184BC4
:103370001B8A9BB202210B439BB2138220E0144AAA
:10338000134B9B8A9BB202210B439BB2938217E0A3
:10339000104B1B6802221A430E4B1A600E4B9847C3
:1033A0000EE00B4A0A494423CB5CDBB202210B43FB
:1033B000D9B24423D15403E0002302E0172300E0F4
:1033C00000231800BD4602B080BDC046CC7F01007E
:1033D00000080040DC000020B931000080B582B058
:1033E00000AF3B0001221A7000237B6009E07B687C
:1033F000DBB23A0011001800054B98477B68013397
:103400007B607B68242BF2D9C046BD4602B080BDEC
:103410005138000080B5A0B000AF364BC222D200B8
:103420009A600020344B9847344B98477C23FB1814
:103430001800334B98477C23FB1800221A707C231A
:10344000FB1801229A707C23FB1800225A707C23FF
:10345000FB1818002B4B984706202B4B98472B4BFB
:1034600098474C23FB181800294B98474C23FB180E
:1034700006221A704C23FB1810225A604C23FB18AA
:1034800000221A724C23FB1800225A724C23FB189C
:10349000190003201F4B984703201F4B984700201B
:1034A0001E4B9847002100201D4B9847002101200A
:1034B0001B4B984700210220194B98473B1D1800D1
:1034C000134B98473B1D06221A703B1D01225A6080
:1034D0003B1D00221A723B1D00225A723B1D19002F
:1034E00000200C4B984700200B4B9847C046BD4628
:1034F00020B080BD0008004069310000DD330000CD
:10350000D1300000B932000031330000C93500006D
:10351000A1300000F93500001D370000F530000033
:103520001531000080B582B000AF02003960FB1D8C
:103530001A70FB1D1B78012B0AD0022B0FD0002B19
:1035400014D10E4B0D4A91693A680A439A610FE013
:103550000A4B0A4AD1693A680A43DA6108E0074B24
:10356000064A116A3A680A431A6201E0172300E02A
:1035700000231800BD4602B080BDC04600040040D4
:1035800080B500AF024B9847C046BD4680BDC046DF
:10359000C11B000080B500AF024B9847C046BD4636
:1035A00080BDC046151C000080B500AF054B5B78A0
:1035B000DBB25BB2002B01DA012300E0002318002C
:1035C000BD4680BD000C004080B500AF0821002042
:1035D000074B9847074B01221A70C046054B1B78D2
:1035E000DBB21A0001231340F8D1C046BD4680BDAE
:1035F00025350000000C004080B586B000AF020009
:103600003960FB1D1A70FB1D1B787B61FB1D1B784D
:103610003B613B681B781B021A007B6913437B618B
:103620003B685B78002B04D07B698022D202134375
:103630007B613B685B7A002B04D07B69802212039C
:1036400013437B613B685B68012B2CD93B685A684C
:103650003B685B68013B13401AD10023FB600223E7
:10366000BB6005E0FB680133FB60BB685B00BB60CF
:103670003B685A68BB689A42F4D8FB681B023A69F7
:1036800013433B617B698022520313437B610AE051
:103690003B685B681B023A6913433B617B6980228C
:1036A000920213437B613B681B7A002B04D07B6939
:1036B0008022920313437B61C046134B9847031E3D
:1036C000FBD1124B9847124AFB1D1B781370C04662
:1036D0000D4B9847031EFBD10E4B3A699A60C046CA
:1036E000094B9847031EFBD10A4B0A4A51688022B6
:1036F000520211407A690A435A60074B9847C04604
:10370000BD4606B080BDC046A93500008135000029
:10371000080C0040000C00409535000080B582B0D8
:1037200000AF0200FB1D1A70C0460E4B9847031EE7
:10373000FBD10D4B98470D4AFB1D1B781370C046FB
:10374000084B9847031EFBD1094B094A5268802158
:1037500049020A435A60074B9847C046BD4602B02B
:1037600080BDC046A935000081350000040C004032
:10377000000C00409535000080B586B000AF020017
:10378000FB1D1A70C0462A4B9847031EFBD1294BDC
:103790009847294AFB1D1B781370C046244B984755
:1037A000031EFBD1254B5B68DB04DB0EDBB218008C
:1037B000234B984703007B611F4AFB1D1B78137046
:1037C0001E4B5B68DB02DB0FDAB21323FB181A70A7
:1037D0001C4AFB1D1B781370C046154B9847031EEF
:1037E000FBD1164B9B681B021B0C9BB2FB60164B5C
:1037F00098471323FB181B78002B09D1FB68012B7A
:1038000006D9124BF9687869984703007B610AE092
:103810001323FB181B78002B05D0FB6801337A6952
:10382000DA4013007B617B691800BD4606B080BD9D
:10383000A935000081350000040C0040000C004058
:10384000FD310000080C00409535000029410100C1
:1038500080B584B000AF02003960FB1D1A70FB1DFB
:103860001B78FB603B681B781B021A00FB68134344
:10387000FB60FB1D1B781800044B9847044BFA684B
:1038800092B25A80C046BD4604B080BDDD3800000B
:10389000000C004080B582B000AF0200FB1D1A7022
:1038A0000A4B98470A4AFB1D1B7813700949094BBC
:1038B0005B889BB28022D20113439BB24B80064BA4
:1038C0009847C046BD4602B080BDC0468135000065
:1038D000020C0040000C00409535000080B584B01B
:1038E00000AF0200FB1D1A701C4B98471C4AFB1DC1
:1038F0001B7813701B4B5B881B051B0FDBB2FB6037
:10390000184A538818490B405380164A154B5B8858
:103910009BB216490B409BB25380C046114B5B884B
:103920009BB21A008023DB011340F7D10D4AFB68DC
:10393000DBB2191C0F230B40D9B25388081C0F218E
:103940000140080208490B40191C031C0B4353801B
:10395000074B9847C046BD4604B080BD8135000086
:10396000020C0040000C0040FFF0FFFFFFBFFFFF14
:103970009535000080B584B000AF0200FB1D1A70C1
:103980000D4B98470D4AFB1D1B7813700C4B5B8841
:103990001B051B0FDAB20F23FB181A70094B98474F
:1039A0000F23FB181B781800074B984703001800DB
:1039B000BD4604B080BDC04681350000020C004009
:1039C000000C0040953500007937000080B584B0C8
:1039D00000AF0200FB1D1A700F23FB18FA1D1278AE
:1039E000D2091A700E23FB18FA1D127852091A70A8
:1039F0000D4BBB600F23FB181B78002B0FD10F233F
:103A0000FB181B789B0010229446BC446344083B7F
:103A10001A680E23FB181B78DB01D31800E0002383
:103A20001800BD4604B080BD0044004180B588B098
:103A300000AFF860B9607A600023FB617B68DB78D7
:103A400001225340DBB2002B35D07B681B78802BE2
:103A50000BD0FB69802252021343FB617B681B7809
:103A60001B061A00FB691343FB617B685B78002B24
:103A700003D07B685B78022B10D1FB698022920215
:103A80001343FB617B689B78002B04D0FB69802289
:103A9000D2021343FB61FB68BA685A607B685B78AB
:103AA000012B03D07B685B78022B07D1FB69224A8C
:103AB0001340FB6102E0FB68BA685A60BB681B04F4
:103AC0001B0CBB61BB681B0C7B61BA69FB691343B0
:103AD000A022D2051A43FB689A627A69FB691343F4
:103AE000D02212061A43FB689A627B68DB780122B7
:103AF0005340DBB2002B1AD0FA698023DB0213405B
:103B00000AD07B689B78012B03D1FB68BA689A6165
:103B100002E0FB68BA685A617B685B78012B03D0CE
:103B20007B685B78022B02D1FB68BA689A60C0465A
:103B3000BD4608B080BDC046FFFFFBFF80B584B026
:103B400000AF02003960FB1D1A70FB1D1B781800C6
:103B50000A4B98470300FB60FB1D1B781F22134094
:103B600001229A401300BB603A68B968FB681800EC
:103B7000034B9847C046BD4604B080BDCD39000018
:103B80002D3A000080B500AFC046BD4680BDC0469E
:103B900080B500AF064B9847064B9847064B9847B1
:103BA000064B9847064B9847C046BD4680BDC04669
:103BB00015340000511D0000853B00004903000042
:103BC000853B000080B582B000AF2F4B7B602F4B50
:103BD0003B607A683B689A420CD007E03B681A1D4C
:103BE0003A607A68111D796012681A603A68284B49
:103BF0009A42F3D3274B3B6004E03B681A1D3A60BE
:103C000000221A603A68244B9A42F6D3234B7B6019
:103C1000234B7A68FF218A439A60224A90235B00F3
:103C20000221D150204AD37803218B43191C02234F
:103C30000B43D3701C4AD3780C218B43191C0823E7
:103C40000B43D370194A937B30218B43191C2023DB
:103C50000B439373154A937B0C218B43191C082348
:103C60000B439373114A937B03218B43191C02234B
:103C70000B4393730E4A536880210B4353600D4BE3
:103C800098470D4B9847FEE7288801000000002068
:103C90007C00002080000020F820002000000000B0
:103CA00000ED00E00070004100500041004800417C
:103CB00000400041F5730100C908000080B500AF65
:103CC000FEE7C04680B584B000AF78600A4B1B6841
:103CD000002B02D1084B094A1A60074B1B68FB6096
:103CE000054B1A687B68D218034B1A60FB681800F2
:103CF000BD4604B080BDC046F4000020184000203E
:103D000080B582B000AF786001235B421800BD46E9
:103D100002B080BD80B582B000AF786039603B688A
:103D2000802292015A6000231800BD4602B080BD77
:103D300080B582B000AF786001231800BD4602B0A4
:103D400080BDC04680B584B000AFF860B9607A60CD
:103D500000231800BD4604B080BDC046000000002E
:103D6000F50600819853000030010500904A0000DC
:103D700000000000044F000004000000A8870000BD
:103D8000FC060081A853000028010B009C4A00009B
:103D900000000000D44D000004000000A8870000CF
:103DA000F6060081B853000030010600A04A00006A
:103DB00000000000044F000004000000A88700007D
:103DC000F2060281D853000000031800344B0000B3
:103DD000C04A0000CC4A00000800040000000000B7
:103DE000F6060381E853000000022B00004B0000A0
:103DF000E04A0000F04A00000C0000000000000053
:103E0000F60601810854000028014900084B000013
:103E100000000000D44B000004000000A887000050
:103E2000FE0601815854000030011600404B00008E
:103E300000000000E84E000004000000A887000019
:103E4000F30601816854000030014700584B000020
:103E5000504B0000D44B000004000000A887000075
:103E6000FF06008178540000300543003850000000
:103E70008C510000A451000018001000B087000011
:103E8000F70601818854000030014A00644B0000AD
:103E900000000000D44B000004000000A8870000D0
:103EA000F3060281D854000030011900AC4B000029
:103EB00000000000E051000004000000E066000087
:103EC000FE0600810855000030020C00B84D0000CD
:103ED00000000000C04B000014000800607C0000DF
:103EE000F50601811855000028014800D04B00005C
:103EF00000000000D44B000004000000A887000070
:103F0000F80601812855000000024B00F84B000024
:103F1000E84B0000004C000008000000000000001A
:103F2000FA06008138550000300207004C4E0000B0
:103F300000000000084C000024001800246A000063
:103F4000F106028148550000300251000C4E00007D
:103F5000184C00007C4F000004000000A8870000FF
:103F6000F00602815855000020024F00944E0000D8
:103F70002C4C0000404C0000080004000000000031
:103F8000F20601816855000028014600704C0000CF
:103F9000000000000C4D000004000000A887000095
:103FA000F10601817855000030024500944D000073
:103FB000744C0000844C00000C00040038820000A7
:103FC000F40602818855000000031A00AC4C000082
:103FD000A04C0000B84C00000C00040000000000E1
:103FE000FF060081B855000020030E00D84C0000E9
:103FF00000000000604E000014000800607C00001B
:10400000FA060281C855000030052000E44D00008A
:104010008C510000A451000018001000B08700006F
:10402000FC0602813856000030032300284E0000B1
:104030008C510000A451000018001000B08700004F
:10404000F50603818856000030012A00084D000063
:10405000004D00000C4D000004000000A887000087
:10406000F40601819856000001001200684A000021
:10407000FD060181B856000020024E00504D0000A0
:104080003C4D0000584D000010000C0000000000E6
:10409000F0060281C856000030011700704D000084
:1040A000644D0000E051000004000000A8870000FB
:1040B000F8060281E856000030011B009C4D00000C
:1040C00000000000E051000004000000A88700008C
:1040D000F2060081F856000028015C00904F0000B5
:1040E000000000007C4F000004000000A8870000D2
:1040F000F90601810857000030021400B04D00009D
:10410000A04D0000E84E00000C000400587B0000A9
:10411000FD0600811857000030030D00B84D000067
:1041200000000000C44D000014000800607C000086
:10413000F706008128570000300308004C4E0000AD
:1041400000000000D44D000024001800047400009A
:10415000F30600813857000030041F00E44D0000D2
:104160008C510000A451000018001000B08700001E
:10417000F60600816857000030032E0080500000D2
:104180008C510000A451000018001000B0870000FE
:10419000FF0602817857000030022200284E0000FE
:1041A0008C510000A451000018001000B0870000DE
:1041B000F40600818857000030031E00484F0000BD
:1041C0008C510000A451000018001000B0870000BE
:1041D000F8060281A857000030021D00B851000007
:1041E0008C510000A451000018001000B08700009E
:1041F000F7060381B857000001005900F0430000A2
:10420000FB060181E857000020024D00344E0000FB
:10421000000000003C4E0000080004000000000008
:10422000F50601810858000020011300584E0000D7
:1042300000000000604E00000C00040000000000C0
:10424000F306018118580000300111005C4E000097
:1042500000000000604E000004000000A88700007D
:10426000F20601812858000001001000E04900001A
:10427000F20603813858000028015600784E0000ED
:104280006C4E00007C4F000004000000A887000076
:10429000F606038148580000280158007C4E0000B3
:1042A000000000007C4F000004000000A887000010
:1042B000F006038158580000010054001047000028
:1042C000FF0601816858000020035000944E000052
:1042D000804E0000A04E000010000800000000000A
:1042E000F90603818858000030025A00C44E0000CD
:1042F000B44E0000CC4E00000C00040038820000D8
:10430000F40600819858000028015E00D84E000095
:10431000000000007C4F000004000000A88700009F
:10432000F10600816859000001000100070000004B
:10433000F3060081B85900000100030009000000E5
:10434000FD0601818859000030031500DC4E000095
:1043500000000000E84E000018001000447B000040
:10436000F8060081A85900000100090004000000BF
:10437000F2060081C859000001000200060000009A
:10438000F90600819859000001000A000B000000A6
:10439000F40600817859000030020400FC4E000051
:1043A00000000000044F000008000400B08200007C
:1043B000FB0602812859000030042100484F00000C
:1043C0008C510000A451000018001000B0870000BC
:1043D000FE060281385900003003300070500000A2
:1043E0008C510000A451000018001000B08700009C
:1043F000F80603814859000030011C00B851000044
:104400008C510000A451000018001000B08700007B
:10441000F50600815859000030015F00784F000018
:10442000000000007C4F000004000000A88700008E
:10443000F6060081D859000030000000904F0000BF
:1044400000000000944F000004000000A887000056
:10445000F9060281E859000028015300B84F000016
:10446000A44F0000BC4F000004000000A88700001B
:10447000F4060381F859000010015700D44F0000E2
:10448000C44F0000D84F00001400040070850000E5
:10449000FE060281085A000020022500FC4F0000A1
:1044A000E04F0000E84F00001C000C008885000071
:1044B000FF060381185A000030012400FC4F000061
:1044C000F44F0000045000001C000C008885000020
:1044D000F9060081285A000030043D001850000001
:1044E00010500000A451000018001000B087000018
:1044F000F8060081385A000030043C0028500000C3
:104500008C510000A451000018001000B08700007A
:10451000FD060281485A0000300442003850000075
:104520008C510000A451000018001000B08700005A
:10453000F0060181585A0000300544004C5000003C
:104540008C510000A451000018001000B08700003A
:10455000FA060181685A000030044C0060500000E7
:104560008C510000A451000018001000B08700001A
:10457000F7060081785A000030043B0070500000BC
:104580008C510000A451000018001000B0870000FA
:10459000F5060081885A000030043A00805000007F
:1045A0008C510000A451000018001000B0870000DA
:1045B000F2060081985A0000300539009050000042
:1045C0008C510000A451000018001000B0870000BA
:1045D000FE060081A85A000030043200C4500000DA
:1045E0008C510000A451000018001000B08700009A
:1045F000F1060081B85A000030043800A4500000D1
:104600008C510000A451000018001000B087000079
:10461000FF060381C85A000030043700B450000080
:104620008C510000A451000018001000B087000059
:10463000FE060381D85A000030053600C450000041
:104640008C510000A451000018001000B087000039
:10465000FD060381E85A000030033500D850000001
:104660008C510000A451000018001000B087000019
:10467000FC060381F85A000030043400E4500000C6
:104680008C510000A451000018001000B0870000F9
:10469000FB060381085B000030053300F450000086
:1046A0008C510000A451000018001000B0870000D9
:1046B000FA060381185B0000300431000851000045
:1046C0008C510000A451000018001000B0870000B9
:1046D000FD060081285B0000010041000800000089
:1046E000FC060081385B0000010040000A00000069
:1046F000FA060381485B000001005B000500000032
:10470000FB060081585B000001003F00F0460000FE
:10471000F1060381685B0000010055007044000051
:10472000FA060081785B000001003E00B044000002
:10473000F1060181885B000001000F003044000099
:10474000F2060381985B0000300229002C51000022
:10475000185100003451000004000000A887000038
:10476000F0060381A85B0000200228005C510000D5
:1047700048510000E051000014000000000000005B
:10478000F9060381B85B000030042F00645100007B
:104790008C510000A451000018001000B0870000E8
:1047A000F6060281C85B0000200452007C51000024
:1047B00074510000A4510000180010000000000017
:1047C000F8060381D85B000030042D0094510000EE
:1047D0008C510000A451000018001000B0870000A8
:1047E000F7060381E85B000030042C00B85100009C
:1047F000B0510000C851000018001000B087000040
:10480000F3060381F85B000020022600D45100006B
:1048100000000000E051000018001000000000003F
:10482000FF060281085C000020032700D45100002D
:1048300000000000E051000018001000000000001F
:10484000F7060281C85300000600010000000000C6
:10485000F9060181F853000034010000004B00000C
:10486000F84A0000F4060181185400000600000018
:1048700000000000F106028128540000060001003B
:1048800000000000F6060281385400000401000018
:10489000344B00001C4B0000F50602814854000018
:1048A00004020000344B0000284B0000FC0601818C
:1048B0009854000006010100684B0000F3060381D4
:1048C000A85400000600010000000000FE0601815F
:1048D000B854000024010000504D0000804B00003F
:1048E000FC060381C854000006000200000000001E
:1048F000FB060181E854000034010000B04D0000C7
:10490000B04B0000F8060181F854000034010000AB
:10491000BC4B000000000000FF060181985500001C
:1049200034020000DC4E000000000000F0060181AF
:10493000A855000034020000D84C00000000000020
:10494000FC060281D85500000600010000000000AE
:10495000FB060281E855000006000200000000008E
:10496000FA060281F855000006000300000000006E
:10497000FD0603810856000006000100000000004B
:10498000F506038118560000060002000000000032
:10499000F10600812856000006000000000000001B
:1049A000F4060281485600000600010000000000E5
:1049B000F5060281585600000600000000000000C5
:1049C000F30602816856000006010300F04C000067
:1049D000FE0603817856000006000000000000007B
:1049E000FA060181A856000006020200184D0000D8
:1049F000FB060381D856000034010000944D0000EE
:104A0000844D0000F2060281485700003401000086
:104A10000C4E0000F84D0000F106038158570000CD
:104A2000340100005C510000144E0000F7060281C2
:104A30009857000034030000B85100008C5100006A
:104A4000F4060381C857000024010000D45100007F
:104A500000000000FC060181D8570000240100007E
:104A6000344E000000000000F6060181F8570000F7
:104A7000340100004C4E000000000000F9060281E5
:104A8000785800002C010000DC4E000000000000FF
:104A900030440000D049000040480000304400008D
:104AA00030440000D049000080490000D049000097
:104AB000D049000040480000D049000040480000B4
:104AC00000000100944A0000984A0000A46500001C
:104AD00050660000D4600000644800006464000078
:104AE00000000200A44A000000000000A84A0000E4
:104AF000E0600000F860000000000000AC4A000028
:104B0000304400005048000030440000B04900002C
:104B1000A0490000E0480000C0490000000001007A
:104B2000B04A0000B44A000000000100B84A00008A
:104B3000BC4A00003044000084480000984800004F
:104B40003044000090490000EC720000AC480000C6
:104B500000000000D84A000030440000D0490000A6
:104B6000804900003044000001000000904900002E
:104B7000B0490000A0490000C0490000A049000061
:104B8000000003000C4B0000104B0000144B000011
:104B9000184B0000D0490000704900005C6500001F
:104BA000E0480000D04900004048000030440000C8
:104BB00000000100444B00004C4B0000304400005A
:104BC00060800000B0800000EC640000806C000099
:104BD0003044000060800000B08000006464000089
:104BE00064480000D8690000000002005C4B00002F
:104BF00000000000604B00003044000050480000FE
:104C0000CC640000E464000060800000B08000001C
:104C1000EC640000E46C000000000300704B000036
:104C2000744B000000000000784B000000000300FF
:104C30002C4D00007C4B000000000000384D0000AF
:104C400060800000B0800000F4640000086500008F
:104C500028650000B0490000A0490000E0480000BD
:104C6000C049000064480000C4800000744800008F
:104C70003044000000000200944B0000984B0000FC
:104C8000A04B00005C650000B0800000886500005B
:104C9000D049000070490000C4710000E0480000E5
:104CA00000000100A44B0000A84B000030440000AD
:104CB0008448000098480000A46500005066000089
:104CC0006866000090490000EC720000AC480000EB
:104CD000E04900003867000030440000684A0000E6
:104CE0002C490000B0490000A0490000C049000064
:104CF00001000000B0490000B0490000C0490000B8
:104D000000000000E04B0000304400006080000024
:104D1000B0800000D869000002000000AC4800002C
:104D200090490000D0490000BC480000B049000094
:104D3000A0490000E0480000C04900000000030056
:104D4000544C0000584C00005C4C0000604C0000CB
:104D500030440000CC48000060800000B0800000BB
:104D6000686A000000000100644C00006C4C000008
:104D700030440000D049000070490000C4710000B8
:104D8000E048000000000200904C0000944C00003D
:104D90009C4C000030440000F0490000304400000A
:104DA00000000200C44C0000CC4C0000D04C0000BD
:104DB00030440000F048000030440000684A000021
:104DC000C03E000060800000B08000006C6C0000FD
:104DD000806C000060800000B0800000886C0000E3
:104DE000E46C000030440000F0430000D0410000BB
:104DF000B04100005041000000000300E44C0000FE
:104E0000E84C000000000000EC4C000030440000C2
:104E1000044A000000000300F84C000000000000FD
:104E200000000000FC4C000030440000F043000093
:104E30009041000030440000544A000060800000AF
:104E4000B0800000786F0000B46F000030440000B4
:104E5000684A0000203F0000304400003044000059
:104E600060800000B0800000BC6F00000000010006
:104E7000244D0000284D0000304400003044000064
:104E8000000003002C4D0000304D0000344D0000A8
:104E9000384D000030440000044A0000603F00002C
:104EA00060800000B080000080700000BC700000D6
:104EB000F870000000000200744D0000784D000002
:104EC000804D000030440000F0490000C471000033
:104ED000B0800000E4710000304400003044000065
:104EE0007C4A00001849000060800000B08000008B
:104EF0009C720000B4720000EC72000030440000AC
:104F0000544A000060800000B080000080840000EF
:104F1000A4820000D0490000404900005049000030
:104F200060490000D049000070490000287D000061
:104F30008049000090490000547D00009049000025
:104F4000A88A0000D049000030440000F04300006F
:104F5000D0410000B0410000B0490000A04900006D
:104F6000C0490000B0490000C0490000D04900001D
:104F7000D0490000D04900003044000060800000AB
:104F8000B08000001C7900006C7F0000A887000042
:104F90003044000060800000B0800000B07C000061
:104FA000B07C000000000300144F0000184F000008
:104FB0001C4F0000204F000030440000C87C00005F
:104FC000B080000000000200244F0000284F0000C5
:104FD000304F000030440000287D0000307D00008C
:104FE00000000000344F0000B47D0000B0800000DD
:104FF000547D0000000000003C4F000030440000E1
:10500000B0440000B47D0000B0800000A88A000019
:1050100000000000444F000030440000F043000056
:10502000D04100002C4A000030440000F043000052
:1050300090410000D043000030440000F0430000E5
:1050400090410000D04300001045000030440000B3
:10505000F043000090410000D043000010450000E4
:1050600030440000F043000090410000D0430000B5
:1050700030440000F043000090410000D0430000A5
:1050800030440000F04300009041000070410000F7
:1050900030440000F0430000D0410000B041000067
:1050A0005041000030440000F043000090410000F7
:1050B0007041000030440000F043000090410000C7
:1050C000D043000030440000F04300009041000055
:1050D000D0430000D045000030440000F043000001
:1050E0009041000030440000F04300009041000077
:1050F000D043000030440000F04300009041000025
:10510000D0430000D045000030440000F0430000D0
:1051100090410000D043000000000300584F000001
:105120005C4F000000000000604F000030440000B1
:10513000044A000060800000B0800000607F000032
:105140006C7F0000A887000000000300644F00008F
:105150000000000000000000684F00003044000024
:10516000184A000030440000F04300009041000065
:1051700070410000000000006C4F0000304400004F
:10518000F0430000D04100002C4A00000000000065
:10519000704F000030440000F0430000D041000098
:1051A000B0410000CC7F0000B0800000947F000080
:1051B00000000000744F000030440000F043000085
:1051C000D04100002C4A0000CC7F0000B0800000DD
:1051D0002C80000030440000404A000000480000DD
:1051E00060800000B0800000C4800000890C04D5FD
:1051F000590100009A7CB90900000000600000001D
:105200009795000008000000205300007C970000E4
:1052100004000000685300003B96000004000000FA
:10522000CC52000033960000040000001852000029
:10523000FE96000008000000CC520000BA91000069
:1052400005000000CC520000CC95000005000000D5
:105250002C5300005E970000040000002053000063
:105260000D97000009000000D852000029970000A7
:105270000700000030520000FF900000070000000F
:10528000745300006F97000003000000000000004E
:10529000E39500000300000068530000E395000060
:1052A00003000000F05200005796000007000000C5
:1052B0006C5200002A960000020000006C520000B0
:1052C000FB960000030000006C5200006B9700008A
:1052D0000400000084520000249700000500000034
:1052E000F05200002A960000020000002053000047
:1052F00029970000070000002C5300008090000058
:1053000003000000F05200000096000007000000BB
:10531000CC5200006997000002000000CC5200004F
:105320008097000004000000000000004297000089
:10533000020000000000000078900000040000005F
:10534000000000005E9700000400000068530000A9
:105350002997000007000000085300002A9600006B
:105360000200000068530000629700000700000080
:10537000145300007C97000004000000205300003C
:105380008C94000003000000745300003F9700005D
:10539000030000002C530000349700000B000000B5
:1053A0008C53000000000000DB96000005000000A8
:1053B000D8520000000000003097000004000000F8
:1053C0008C530000000000009295000005000000D2
:1053D000005200000000000068950000110000006D
:1053E0007453000000000000E5930000040000007A
:1053F0007453000000000000F3930000060000005A
:1054000074530000000000009791000008000000A5
:105410000C52000000000000BF9500000D000000CD
:105420004852000000000000D1950000120000006A
:105430009C52000000000000889500000A00000057
:105440000052000000000000799500000F000000ED
:105450000052000000000000E69500000900000076
:105460008C53000000000000A99100001100000012
:105470003C520000000000001B9200001F000000D2
:1054800074530000000000008A9100000D0000002D
:105490000C520000000000003796000004000000DD
:1054A0001852000000000000C49000000A00000034
:1054B0005452000000000000589100000600000057
:1054C000E452000000000000E79100000A00000024
:1054D0007453000000000000599500000F00000008
:1054E00074530000000000002C960000070000002C
:1054F0002452000000000000479600001000000049
:10550000A852000000000000D49600000700000030
:1055100060520000000000009F9100000A0000009F
:105520003C520000000000008391000007000000D2
:105530007453000000000000069700000700000000
:1055400060520000000000001991000010000000EF
:105550005C530000000000003491000012000000C5
:10556000E452000000000000BF91000007000000AE
:105570004852000000000000C69100000C0000002E
:105580007453000000000000479500001200000066
:105590005452000000000000079600000D000000BB
:1055A0006C52000000000000B296000015000000E0
:1055B00060520000000000009D96000015000000F1
:1055C0006C52000000000000ED9400001300000089
:1055D0007453000000000000FB9000000400000075
:1055E0007852000000000000E99000001200000066
:1055F0007852000000000000D99000001000000068
:105600007852000000000000F19100000C00000042
:105610007453000000000000E99300000A0000003D
:1056200074530000000000003F96000008000000D6
:105630007453000000000000BE9400000B00000046
:10564000E452000000000000269400000900000061
:10565000E452000000000000549400000D0000001F
:1056600074530000000000004B940000090000008B
:10567000E4520000000000009F9500000C000000B4
:10568000E452000000000000F99300001000000048
:10569000905200000000000075970000010000001B
:1056A000F857000000000000929600000B00000078
:1056B000F0520000000000004691000012000000BF
:1056C000E452000000000000AB9500001400000050
:1056D0009C52000000000000D29100001500000064
:1056E0007453000000000000369500001100000017
:1056F000F052000000000000879000000F00000042
:10570000A8520000000000001B9600000F000000DF
:10571000B452000000000000C79600000D00000019
:10572000C052000000000000EE9600000D000000D6
:10573000C052000000000000009500001C000000A6
:1057400074530000000000001A9400000C000000D8
:10575000E452000000000000409400000B00000034
:10576000E452000000000000909300001C000000C4
:105770007453000000000000C994000009000000FC
:1057800074530000000000001C9500000C00000095
:105790007453000000000000D293000013000000CA
:1057A0007453000000000000289500000500000070
:1057B0007453000000000000759700000100000015
:1057C0004859000000000000839400000900000018
:1057D00080530000000000004C9700001200000001
:1057E00044530000000000005E9100000B00000028
:1057F0004453000000000000169700000E00000057
:10580000D85200000000000076960000130000004F
:10581000D852000000000000899600000900000036
:10582000F052000000000000759700000100000029
:10583000A856000000000000A99000001B00000016
:105840007453000000000000A39000000600000058
:105850007453000000000000569200000200000097
:10586000F859000000000000299100000B00000022
:10587000E452000000000000149600000700000041
:10588000F052000000000000969000000D000000A3
:1058900074530000000000007C9000000400000031
:1058A000FC5200000000000074970000010000009E
:1058B0000000000007000000EC960000010000005E
:1058C000000000000B000000ED9600000100000049
:1058D00000000000040000007297000001000000BA
:1058E00000000000090000007397000001000000A4
:1058F00000000000060000005392000001000000BC
:1059000000000000080000005492000001000000A8
:10591000000000000A000000559200000100000095
:105920000000000005000000D29400001B000000F1
:1059300074530000000000006A9300001000000093
:1059400074530000000000002D95000009000000C5
:105950007453000000000000709000000800000078
:10596000385300000000000075970000010000009F
:10597000A8580000204300004497000008000000E1
:105980004453000090430000EF9500001100000018
:1059900050530000404300007597000001000000D4
:1059A000B858000080430000759700000100000017
:1059B000C858000060430000759700000100000017
:1059C000D858000030430000759700000100000027
:1059D000E8580000704300007697000006000000C1
:1059E0007453000000000000D49000000500000087
:1059F0007453000000000000CE900000060000007C
:105A000074530000000000008F9400000A000000A2
:105A1000745300000000000099940000060000008C
:105A200074530000000000005892000010000000B5
:105A30007453000000000000689200001400000091
:105A400074530000000000003A92000019000000AA
:105A50007453000000000000FD9100001E000000D3
:105A60007453000000000000699100001A0000005B
:105A700074530000000000007C920000130000003E
:105A800074530000000000008F9200001600000018
:105A90007453000000000000A592000012000000F6
:105AA0007453000000000000409300001800000044
:105AB0007453000000000000B792000016000000C0
:105AC0007453000000000000CD9200001C00000094
:105AD0007453000000000000E99200001B00000069
