:10000000C86F0020F1350000E9360000450300000C
:1000100000000000000000000000000000000000E0
:10002000000000000000000000000000093A00008D
:100030000000000000000000113B0000593B0000E0
:10004000E9360000E9360000E9360000E936000034
:10005000E9360000E9360000E9360000E936000024
:10006000E9360000651800007D18000095180000B2
:10007000AD180000C5180000DD180000E9360000CA
:10008000E9360000E9360000692F00007D2F0000EE
:10009000912F0000A52F0000B92F0000E9360000C5
:1000A000E9360000E9360000E9360000E9360000D4
:1000B0000000000010B5064C2378002B07D1054B3B
:1000C000002B02D0044800E000BF0123237010BDC4
:1000D000880000200000000084F10100084B10B5EA
:1000E000002B03D00749084800E000BF0748036819
:1000F000002B00D110BD064B002BFBD09847F9E731
:10010000000000008C00002084F1010084F1010057
:100110000000000080B588B000AF786000237B61EC
:10012000404B9847404B1B68002B04D13F4B9847EE
:100130003D4B01221A607B68002B0DD008231A006A
:100140007B689B187B607B680722134004D07B6828
:100150000722934308337B607B68002B56D07B6873
:10016000334A934252D8334BBB61324B1B68FB611D
:1001700004E0FB69BB61FB691B68FB61FB695A68B2
:100180007B689A4203D2FB691B68002BF1D1FA69A4
:10019000294B9A423AD0BB691B6808229B187B61A5
:1001A000FB691A68BB691A60FB695A687B68D31AD5
:1001B00008225200934222D9FA697B68D318FB6067
:1001C000FB695A687B68D21AFB685A60FB697A68D7
:1001D0005A60FB685B68BB60164B3B6102E03B69A1
:1001E0001B683B613B691B685A68BB689A42F6D33F
:1001F0003B691A68FB681A603B69FA681A600F4B22
:100200001A68FB695B68D21A0C4B1A600C4B984752
:100210007B69002B01D10B4B98477B691800BD46C9
:1002200008B080BD55480000B4200020C502000081
:10023000F71F0000A4200020AC20002000000020B8
:100240006D4800005503000080B586B000AF7860AF
:100250007B683B617B68002B27D008235B423A69AF
:10026000D3183B613B69FB60124B9847FB685B68A6
:10027000BB60114B7B6102E07B691B687B617B6922
:100280001B685A68BB689A42F6D37B691A68FB6898
:100290001A607B69FA681A60FB685A68074B1B682A
:1002A000D218064B1A60064B9847C046BD4606B0AA
:1002B00080BDC04655480000A4200020000000205A
:1002C0006D48000080B582B000AF0E4B072293430B
:1002D0007B600D4B7A681A600B4B00225A600B4B07
:1002E0000B4A5A60094B00221A607B683B603B68EE
:1002F000074A5A603B68054A1A60C046BD4602B0CC
:1003000080BDC046AC000020A4200020AC2000200E
:10031000F81F000080B500AF72B6044B1B685A1C72
:10032000024B1A6062B6C046BD4680BDB8200020B0
:1003300080B500AF024B9847C046BD4680BDC04661
:100340001503000080B500AFFEE7C04680B500AFE2
:10035000FEE7C04680B500AFFEE7C04680B500AFFF
:10036000024B1B78DBB21800BD4680BDBC200020CC
:1003700080B500AF014B1800BD4680BDC0330020E2
:1003800080B584B000AFF860B9607A607B689B6824
:100390005A1E7B689A607B689B68002B0ADA7B6830
:1003A0009A687B689B699A420EDBBB68FF22134008
:1003B0000A2B09D07B681B68591C7A681160BA68DF
:1003C000D2B21A701B7806E07A68B968FB68180028
:1003D000034B984703001800BD4604B080BDC046DB
:1003E000B1D5010080B582B000AF78607B68074A64
:1003F000934205D97B68064A934201D8002300E066
:1004000001231800BD4602B080BDC046FFFFFF1F9C
:10041000FE7F002080B582B000AF7860064B186880
:10042000054B1B689A687B681900044B9847C046C7
:10043000BD4602B080BDC04684000020810300009C
:1004400080B500AF014B1800BD4680BDC43300200D
:1004500080B584B000AF78607B681800064B984781
:100460000300FB60FB682A2B01D1044B9847C04670
:10047000BD4604B080BDC046C1590000CDF20000A9
:1004800090B587B000AF38607960134CFA229200C3
:10049000002338687968A04703000C003B617C6149
:1004A0000E4B0024BB60FC60BB68FC680121494224
:1004B000CA17C91862413B697C69C91862410800C2
:1004C0001100074CBA68FB68A04703000C00180035
:1004D0002100BD4607B090BD5DA301008813000058
:1004E00015A3010090B583B002AF1D4B00932A23E2
:1004F0000022642100201B4CA04702001A4B1A6006
:10050000194B1B68002B02D101235B4224E003221C
:1005100000210120154B98470200154B1A60144B1F
:100520001B68002B06D0124B186800230022002104
:10053000104CA0470E4B1B68002B02D101235B42DD
:100540000AE00B4B186801235A42002300210A4C91
:10055000A0470A4B984700231800BD4601B090BD44
:1005600051040000F5530000C82000209D3C00000D
:10057000CC200020393D000009400000650E00003D
:1005800080B500AF00231800BD4680BD90B58BB08C
:1005900002AF38607960324B5C681B687A68A242AF
:1005A00005DB7A68A24256D13A689A4253D22C4A65
:1005B0003B687C68136054602A4B186800230093E2
:1005C000002300220321284CA0470120274B9847F5
:1005D0000A0001003B687C685B1A9441BB61FC61C6
:1005E000BB69FC6918002100214B984703000C00EF
:1005F0003B617C617B69002B05DC7B69002B26D18C
:100600003B69002B23D0174B18683A6900230093ED
:1006100000230421144CA0470300FB60114B1C680D
:10062000144B98470200002300930023012120006F
:100630000D4CA0470300BB60FB68012B04D1BB68D5
:10064000012B01D1002307E001235B4204E00A4BA8
:100650009847030000E000231800BD4609B090BD94
:1006600008000020C82000206D540000A1070000F1
:10067000810400008D490000CDF2000090B583B0E8
:1006800000AF0A4B186801235A4200230021084C8E
:10069000A04703007B607B68012B01D1002301E0B0
:1006A00001235B421800BD4603B090BDCC20002062
:1006B0000940000090B583B000AF1A4B9847031E65
:1006C000012B15D100233B60174B18683A0000231B
:1006D0000021164CA04703007B603B68002B10D024
:1006E0003B68002B0DD0124B802252051A6008E0A7
:1006F0000D4B18680023002200210E4CA047030078
:100700007B600D4A01235B420C4C136054607B6894
:10071000012B01D1002301E001235B421800BD46FB
:1007200003B090BD5D030000CC200020013F00001D
:1007300004ED00E0393D000008000020FFFFFF7FCE
:1007400080B500AF00231800BD4680BD80B500AF66
:10075000024B984703001800BD4680BDF1510000D0
:1007600090B585B000AF3860796001200A4B98479A
:1007700003000C00BB60FC6039687A68BB68FC68E9
:10078000C91AA2410B001400044A13605460C04609
:10079000BD4605B090BDC046A1070000C0200020A6
:1007A00090B585B000AF0200FB1D1A700C4B984746
:1007B00003000C00BB60FC60FB1D1B78002B07D105
:1007C000084B19685A68BB68FC685B18544101E023
:1007D000BB68FC6818002100BD4605B090BDC0464E
:1007E000E50E0000C0200020B0B500AF034B9847D5
:1007F00003000C0018002100BD46B0BD0D0F000025
:1008000080B500AF00231800BD4680BD80B584B020
:1008100000AF1F4B98470300FB60FB68002B04D11F
:100820001C4B18001C4B98472DE01C4B18001A4B12
:100830009847FB68002200211800194B98470300D5
:10084000BB60BB68002B0EDABB68033304D1154BC9
:100850001800114B984712E0BA68134B11001800AA
:10086000124B98470BE0FB681800114B98470300A8
:100870007B607A680F4B110018000C4B9847FB689F
:1008800018000D4B9847C046BD4604B080BDC04619
:10089000815A0000F4E60100B5D3010010E7010021
:1008A000915A00001CE7010038E70100BDD20100A9
:1008B0009D5A000058E70100A55A000080B582B09B
:1008C00000AF78603960044B396878689847031C3A
:1008D000181CBD4602B080BDD9AB010090B585B0F3
:1008E00000AFB860F9603A607B60064C3A687B689C
:1008F000B868F968A04703000C0018002100BD4645
:1009000005B090BDB1C0010080B582B000AF02005B
:10091000FB1D1A70064BFA1D127811001F220A40A7
:10092000012191400A001A60C046BD4602B080BD58
:1009300000E100E080B584B000AF78607B681B68A0
:10094000FB60FB68DB695A1E9341DBB21800BD46B1
:1009500004B080BD80B582B000AF7860C0467B68CF
:100960001800044B9847031EF9D1C046BD4602B09B
:1009700080BDC0463509000080B582B000AF786008
:100980007B688022D2051A607B6800225A607B68EF
:10099000FF221A817B6800229A727B680022DA7239
:1009A0007B68962292011A627B6824220121995465
:1009B0007B682522012199547B68262200219954C5
:1009C0007B682722002199547B6800229A627B6809
:1009D00088225203DA607B682C22002199547B68BC
:1009E0002D22002199547B6800221A637B68002223
:1009F0005A637B6800229A637B680022DA637B6813
:100A000000225A617B6800221A827B680022DA7613
:100A10007B6800221A767B6800221A777B680022A6
:100A20005A767B6813229A767B6800225A77C046F2
:100A3000BD4602B080BDC04680B584B000AF7860CE
:100A40007B681B68FB607B681B681800094B984734
:100A500003001800084B98477B681800074B98471D
:100A6000FB681B6802221A43FB681A60C046BD4639
:100A700004B080BD191800000909000055090000E4
:100A800080B584B000AFF860B9607A607A68B96800
:100A9000FB681800054B9847031E01D1012300E0B5
:100AA00000231800BD4604B080BDC046C51C000030
:100AB00080B582B000AF78600A00FB1C1A70C04697
:100AC000FB1C1B789AB27B6811001800044B9847F6
:100AD000031EF5D100231800BD4602B080BDC046FC
:100AE000391F000080B584B000AF786039600E23F4
:100AF000FB1800221A80C0460E23FA187B681100EA
:100B00001800074B9847031EF6D10E23FB181B88CD
:100B1000DAB23B681A70C046BD4604B080BDC0461C
:100B20009D1F000080B584B000AFF860B9607A60A6
:100B3000104BFA681A60104B104A1A60104B114A99
:100B40001A607A68B968FB6818000F4B98470F4B1A
:100B50001B689B68002118000D4B98470B4B1B68C6
:100B60005B68002118000A4B9847C046BD4604B098
:100B700080BDC046483400204C340020B10A00003B
:100B800044340020E50A0000810A000084000020AF
:100B9000C9D3010080B590B000AF3B001800134BE3
:100BA00098473B00962292011A623B008022520332
:100BB000DA603B000E4A1A633B000E4A5A633B0060
:100BC000012252429A633B0001225242DA633A0008
:100BD00009490A4B18000A4B9847084B1800094B63
:100BE0009847C046BD4610B080BDC0467909000098
:100BF000020016000200170000140042C833002053
:100C0000250B0000390A000080B582B000AF786083
:100C100039600A4B1B78002B04D1094B9847074BCE
:100C200001221A707B689AB2064B11001800064B1D
:100C300098477B681800BD4602B080BDD0200020D8
:100C4000950B0000C8330020391F0000EFF310831C
:100C500072B602680160104683F310887047C04680
:100C600080B582B000AF0200FB1D1A70064BFA1D62
:100C7000127811001F220A40012191400A001A60D7
:100C8000C046BD4602B080BD00E100E080B584B042
:100C900000AF78607B681B68FB60FB68DB7BDBB2C6
:100CA0001A00802313405A1E9341DBB21800BD4640
:100CB00004B080BD80B582B000AF78607B68002250
:100CC0001A707B6800229A707B6800229A807B6889
:100CD00000229A717B6800221A817B6800225A7078
:100CE0007B6800229A727B680022DA727B6800229D
:100CF0001A737B6800229A737B6800225A737B68A0
:100D000000221A747B6800225A617B6800229A6173
:100D10007B6800221A777B6800221A627B680022B7
:100D20005A627B6800221A857B6800225A857B689C
:100D300000229A85C046BD4602B080BD80B584B011
:100D400000AF78607B681B68FB60C0467B6818005A
:100D5000074B9847031EF9D1FB681B889BB2022200
:100D600013439AB2FB681A80C046BD4604B080BDEA
:100D70008D0C000080B582B000AF7860044A7B68BB
:100D8000D3181B785BB21800BD4602B080BDC046C8
:100D90001000002080B582B000AF78600A00FB1C14
:100DA0001A707B681B681800224B984703001800D4
:100DB000214B984703001800204B9847FB1C1B78D9
:100DC000022B0BD17B685B7E10221343DAB27B6867
:100DD0005A767B681B6810225A7326E0FB1C1B782E
:100DE000032B0BD17B685B7E20221343DAB27B6836
:100DF0005A767B681B6820225A7316E07B685B7EFC
:100E00005AB2FB1C1B78012199400B005BB21343C3
:100E10005BB2DAB27B685A767B681B68FA1C127880
:100E2000012191400A00D2B25A73C046BD4602B0B9
:100E300080BDC04649310000750D0000610C000006
:100E400090B500AF064B5C681B68012100225B185F
:100E50005441034A13605460C046BD4690BDC0462D
:100E6000D820002090B58FB000AF144A0023002492
:100E7000136054603B1D1800114B98473B1D114AED
:100E80005A853B1D20229A713A1D0F490F4B1800BD
:100E90000F4B98470D4B18000E4B98470E490B4BC4
:100EA000022218000D4B9847084B022118000C4BEA
:100EB0009847C046BD460FB090BDC046D820002020
:100EC000B50C00001F030000002C0042FC33002082
:100ED000953100003D0D0000410E0000F52E000090
:100EE000950D0000B0B500AF064B18685968064C68
:100EF0000A220023A04703000C0018002100BD4671
:100F0000B0BDC046D820002015A30100B0B500AF89
:100F1000064B18685968064C064A0023A047030090
:100F20000C0018002100BD46B0BDC046D8200020EE
:100F30005DA30100A086010080B582B000AF104B18
:100F40001B68002B12D1EFF310837B607B68002BB2
:100F500009D172B6BFF35F8F0A4B00221A700A4B99
:100F600001221A7002E0084B00221A70044B1B6821
:100F70005A1C034B1A60C046BD4602B080BDC04635
:100F8000E020002015000020E420002080B500AF04
:100F90000B4B1B685A1E0A4B1A60094B1B68002B2F
:100FA0000AD1084B1B78DBB2002B05D0064B01227F
:100FB0001A70BFF35F8F62B6C046BD4680BDC046A3
:100FC000E0200020E42000201500002080B584B03F
:100FD00000AF0200FB1D1A700F23FB18FA1D1278D8
:100FE000D2091A700E23FB18FA1D127852091A70D2
:100FF0000D4BBB600F23FB181B78002B0FD10F2369
:10100000FB181B789B0010229446BC446344083BA9
:101010001A680E23FB181B78DB01D31800E00023AD
:101020001800BD4604B080BD0044004180B582B0C8
:1010300000AF0200FB1D1A70FB1D1B781800034B4C
:10104000984703001800BD4602B080BDCD0F0000D8
:1010500080B582B000AF78607B6800221A707B6830
:1010600001225A707B6800229A70C046BD4602B0C9
:1010700080BDC04680B584B000AF0200FB1D1A7071
:10108000BB1D0A1C1A70FB1D1B7818000D4B9847DE
:101090000300FB60FB1D1B781F22134001229A40B6
:1010A0001300BB60BB1D1B78002B03D0FB68BA6824
:1010B0009A6102E0FB68BA685A61C046BD4604B056
:1010C00080BDC0462D10000080B582B000AF3B1D32
:1010D00018000E4B98473B1D01221A703B1D19004A
:1010E0003E200B4B984701213E200A4B98473B1D61
:1010F00000221A703B1D01225A703B1D19000F205F
:10110000034B9847C046BD4602B080BD5110000059
:10111000411100007510000080B582B000AF78600A
:101120007B6880221A707B6800225A707B680122DB
:101130009A707B680022DA70C046BD4602B080BD5E
:1011400080B584B000AF02003960FB1D1A700C231B
:10115000FB181800104B98470C23FB1880221A70BC
:101160003B681A780C23FB185A703B685A780C239A
:10117000FB189A703B689A780C23FB18DA700C23E2
:10118000FA18FB1D1B7811001800044B9847C04645
:10119000BD4604B080BDC046191100006D2E000090
:1011A00080B582B000AF78607B6800221A70C046BC
:1011B000BD4602B080BDC046F0B58DB000AFB8608E
:1011C000F9603A607B60002300243B627C6200236C
:1011D0000024BB61FC613F23FB6253E0FB6A203BC0
:1011E000002B04DB01229A4013007B610BE0FB6AB9
:1011F0002022D31A0122DA4013000021FA6A91401A
:101200000A0013437B610122FB6A9A4013003B6191
:10121000BB69FC69DB186441BB61FC61BB683A696E
:101220001A401500FB687A691A4016002B003343F8
:1012300007D0BB6901221343BB61FB690022134342
:10124000FB617A68FB699A4219D87A68FB699A420D
:1012500003D13A68BB699A4211D8B969FA693B6807
:101260007C68C91AA2410B001400BB61FC613A6A98
:101270003B6913433B627A6A7B6913437B62FB6A77
:10128000013BFB62FB6A002BA8DA3B6A7C6A180010
:101290002100BD460DB0F0BD80B586B000AFF8604E
:1012A000B9607A601623FB1800221A80BB683B6184
:1012B000BB685A08FB689A4201D2402326E0BB680B
:1012C0005B083B610AE03A69FB68D31A3B6116236D
:1012D000FB181A881623FB1801321A803A69FB683A
:1012E0009A42F0D21623FB181622BA181288013A35
:1012F0001A801623FB181B88FF2B01D9402305E019
:101300007B681622BA1812881A8000231800BD467E
:1013100006B080BDF0B59DB000AFF863B9637A63E5
:101320003322BA18137000230024BB65FC65002328
:1013300000243B657C6500230024BB66FC6600231B
:101340003B66582330229446BC4463441A78FB6BB6
:101350005A43BB6B9A4201D94023C6E03323FB18A2
:101360001B78002B3DD1582330229446BC44634463
:101370001B78DBB23B6100237B61FB6BBB6000230E
:10138000FB605C4CBA68FB6838697969A047030068
:101390000C001B00FB640023BB64BB6B3B600023A1
:1013A0007B60B86CF96C3A687B68534CA0470300CB
:1013B0000C00BB65FC6500210122BB6DFC6DC91AE8
:1013C000A2410B0014003B657C653B6D1B0C7A6DE4
:1013D00016041E433B6D1D043300BB660023FB66F1
:1013E0007DE03323FB181B78012B00D077E03723F7
:1013F00030229446BC44634400221A704EE0BB6B1A
:10140000BB620023FB62B86AF96A03005B0F0A0043
:10141000D2001343FB640300DB00BB64FB6B3B6245
:1014200000237B62582330229446BC4463441B78DB
:10143000DBB2BB610023FB612E4CBA69FB69386AE1
:10144000796AA04703000C003B647C643B6C7C6CB5
:10145000B86CF96C1A002300274CA04703000C005D
:101460003B66372330229446BC4463441B783A6E73
:10147000D31A3B663B6EDB083B663B6E1F4A9342CA
:1014800015D9372330229446BC4463441A78372355
:1014900030218C46BC44634401321A703723302219
:1014A0009446BC4463441B78072BA8D900E0C0468F
:1014B000372330229446BC4463441B78082B01D167
:1014C000402312E0372330229446BC4463441B7807
:1014D0005B031A003B6E1343BB660023FB66BB6EC7
:1014E000FC6E9AB27B6B1A8000231800BD461DB0BB
:1014F000F0BDC0465DA30100B9110000FF1F000050
:1015000080B584B000AF0200FB1D1A70BB1D0A1C21
:101510001A701A4B1B7801225340DBB2002B03D107
:10152000BB1D1B78002B1BD00C23FB181800144B81
:1015300098470C23FB18FA1D12781A700C23FB181D
:10154000190013200F4B984713200F4B98470B4B54
:10155000FA1D12785A70094B01221A70002308E014
:10156000064B5B78FA1D12789A4201D1002300E005
:101570001D231800BD4604B080BDC046E8200020F1
:10158000A1110000812B0000C52B000080B582B0A6
:1015900000AF78600A00FB1C1A707B684D4A9342CA
:1015A0003FD04C4A934206D84B4A93420FD04B4A05
:1015B000934221D089E04A4A934200D15BE0494AF4
:1015C000934200D16CE0484A93423FD07DE0FB1C3F
:1015D0001B78012B0AD002DC002B05D075E0022B12
:1015E00006D0032B06D070E0404B6FE0404B6DE01F
:1015F000404B6BE0404B69E0FB1C1B78012B0AD091
:1016000002DC002B05D060E0022B06D0032B06D0B5
:101610005BE003235AE0394B58E0394B56E0394B35
:1016200054E0FB1C1B78012B0AD002DC002B05D0F8
:101630004BE0022B06D0032B06D046E0324B45E0B0
:10164000324B43E0324B41E0324B3FE0FB1C1B7816
:10165000012B0AD002DC002B05D036E0022B06D08D
:10166000032B06D031E02C4B30E02C4B2EE02C4BE2
:101670002CE02C4B2AE0FB1C1B78012B0AD002DC4F
:10168000002B05D021E0022B06D0032B06D01CE056
:10169000254B1BE0254B19E0254B17E0254B15E0AA
:1016A000FB1C1B78012B0AD002DC002B05D00CE0C0
:1016B000022B06D0032B06D007E01F4B06E01F4B82
:1016C00004E01F4B02E01F4B00E000231800BD4662
:1016D00002B080BD0010004200080042000C004231
:1016E00000180042001C00420014004203000400E5
:1016F00003000500030006000300070003000100CB
:1017000003001E0003001F0003000800030009007F
:1017100003000A0003000B00030010000300110087
:10172000030012000300130003000C0003000D006F
:1017300003000E0003000F00030016000300170053
:10174000030018000300190090B58BB000AF78605B
:101750000C23FB180F4A13CA13C313CA13C3002365
:101760007B620EE00C23FB187A6A9200D3581A1E93
:101770007B689A4202D17B6ADBB206E07B6A013366
:101780007B627B6A052BEDD900231800BD460BB0A8
:1017900090BDC04674E7010080B582B000AF020082
:1017A000FB1D1A70C046BD4602B080BD80B584B036
:1017B00000AF02003960FB1D1A70134B1B78012229
:1017C0005340DBB2002B15D00023FB600CE00F4B25
:1017D000FA6892000E49D1500E4BFA68920000212F
:1017E000D150FB680133FB60FB68052BEFD9064B3A
:1017F00001221A70FB1D1A78044B92003968D150EF
:10180000C046BD4604B080BDEA200020EC20002088
:10181000991700001834002090B585B000AF7860AB
:101820000823FA180C4B1000190006231A000B4B62
:1018300098470F23FC187B681800094B9847030052
:1018400023700F23FB181B780822BA18D35C5BB2F5
:101850001800BD4605B090BD8CE701006FD20100B5
:101860004917000080B500AF034B1B680020984764
:10187000C046BD4680BDC046EC20002080B500AF0C
:10188000034B5B6801209847C046BD4680BDC046FB
:10189000EC20002080B500AF034B9B6802209847E6
:1018A000C046BD4680BDC046EC20002080B500AFDC
:1018B000034BDB6803209847C046BD4680BDC04649
:1018C000EC20002080B500AF034B1B690420984733
:1018D000C046BD4680BDC046EC20002080B500AFAC
:1018E000034B5B6905209847C046BD4680BDC04696
:1018F000EC20002080B582B000AF78607B680022C9
:101900001A70C046BD4602B080BDC04680B582B0E8
:1019100000AF02003960FB1D1A70FB1D1B78012B04
:101920000AD0022B0FD0002B14D10E4B0D4A916917
:101930003A680A439A610FE00A4B0A4AD1693A6849
:101940000A43DA6108E0074B064A116A3A680A431B
:101950001A6201E0172300E000231800BD4602B020
:1019600080BDC0460004004080B582B000AF786002
:101970007B6880221A707B6800225A707B68012283
:101980009A707B680022DA70C046BD4602B080BD06
:1019900080B500AF054B9B78DBB21A0002231340E1
:1019A0005A1E9341DBB21800BD4680BD00200041A5
:1019B00080B584B000AF78607B681B68FB60FB6813
:1019C000DB695A1E9341DBB21800BD4604B080BDEE
:1019D00080B582B000AF7860C0467B681800044BC9
:1019E0009847031EF9D1C046BD4602B080BDC0462F
:1019F000B1190000B0B58CB002AF786039607B6877
:101A00001B68BB617B681B681800A84B98470300E4
:101A10007B617B6914333B6100237B6200233B6263
:101A20000A23FB1800221A801F23FB1800221A70B9
:101A30001E23FB1810221A703B681B8A8022D201D9
:101A400093421CD08022D201934206DC002B0DD0A1
:101A500080229201934224D035E0C022D2019342E9
:101A600028D080221202934212D02CE01F23FB18B0
:101A700000221A701E23FB1810221A7023E01F2365
:101A8000FB1800221A701E23FB1808221A701AE095
:101A90001F23FB1800221A701E23FB1803221A7042
:101AA00011E01F23FB1801221A701E23FB181022BD
:101AB0001A7008E01F23FB1801221A701E23FB185E
:101AC00008221A70C0463B681A683B68DB681A43F4
:101AD0003B685B6913433A68128A13433A68127E83
:101AE000120213433A682621525C520713437B6269
:101AF0001D23FB1800221A703B685B68FB60FB68C3
:101B0000002B1ED08022520593424FD13B682722E2
:101B10009B5C01225340DBB2002B46D03B681D6A20
:101B20003B69DBB21800624B984701001D23FC188B
:101B30000A23FB181A0028005E4B98470300237005
:101B400033E03B6827229B5C002B14D03B68186A6B
:101B50003B68996A1D23FC181F23FB181D780A2374
:101B6000FA181E23FB181B7800932B00524DA84730
:101B7000030023701AE03B681D6A3B69DBB2180062
:101B80004B4B98471D23FC181F23FB1819780A2379
:101B9000FA181E23FB181B7800930B000100280085
:101BA000454DA8470300237000E0C0461D23FB18E5
:101BB0001B78002B03D01D23FB181B7871E03B68BA
:101BC0005B7E002B03D03B689A7EBB699A737B686F
:101BD00018003A4B98470A23FB181A88BB699A8168
:101BE0007A6AFB6813437B623B6827229B5C012275
:101BF0005340DBB2002B03D07B6A042213437B6289
:101C00003B685B7E9A023B681B7F5B021A433B6822
:101C10005B7F1B021A433B6824215B5C5B041A4315
:101C20003B6825215B5C1B0413433B623B68DB7A0A
:101C30001A003B6A13433B623B681B89FF2B0BD0A6
:101C40007B6A8022520413437B623B681B891A0023
:101C50003B6A13433B6208E03B68DB7E002B04D009
:101C60007B6A8022D20413437B623B682C229B5CFC
:101C7000002B03D1124B9847031E03D07B6A8022AE
:101C800013437B627B6818000C4B9847BB693A6A28
:101C90005A607B681800094B9847BB697A6A1A60DA
:101CA00000231800BD460AB0B0BDC0464917000069
:101CB000A52C00009912000015130000D119000096
:101CC0009119000090B593B000AFF860B9607A60E8
:101CD0003B23FB1800221A70FB68BA681A60FB6885
:101CE0001B687B63FB681B681800864B98470300E2
:101CF0003B633B6B0233FB623B6B1433BB627B6B1E
:101D00001B680122134001D00523F6E07B6B1B68A2
:101D10000222134001D01C23EFE00122FB6A9A400B
:101D2000130019000220784B98472423FB18180051
:101D3000764B98477B682D229A5C2423FB181A70F7
:101D4000BB6ADBB22422BA1811001800704B984706
:101D5000BB6ADBB218006F4B98477B682D229B5CF7
:101D6000002118006C4B98477B68DA7AFB685A713F
:101D70007B6824229A5CFB689A717B6825229A5CB6
:101D8000FB68DA717B68DA7EFB681A727B681A7FFF
:101D9000FB685A723B23FC187A68FB681100180034
:101DA0005E4B9847030023703B23FB181B78002BE6
:101DB00003D03B23FB181B789FE02023FB1818005F
:101DC000574B98472023FB1800225A702023FB18FA
:101DD00000229A707B681A6B1023FB181A607B68CC
:101DE0005A6B1023FB185A607B689A6B1023FB1800
:101DF0009A607B68DA6B1023FB18DA604723FB18C4
:101E000000221A702CE04723FB181A781023FB18C5
:101E10009200D3583B643B6C002B09D14723FB183D
:101E20001A78BB68110018003E4B984703003B64CA
:101E30003B6C01330DD03B6CDAB22023FB181A70D7
:101E40003B6C1B0CDBB22022BA1811001800364B79
:101E500098474723FB181A784723FB1801321A705A
:101E60004723FB181B78032BCDD90023FB630AE023
:101E7000FA68FB6B02339B00D318043300221A600C
:101E8000FB6B0133FB63FB6B052BF1D9FB68002275
:101E90009A62FB6800225A62FB680022DA85FB68BE
:101EA00000229A85FB68302200219954FB68312278
:101EB00000219954FB68322200219954FB68332297
:101EC00000219954FB681B682722BC1818000D4B91
:101ED000984703002370154A2723FB181B7811002D
:101EE0001800134B98472723FB181A78114B9200C0
:101EF000F968D1503B23FB181B781800BD4613B07E
:101F000090BDC046491700000D190000F5180000EB
:101F1000812B0000C52B000001150000F519000001
:101F2000691900008D1500006D2E0000CD20000005
:101F3000AD1700001834002080B584B000AF786081
:101F40000A00BB1C1A807B681B68FB607B68DB791E
:101F500001225340DBB2002B01D01C2317E07B6829
:101F6000DB8D9BB2002B01D0052310E07B681800AD
:101F7000094B9847FB68BA1C12881A85C046FB6853
:101F80001B7EDBB21A0002231340F8D00023180096
:101F9000BD4604B080BDC046D119000080B584B0F4
:101FA00000AF786039607B681B68FB607B689B7959
:101FB00001225340DBB2002B01D01C235EE07B6882
:101FC0009B8D9BB2002B01D0052357E0FB681B7E45
:101FD000DBB21A000423134001D105234EE07B68D5
:101FE0001800284B9847FB685B8B9BB2DAB20B2337
:101FF000FB183F210A401A700B23FB181B78002B9B
:1020000036D00B23FB181B780222134004D0FB6848
:1020100002225A831A2331E00B23FB181B78042277
:10202000134004D0FB6804225A831E2326E00B23AE
:10203000FB181B780122134004D0FB6801225A834D
:1020400013231BE00B23FB181B781022134004D032
:10205000FB6810225A83422310E00B23FB181B78E5
:102060002022134004D0FB6820225A83412305E03C
:10207000FB681B8D9AB23B681A8000231800BD468E
:1020800004B080BDD119000080B584B000AF786085
:102090007B681B68FB60FB68DB695A1E9341DBB2FF
:1020A0001800BD4604B080BD80B582B000AF786036
:1020B000C0467B681800044B9847031EF9D1C04600
:1020C000BD4602B080BDC0468920000080B588B002
:1020D00000AF0200FB1D1A70FB1D1A78A34B920083
:1020E000D358BB61BB691B687B61BB691800A04BFF
:1020F00098477B691B7EDAB21223FB181A807B6932
:102100009B7DDBB29AB21223FB1812217918098841
:102110000A401A80BB6930229B5CBA693121525C4B
:102120001340DAB21023FB181A801223FB181B8805
:102130000122134044D0BB69DB8D9BB2002B3CD005
:10214000BB699B6A1B78DAB21C23FB181A80BB6937
:102150009B6A5A1CBB699A62BB695B79012B13D1DC
:10216000BB699B6A1B78DBB21B021AB21C23FB18EB
:1021700000215B5E13431AB21C23FB181A80BB6953
:102180009B6A5A1CBB699A621C23FB181B88DB05DF
:10219000DB0D9AB27B691A85BB69DB8D9BB2013B73
:1021A0009BB2BA69191CD185002B09D17B69012228
:1021B0001A757B6902229A7502E07B6901221A7501
:1021C0001223FB181B880222134011D07B690222C4
:1021D0001A75BB693322002199541023FB181B8800
:1021E0000122134004D0BB69DB68BA69100098472C
:1021F0001223FB181B880422134000D1BDE0BB69E9
:102200009B8D9BB2002B00D1B4E07B695B8B9BB2B2
:10221000DAB21F23FB183F210A401A701F23FB1854
:102220001B780822134007D01F23FB181F22BA185F
:10223000127808218A431A701F23FB181B78002B81
:1022400050D01F23FB181B780222134007D0BB6914
:1022500032221A2199547B6902225A8336E01F23C5
:10226000FB181B780422134007D0BB6932221E21C1
:1022700099547B6904225A8328E01F23FB181B789A
:102280000122134007D0BB693222132199547B6984
:1022900001225A831AE01F23FB181B7810221340D7
:1022A00007D0BB693222422199547B6910225A839C
:1022B0000CE01F23FB181B782022134006D0BB69BB
:1022C0003222412199547B6920225A831023FB1822
:1022D0001B880422134050D0BB695B69BA691000A7
:1022E00098474AE07B691B8D9AB20E23FB18D205F2
:1022F000D20D1A80BB695B6A0E22BA181288D2B25C
:102300001A70BB695B6A5A1CBB695A62BB695B790C
:10231000012B0DD1BB695B6A0E22BA181288120A12
:1023200092B2D2B21A70BB695B6A5A1CBB695A621C
:10233000BB699B8D9BB2013B9BB2BA69191C91850D
:10234000002B1AD17B6904221A75BB693222002145
:1023500099541023FB181B88022213400DD0BB692F
:102360001B69BA691000984707E0C046183400207E
:10237000A92000007B6904221A751223FB181B8810
:102380001022134010D07B6910221A757B6910222D
:102390001A761023FB181B881022134004D0BB6947
:1023A000DB69BA69100098471223FB181B882022AA
:1023B000134010D07B6920221A757B6920221A767F
:1023C0001023FB181B880822134004D0BB699B69AB
:1023D000BA69100098471223FB181B880822134083
:1023E00010D07B6908221A757B6908221A7610239F
:1023F000FB181B882022134004D0BB691B6ABA69F2
:1024000010009847C046BD4608B080BD80B582B078
:1024100000AF78607B6801225A607B6800225A70A6
:102420007B6806221A707B6800221A727B68002281
:102430005A72C046BD4602B080BDC04680B582B06B
:1024400000AF78607B6803221A707B6800225A70A4
:102450007B6801229A70C046BD4602B080BDC0466E
:1024600080B582B000AF0200FB1D1A70034AFB1D4D
:102470001B781372C046BD4602B080BD0004004008
:1024800080B582B000AF0200FB1D1A70BB1D0A1C94
:102490001A70FB1D1B78012B08D0022B0BD0002BD0
:1024A0000ED10B4ABB1D1B7853720BE0084ABB1DB3
:1024B0001B78937206E0064ABB1D1B78D37201E0BD
:1024C000172300E000231800BD4602B080BDC046BF
:1024D0000004004080B582B000AF0200FB1D1A70FE
:1024E000084AFB1D1B780F210B40D9B253680F20FF
:1024F000014049001E2083430B435360C046BD4644
:1025000002B080BD0040004180B500AFC046044B22
:10251000DB6810221340FAD0C046BD4680BDC046DD
:102520000008004080B500AF0C4B02229A840C4B8F
:1025300098470A4A0B4B9B68D362084A094B5B6871
:102540009362064B00229A84054B9847034A054B39
:102550001B689BB29384C046BD4680BD0008004006
:10256000092500000421002080B582B000AF0200E0
:10257000FB1D1A70FB1D1B78082B40D89A00224BBC
:10258000D3181B689F46214B1B6939E0204B1B6AFF
:102590009B059B0FDBB21A001E4BD34030E080231B
:1025A0001B022DE080231B022AE0184B5B6927E009
:1025B000164B1B680222134001D1002320E0164B6A
:1025C0009847124B1B680422134009D00020134B7C
:1025D000984702000D4B9B681B041B0C53430FE0F4
:1025E0000F4B0DE00A4A5023D35CDBB21A000423E0
:1025F000134001D1002303E0044BDB6800E000231B
:102600001800BD4602B080BD94E7010004210020FF
:102610000008004000127A0009250000A52C0000E7
:10262000006CDC0280B584B000AF78601A4B1B6A86
:10263000FB607B681B781A1C03231340DAB20D235E
:10264000FB1803210A4010001A7803218A43111C49
:10265000021C0A431A707B689A780C23FB18D0017D
:102660001A787F210A40111C021C0A431A707B68E9
:102670005A780C23FB1801210A4090011A78402156
:102680008A43111C021C0A431A70034BFA681A622F
:10269000C046BD4604B080BD0008004080B582B091
:1026A00000AF0200FB1D1A70FB1D1B78082B3BD8E6
:1026B0009A00214BD3181B689F46204B1F4A126A71
:1026C00002210A431A62002331E01C4B1B4A926923
:1026D00002210A439A6129E0184A184B1B8A9BB2CF
:1026E00002210B439BB2138220E0144A134B9B8AB6
:1026F0009BB202210B439BB2938217E0104B1B68E5
:1027000002221A430E4B1A600E4B98470EE00B4AFA
:102710000A494423CB5CDBB202210B43D9B24423E8
:10272000D15403E0002302E0172300E00023180047
:10273000BD4602B080BDC046B8E7010000080040B9
:10274000042100202525000080B582B000AF3B00A9
:1027500001221A7000237B6009E07B68DBB23A003B
:1027600011001800054B98477B6801337B607B683C
:10277000242BF2D9C046BD4602B080BD812B00009B
:1027800080B5A0B000AF274BC222D2009A600020D3
:10279000254B9847254B98477C23FB181800244B62
:1027A00098477C23FB1800221A707C23FB18012217
:1027B0009A707C23FB1800225A707C23FB181800A7
:1027C0001C4B984706201C4B98471C4B98470020F1
:1027D0001B4B9847002100201A4B984700210120ED
:1027E000184B984700210220164B98473B1D1800B4
:1027F000154B98473B1D06221A703B1D01225A605B
:102800003B1D00221A723B1D00225A723B1D19000B
:1028100000200E4B984700200D4B9847C046BD4600
:1028200020B080BD00080040D524000049270000EA
:102830003D240000252600009D260000F928000008
:1028400061240000812400000D24000029290000DB
:102850004D2A000080B582B000AF02003960FB1D38
:102860001A70FB1D1B78012B0AD0022B0FD0002BF6
:1028700014D10E4B0D4A91693A680A439A610FE0F0
:102880000A4B0A4AD1693A680A43DA6108E0074B01
:10289000064A116A3A680A431A6201E0172300E007
:1028A00000231800BD4602B080BDC04600040040B1
:1028B00080B500AF024B9847C046BD4680BDC046BC
:1028C000390F000080B500AF024B9847C046BD46A7
:1028D00080BDC0468D0F000080B500AF054B5B7812
:1028E000DBB25BB2002B01DA012300E00023180009
:1028F000BD4680BD000C004080B500AF082100201F
:10290000074B9847074B01221A70C046054B1B78AE
:10291000DBB21A0001231340F8D1C046BD4680BD8A
:1029200055280000000C004080B586B000AF0200C2
:102930003960FB1D1A70FB1D1B787B61FB1D1B782A
:102940003B613B681B781B021A007B6913437B6168
:102950003B685B78002B04D07B698022D202134352
:102960007B613B685B7A002B04D07B698022120379
:1029700013437B613B685B68012B2CD93B685A6829
:102980003B685B68013B13401AD10023FB600223C4
:10299000BB6005E0FB680133FB60BB685B00BB60AC
:1029A0003B685A68BB689A42F4D8FB681B023A69D4
:1029B00013433B617B698022520313437B610AE02E
:1029C0003B685B681B023A6913433B617B69802269
:1029D000920213437B613B681B7A002B04D07B6916
:1029E0008022920313437B61C046134B9847031E1A
:1029F000FBD1124B9847124AFB1D1B781370C0463F
:102A00000D4B9847031EFBD10E4B3A699A60C046A6
:102A1000094B9847031EFBD10A4B0A4A5168802292
:102A2000520211407A690A435A60074B9847C046E0
:102A3000BD4606B080BDC046D9280000B1280000C0
:102A4000080C0040000C0040C528000080B582B092
:102A500000AF0200FB1D1A70C0460E4B9847031EC4
:102A6000FBD10D4B98470D4AFB1D1B781370C046D8
:102A7000084B9847031EFBD1094B094A5268802135
:102A800049020A435A60074B9847C046BD4602B008
:102A900080BDC046D9280000B1280000040C0040C9
:102AA000000C0040C528000080B586B000AF0200D1
:102AB000FB1D1A70C0462A4B9847031EFBD1294BB9
:102AC0009847294AFB1D1B781370C046244B984732
:102AD000031EFBD1254B5B68DB04DB0EDBB2180069
:102AE000234B984703007B611F4AFB1D1B78137023
:102AF0001E4B5B68DB02DB0FDAB21323FB181A7084
:102B00001C4AFB1D1B781370C046154B9847031ECB
:102B1000FBD1164B9B681B021B0C9BB2FB60164B38
:102B200098471323FB181B78002B09D1FB68012B56
:102B300006D9124BF9687869984703007B610AE06F
:102B40001323FB181B78002B05D0FB6801337A692F
:102B5000DA4013007B617B691800BD4606B080BD7A
:102B6000D9280000B1280000040C0040000C0040EF
:102B700069250000080C0040C5280000399F0100AD
:102B800080B584B000AF02003960FB1D1A70FB1DD8
:102B90001B78FB603B681B781B021A00FB68134321
:102BA000FB60FB1D1B781800044B9847044BFA6828
:102BB00092B25A80C046BD4604B080BD0D2C0000C4
:102BC000000C004080B582B000AF0200FB1D1A70FF
:102BD0000A4B98470A4AFB1D1B7813700949094B99
:102BE0005B889BB28022D20113439BB24B80064B81
:102BF0009847C046BD4602B080BDC046B12800001F
:102C0000020C0040000C0040C528000080B584B0D4
:102C100000AF0200FB1D1A701C4B98471C4AFB1D9D
:102C20001B7813701B4B5B881B051B0FDBB2FB6013
:102C3000184A538818490B405380164A154B5B8835
:102C40009BB216490B409BB25380C046114B5B8828
:102C50009BB21A008023DB011340F7D10D4AFB68B9
:102C6000DBB2191C0F230B40D9B25388081C0F216B
:102C70000140080208490B40191C031C0B435380F8
:102C8000074B9847C046BD4604B080BDB128000040
:102C9000020C0040000C0040FFF0FFFFFFBFFFFFF1
:102CA000C528000080B584B000AF0200FB1D1A707B
:102CB0000D4B98470D4AFB1D1B7813700C4B5B881E
:102CC0001B051B0FDAB20F23FB181A70094B98472C
:102CD0000F23FB181B781800074B984703001800B8
:102CE000BD4604B080BDC046B1280000020C0040C3
:102CF000000C0040C5280000A92A000080B584B05F
:102D000000AF0200FB1D1A700F23FB18FA1D12788A
:102D1000D2091A700E23FB18FA1D127852091A7084
:102D20000D4BBB600F23FB181B78002B0FD10F231B
:102D3000FB181B789B0010229446BC446344083B5C
:102D40001A680E23FB181B78DB01D31800E0002360
:102D50001800BD4604B080BD0044004180B588B075
:102D600000AFF860B9607A600023FB617B68DB78B4
:102D700001225340DBB2002B35D07B681B78802BBF
:102D80000BD0FB69802252021343FB617B681B78E6
:102D90001B061A00FB691343FB617B685B78002B01
:102DA00003D07B685B78022B10D1FB6980229202F2
:102DB0001343FB617B689B78002B04D0FB69802266
:102DC000D2021343FB61FB68BA685A607B685B7888
:102DD000012B03D07B685B78022B07D1FB69224A69
:102DE0001340FB6102E0FB68BA685A60BB681B04D1
:102DF0001B0CBB61BB681B0C7B61BA69FB6913438D
:102E0000A022D2051A43FB689A627A69FB691343D0
:102E1000D02212061A43FB689A627B68DB78012293
:102E20005340DBB2002B1AD0FA698023DB02134037
:102E30000AD07B689B78012B03D1FB68BA689A6142
:102E400002E0FB68BA685A617B685B78012B03D0AB
:102E50007B685B78022B02D1FB68BA689A60C04637
:102E6000BD4608B080BDC046FFFFFBFF80B584B003
:102E700000AF02003960FB1D1A70FB1D1B781800A3
:102E80000A4B98470300FB60FB1D1B781F22134071
:102E900001229A401300BB603A68B968FB681800C9
:102EA000034B9847C046BD4604B080BDFD2C0000D2
:102EB0005D2D000080B500AFC046BD4680BDC04658
:102EC00080B500AF064B9847064B9847064B98478E
:102ED000064B9847064B9847C046BD4680BDC04646
:102EE00081270000C9100000B52E0000B52E00009B
:102EF000B52E000080B584B000AFF860B960FB1D4E
:102F00001A70FB1D1A78FB6802329200B968D15022
:102F1000FB1D1B78022B07D1FB681B7E102213437D
:102F2000DAB2FB681A7619E0FB1D1B78032B07D178
:102F3000FB681B7E20221343DAB2FB681A760DE091
:102F4000FB681B7E5AB2FB1D1B78012199400B00C8
:102F50005BB213435BB2DAB2FB681A760023180047
:102F6000BD4604B080BDC04680B500AF0020024B16
:102F70009847C046BD4680BDCD2F000080B500AF4C
:102F80000120024B9847C046BD4680BDCD2F0000B2
:102F900080B500AF0220024B9847C046BD4680BDB9
:102FA000CD2F000080B500AF0320024B9847C046EC
:102FB000BD4680BDCD2F000080B500AF0420024B80
:102FC0009847C046BD4680BDCD2F000080B584B077
:102FD00000AF0200FB1D1A70FB1D1A78284B9200EF
:102FE000D358FB60FB681B689B7BDBB2FA68127EE0
:102FF0001340DAB2FB68597E0B23FB180A401A70A3
:103000000B23FB181B780122134008D0FB689B6838
:10301000FA6810009847FB681B6801229A730B231B
:10302000FB181B780222134008D0FB68DB68FA68A3
:1030300010009847FB681B6802229A730B23FB1849
:103040001B781022134008D0FB681B69FA68100037
:103050009847FB681B6810229A730B23FB181B7898
:103060002022134008D0FB685B69FA68100098477B
:10307000FB681B6820229A73C046BD4604B080BD21
:103080003034002080B582B000AF78607B680022C9
:103090001A70C046BD4602B080BDC04680B582B041
:1030A00000AF02003960FB1D1A70FB1D1B78012B5D
:1030B0000AD0022B0FD0002B14D10E4B0D4A916970
:1030C0003A680A439A610FE00A4B0A4AD1693A68A2
:1030D0000A43DA6108E0074B064A116A3A680A4374
:1030E0001A6201E0172300E000231800BD4602B079
:1030F00080BDC0460004004080B582B000AF78605B
:103100007B6880221A707B6800225A707B680122DB
:103110009A707B680022DA70C046BD4602B080BD5E
:1031200080B584B000AF78607B681B68FB60FB688B
:10313000DB7BDBB21A00802313405A1E9341DBB2C3
:103140001800BD4604B080BD90B589B000AF78606E
:103150000823FB180E4A13CA13C303CA03C3002370
:10316000FB610DE00823FB18FA699200D2587B68D6
:103170009A4202D1FB69DBB206E0FB690133FB61D5
:10318000FB69042BEED900231800BD4609B090BDA1
:10319000DCE7010090B58DB000AFF860B9607A60EF
:1031A0002E23FB1800221A802D23FB1800221A70F0
:1031B0002C23FB1800221A702923FC18BB68180066
:1031C000BF4B9847030023702423FA18BD4B10000F
:1031D000190005231A00BC4B98471823FA18BB4B5B
:1031E000100019000A231A00B74B98472B23FB182D
:1031F00000221A700EE02B23FB181A78FB680232AB
:1032000092000021D1502B23FB181A782B23FB1896
:1032100001321A702B23FB181B78032BEBD9FB68A8
:1032200000221A76FB6800225A762923FB181A78A6
:10323000A74B9200F968D150FB68BA681A607B68A6
:103240009B78082B08D12923FB181B780333012214
:10325000134001D01723C4E17B689A78FB681A7188
:10326000BB681B889BB21A000123134001D00523C1
:10327000B7E1BB68DB7BDBB21A001023134001D03F
:103280001C23AEE1BB681B889BB21A0002231340CB
:1032900001D01C23A5E17B681B7C002B17D01423D5
:1032A000FB1818008B4B98477B689B69DAB2142394
:1032B000FB181A701423FB1801225A707B685B6993
:1032C000DBB21422BA1811001800834B98477B68B0
:1032D0001B7F002B17D01423FB1818007D4B984739
:1032E0007B685B6ADAB21423FB181A701423FB188C
:1032F00001225A707B681B6ADBB21422BA181100D3
:103300001800754B98472923FB181A781823FB18C7
:103310005200D35A19000220704B98477B689B7863
:10332000082B0BD12923FB181B785A1C1823FB18D8
:103330005200D35A19000220684B98471023FB18FB
:103340001800674B98477B681A781023FB181A708F
:103350002923FB181B782422BA18D35C1022BA1830
:10336000110018005F4B98472923FB181B78242273
:10337000BA18D35C18005C4B98477B689A787B68D6
:103380009B791343DBB29AB27B681B89134399B2D2
:103390007B689A882E23FB180A431A807B685B7827
:1033A000002B08D02E23FB182E22BA181288802159
:1033B00009010A431A80C046FB6818004B4B984726
:1033C000031EF9D1BB682E22BA1812881A807B68B6
:1033D0005B7B002B03D02D23FB1804221A707B6823
:1033E0009B7B002B07D02D23FB182D22BA181278B7
:1033F00001210A431A70C046FB6818003B4B9847EE
:10340000031EF9D1BB68FF221A712D23FB181B780C
:10341000002B0BD0C046FB681800344B9847031EA6
:10342000F9D1BB682D22BA1812785A712C23FB18D7
:103430007A68927A1A702A23FB1800221A701CE00C
:103440002A23FB181B787A68D318DB7A002B0DD05F
:103450002A23FB181B7810229A401300D9B22C2380
:10346000FB182C22BA1812780A431A702A23FB1868
:103470001A782A23FB1801321A702A23FB181B78AA
:10348000012BDDD9C046FB681800184B9847031E76
:10349000F9D1BB682C22BA1812789A71C046FB6821
:1034A0001800124B9847031EF9D1FB681B79042BB7
:1034B0001ED0082B00D170E0002B4BD090E0C0460E
:1034C00049310000F0E701006FD20100F8E7010088
:1034D00030340020F93000006D2E00009D300000D7
:1034E00085300000812B0000C52B00002131000039
:1034F000C046FB6818003D4B9847031EF9D17B6816
:1035000028229A5CBB681A74C046FB681800374BC7
:103510009847031EF9D17B6829229A5CBB681A750B
:10352000C046FB681800314B9847031EF9D17B68F1
:103530002A229A5CBB681A76C046FB6818002B4B9F
:103540009847031EF9D17B682B229A5CBB685A7698
:10355000002346E0C046FB681800244B9847031E32
:10356000F9D17B681A8DBB681A82C046FB681800C7
:103570001E4B9847031EF9D17B685A8DBB681A838E
:10358000C046FB681800194B9847031EF9D17B68A9
:103590009A8DBB685A83002323E0C046FB6818005D
:1035A000124B9847031EF9D17B689A6ABB681A616F
:1035B000C046FB6818000D4B9847031EF9D17B6885
:1035C000DA6ABB689A61C046FB681800074B9847E7
:1035D000031EF9D17B681A6BBB68DA61002300E037
:1035E00017231800BD460DB090BDC0462131000024
:1035F00080B582B000AF2F4B7B602F4B3B607A6869
:103600003B689A420CD007E03B681A1D3A607A6822
:10361000111D796012681A603A68284B9A42F3D3F8
:10362000274B3B6004E03B681A1D3A6000221A6099
:103630003A68244B9A42F6D3234B7B60234B7A683B
:10364000FF218A439A60224A90235B000221D150D5
:10365000204AD37803218B43191C02230B43D370D8
:103660001C4AD3780C218B43191C08230B43D370BD
:10367000194A937B30218B43191C20230B439373EE
:10368000154A937B0C218B43191C08230B4393731E
:10369000114A937B03218B43191C02230B43937321
:1036A0000E4A536880210B4353600D4B98470D4BD6
:1036B0009847FEE784F10100000000208800002008
:1036C00088000020283500200000000000ED00E008
:1036D000007000410050004100480041004000419E
:1036E00005D20100055A000080B500AFFEE7C046D4
:1036F00080B586B000AFF860B9607A6000237B6166
:10370000FB68002B12D001235B4213E00B4B1A68BD
:103710000B4B1B68B96818009047BB680133BB604E
:103720007B6901337B617B68013B7B607B68002B9D
:10373000ECDC7B691800BD4606B080BD4434002037
:103740004834002080B586B000AFF860B9607A6078
:1037500000237B61FB68012B1DD0FB68022B1AD074
:10376000FB68032B17D001235B4218E00E4B1A684D
:103770000E4B1868BB68591CB9601B78190090473C
:10378000031E02DA01235B4209E07B6901337B619E
:103790007B68013B7B607B68002BE7D17B6918006D
:1037A000BD4606B080BDC0464C34002048340020E1
:1037B00080B584B000AF78600A4B1B68002B02D143
:1037C000084B094A1A60074B1B68FB60054B1A68D7
:1037D0007B68D218034B1A60FB681800BD4604B022
:1037E00080BDC0461C210020C86F002080B582B07B
:1037F00000AF786001235B421800BD4602B080BD77
:1038000080B582B000AF786039603B688022920159
:103810005A6000231800BD4602B080BD80B582B05A
:1038200000AF786001231800BD4602B080BDC046DD
:1038300080B584B000AFF860B9607A6000231800EA
:10384000BD4604B080BDC04680B582B000AF786090
:103850007B6808331A007B685A607B6801225242F9
:103860009A607B6808331A007B68DA607B680833EB
:103870001A007B681A617B6800221A60C046BD4648
:1038800002B080BD80B582B000AF78607B68002256
:103890001A61C046BD4602B080BDC04680B584B046
:1038A00000AF786039607B685B68FB603B68FA68F2
:1038B0005A60FB689A683B689A60FB689B683A6844
:1038C0005A60FB683A689A603B687A681A617B685C
:1038D0001B685A1C7B681A60C046BD4604B080BD98
:1038E00080B584B000AF786039603B681B68BB600E
:1038F000BB68013303D17B681B69FB600CE07B680C
:103900000833FB6002E0FB685B68FB60FB685B6898
:103910001A68BB689A42F6D9FB685A683B685A60D5
:103920003B685B683A689A603B68FA689A60FB6833
:103930003A685A603B687A681A617B681B685A1C4F
:103940007B681A60C046BD4604B080BD80B584B0B7
:1039500000AF78607B681B69FB607B685B687A6896
:1039600092689A607B689B687A6852685A60FB68C4
:103970005A687B689A4203D17B689A68FB685A60F0
:103980007B6800221A61FB681B685A1EFB681A607C
:10399000FB681B681800BD4604B080BD80B584B0CC
:1039A00000AFF860B9607A60FB68043BFB60FB68BD
:1039B000802252041A60FB68043BFB60BA68FB6813
:1039C0001A60FB68043BFB60084AFB681A60FB68EE
:1039D000143BFB607A68FB681A60FB68203BFB6065
:1039E000FB681800BD4604B080BDC046F139000038
:1039F00080B500AF034B1B68013301D072B6FEE700
:103A000072B6FEE71800002080B500AFC046BD4684
:103A100080BDC046064A13681868203080F30988C4
:103A2000022080F314883FBCAE4662B600BDC0469B
:103A300020210020C046C04680B500AF0D4B0D4A86
:103A40001268FF2109040A431A600A4B094A1268E6
:103A5000FF2109060A431A60074B9847074B0022CB
:103A60001A60074B9847074B984700231800BD463C
:103A700080BDC04620ED00E0993B0000180000200A
:103A8000153A0000F139000080B500AF054B8022E7
:103A900052051A60BFF34F8FBFF36F8FC046BD460C
:103AA00080BDC04604ED00E080B500AF72B6064BA5
:103AB0001B685A1C044B1A60BFF34F8FBFF36F8F04
:103AC000C046BD4680BDC0461800002080B500AF8E
:103AD000094B1B68002B01D172B6FEE7064B1B6831
:103AE0005A1E054B1A60044B1B68002B00D162B6AE
:103AF000C046BD4680BDC04618000020EFF31080D0
:103B000072B670470023180080F310887047C046D3
:103B1000EFF309800E4B1A6820381060F0C044465D
:103B20004D4656465F46F0C008B572B601F000F843
:103B300062B60CBC116808681030F0C8A046A946EF
:103B4000B246BB4680F309882038F0C81847C04603
:103B500020210020C046C04680B582B000AF0A4B8D
:103B6000984703007B60094B9847031E03D0084B1E
:103B7000802252051A607B681800064B9847C046A1
:103B8000BD4602B080BDC046FD3A0000B949000004
:103B900004ED00E0093B0000B0B500AF0A4B002285
:103BA0001A600A4C00200A4B98470200094BC821B2
:103BB000100098470300013B2360074B07221A605F
:103BC000C046BD46B0BDC04618E000E014E000E0CD
:103BD000A92A0000399F010010E000E080B584B000
:103BE00000AF786039607B68FB60FB68002B01D117
:103BF00072B6FEE7244B9847FB681A68FB68D96BDE
:103C0000FB681B6C4B43D218FB685A60FB680022B0
:103C10009A63FB681A68FB689A60FB681A68FB681D
:103C2000DB6B591EFB681B6C4B43D218FB68DA60D8
:103C3000FB68012252425A64FB68012252429A6494
:103C40003B68002B0ED1FB681B69002B14D0FB686E
:103C5000103318000D4B9847031E012B0CD10C4B51
:103C6000984709E0FB68103318000A4B9847FB6837
:103C700024331800074B9847074B98470123180037
:103C8000BD4604B080BDC046A93A0000054D000005
:103C9000893A000049380000CD3A000080B588B06C
:103CA00000AFF860B960FB1D1A700023FB61FB6870
:103CB000002B31D058201D4B98470300BB61BB69D6
:103CC000002B29D0FB68BA68534301337B617B69C1
:103CD0001800164B98470200BB691A60BB691B6845
:103CE000002B15D0BB69FA68DA63BB69BA681A643D
:103CF000BB69012118000E4B9847BB69FA1D502182
:103D000012785A54BB6900225A65BB69FB6103E013
:103D1000BB691800074B9847FB69002B01D172B6AD
:103D2000FEE7FB691800BD4608B080BD1501000024
:103D3000DD3B00004902000080B588B000AFF860AC
:103D4000B9607A603B600023FB61FB68BB61BB69C3
:103D5000002B01D172B6FEE7BB68002B03D1BB6913
:103D60001B6C002B01D1012300E00023002B01D1AB
:103D700072B6FEE73B68022B03D1BB69DB6B012BFC
:103D800001D1012300E00023002B01D172B6FEE730
:103D90004D4B9847031E02D17B68002B01D10123B4
:103DA00000E00023002B01D172B6FEE7474B984795
:103DB000BB699A6BBB69DB6B9A4202D33B68022BEF
:103DC00027D13A68B968BB691800414B9847BB696D
:103DD0005B6D002B0BD03A68BB69110018003D4B9E
:103DE0009847031E012B10D13B4B98470DE0BB6950
:103DF0005B6A002B09D0BB6924331800374B984706
:103E0000031E012B01D1344B9847354B98470123B2
:103E100055E07B68002B03D1314B984700234EE0DF
:103E2000FB69002B06D11023FB1818002D4B984777
:103E30000123FB612A4B98472B4B9847234B98470C
:103E4000BB695B6C013302D1BB6900225A64BB6958
:103E50009B6C013302D1BB6900229A64204B9847C6
:103E60003A1D1023FB1811001800204B9847031E21
:103E70001ED1BB6918001E4B9847031E11D0BB69A9
:103E800010337A68110018001A4B9847BB69180064
:103E9000194B9847194B9847031E87D10E4B9847EB
:103EA00084E7BB691800144B9847144B98477DE78B
:103EB000BB691800104B9847104B98470023180017
:103EC000BD4608B080BDC0460D520000A93A0000B2
:103ED000F541000009450000893A0000054D000049
:103EE000CD3A0000C54D000055480000F94D0000D6
:103EF00019440000254C00001D4300006D480000DF
:103F000080B588B000AFF860B9607A603B60FB684C
:103F1000BB61BB69002B01D172B6FEE7BB68002B09
:103F200003D1BB691B6C002B01D1012300E00023EE
:103F3000002B01D172B6FEE73B68022B03D1BB69AF
:103F4000DB6B012B01D1012300E00023002B01D109
:103F500072B6FEE7274B984703007B61BB699A6BFB
:103F6000BB69DB6B9A4202D33B68022B37D13A68BC
:103F7000B968BB691800204B9847BB699B6C01333B
:103F800025D1BB695B6D002B0FD03A68BB6911006E
:103F900018001A4B9847031E012B1DD17B68002B7C
:103FA0001AD07B6801221A6016E0BB695B6A002B9D
:103FB00012D0BB6924331800114B9847031E0BD055
:103FC0007B68002B08D07B6801221A6004E0BB6983
:103FD0009B6C5A1CBB699A640123FB6101E00023BE
:103FE000FB617B691800074B9847FB691800BD46C9
:103FF00008B080BDFD3A0000F54100000945000011
:10400000054D0000093B000080B58AB000AFF860A4
:10401000B9607A603B6000237B62FB683B623B6A6D
:10402000002B01D172B6FEE7BB68002B03D13B6ABF
:104030001B6C002B01D1012300E00023002B01D1D8
:1040400072B6FEE75C4B9847031E02D17B68002BDB
:1040500001D1012300E00023002B01D172B6FEE75D
:10406000564B98473B6A9B6B002B3CD03B6ADB6806
:10407000FB61BA683B6A11001800514B98473B68D6
:10408000002B1CD13B6A9B6B5A1E3B6A9A633B6AAE
:104090001B68002B04D14B4B984702003B6A5A60C7
:1040A0003B6A1B69002B1AD03B6A10331800464B41
:1040B0009847031E012B12D1444B98470FE03B6AEF
:1040C000FA69DA603B6A5B6A002B08D03B6A2433EA
:1040D00018003D4B9847031E01D03C4B98473C4B82
:1040E0009847012363E07B68002B03D1384B984746
:1040F00000235CE07B6A002B06D11423FB18180018
:10410000344B984701237B62314B9847324B984799
:104110002A4B98473B6A5B6C013302D13B6A002211
:104120005A643B6A9B6C013302D13B6A00229A6459
:10413000274B98473A1D1423FB1811001800274BF2
:104140009847031E2CD13B6A1800254B9847031E45
:104150001FD03B6A1B68002B08D1184B98473B6A5D
:104160005B6818001F4B9847194B98473B6A2433EC
:104170007A68110018001C4B98473B6A18001B4BCB
:1041800098471B4B9847031E00D069E70F4B984791
:1041900066E73B6A1800154B9847154B98475FE751
:1041A0003B6A1800114B9847114B984700231800A1
:1041B000BD460AB080BDC0460D520000A93A0000BD
:1041C000CD420000F1510000054D0000893A000089
:1041D000CD3A0000C54D000055480000F94D0000E3
:1041E000E543000045520000254C00001D4300003F
:1041F0006D48000080B584B000AFF860B9607A60A7
:10420000FB681B6C002B0CD1FB681B68002B4FD18B
:10421000FB685B6818002B4B9847FB6800225A60CC
:1042200046E07B68002B19D1FB689868FB681A6C24
:10423000BB681900244B9847FB689A68FB681B6CA5
:10424000D218FB689A60FB689A68FB685B689A42C0
:104250002ED3FB681A68FB689A6029E0FB68D8686F
:10426000FB681A6CBB681900174B9847FB68DA6843
:10427000FB681B6C5B42D218FB68DA60FB68DA688B
:10428000FB681B689A4207D2FB685A68FB681B6C84
:104290005B42D218FB68DA607B68022B08D1FB68AE
:1042A0009B6B002B04D0FB689B6B5A1EFB689A63C8
:1042B000FB689B6B5A1CFB689A63C046BD4604B002
:1042C00080BDC046095300006FD2010080B582B0A6
:1042D00000AF786039607B681B68002B18D07B6862
:1042E000DA687B681B6CD2187B68DA607B68DA68F6
:1042F0007B685B689A4203D37B681A687B68DA60E4
:104300007B68D9687B681A6C3B681800024B984739
:10431000C046BD4602B080BD6FD2010080B582B0FC
:1043200000AF78602A4B984720E07B685B6D002BDC
:104330000AD07B6800211800264B9847031E012BEA
:104340000FD1254B98470CE07B685B6A002B12D09D
:104350007B6824331800214B9847031E01D01E4B65
:1043600098477B689B6C5A1E7B689A647B689B6C41
:10437000002BDADC00E0C0467B68012252429A64DE
:10438000174B9847124B984711E07B681B69002B2D
:1043900012D07B6810331800104B9847031E01D0D1
:1043A0000D4B98477B685B6C5A1E7B685A647B6830
:1043B0005B6C002BE9DC00E0C0467B6801225242C6
:1043C0005A64074B9847C046BD4602B080BDC04600
:1043D000A93A000009450000A14E0000054D00006B
:1043E000CD3A000080B584B000AF7860084B9847A4
:1043F0007B689B6B002B02D10123FB6001E0002353
:10440000FB60044B9847FB681800BD4604B080BDB4
:10441000A93A0000CD3A000080B584B000AF7860C2
:10442000094B98477B689A6B7B68DB6B9A4202D199
:104430000123FB6001E00023FB60044B9847FB680D
:104440001800BD4604B080BDA93A0000CD3A000076
:1044500080B584B000AF786039600023FB6015E060
:104460000E4BFA68D200D358002B0CD10B4BFA68D4
:10447000D2003968D150094AFB68DB00D3180433F5
:104480007A681A6005E0FB680133FB60FB68072B64
:10449000E6D9C046BD4604B080BDC04650340020B9
:1044A00080B584B000AF786039607B68FB60124BE8
:1044B0009847FB685B6C013302D1FB6800225A64A9
:1044C000FB689B6C013302D1FB6800229A640B4BA2
:1044D0009847FB689B6B002B06D1FB6824333A6836
:1044E00011001800064B9847FB681800054B9847C9
:1044F000C046BD4604B080BDA93A0000CD3A0000D8
:10450000A54C00001D43000080B584B000AF78606A
:1045100039607B685B6DBB600023FB60BB68002B70
:1045200001D172B6FEE7BB689A6BBB68DB6B9A423F
:1045300001D372B6FEE7BB689A6BBB68DB6B9A422D
:1045400012D23A68391DBB6818000A4B9847BB68FD
:104550005B6A002B08D0BB6824331800064B9847D1
:10456000031E01D00123FB60FB681800BD4604B0A8
:1045700080BDC046F5410000054D000090B58BB0F0
:1045800002AFF860B9603B60BB1D1A80FB68002B6E
:1045900001D172B6FEE73B6B0E2B01D972B6FEE776
:1045A000BA6BBB1D1B88110018004A4B98470300CB
:1045B000BB61BB69002B00D174E0BB691A6BBB1DEA
:1045C0001B8845498C4663449B00D3187B617B69FB
:1045D000072293437B617B690722134001D072B6A7
:1045E000FEE7FC6B3A6BB968B869BB1D1B8800938A
:1045F00023003A4CA0473A68F9687B691800384BA9
:1046000098470200BB691A607B6B002B02D07B6B62
:10461000BA691A60334B9847334B1B685A1C324BAC
:104620001A60324B1B68002B09D1304BBA691A60F3
:104630002D4B1B68012B0FD12D4B98470CE02D4BB8
:104640001B68002B08D1294B1B68DA6A3B6B9A4226
:1046500002D8264BBA691A60274B1B685A1C264B96
:104660001A60254B1A68BB69DA63BB69DA6A234BA7
:104670001B689A4203D9BB69DA6A204B1A60BB698E
:10468000DA6A13009B009B189B001D4A9A18BB69AD
:104690000433190010001B4B98470123FB611A4B90
:1046A000984702E001235B42FB61FB69012B0BD1C0
:1046B000104B1B68002B07D00C4B1B68DA6A3B6B56
:1046C0009A4201D2114B9847FB691800BD4609B0C8
:1046D00090BDC04609510000FFFFFF3FE54E0000BE
:1046E0009D390000A93A0000C022002020210020AE
:1046F000814F0000CC220020DC220020C8220020B4
:10470000242100209D380000CD3A0000893A0000A5
:1047100080B584B000AF7860234B98477B68002B4E
:1047200002D1224B1B6800E07B68FB60FB6804330E
:1047300018001F4B9847FB689B6A002B04D0FB684E
:10474000183318001A4B9847FB681A1D194B1100B3
:104750001800194B9847194B1B685A1C174B1A60C5
:10476000174B1B685A1C164B1A60164B9847164B72
:104770001B68002B13D00D4B1B68FA689A4208D1B6
:10478000124B1B68002B01D072B6FEE7104B984706
:1047900005E0054B98470F4B98470A4B9847C04692
:1047A000BD4604B080BDC046A93A000020210020CB
:1047B0004D390000942200209D380000A8220020DE
:1047C000DC220020CD3A0000CC220020E022002094
:1047D000893A0000A951000090B587B004AF16498E
:1047E0001648002303930023029300230193002320
:1047F000009300236422124CA04703007B607B6877
:10480000012B03D10F4B984703007B607B68012B82
:1048100009D172B60C4B01221A600C4B00221A60AF
:104820000B4B984704E07B68002B01D172B6FEE782
:10483000C046BD4603B090BD04E80100B54E00007F
:104840007D45000095530000CC220020C4220020AA
:10485000393A000080B500AF034B1B685A1C024B6D
:104860001A60C046BD4680BDE022002080B582B0FF
:1048700000AF00237B60374B1B68002B01D172B661
:10488000FEE7354B9847334B1B685A1E314B1A6075
:10489000304B1B68002B55D1304B1B68002B51D07F
:1048A0002FE02F4BDB68DB683B603B681833180058
:1048B0002C4B98473B68043318002A4B98473B68B9
:1048C000DA6A294B1B689A4203D93B68DA6A264B9D
:1048D0001A603B68DA6A13009B009B189B00234A0E
:1048E0009A183B68043319001000214B98473B6825
:1048F000DA6A204B1B68DB6A9A4202D31E4B012204
:104900001A60174B1B68002BCBD11C4B1B68002B6C
:1049100010D00BE01A4B9847031E02D0164B012211
:104920001A60164B1B685A1E144B1A60134B1B68F7
:10493000002BEFD1104B1B68012B03D101237B60AF
:10494000104B9847104B98477B681800BD4602B043
:1049500080BDC046E0220020A93A0000C02200200D
:10496000802200204D390000C82200202421002090
:104970009D38000020210020D4220020D0220020D9
:10498000B9490000893A0000CD3A000080B582B0F4
:1049900000AF064B9847064B1B687B60054B98475A
:1049A0007B681800BD4602B080BDC046A93A000031
:1049B000C4220020CD3A000080B586B000AF0023AD
:1049C0007B614D4B1B68002B00D084E04B4B1B6878
:1049D0005A1C4A4B1A60494B1B683B613B69002BD0
:1049E00017D1474B1B681B68002B01D072B6FEE73E
:1049F000434B1B68FB60434B1A68414B1A60414BA9
:104A0000FA681A60404B1B685A1C3F4B1A603F4BB8
:104A100098473F4B1B683A699A424ED3384B1B6804
:104A20001B68002B01D1012300E00023002B04D0E0
:104A3000374B012252421A603FE0314B1B68DB6862
:104A4000DB68BB60BB685B687B603A697B689A42E5
:104A500003D22F4B7A681A602FE0BB68043318002A
:104A60002C4B9847BB689B6A002B04D0BB6818335B
:104A70001800284B9847BB68DA6A274B1B689A4294
:104A800003D9BB68DA6A244B1A60BB68DA6A130080
:104A90009B009B189B00214A9A18BB68043319009D
:104AA00010001F4B9847BB68DA6A1E4B1B68DB6A15
:104AB0009A42B3D301237B61B0E71A4B1B68DA6AD1
:104AC000164913009B009B189B005B58012B07D9CC
:104AD00001237B6104E0144B1B685A1C124B1A60C3
:104AE000124B1B68002B01D001237B617B691800EE
:104AF000BD4606B080BDC046E0220020C422002092
:104B0000782200207C220020D8220020A951000019
:104B10001C0000204D390000C82200202421002064
:104B20009D38000020210020D0220020D422002027
:104B300080B582B000AF334B1B68002B03D0324BE3
:104B400001221A605AE0304B00221A602F4B1B687A
:104B50001A682E4B1B681B6B9A4208D82B4B1A689D
:104B60002A4B1B68343319001000294B9847274BF8
:104B70001B681B6B274914221800274B9847031EFC
:104B800014D0224B1A68214B1B68343319001000D3
:104B90001F4B98470AE0214B1B68002B01D172B6CE
:104BA000FEE71E4B1B685A1E1C4B1A601B4B1A68F3
:104BB0001B4913009B009B189B005B58002BEAD0FD
:104BC000164B1A6813009B009B189B00144A9B18F5
:104BD0007B607B685B685A687B685A607B685A6850
:104BE0007B6808339A4204D17B685B685A687B68AB
:104BF0005A607B685B68DA68044B1A60C046BD4641
:104C000002B080BDE0220020D4220020202100201C
:104C10004D0300000CE8010051D20100C822002021
:104C20002421002080B584B000AF786039607B68B3
:104C3000002B01D172B6FEE7134B1B6818331A0024
:104C40007B6811001800114B98470F4B1B68043309
:104C500018000F4B98473B68013308D10A4B1B687B
:104C60001A1D0C4B110018000B4B984708E00B4B1A
:104C70001A683B68D318FB60FB681800084B98471C
:104C8000C046BD4604B080BD20210020E1380000B0
:104C90004D390000AC2200209D380000C4220020C5
:104CA0009950000080B584B000AF786039607B68AF
:104CB000002B01D172B6FEE70D4B1B6818331A00AA
:104CC0007B68110018000B4B9847094B1B68043395
:104CD0001800094B9847094B1A683B68D318FB60CA
:104CE000FB681800064B9847C046BD4604B080BD1F
:104CF000202100209D3800004D390000C4220020F2
:104D00009950000080B584B000AF78607B68DB68A4
:104D1000DB68BB60BB68002B01D172B6FEE7BB68E5
:104D2000183318001F4B98471F4B1B68002B1DD1D1
:104D3000BB68043318001B4B9847BB68DA6A1B4BEF
:104D40001B689A4203D9BB68DA6A184B1A60BB68C1
:104D5000DA6A13009B009B189B00154A9A18BB68DF
:104D6000043319001000134B984707E0BB68183351
:104D70001A00114B110018000E4B9847BB68DA6AF5
:104D80000E4B1B68DB6A9A4205D90123FB600C4B72
:104D900001221A6001E00023FB60FB681800BD4699
:104DA00004B080BD4D390000E0220020C822002060
:104DB000242100209D380000802200202021002096
:104DC000D422002080B582B000AF78607B68002BD1
:104DD00001D172B6FEE7064B1A687B681A60054B74
:104DE0001A687B685A60C046BD4602B080BDC046A6
:104DF000D8220020C422002080B584B000AF7860A3
:104E000039607B68002B01D172B6FEE73B68002B4E
:104E100001D172B6FEE71D4B98471D4B1B68BB6066
:104E20003B681B68013302D10023FB6027E07B68ED
:104E30001A68184B1B689A4207D07B685A68BB688F
:104E40009A4202D80123FB6019E07B685B68BA686C
:104E5000D21A3B681B689A420FD23B681A687B687B
:104E60005968BB68CB1AD2183B681A607B68180077
:104E7000094B98470023FB6001E00123FB60074BCF
:104E80009847FB681800BD4604B080BDA93A0000F1
:104E9000C4220020D8220020C54D0000CD3A0000D9
:104EA00080B500AF024B01221A60C046BD4680BDEE
:104EB000D422002080B582B000AF7860054B9847BF
:104EC000054B1B68012B01D9044B9847044B9847AD
:104ED000F4E7C0460D50000024210020893A00006C
:104EE0003103000080B586B000AFF860B9607A6029
:104EF0003B6000237B6113E0BA687B69D3181878A4
:104F0000FA6834217B69D3185B18021C1A70BA68DE
:104F10007B69D3181B78002B06D07B6901337B613A
:104F20007B69072BE8D900E0C046FB683B220021E3
:104F300099547B680E2B01D90E237B60FB687A683D
:104F4000DA62FB687A685A64FB68043318000B4B1A
:104F50009847FB6818331800084B9847FB68FA68B5
:104F60001A617B680F22D21AFB689A61FB68FA68A3
:104F70005A62C046BD4606B080BDC04685380000B6
:104F800080B582B000AF00237B600CE07A6813002C
:104F90009B009B189B00144A9B181800134B9847C2
:104FA0007B6801337B607B680E2BEFD9104B1800B8
:104FB0000E4B98470F4B18000C4B98470E4B1800A0
:104FC0000A4B98470D4B1800084B98470C4B18009C
:104FD000064B98470B4B064A1A600B4B054A1A6062
:104FE000C046BD4602B080BD2421002049380000E3
:104FF00050220020642200208022002094220020E1
:10500000AC220020782200207C22002080B582B0D3
:1050100000AF27E0174B9847174B1B685A42534184
:10502000DBB27B60154B98477B68002B1AD1144B81
:105030009847114BDB68DB683B603B680433180022
:10504000104B9847104B1B685A1E0F4B1A600F4BA2
:105050001B685A1E0D4B1A600D4B98473B68180091
:105060000C4B9847094B1B68002BD3D1C046BD465B
:1050700002B080BD55480000942200206D48000019
:10508000A93A00004D390000C0220020A8220020CB
:10509000CD3A00008151000080B582B000AF786049
:1050A000134B1B687A685A60124B1B687A689A42E5
:1050B00009D2114B1A680E4B1B68043319001000FB
:1050C0000E4B984710E00E4B1A68094B1B680433CF
:1050D00019001000094B98470A4B1B687A689A42DE
:1050E00002D2084B7A681A60C046BD4602B080BD45
:1050F00020210020C42200207C220020E138000072
:10510000782200201C00002080B584B000AF02008F
:105110003960BB1D1A804820164B98470300FB607E
:10512000FB68002B21D03B68002B07D1BB1D1B88DF
:105130009B0018000F4B9847020000E03A68FB689C
:105140001A63FB681B6B002B06D1FB6818000A4B27
:1051500098470023FB6008E0FB68186BBB1D1B88A9
:105160009B001A00A521054B9847FB681800BD4617
:1051700004B080BD1501000049020000ABD201005F
:1051800080B582B000AF78607B681B6B1800054B60
:1051900098477B681800034B9847C046BD4602B04D
:1051A00080BDC0464902000080B582B000AF0E4B02
:1051B0001B681B68002B01D1012300E00023002B9A
:1051C00004D00A4B012252421A6008E0064B1B68C9
:1051D000DB68DB687B607B685A68044B1A60C046FA
:1051E000BD4602B080BDC046782200201C000020D1
:1051F00080B582B000AF044B1B687B607B681800F1
:10520000BD4602B080BDC0462021002080B582B0DE
:1052100000AF0A4B1B68002B02D101237B6008E022
:10522000074B1B68002B02D102237B6001E00023A7
:105230007B607B681800BD4602B080BDCC22002098
:10524000E022002080B584B000AF78607B68FB600E
:105250007B68002B4AD0FB68DA6A264B1B68DB6A46
:105260009A4243D2FB689B69002B06DB214B1B68EB
:10527000DB6A0F22D21AFB689A61FB685969FB68E6
:10528000DA6A13009B009B189B001B4A9B189942EB
:1052900001D1012300E00023002B22D0FB6804335E
:1052A0001800164B9847134B1B68DA6AFB68DA62E2
:1052B000FB68DA6A124B1B689A4203D9FB68DA6A08
:1052C0000F4B1A60FB68DA6A13009B009B189B0067
:1052D000094A9A18FB68043319001000094B9847D3
:1052E00004E0044B1B68DA6AFB68DA62C046BD461C
:1052F00004B080BD20210020242100204D39000071
:10530000C82200209D38000080B584B000AF7860CE
:105310007B68FB607B68002B30D0FB68DA6AFB6837
:105320005B6C9A422AD0FB6804331800154B9847EF
:10533000FB685A6CFB68DA62FB689B69002B05DB33
:10534000FB68DB6A0F22D21AFB689A61FB68DA6A93
:105350000D4B1B689A4203D9FB68DA6A0A4B1A6044
:10536000FB68DA6A13009B009B189B00074A9A1897
:10537000FB68043319001000054B9847C046BD4632
:1053800004B080BD4D390000C82200202421002037
:105390009D38000090B587B004AF00237B60104BB0
:1053A0009847104B1B68002B0FD00F490F48002364
:1053B000039300230293002301930E230093002301
:1053C00064220B4CA04703007B607B68002B01D15B
:1053D00072B6FEE77B681800BD4603B090BDC046BC
:1053E0002D5900001423002020E8010089550000F9
:1053F0007D45000080B586B000AFF860B9607A6086
:105400003B60BB68002B02D100237B611DE02C2098
:10541000134B984703007B617B69002B15D0114B20
:1054200098477B69FA681A607B69BA689A617B69F8
:105430007A68DA617B693A681A627B693A6A5A6209
:105440007B6904331800084B9847BB68002B01D1D7
:1054500072B6FEE77B691800BD4606B080BDC04647
:10546000150100002D5900008538000090B589B065
:1054700000AFF860B9607A603B600023FB611E4BAF
:105480001B68002B33D01023FB18BA681A60102356
:10549000FB187A685A601023FB18FA689A60BB6898
:1054A000052B1ADC154B9847031E022B0AD1124B11
:1054B00018683A6B1023F9180023114CA047030019
:1054C000FB6114E00C4B18681023F918002300222C
:1054D0000B4CA0470300FB6109E0074B18683A68D2
:1054E0001023F9180023074CA0470300FB61FB6958
:1054F0001800BD4609B090BD142300200D520000D5
:10550000393D0000013F000090B587B002AF7860E0
:105510003960194B1B68DB68DB68FB60FB68043390
:105520001800164B9847FB68DB69012B1AD1FB6802
:105530009A697B68D1187B683A68F868104CA04774
:10554000031E012B0ED17A68F86800230093002314
:1055500000210C4CA0470300BB60BB68002B01D1AD
:1055600072B6FEE7FB685B6AFA6810009847C046AF
:10557000BD4605B090BDC0460C2300204D3900004B
:10558000CD5600006D54000080B584B000AF786047
:105590000823FB181800064B98470300FB60BA6805
:1055A000FB6811001800034B9847034B9847EFE73F
:1055B00045560000BD5500005557000080B584B029
:1055C00000AF78603960184B98470823FB18180023
:1055D000164B98470300FB60BB68002B1ED13B684D
:1055E000002B0CD17A68FB689A4208D8104B984778
:1055F000FA687B68110018000E4B984710E00E4BBC
:1056000018687A68FB68D31A19000C4B9847084B46
:105610009847031E04D10A4B984701E0044B984772
:10562000C046BD4604B080BD554800008556000008
:105630006D4800000955000014230020A14400001B
:10564000893A000080B584B000AF78600C4B1B68CD
:105650001B685A425341DBB21A007B681A607B68B0
:105660001B68002B05D1064B1B68DB681B68FB60C1
:1056700001E00023FB60FB681800BD4604B080BD5C
:105680000C23002080B584B000AF78600C4B9847A5
:105690000300FB600B4B1B68FA689A4205D20A4B69
:1056A00098477B6801221A6002E07B6800221A603A
:1056B000044BFA681A60FB681800BD4604B080BD50
:1056C0008D490000182300206D58000080B586B079
:1056D00000AFF860B9607A603B6000237B61FB68D3
:1056E000BA685A60FB68FA681A61BA687B689A42BD
:1056F00012D87A683B68D21AFB689B699A4202D337
:1057000001237B611BE0104B1A68FB68043319000E
:1057100010000E4B984712E07A683B689A4206D216
:10572000BA683B689A4202D301237B6107E0084BC9
:105730001A68FB68043319001000044B98477B6912
:105740001800BD4606B080BD10230020E1380000DF
:105750000C23002090B58BB002AF69E00823FB1842
:105760001B68002B64DB0823FB189B68FB61FB694B
:105770005B69002B04D0FB6904331800334B984756
:105780003B1D1800324B98470300BB610823FB18F0
:105790001B68092B4BD89A002E4BD3181B689F46C9
:1057A0000823FB185A68FB699B69D1180823FB186A
:1057B0005B68BA69F869284CA047031E012B37D1F2
:1057C000FB695B6AFA6910009847FB69DB69012B8A
:1057D0002ED10823FB185A68FB699B69D218F86917
:1057E00000230093002300211C4CA04703007B6191
:1057F0007B69002B1CD172B6FEE70823FB185A68A0
:10580000FB699A61FB699B69002B01D172B6FEE7C7
:10581000FB699A69BB69D118BB69BA69F8690E4C12
:10582000A04705E0FB6918000D4B984700E0C04613
:105830000C4B18680823F918002300220A4CA047D3
:10584000031E8BD1C046BD4609B090BD4D39000046
:105850008556000030E80100CD5600006D54000070
:1058600049020000142300200940000090B589B0CF
:1058700002AF3EE0284B1B68DB681B687B61264B50
:105880001B68DB68DB683B613B6904331800234B12
:1058900098473B695B6A3A69100098473B69DB6946
:1058A000012B26D13B699A697B69D318FB60FA68A2
:1058B0007B699A420ED93B69FA685A603B693A693A
:1058C0001A61154B1A683B69043319001000144B18
:1058D00098470EE07A69386900230093002300217D
:1058E000104CA0470300BB60BB68002B01D172B60F
:1058F000FEE7094B1B681B68002BBBD1064B1B68DE
:105900007B60094B1A68044B1A60074B7A681A606F
:10591000C046BD4607B090BD0C2300204D390000A5
:10592000E13800006D5400001023002080B500AF66
:10593000184B9847184B1B68002B26D1174B1800A3
:10594000174B9847174B1800154B9847164B134A9F
:105950001A60164B134A1A6000220C210A20144BBD
:10596000984702000C4B1A600B4B1B68002B01D1AF
:1059700072B6FEE7084B1B68002B06D0064B1B686F
:105980000C4A110018000C4B98470C4B9847C04626
:10599000BD4680BDA93A000014230020E422002067
:1059A00049380000F82200200C230020102300209A
:1059B0009D3C000028E8010051440000CD3A000061
:1059C00080B584B000AF78607B68FB60FB681B6AC1
:1059D0001800BD4604B080BD80B582B000AF7860CD
:1059E000054B9847054B984703001800044B984710
:1059F000C046BD4602B080BD0D080000F151000058
:105A00001147000090B585B004AF134B9847134B76
:105A10001B689B6819003120114B9847114B1800E7
:105A2000114B9847A023DA00104911480023039333
:105A300000230293002301930B23009300230D4CBA
:105A4000A0470D4B1800084B98470C4B9847002374
:105A50001800BD4601B090BDC12E0000840000209A
:105A6000090C000058E80100B5D3010068E8010006
:105A7000D95900007D45000074E80100D9470000B5
:105A800000B583B009F00AFC01A803B000BDC04610
:105A900008B5081C111C09F021FC08BD08B509F067
:105AA000F5FB08BD7047C046000000000000000084
:105AB00056080381A076000020013300D06A000060
:105AC000546A00005C6A0000140008000000000036
:105AD0005F080081B076000030043F00647200006F
