:10000000204200208D3E0000853F0000DD060000FC
:1000100000000000000000000000000000000000E0
:10002000000000000000000000000000853F00000C
:100030000000000000000000853F0000853F000038
:10004000853F0000853F0000853F0000853F0000A0
:10005000A1020000853F0000853F0000853F0000B1
:10006000853F0000B5270000CD270000E5270000F0
:10007000FD270000152800002D280000853F000006
:10008000853F0000853F0000B9150000CD15000038
:10009000E1150000F515000009160000853F00007D
:1000A000853F0000853F0000853F0000853F000040
:1000B0000000000010B5064C2378002B07D1054B3B
:1000C000002B02D0044800E000BF0123237010BDC4
:1000D000800000200000000040AF0100084B10B578
:1000E000002B03D00749084800E000BF0748036819
:1000F000002B00D110BD064B002BFBD09847F9E731
:10010000000000008400002040AF010040AF01006B
:1001100000000000EFF3108372B602680160104621
:1001200083F310887047C04680B584B000AF0200EA
:10013000FB1D1A700F23FB18FA1D127852091A7052
:100140000F23FB181B78002B0CD1094BBB600F232E
:10015000FB181B789B0010229446BC446344083B68
:100160001B6800E000231800BD4604B080BDC046F7
:100170000018004080B584B000AF0200FB1D1A706B
:10018000FB1D1B7818000B4B98470300FB60FB1D01
:100190001B781F22134001229A401300BB60FB68AA
:1001A0001B69BA6813405A1E9341DBB21800BD4662
:1001B00004B080BD2901000080B584B000AF02000A
:1001C000FB1D1A70FB1D1B781800094B9847030094
:1001D000FB60FB1D1B781F22134001229A40130075
:1001E000BB60FB68BA681A61C046BD4604B080BDFA
:1001F0002901000080B582B000AF786008001100CE
:10020000FB1C021C1A70BB1C0A1C1A70BB1C1B783E
:10021000002B01D0172319E0FB1C1A780D4B92001C
:10022000D358002B07D1FB1C1A780A4B920079682F
:10023000D15000230AE0FB1C1A78064B9200D258DA
:100240007B689A4201D1002300E01D231800BD46BF
:1002500002B080BD7C1F002080B584B000AF0200DA
:10026000FB1D1A70BB1D0A1C1A70BB1D1B78002BCE
:100270000ED1FB1D1B781800084B98470300FB604C
:10028000FB1D1B7801229A40FB68DA60002300E026
:1002900017231800BD4604B080BDC04629010000E8
:1002A00080B500AF154B00221A7020E0134B1B786D
:1002B0001800134B9847031E13D0104B1B781800DF
:1002C000104B98470D4B1B781A000F4B9200D358D8
:1002D000002B06D0094B1B781A000B4B9200D35809
:1002E0009847064B1B780133DAB2044B1A70034B64
:1002F0001B780F2BDAD9C046BD4680BD781F002081
:1003000075010000B90100007C1F002080B582B09B
:1003100000AF78607B6800221A70C046BD4602B00C
:1003200080BDC04680B582B000AF02003960FB1DC1
:100330001A70FB1D1B78012B0AD0022B0FD0002B4B
:1003400014D10E4B0D4A91693A680A439A610FE045
:100350000A4B0A4AD1693A680A43DA6108E0074B56
:10036000064A116A3A680A431A6201E0172300E05C
:1003700000231800BD4602B080BDC0460004004006
:1003800080B582B000AF78607B6880221A707B688D
:1003900000225A707B6801229A707B680022DA7012
:1003A000C046BD4602B080BD80B582B000AF02003D
:1003B000FB1D1A70064BFA1D127811001F220A400D
:1003C000012191400A001A60C046BD4602B080BDBE
:1003D00000E100E080B584B000AF0200FB1D1A70A0
:1003E0000F23FB18FA1D127852091A700F23FB18FD
:1003F0001B78002B0CD1094BBB600F23FB181B781B
:100400009B0010229446BC446344083B1B6800E0F8
:1004100000231800BD4604B080BDC046001800404F
:1004200080B582B000AF0F4B3B6000237B6011E0D2
:100430007B689B0008229446BC446344083B1B68CD
:100440005B78DBB25BB2002B01DA012306E07B684C
:1004500001337B607B68002BEAD000231800BD4687
:1004600002B080BD0018004080B584B000AF2D4BB5
:100470007B60402100202C4B98473B0018002B4B01
:1004800098473B0000221A703B0019000520284BBA
:1004900098470520274B98470023FB6018E0FB682E
:1004A0009B0010229446BC4463440C3B1A68FB68D2
:1004B0009B0010218C46BC4463440C3B1B681B789A
:1004C000DBB201210B43DBB21370FB680133FB602D
:1004D000FB68002BE3D0C046174B9847031EFBD1A7
:1004E0000B23FB1800221A700DE00B23FB181A785F
:1004F000124B92000021D1500B23FB181A780B23CA
:10050000FB1801321A700B23FB181B780F2BECD948
:1005100004200B4B98470B4B9847C046BD4604B090
:1005200080BDC04600180040250300000D030000F8
:10053000193B00005D3B0000210400007C1F0020EF
:10054000A90300004905000080B582B000AF154B3B
:100550003B6000237B6018E07B689B000822944688
:10056000BC446344083B1A687B689B0008218C46A6
:10057000BC446344083B1B681B78DBB202210B437D
:10058000DBB213707B6801337B607B68002BE3D0A8
:10059000C046054B9847031EFBD1C046BD4602B07E
:1005A00080BDC046001800402104000080B582B024
:1005B00000AF78607B6800221A607B6800225A6076
:1005C0007B6801221A727B6801225A727B680022C2
:1005D0009A727B680222DA72C046BD4602B080BDC4
:1005E00080B586B000AF02003960FB1D1A70082389
:1005F000FB181800364B98473B685B68DAB2082353
:10060000FB181A700823FB1800225A703B681A7AEC
:100610000823FB189A703B681B68DBB20822BA18E3
:10062000110018002B4B9847FB1D1B7818002A4B14
:10063000984703003B61FB1D1B78072213409B007A
:10064000FB603B68DB7A7B613B689B7A002B03D0C5
:100650007B69082213437B61FB1D1B78DB08DBB23F
:100660001800FB1D1B78DB08DBB21A003B69063261
:100670009200D3580F21FA6891400A00D2431A40E1
:100680007969FB6899400B001A4311003B69821D90
:100690009200D1503B685B7A002B0AD03B695A69C3
:1006A000FB1D1B78012199400B001A433B695A61DD
:1006B0000AE03B695B69FA1D1278012191400A004A
:1006C000D2431A403B695A61C046BD4606B080BD60
:1006D00081030000053E0000D503000080B500AF97
:1006E000FEE7C04680B582B000AF0200FB1D1A7065
:1006F000064BFA1D127811001F220A400121914079
:100700000A001A60C046BD4602B080BD00E100E0AC
:1007100080B584B000AF78607B681B68FB60FB68C5
:10072000DB7BDBB21A00802313405A1E9341DBB2FD
:100730001800BD4604B080BD80B582B000AF7860BF
:100740007B6800221A707B6800229A707B68002206
:100750009A807B6800229A717B6800221A817B68EC
:1007600000225A707B6800229A727B680022DA723B
:100770007B6800221A737B6800229A737B680022D0
:100780005A737B6800221A747B6800225A617B6866
:1007900000229A617B6800221A777B6800221A6225
:1007A0007B6800225A627B6800221A857B680022DF
:1007B0005A857B6800229A85C046BD4602B080BD3E
:1007C00080B584B000AF78607B681B68FB60C04672
:1007D0007B681800074B9847031EF9D1FB681B88FC
:1007E0009BB2022213439AB2FB681A80C046BD46F0
:1007F00004B080BD1107000080B584B000AF786000
:100800007B681B68FB60C0467B681800054B9847F7
:10081000031EF9D1FB6880225A71C046BD4604B060
:1008200080BDC0461107000080B584B000AF78607D
:100830007B681B68FB60C0467B6818000A4B9847C2
:10084000031EF9D1FB6800221A71C0467B681800AC
:10085000054B9847031EF9D1FB6840225A71C046E8
:10086000BD4604B080BDC0461107000080B582B00F
:1008700000AF7860044A7B68D3181B785BB218001D
:10088000BD4602B080BDC0460800002080B582B0E1
:1008900000AF78600A00FB1C1A707B681B681800A8
:1008A000224B984703001800214B9847030018007B
:1008B000204B9847FB1C1B78022B0BD17B685B7E7F
:1008C00010221343DAB27B685A767B681B681022C9
:1008D0005A7326E0FB1C1B78032B0BD17B685B7ED5
:1008E00020221343DAB27B685A767B681B68202289
:1008F0005A7316E07B685B7E5AB2FB1C1B780121A1
:1009000099400B005BB213435BB2DAB27B685A7654
:100910007B681B68FA1C1278012191400A00D2B250
:100920005A73C046BD4602B080BDC046991700004C
:100930006D080000E506000080B500AF014B18000F
:10094000BD4680BDD81F002080B500AF024B984740
:10095000C046BD4680BDC046C9B5000080B58EB05A
:1009600000AF3B1D1800104B98473B1D01225A73E6
:100970003B1D01229A733A1D0C490D4B18000D4B7B
:1009800098470B4B18000C4B98470C49084B022218
:1009900018000B4B9847064B02211800094B98474B
:1009A000C046BD460EB080BD39070000003400428D
:1009B000BC1F0020E5170000C10700004909000026
:1009C000451500008D08000080B500AF034B984727
:1009D000034B984700231800BD4680BD5D09000009
:1009E0009D14000080B500AF00231800BD4680BDF7
:1009F00090B585B000AF386079601F4B5C681B68AC
:100A00007A68A24205DB7A68A24230D13A689A42FB
:100A10002DD2194A3B687C6813605460174B18004C
:100A2000174B98470120174B98470A0001003B6875
:100A30007C685B1A9441BB60FC60FB68002B05DCA2
:100A4000FB68002B0FD1BB68002B0CD0BB68DA0011
:100A50000A4B110018000C4B9847084B18000B4B21
:100A60009847002304E00A4B9847030000E0002366
:100A70001800BD4605B090BD00000020BC1F00203E
:100A8000F9070000C50A0000411C00002908000009
:100A9000C9B5000080B500AF00231800BD4680BD79
:100AA00080B500AF00231800BD4680BD80B500AF03
:100AB00000231800BD4680BD80B500AF002318009C
:100AC000BD4680BD90B585B000AF0200FB1D1A7019
:100AD0000C4B984703000C00BB60FC60FB1D1B78AF
:100AE000002B07D1084B19685A68BB68FC685B1873
:100AF000544101E0BB68FC6818002100BD4605B008
:100B000090BDC0461D150000A000002080B500AFBC
:100B100000231800BD4680BD80B500AF094B984743
:100B2000094B1B689B6819005320084B9847084BDA
:100B30001800084B9847084B984700231800BD46FB
:100B400080BDC046593E0000780000205D0E0000C8
:100B5000F0A20100F9980100311E000080B582B0BA
:100B600000AF0200FB1D1A70064BFA1D127811002F
:100B70001F220A40012191400A001A60C046BD466A
:100B800002B080BD00E100E080B584B000AF7860C5
:100B90007B681B68FB60FB68DB695A1E9341DBB214
:100BA0001800BD4604B080BD80B582B000AF78604B
:100BB000C0467B681800044B9847031EF9D1C04615
:100BC000BD4602B080BDC046890B000080B582B032
:100BD00000AF78607B688022D2051A607B680022B3
:100BE0005A607B68FF221A817B6800229A727B68B8
:100BF0000022DA727B68962292011A627B682422B4
:100C0000012199547B682522012199547B68262271
:100C1000002199547B682722002199547B68002287
:100C20009A627B6888225203DA607B682C2200215A
:100C300099547B682D22002199547B6800221A6305
:100C40007B6800225A637B6800229A637B680022DB
:100C5000DA637B6800225A617B6800221A827B6813
:100C60000022DA767B6800221A767B6800221A77E7
:100C70007B6800225A767B6813229A767B68002272
:100C80005A77C046BD4602B080BDC04680B584B02C
:100C900000AF78607B681B68FB607B681B6818008E
:100CA000094B984703001800084B98477B681800C9
:100CB000074B9847FB681B6802221A43FB681A60BF
:100CC000C046BD4604B080BD692700005D0B000032
:100CD000A90B000080B584B000AFF860B9607A60FD
:100CE0007A68B968FB681800054B9847031E01D164
:100CF000012300E000231800BD4604B080BDC046BB
:100D0000212C000080B582B000AF78600A00FB1C87
:100D10001A70C046FB1C1B789AB27B681100180041
:100D2000044B9847031EF5D100231800BD4602B0BE
:100D300080BDC046952E000080B584B000AF7860BD
:100D400039600E23FB1800221A80C0460E23FA18C1
:100D50007B6811001800074B9847031EF6D10E233D
:100D6000FB181B88DAB23B681A70C046BD4604B057
:100D700080BDC046F92E000080B584B000AFF86099
:100D8000B9607A60104BFA681A60104B104A1A600A
:100D9000104B114A1A607A68B968FB6818000F4B4B
:100DA00098470F4B1B689B68002118000D4B984714
:100DB0000B4B1B685B68002118000A4B9847C04624
:100DC000BD4604B080BDC04644200020482000201D
:100DD000050D000040200020390D0000D50C00005A
:100DE000780000200D99010080B590B000AF3B0065
:100DF0001800134B98473B00962292011A623B0061
:100E000080225203DA603B000E4A1A633B000E4A0E
:100E10005A633B00012252429A633B000122524234
:100E2000DA633A0009490A4B18000A4B9847084B05
:100E30001800094B9847C046BD4610B080BDC0465B
:100E4000CD0B000002001600020017000014004243
:100E5000DC1F0020790D00008D0C000080B582B0F1
:100E600000AF786039600A4B1B78002B04D1094B26
:100E70009847074B01221A707B689AB2064B110003
:100E80001800064B98477B681800BD4602B080BD2D
:100E9000A8000020E90D0000DC1F0020952E0000B6
:100EA00080B582B000AF00237B6007E0074A7B6813
:100EB000D31800221A707B6801337B607B68002B9B
:100EC000F4D0C046BD4602B080BDC046AC00002094
:100ED00080B582B000AF78600C4A7B68D3181B786D
:100EE000012B04D17B681800094B98470AE07B6806
:100EF0001800084B9847031E04D1044A7B68D31896
:100F000001221A70C046BD4602B080BDAC00002070
:100F10001D120000FD11000080B582B000AF7860A6
:100F20000A4A7B68D3181B78012B0AD17B6818000A
:100F3000074B9847031E04D1044A7B68D31800224C
:100F40001A70C046BD4602B080BDC046AC0000204D
:100F50003D12000080B584B000AF0200FB1D1A7086
:100F60000F23FB18FA1D1278D2091A700E23FB18F2
:100F7000FA1D127852091A700D4BBB600F23FB1833
:100F80001B78002B0FD10F23FB181B789B0010221E
:100F90009446BC446344083B1A680E23FB181B7834
:100FA000DB01D31800E000231800BD4604B080BD6B
:100FB0000044004180B582B000AF0200FB1D1A70F2
:100FC000FB1D1B781800034B984703001800BD4613
:100FD00002B080BD550F000080B584B000AF0200A4
:100FE000FB1D1A70FB1D1B7818000B4B9847030064
:100FF000FB60FB1D1B781F22134001229A40130047
:10100000BB60FB681B6ABA6813405A1E9341DBB28F
:101010001800BD4604B080BDB50F000080B582B099
:1010200000AF0200FB1D1A70064BFA1D127811006A
:101030001F220A40012191400A001A60C046BD46A5
:1010400002B080BD00E100E080B582B000AF0200D8
:10105000FB1D1A70074AFB1D1B7819001F230B404C
:10106000012199400B0019008023D150C046BD4694
:1010700002B080BD00E100E080B584B000AF0200A6
:10108000FB1D1A700F23DBB218001A4B98470300A0
:10109000BB60BB68012B0CD10123012B04D10F23B2
:1010A000FB1800221A7010E00F23FB1801221A709F
:1010B0000BE00123012B04D10F23FB1801221A702E
:1010C00003E00F23FB1800221A700F23FB181B7874
:1010D000012B06D100231800074B9847074B984770
:1010E00003E000231800064B9847C046BD4604B0F5
:1010F00080BDC046D90F0000D10E000069B50000C8
:10110000190F000090B585B000AF0200FB1D1A70EA
:101110000F23FC18094B984703002370FB1D1B7815
:101120001800074B98470F23FB181B781800054B36
:101130009847C046BD4605B090BDC046254000005A
:10114000791000004940000080B500AF0420024B38
:101150009847C046BD4680BD1D10000080B500AF59
:101160000420024B9847C046BD4680BD4910000090
:1011700080B584B000AF124B98473B1D1800114B4F
:1011800098473B1D0F221A603B1D00225A603B1DF1
:1011900001221A723B1D0322DA723B1D19000F2037
:1011A000094B9847094B00220F211800084B98471C
:1011B00000210F20074B9847C046BD4604B080BDB4
:1011C000A10E0000AD050000E1050000D9110000EE
:1011D000F50100005902000080B500AF044B180073
:1011E000044B98470020044B9847C046BD4680BD3D
:1011F00000A30100F99801000511000080B582B03C
:1012000000AF78607B6819000120034B984703000A
:101210001800BD4602B080BD39B5000080B582B06F
:1012200000AF78607B6819000120034B98470300EA
:101230001800BD4602B080BD59B5000080B582B02F
:1012400000AF78607B6819000120034B98470300CA
:101250001800BD4602B080BD49B5000080B500AFA2
:10126000024B9847C046BD4680BDC0467111000084
:1012700080B500AF024B9847C046BD4680BDC04612
:101280005D11000080B500AF024B9847C046BD46D7
:1012900080BDC0464911000080B582B000AF020099
:1012A000FB1D1A70064BFA1D127811001F220A400E
:1012B000012191400A001A60C046BD4602B080BDBF
:1012C00000E100E080B584B000AF78607B681B6807
:1012D000FB60FB68DB7BDBB21A00802313405A1EE5
:1012E0009341DBB21800BD4604B080BD80B582B02A
:1012F00000AF78607B6800221A707B6800229A70C9
:101300007B6800229A807B6800229A717B680022A9
:101310001A817B6800225A707B6800229A727B686F
:101320000022DA727B6800221A737B6800229A73AB
:101330007B6800225A737B6800221A747B68002243
:101340005A617B6800229A617B6800221A777B6869
:1013500000221A627B6800225A627B6800221A858A
:101360007B6800225A857B6800229A85C046BD466C
:1013700002B080BD80B584B000AF78607B681B6828
:10138000FB60C0467B681800074B9847031EF9D1E5
:10139000FB681B889BB2022213439AB2FB681A8037
:1013A000C046BD4604B080BDC512000080B582B005
:1013B00000AF7860044A7B68D3181B785BB21800D2
:1013C000BD4602B080BDC0461000002080B582B08E
:1013D00000AF78600A00FB1C1A707B681B6818005D
:1013E000224B984703001800214B98470300180030
:1013F000204B9847FB1C1B78022B0BD17B685B7E34
:1014000010221343DAB27B685A767B681B6810227D
:101410005A7326E0FB1C1B78032B0BD17B685B7E89
:1014200020221343DAB27B685A767B681B6820223D
:101430005A7316E07B685B7E5AB2FB1C1B78012155
:1014400099400B005BB213435BB2DAB27B685A7609
:101450007B681B68FA1C1278012191400A00D2B205
:101460005A73C046BD4602B080BDC0469917000001
:10147000AD1300009912000090B500AF064B5C68F8
:101480001B68012100225B185441034A1360546019
:10149000C046BD4690BDC046B000002090B58FB09C
:1014A00000AF144A00230024136054603B1D180051
:1014B000114B98473B1D114A5A853B1D20229A71BA
:1014C0003A1D0F490F4B18000F4B98470D4B180052
:1014D0000E4B98470E490B4B022218000D4B9847B4
:1014E000084B022118000C4B9847C046BD460FB070
:1014F00090BDC046B0000020ED1200001F030000A8
:10150000002C004210200020E51700007513000099
:101510007914000045150000CD130000B0B500AFF0
:10152000064B18685968064C0A220023A04703009E
:101530000C0018002100BD46B0BDC046B000002020
:10154000AD68010080B584B000AFF860B960FB1DE4
:101550001A70FB1D1A78FB6802329200B968D150EC
:10156000FB1D1B78022B07D1FB681B7E1022134347
:10157000DAB2FB681A7619E0FB1D1B78032B07D142
:10158000FB681B7E20221343DAB2FB681A760DE05B
:10159000FB681B7E5AB2FB1D1B78012199400B0092
:1015A0005BB213435BB2DAB2FB681A760023180011
:1015B000BD4604B080BDC04680B500AF0020024BE0
:1015C0009847C046BD4680BD1D16000080B500AFDF
:1015D0000120024B9847C046BD4680BD1D16000045
:1015E00080B500AF0220024B9847C046BD4680BD83
:1015F0001D16000080B500AF0320024B9847C0467F
:10160000BD4680BD1D16000080B500AF0420024B12
:101610009847C046BD4680BD1D16000080B584B009
:1016200000AF0200FB1D1A70FB1D1A78284B9200B8
:10163000D358FB60FB681B689B7BDBB2FA68127EA9
:101640001340DAB2FB68597E0B23FB180A401A706C
:101650000B23FB181B780122134008D0FB689B6802
:10166000FA6810009847FB681B6801229A730B23E5
:10167000FB181B780222134008D0FB68DB68FA686D
:1016800010009847FB681B6802229A730B23FB1813
:101690001B781022134008D0FB681B69FA68100001
:1016A0009847FB681B6810229A730B23FB181B7862
:1016B0002022134008D0FB685B69FA681000984745
:1016C000FB681B6820229A73C046BD4604B080BDEB
:1016D0002C20002080B582B000AF78607B680022AB
:1016E0001A70C046BD4602B080BDC04680B582B00B
:1016F00000AF02003960FB1D1A70FB1D1B78012B27
:101700000AD0022B0FD0002B14D10E4B0D4A916939
:101710003A680A439A610FE00A4B0A4AD1693A686B
:101720000A43DA6108E0074B064A116A3A680A433D
:101730001A6201E0172300E000231800BD4602B042
:1017400080BDC0460004004080B582B000AF786024
:101750007B6880221A707B6800225A707B680122A5
:101760009A707B680022DA70C046BD4602B080BD28
:1017700080B584B000AF78607B681B68FB60FB6855
:10178000DB7BDBB21A00802313405A1E9341DBB28D
:101790001800BD4604B080BD90B589B000AF786038
:1017A0000823FB180E4A13CA13C303CA03C300233A
:1017B000FB610DE00823FB18FA699200D2587B68A0
:1017C0009A4202D1FB69DBB206E0FB690133FB619F
:1017D000FB69042BEED900231800BD4609B090BD6B
:1017E00010A3010090B58DB000AFF860B9607A60C9
:1017F0002E23FB1800221A802D23FB1800221A70BA
:101800002C23FB1800221A702923FC18BB6818002F
:10181000BF4B9847030023702423FA18BD4B1000D8
:10182000190005231A00BC4B98471823FA18BB4B24
:10183000100019000A231A00B74B98472B23FB18F6
:1018400000221A700EE02B23FB181A78FB68023274
:1018500092000021D1502B23FB181A782B23FB1860
:1018600001321A702B23FB181B78032BEBD9FB6872
:1018700000221A76FB6800225A762923FB181A7870
:10188000A74B9200F968D150FB68BA681A607B6870
:101890009B78082B08D12923FB181B7803330122DE
:1018A000134001D01723C4E17B689A78FB681A7152
:1018B000BB681B889BB21A000123134001D005238B
:1018C000B7E1BB68DB7BDBB21A001023134001D009
:1018D0001C23AEE1BB681B889BB21A000223134095
:1018E00001D01C23A5E17B681B7C002B17D014239F
:1018F000FB1818008B4B98477B689B69DAB214235E
:10190000FB181A701423FB1801225A707B685B695C
:10191000DBB21422BA1811001800834B98477B6879
:101920001B7F002B17D01423FB1818007D4B984702
:101930007B685B6ADAB21423FB181A701423FB1855
:1019400001225A707B681B6ADBB21422BA1811009C
:101950001800754B98472923FB181A781823FB1891
:101960005200D35A19000220704B98477B689B782D
:10197000082B0BD12923FB181B785A1C1823FB18A2
:101980005200D35A19000220684B98471023FB18C5
:101990001800674B98477B681A781023FB181A7059
:1019A0002923FB181B782422BA18D35C1022BA18FA
:1019B000110018005F4B98472923FB181B7824223D
:1019C000BA18D35C18005C4B98477B689A787B68A0
:1019D0009B791343DBB29AB27B681B89134399B29C
:1019E0007B689A882E23FB180A431A807B685B78F1
:1019F000002B08D02E23FB182E22BA181288802123
:101A000009010A431A80C046FB6818004B4B9847EF
:101A1000031EF9D1BB682E22BA1812881A807B687F
:101A20005B7B002B03D02D23FB1804221A707B68EC
:101A30009B7B002B07D02D23FB182D22BA18127880
:101A400001210A431A70C046FB6818003B4B9847B7
:101A5000031EF9D1BB68FF221A712D23FB181B78D6
:101A6000002B0BD0C046FB681800344B9847031E70
:101A7000F9D1BB682D22BA1812785A712C23FB18A1
:101A80007A68927A1A702A23FB1800221A701CE0D6
:101A90002A23FB181B787A68D318DB7A002B0DD029
:101AA0002A23FB181B7810229A401300D9B22C234A
:101AB000FB182C22BA1812780A431A702A23FB1832
:101AC0001A782A23FB1801321A702A23FB181B7874
:101AD000012BDDD9C046FB681800184B9847031E40
:101AE000F9D1BB682C22BA1812789A71C046FB68EB
:101AF0001800124B9847031EF9D1FB681B79042B81
:101B00001ED0082B00D170E0002B4BD090E0C046D7
:101B10009917000024A30100E99701002CA30100FC
:101B20002C20002049170000053E0000ED160000A3
:101B3000D5160000193B00005D3B00007117000046
:101B4000C046FB6818003D4B9847031EF9D17B68DF
:101B500028229A5CBB681A74C046FB681800374B91
:101B60009847031EF9D17B6829229A5CBB681A75D5
:101B7000C046FB681800314B9847031EF9D17B68BB
:101B80002A229A5CBB681A76C046FB6818002B4B69
:101B90009847031EF9D17B682B229A5CBB685A7662
:101BA000002346E0C046FB681800244B9847031EFC
:101BB000F9D17B681A8DBB681A82C046FB68180091
:101BC0001E4B9847031EF9D17B685A8DBB681A8358
:101BD000C046FB681800194B9847031EF9D17B6873
:101BE0009A8DBB685A83002323E0C046FB68180027
:101BF000124B9847031EF9D17B689A6ABB681A6139
:101C0000C046FB6818000D4B9847031EF9D17B684E
:101C1000DA6ABB689A61C046FB681800074B9847B0
:101C2000031EF9D17B681A6BBB68DA61002300E000
:101C300017231800BD460DB090BDC04671170000B7
:101C400080B584B000AF786039607B681B68FB604A
:101C5000C0467B681800114B9847031EF9D17B687A
:101C60001B79042B04D0082B0ED0002B06D010E0DB
:101C70003B68DAB2FB681A7500230BE03B689AB246
:101C8000FB681A83002305E0FB683A689A61002329
:101C900000E017231800BD4604B080BD7117000096
:101CA00080B586B000AFF860B9607A6000237B61D0
:101CB000FB68002B12D001235B4213E00B4B1A6828
:101CC0000B4B1B68B96818009047BB680133BB60B9
:101CD0007B6901337B617B68013B7B607B68002B08
:101CE000ECDC7B691800BD4606B080BD40200020BA
:101CF0004420002080B586B000AFF860B9607A60FB
:101D000000237B61FB68012B1DD0FB68022B1AD0DE
:101D1000FB68032B17D001235B4218E00E4B1A68B7
:101D20000E4B1868BB68591CB9601B7819009047A6
:101D3000031E02DA01235B4209E07B6901337B6108
:101D40007B68013B7B607B68002BE7D17B691800D7
:101D5000BD4606B080BDC04648200020442000207B
:101D600080B500AF014B1800BD4680BD4C2000205F
:101D700080B584B000AFF860B9607A607B689B681A
:101D80005A1E7B689A607B689B68002B0ADA7B6826
:101D90009A687B689B699A420EDBBB68FF221340FE
:101DA0000A2B09D07B681B68591C7A681160BA68D5
:101DB000D2B21A701B7806E07A68B968FB6818001E
:101DC000034B984703001800BD4604B080BDC046D1
:101DD000919A010080B582B000AF78607B68074AB5
:101DE000934205D97B68064A934201D8002300E05C
:101DF00001231800BD4602B080BDC046FFFFFF1F93
:101E0000FE7F002080B582B000AF7860064B186876
:101E1000054B1B689A687B681900044B9847C046BD
:101E2000BD4602B080BDC04678000020711D000094
:101E300080B584B000AF104B98470300FB60FB688F
:101E4000002B14D0FB680022002118000B4B984790
:101E50000300BB60BB68002B05DBFB681800084B68
:101E6000984703007B60FB681800064B9847C04604
:101E7000BD4604B080BDC04629CF000039CF000068
:101E800045CF00004DCF000080B582B000AF104BB1
:101E90001B68002B12D1EFF310837B607B68002B53
:101EA00009D172B6BFF35F8F0A4B00221A700A4B3A
:101EB00001221A7002E0084B00221A70044B1B68C2
:101EC0005A1C034B1A60C046BD4602B080BDC046D6
:101ED000B800002015000020BC00002080B500AF35
:101EE0000B4B1B685A1E0A4B1A60094B1B68002BD0
:101EF0000AD1084B1B78DBB2002B05D0064B012220
:101F00001A70BFF35F8F62B6C046BD4680BDC04643
:101F1000B8000020BC0000201500002080B584B06F
:101F200000AF0200FB1D1A700F23FB18FA1D127878
:101F3000D2091A700E23FB18FA1D127852091A7072
:101F40000D4BBB600F23FB181B78002B0FD10F2309
:101F5000FB181B789B0010229446BC446344083B4A
:101F60001A680E23FB181B78DB01D31800E000234E
:101F70001800BD4604B080BD0044004180B582B069
:101F800000AF0200FB1D1A70FB1D1B781800034BED
:101F9000984703001800BD4602B080BD1D1F000019
:101FA00080B582B000AF78607B6800221A707B68D1
:101FB00001225A707B6800229A70C046BD4602B06A
:101FC00080BDC04680B584B000AF0200FB1D1A7012
:101FD000BB1D0A1C1A70FB1D1B7818000D4B98477F
:101FE0000300FB60FB1D1B781F22134001229A4057
:101FF0001300BB60BB1D1B78002B03D0FB68BA68C5
:102000009A6102E0FB68BA685A61C046BD4604B0F6
:1020100080BDC0467D1F000080B582B000AF3B1D73
:1020200018000E4B98473B1D01221A703B1D1900EA
:102030003E200B4B984701213E200A4B98473B1D01
:1020400000221A703B1D01225A703B1D19000F20FF
:10205000034B9847C046BD4602B080BDA11F00009B
:1020600091200000C51F000080B582B000AF7860ED
:102070007B6880221A707B6800225A707B6801227C
:102080009A707B680022DA70C046BD4602B080BDFF
:1020900080B584B000AF02003960FB1D1A700C23BC
:1020A000FB181800104B98470C23FB1880221A705D
:1020B0003B681A780C23FB185A703B685A780C233B
:1020C000FB189A703B689A780C23FB18DA700C2383
:1020D000FA18FB1D1B7811001800044B9847C046E6
:1020E000BD4604B080BDC04669200000053E00002A
:1020F00080B582B000AF78607B6800221A70C0465D
:10210000BD4602B080BDC046F0B58DB000AFB8602E
:10211000F9603A607B60002300243B627C6200230C
:102120000024BB61FC613F23FB6253E0FB6A203B60
:10213000002B04DB01229A4013007B610BE0FB6A59
:102140002022D31A0122DA4013000021FA6A9140BA
:102150000A0013437B610122FB6A9A4013003B6132
:10216000BB69FC69DB186441BB61FC61BB683A690F
:102170001A401500FB687A691A4016002B00334399
:1021800007D0BB6901221343BB61FB6900221343E3
:10219000FB617A68FB699A4219D87A68FB699A42AE
:1021A00003D13A68BB699A4211D8B969FA693B68A8
:1021B0007C68C91AA2410B001400BB61FC613A6A39
:1021C0003B6913433B627A6A7B6913437B62FB6A18
:1021D000013BFB62FB6A002BA8DA3B6A7C6A1800B1
:1021E0002100BD460DB0F0BD80B586B000AFF860EF
:1021F000B9607A601623FB1800221A80BB683B6125
:10220000BB685A08FB689A4201D2402326E0BB68AB
:102210005B083B610AE03A69FB68D31A3B6116230D
:10222000FB181A881623FB1801321A803A69FB68DA
:102230009A42F0D21623FB181622BA181288013AD5
:102240001A801623FB181B88FF2B01D9402305E0B9
:102250007B681622BA1812881A8000231800BD461F
:1022600006B080BDF0B59DB000AFF863B9637A6386
:102270003322BA18137000230024BB65FC650023C9
:1022800000243B657C6500230024BB66FC660023BC
:102290003B66582330229446BC4463441A78FB6B57
:1022A0005A43BB6B9A4201D94023C6E03323FB1843
:1022B0001B78002B3DD1582330229446BC44634404
:1022C0001B78DBB23B6100237B61FB6BBB600023AF
:1022D000FB605C4CBA68FB6838697969A047030009
:1022E0000C001B00FB640023BB64BB6B3B60002342
:1022F0007B60B86CF96C3A687B68534CA04703006C
:102300000C00BB65FC6500210122BB6DFC6DC91A88
:10231000A2410B0014003B657C653B6D1B0C7A6D84
:1023200016041E433B6D1D043300BB660023FB6691
:102330007DE03323FB181B78012B00D077E0372397
:1023400030229446BC44634400221A704EE0BB6BBA
:10235000BB620023FB62B86AF96A03005B0F0A00E4
:10236000D2001343FB640300DB00BB64FB6B3B62E6
:1023700000237B62582330229446BC4463441B787C
:10238000DBB2BB610023FB612E4CBA69FB69386A82
:10239000796AA04703000C003B647C643B6C7C6C56
:1023A000B86CF96C1A002300274CA04703000C00FE
:1023B0003B66372330229446BC4463441B783A6E14
:1023C000D31A3B663B6EDB083B663B6E1F4A93426B
:1023D00015D9372330229446BC4463441A783723F6
:1023E00030218C46BC44634401321A7037233022BA
:1023F0009446BC4463441B78072BA8D900E0C04630
:10240000372330229446BC4463441B78082B01D107
:10241000402312E0372330229446BC4463441B78A7
:102420005B031A003B6E1343BB660023FB66BB6E67
:10243000FC6E9AB27B6B1A8000231800BD461DB05B
:10244000F0BDC046F568010009210000FF1F000033
:1024500080B584B000AF0200FB1D1A70BB1D0A1CC2
:102460001A701A4B1B7801225340DBB2002B03D1A8
:10247000BB1D1B78002B1BD00C23FB181800144B22
:1024800098470C23FB18FA1D12781A700C23FB18BE
:10249000190013200F4B984713200F4B98470B4BF5
:1024A000FA1D12785A70094B01221A70002308E0B5
:1024B000064B5B78FA1D12789A4201D1002300E0A6
:1024C0001D231800BD4604B080BDC046C0000020DA
:1024D000F1200000193B00005D3B000080B582B098
:1024E00000AF78600A00FB1C1A707B684D4A93426B
:1024F0003FD04C4A934206D84B4A93420FD04B4AA6
:10250000934221D089E04A4A934200D15BE0494A94
:10251000934200D16CE0484A93423FD07DE0FB1CDF
:102520001B78012B0AD002DC002B05D075E0022BB2
:1025300006D0032B06D070E0404B6FE0404B6DE0BF
:10254000404B6BE0404B69E0FB1C1B78012B0AD031
:1025500002DC002B05D060E0022B06D0032B06D056
:102560005BE003235AE0394B58E0394B56E0394BD6
:1025700054E0FB1C1B78012B0AD002DC002B05D099
:102580004BE0022B06D0032B06D046E0324B45E051
:10259000324B43E0324B41E0324B3FE0FB1C1B78B7
:1025A000012B0AD002DC002B05D036E0022B06D02E
:1025B000032B06D031E02C4B30E02C4B2EE02C4B83
:1025C0002CE02C4B2AE0FB1C1B78012B0AD002DCF0
:1025D000002B05D021E0022B06D0032B06D01CE0F7
:1025E000254B1BE0254B19E0254B17E0254B15E04B
:1025F000FB1C1B78012B0AD002DC002B05D00CE061
:10260000022B06D0032B06D007E01F4B06E01F4B22
:1026100004E01F4B02E01F4B00E000231800BD4602
:1026200002B080BD0010004200080042000C0042D1
:1026300000180042001C0042001400420300040085
:10264000030005000300060003000700030001006B
:1026500003001E0003001F00030008000300090020
:1026600003000A0003000B00030010000300110028
:10267000030012000300130003000C0003000D0010
:1026800003000E0003000F000300160003001700F4
:10269000030018000300190090B58BB000AF7860FC
:1026A0000C23FB180F4A13CA13C313CA13C3002306
:1026B0007B620EE00C23FB187A6A9200D3581A1E34
:1026C0007B689A4202D17B6ADBB206E07B6A013307
:1026D0007B627B6A052BEDD900231800BD460BB049
:1026E00090BDC04638A3010080B582B000AF0200A3
:1026F000FB1D1A70C046BD4602B080BD80B584B0D7
:1027000000AF02003960FB1D1A70134B1B780122C9
:102710005340DBB2002B15D00023FB600CE00F4BC5
:10272000FA6892000E49D1500E4BFA6892000021CF
:10273000D150FB680133FB60FB68052BEFD9064BDA
:1027400001221A70FB1D1A78044B92003968D1508F
:10275000C046BD4604B080BDC2000020C4000020B9
:10276000E92600005020002090B585B000AF7860C9
:102770000823FA180C4B1000190006231A000B4B03
:1027800098470F23FC187B681800094B98470300F3
:1027900023700F23FB181B780822BA18D35C5BB296
:1027A0001800BD4605B090BD50A30100E997010097
:1027B0009926000080B500AF034B1B6800209847A6
:1027C000C046BD4680BDC046C400002080B500AFF5
:1027D000034B5B6801209847C046BD4680BDC0469C
:1027E000C400002080B500AF034B9B6802209847CF
:1027F000C046BD4680BDC046C400002080B500AFC5
:10280000034BDB6803209847C046BD4680BDC046E9
:10281000C400002080B500AF034B1B69042098471B
:10282000C046BD4680BDC046C400002080B500AF94
:10283000034B5B6905209847C046BD4680BDC04636
:10284000C400002080B582B000AF78607B680022B1
:102850001A70C046BD4602B080BDC04680B582B089
:1028600000AF02003960FB1D1A70FB1D1B78012BA5
:102870000AD0022B0FD0002B14D10E4B0D4A9169B8
:102880003A680A439A610FE00A4B0A4AD1693A68EA
:102890000A43DA6108E0074B064A116A3A680A43BC
:1028A0001A6201E0172300E000231800BD4602B0C1
:1028B00080BDC0460004004080B582B000AF7860A3
:1028C0007B6880221A707B6800225A707B68012224
:1028D0009A707B680022DA70C046BD4602B080BDA7
:1028E00080B500AF054B9B78DBB21A000223134082
:1028F0005A1E9341DBB21800BD4680BD0020004146
:1029000080B584B000AF78607B681B68FB60FB68B3
:10291000DB695A1E9341DBB21800BD4604B080BD8E
:1029200080B582B000AF7860C0467B681800044B69
:102930009847031EF9D1C046BD4602B080BDC046CF
:1029400001290000B0B58CB002AF786039607B68B7
:102950001B68BB617B681B681800AB4B9847030082
:102960007B617B6914333B6100237B6200233B6204
:102970000A23FB1800221A801F23FB1800221A705A
:102980001E23FB1810221A703B681B8A8022D2017A
:1029900093421CD08022D201934206DC002B0DD042
:1029A00080229201934224D035E0C022D20193428A
:1029B00028D080221202934212D02CE01F23FB1851
:1029C00000221A701E23FB1810221A7023E01F2306
:1029D000FB1800221A701E23FB1808221A701AE036
:1029E0001F23FB1800221A701E23FB1803221A70E3
:1029F00011E01F23FB1801221A701E23FB1810225E
:102A00001A7008E01F23FB1801221A701E23FB18FE
:102A100008221A70C0463B681A683B68DB681A4394
:102A20003B685B6913433A68128A13433A68127E23
:102A3000120213433A682621525C520713437B6209
:102A40001D23FB1800221A703B685B68FB60FB6863
:102A5000002B1ED08022520593424FD13B68272283
:102A60009B5C01225340DBB2002B46D03B681D6AC1
:102A70003B69DBB21800654B984701001D23FC1829
:102A80000A23FB181A002800614B984703002370A3
:102A900033E03B6827229B5C002B14D03B68186A0C
:102AA0003B68996A1D23FC181F23FB181D780A2315
:102AB000FA181E23FB181B7800932B00554DA847CE
:102AC000030023701AE03B681D6A3B69DBB2180003
:102AD0004E4B98471D23FC181F23FB1819780A2317
:102AE000FA181E23FB181B7800930B000100280026
:102AF000484DA8470300237000E0C0461D23FB1883
:102B00001B78002B03D01D23FB181B7877E03B6854
:102B10005B7E002B03D03B689A7EBB699A737B680F
:102B200018003D4B98470A23FB181A88BB699A8105
:102B30007A6AFB6813437B623B6827229B5C012215
:102B40005340DBB2002B03D07B6A042213437B6229
:102B50003B685B7E9A023B681B7F5B021A433B68C3
:102B60005B7F1B021A433B6824215B5C5B041A43B6
:102B70003B6825215B5C1B0413433B623B689B7AEB
:102B80001A003B6A13433B623B68DB7A1A003B6ADC
:102B900013433B623B681B89FF2B0BD07B6A80226F
:102BA000520413437B623B681B891A003B6A134340
:102BB0003B6208E03B68DB7E002B04D07B6A80220E
:102BC000D20413437B623B682C229B5C002B03D115
:102BD000124B9847031E03D07B6A802213437B620B
:102BE0007B6818000C4B9847BB693A6A5A607B684F
:102BF0001800094B9847BB697A6A1A6000231800CD
:102C0000BD460AB0B0BDC046992600003D3C00005C
:102C1000E92100006522000021290000E1280000D0
:102C200090B593B000AFF860B9607A603B23FB18B1
:102C300000221A70FB68BA681A60FB681B687B6325
:102C4000FB681B681800864B984703003B633B6B8F
:102C50000233FB623B6B1433BB627B6B1B6801224C
:102C6000134001D00523F6E07B6B1B680222134062
:102C700001D01C23EFE00122FB6A9A4013001900E7
:102C80000220784B98472423FB181800764B98476E
:102C90007B682D229A5C2423FB181A70BB6ADBB276
:102CA0002422BA1811001800704B9847BB6ADBB297
:102CB00018006F4B98477B682D229B5C0021180001
:102CC0006C4B98477B68DA7AFB685A717B682422E0
:102CD0009A5CFB689A717B6825229A5CFB68DA71C2
:102CE0007B68DA7EFB681A727B681A7FFB685A720F
:102CF0003B23FC187A68FB68110018005E4B98476C
:102D0000030023703B23FB181B78002B03D03B23CD
:102D1000FB181B789FE02023FB181800574B98479F
:102D20002023FB1800225A702023FB1800229A70DF
:102D30007B681A6B1023FB181A607B685A6B102390
:102D4000FB185A607B689A6B1023FB189A607B68AB
:102D5000DA6B1023FB18DA604723FB1800221A7085
:102D60002CE04723FB181A781023FB189200D35845
:102D70003B643B6C002B09D14723FB181A78BB68D6
:102D8000110018003E4B984703003B643B6C013335
:102D90000DD03B6CDAB22023FB181A703B6C1B0C75
:102DA000DBB22022BA1811001800364B984747238F
:102DB000FB181A784723FB1801321A704723FB18B7
:102DC0001B78032BCDD90023FB630AE0FA68FB6B69
:102DD00002339B00D318043300221A60FB6B0133CB
:102DE000FB63FB6B052BF1D9FB6800229A62FB6841
:102DF00000225A62FB680022DA85FB6800229A856D
:102E0000FB68302200219954FB683122002199543B
:102E1000FB68322200219954FB6833220021995427
:102E2000FB681B682722BC1818000D4B984703004D
:102E30002370154A2723FB181B7811001800134B29
:102E400098472723FB181A78114B9200F968D15044
:102E50003B23FB181B781800BD4613B090BDC0463D
:102E6000992600005D28000045280000193B00005D
:102E70005D3B00005124000045290000B9280000F6
:102E8000DD240000053E000029300000FD26000082
:102E90005020002080B584B000AF78600A00BB1CD1
:102EA0001A807B681B68FB607B68DB7901225340DA
:102EB000DBB2002B01D01C2317E07B68DB8D9BB2BB
:102EC000002B01D0052310E07B681800094B9847C0
:102ED000FB68BA1C12881A85C046FB681B7EDBB2F1
:102EE0001A0002231340F8D000231800BD4604B096
:102EF00080BDC0462129000080B584B000AF786055
:102F000039607B681B68FB607B689B7901225340BA
:102F1000DBB2002B01D01C235EE07B689B8D9BB253
:102F2000002B01D0052357E0FB681B7EDBB21A00A3
:102F30000423134001D105234EE07B681800284B81
:102F40009847FB685B8B9BB2DAB20B23FB183F21DF
:102F50000A401A700B23FB181B78002B36D00B236A
:102F6000FB181B780222134004D0FB6802225A830C
:102F70001A2331E00B23FB181B780422134004D0E2
:102F8000FB6804225A831E2326E00B23FB181B78C0
:102F90000122134004D0FB6801225A8313231BE053
:102FA0000B23FB181B781022134004D0FB6810225F
:102FB0005A83422310E00B23FB181B782022134076
:102FC00004D0FB6820225A83412305E0FB681B8D57
:102FD0009AB23B681A8000231800BD4604B080BD39
:102FE0002129000080B584B000AF78607B681B6841
:102FF000FB60FB68DB695A1E9341DBB21800BD46DB
:1030000004B080BD80B582B000AF7860C0467B68F8
:103010001800044B9847031EF9D1C046BD4602B0C4
:1030200080BDC046E52F000080B588B000AF02002B
:10303000FB1D1A70FB1D1A78A34B9200D358BB617D
:10304000BB691B687B61BB691800A04B98477B6913
:103050001B7EDAB21223FB181A807B699B7DDBB2E0
:103060009AB21223FB181221791809880A401A8093
:10307000BB6930229B5CBA693121525C1340DAB2E1
:103080001023FB181A801223FB181B8801221340FF
:1030900044D0BB69DB8D9BB2002B3CD0BB699B6AE3
:1030A0001B78DAB21C23FB181A80BB699B6A5A1C76
:1030B000BB699A62BB695B79012B13D1BB699B6ABF
:1030C0001B78DBB21B021AB21C23FB1800215B5ECB
:1030D00013431AB21C23FB181A80BB699B6A5A1C43
:1030E000BB699A621C23FB181B88DB05DB0D9AB2B7
:1030F0007B691A85BB69DB8D9BB2013B9BB2BA69C8
:10310000191CD185002B09D17B6901221A757B69B5
:1031100002229A7502E07B6901221A751223FB18BC
:103120001B880222134011D07B6902221A75BB69E9
:103130003322002199541023FB181B8801221340CD
:1031400004D0BB69DB68BA69100098471223FB18EA
:103150001B880422134000D1BDE0BB699B8D9BB24C
:10316000002B00D1B4E07B695B8B9BB2DAB21F23EA
:10317000FB183F210A401A701F23FB181B780822F6
:10318000134007D01F23FB181F22BA1812780821FA
:103190008A431A701F23FB181B78002B50D01F2363
:1031A000FB181B780222134007D0BB6932221A2178
:1031B00099547B6902225A8336E01F23FB181B783F
:1031C0000422134007D0BB6932221E2199547B6927
:1031D00004225A8328E01F23FB181B780122134086
:1031E00007D0BB693222132199547B6901225A838B
:1031F0001AE01F23FB181B781022134007D0BB696D
:103200003222422199547B6910225A830CE01F23F9
:10321000FB181B782022134006D0BB6932224121C3
:1032200099547B6920225A831023FB181B8804229F
:10323000134050D0BB695B69BA69100098474AE0F7
:103240007B691B8D9AB20E23FB18D205D20D1A8012
:10325000BB695B6A0E22BA181288D2B21A70BB69B7
:103260005B6A5A1CBB695A62BB695B79012B0DD141
:10327000BB695B6A0E22BA181288120A92B2D2B2E5
:103280001A70BB695B6A5A1CBB695A62BB699B8D29
:103290009BB2013B9BB2BA69191C9185002B1AD1D4
:1032A0007B6904221A75BB693222002199541023CC
:1032B000FB181B88022213400DD0BB691B69BA6939
:1032C0001000984707E0C04650200020053000005D
:1032D0007B6904221A751223FB181B8810221340E5
:1032E00010D07B6910221A757B6910221A76102380
:1032F000FB181B881022134004D0BB69DB69BA6934
:10330000100098471223FB181B882022134010D06E
:103310007B6920221A757B6920221A761023FB18FC
:103320001B880822134004D0BB699B69BA6910004E
:1033300098471223FB181B880822134010D07B6982
:1033400008221A757B6908221A761023FB181B883D
:103350002022134004D0BB691B6ABA691000984749
:10336000C046BD4608B080BD80B582B000AF786071
:103370007B6801225A607B6800225A707B680622B3
:103380001A707B6800221A727B6800225A72C0464B
:10339000BD4602B080BDC04680B582B000AF786047
:1033A0007B6803221A707B6800225A707B680122B6
:1033B0009A70C046BD4602B080BDC04680B582B09E
:1033C00000AF0200FB1D1A70034AFB1D1B7813722D
:1033D000C046BD4602B080BD0004004080B582B04A
:1033E00000AF0200FB1D1A70BB1D0A1C1A70FB1DEA
:1033F0001B78012B08D0022B0BD0002B0ED10B4ACF
:10340000BB1D1B7853720BE0084ABB1D1B789372DF
:1034100006E0064ABB1D1B78D37201E0172300E0CB
:1034200000231800BD4602B080BDC0460004004025
:1034300080B582B000AF0200FB1D1A70084AFB1D68
:103440001B780F210B40D9B253680F20014049006F
:103450001E2083430B435360C046BD4602B080BD6F
:103460000040004180B500AFC046044BDB6810222D
:103470001340FAD0C046BD4680BDC046000800409B
:1034800080B500AF0C4B02229A840C4B98470A4A35
:103490000B4B9B68D362084A094B5B689362064BEF
:1034A00000229A84054B9847034A054B1B689BB240
:1034B0009384C046BD4680BD0008004065340000CE
:1034C000DC00002080B582B000AF0200FB1D1A7046
:1034D000FB1D1B78082B40D89A00224BD3181B6881
:1034E0009F46214B1B6939E0204B1B6A9B059B0FB4
:1034F000DBB21A001E4BD34030E080231B022DE0CC
:1035000080231B022AE0184B5B6927E0164B1B68DF
:103510000222134001D1002320E0164B9847124BA2
:103520001B680422134009D00020134B9847020067
:103530000D4B9B681B041B0C53430FE00F4B0DE01E
:103540000A4A5023D35CDBB21A000423134001D192
:10355000002303E0044BDB6800E000231800BD46B5
:1035600002B080BD58A30100DC000020000800402C
:1035700000127A00653400003D3C0000006CDC0263
:1035800080B584B000AF78601A4B1B6AFB607B6823
:103590001B781A1C03231340DAB20D23FB180321F6
:1035A0000A4010001A7803218A43111C021C0A43A6
:1035B0001A707B689A780C23FB18D0011A787F2147
:1035C0000A40111C021C0A431A707B685A780C23AB
:1035D000FB1801210A4090011A7840218A43111CEE
:1035E000021C0A431A70034BFA681A62C046BD46B1
:1035F00004B080BD0008004080B582B000AF02007A
:10360000FB1D1A70FB1D1B78082B3BD89A00214B21
:10361000D3181B689F46204B1F4A126A02210A4397
:103620001A62002331E01C4B1B4A926902210A43B3
:103630009A6129E0184A184B1B8A9BB202210B435E
:103640009BB2138220E0144A134B9B8A9BB2022147
:103650000B439BB2938217E0104B1B6802221A4364
:103660000E4B1A600E4B98470EE00B4A0A49442352
:10367000CB5CDBB202210B43D9B24423D15403E02B
:10368000002302E0172300E000231800BD4602B02B
:1036900080BDC0467CA3010000080040DC00002083
:1036A0008134000080B582B000AF3B0001221A7067
:1036B00000237B6009E07B68DBB23A001100180050
:1036C000054B98477B6801337B607B68242BF2D9DC
:1036D000C046BD4602B080BD193B000080B5A0B019
:1036E00000AF364BC222D2009A600020344B98477C
:1036F000344B98477C23FB181800334B98477C23A6
:10370000FB1800221A707C23FB1801229A707C237C
:10371000FB1800225A707C23FB1818002B4B98478B
:1037200006202B4B98472B4B98474C23FB1818002F
:10373000294B98474C23FB1806221A704C23FB1880
:1037400010225A604C23FB1800221A724C23FB18DB
:1037500000225A724C23FB18190003201F4B984774
:1037600003201F4B984700201E4B98470021002044
:103770001D4B9847002101201B4B98470021022038
:10378000194B98473B1D1800134B98473B1D0622C9
:103790001A703B1D01225A603B1D00221A723B1D0C
:1037A00000225A723B1D190000200C4B9847002044
:1037B0000B4B9847C046BD4620B080BD0008004076
:1037C00031340000A5360000993300008135000037
:1037D000F93500009138000069330000C13800005D
:1037E000E5390000BD330000DD33000080B582B054
:1037F00000AF02003960FB1D1A70FB1D1B78012B06
:103800000AD0022B0FD0002B14D10E4B0D4A916918
:103810003A680A439A610FE00A4B0A4AD1693A684A
:103820000A43DA6108E0074B064A116A3A680A431C
:103830001A6201E0172300E000231800BD4602B021
:1038400080BDC0460004004080B500AF024B9847E1
:10385000C046BD4680BDC046891E000080B500AF91
:10386000024B9847C046BD4680BDC046DD1E0000E5
:1038700080B500AF054B5B78DBB25BB2002B01DAA1
:10388000012300E000231800BD4680BD000C00406D
:1038900080B500AF08210020074B9847074B012255
:1038A0001A70C046054B1B78DBB21A000123134087
:1038B000F8D1C046BD4680BDED370000000C004089
:1038C00080B586B000AF02003960FB1D1A70FB1D89
:1038D0001B787B61FB1D1B783B613B681B781B02DF
:1038E0001A007B6913437B613B685B78002B04D033
:1038F0007B698022D20213437B613B685B7A002B99
:1039000004D07B698022120313437B613B685B68B0
:10391000012B2CD93B685A683B685B68013B13401C
:103920001AD10023FB600223BB6005E0FB68013372
:10393000FB60BB685B00BB603B685A68BB689A422F
:10394000F4D8FB681B023A6913433B617B69802210
:10395000520313437B610AE03B685B681B023A69D0
:1039600013433B617B698022920213437B613B6876
:103970001B7A002B04D07B698022920313437B6166
:10398000C046134B9847031EFBD1124B9847124A6F
:10399000FB1D1B781370C0460D4B9847031EFBD1CF
:1039A0000E4B3A699A60C046094B9847031EFBD1FB
:1039B0000A4B0A4A51688022520211407A690A432E
:1039C0005A60074B9847C046BD4606B080BDC0460A
:1039D0007138000049380000080C0040000C00401D
:1039E0005D38000080B582B000AF0200FB1D1A7088
:1039F000C0460E4B9847031EFBD10D4B98470D4A0E
:103A0000FB1D1B781370C046084B9847031EFBD163
:103A1000094B094A5268802149020A435A60074B00
:103A20009847C046BD4602B080BDC0467138000010
:103A300049380000040C0040000C00405D380000D4
:103A400080B586B000AF0200FB1D1A70C0462A4B3D
:103A50009847031EFBD1294B9847294AFB1D1B7829
:103A60001370C046244B9847031EFBD1254B5B685F
:103A7000DB04DB0EDBB21800234B984703007B61AD
:103A80001F4AFB1D1B7813701E4B5B68DB02DB0FAC
:103A9000DAB21323FB181A701C4AFB1D1B78137033
:103AA000C046154B9847031EFBD1164B9B681B0263
:103AB0001B0C9BB2FB60164B98471323FB181B781B
:103AC000002B09D1FB68012B06D9124BF9687869E4
:103AD000984703007B610AE01323FB181B78002B37
:103AE00005D0FB6801337A69DA4013007B617B699A
:103AF0001800BD4606B080BD71380000493800008E
:103B0000040C0040000C0040C5340000080C0040CC
:103B10005D380000D164010080B584B000AF0200C0
:103B20003960FB1D1A70FB1D1B78FB603B681B781E
:103B30001B021A00FB681343FB60FB1D1B78180077
:103B4000044B9847044BFA6892B25A80C046BD466F
:103B500004B080BDA53B0000000C004080B582B0E1
:103B600000AF0200FB1D1A700A4B98470A4AFB1D62
:103B70001B7813700949094B5B889BB28022D201E4
:103B800013439BB24B80064B9847C046BD4602B0DC
:103B900080BDC04649380000020C0040000C0040C7
:103BA0005D38000080B584B000AF0200FB1D1A70C4
:103BB0001C4B98471C4AFB1D1B7813701B4B5B88E2
:103BC0001B051B0FDBB2FB60184A538818490B40DA
:103BD0005380164A154B5B889BB216490B409BB22B
:103BE0005380C046114B5B889BB21A008023DB01D7
:103BF0001340F7D10D4AFB68DBB2191C0F230B40B1
:103C0000D9B25388081C0F210140080208490B4013
:103C1000191C031C0B435380074B9847C046BD46F5
:103C200004B080BD49380000020C0040000C004088
:103C3000FFF0FFFFFFBFFFFF5D38000080B584B0DD
:103C400000AF0200FB1D1A700D4B98470D4AFB1D7B
:103C50001B7813700C4B5B881B051B0FDAB20F230C
:103C6000FB181A70094B98470F23FB181B78180094
:103C7000074B984703001800BD4604B080BDC046FE
:103C800049380000020C0040000C00405D38000084
:103C9000413A000080B584B000AF0200FB1D1A70ED
:103CA0000F23FB18FA1D1278D2091A700E23FB1885
:103CB000FA1D127852091A700D4BBB600F23FB18C6
:103CC0001B78002B0FD10F23FB181B789B001022B1
:103CD0009446BC446344083B1A680E23FB181B78C7
:103CE000DB01D31800E000231800BD4604B080BDFE
:103CF0000044004180B588B000AFF860B9607A60D8
:103D00000023FB617B68DB7801225340DBB2002B90
:103D100035D07B681B78802B0BD0FB698022520248
:103D20001343FB617B681B781B061A00FB69134376
:103D3000FB617B685B78002B03D07B685B78022B90
:103D400010D1FB69802292021343FB617B689B7850
:103D5000002B04D0FB698022D2021343FB61FB6875
:103D6000BA685A607B685B78012B03D07B685B780C
:103D7000022B07D1FB69224A1340FB6102E0FB687A
:103D8000BA685A60BB681B041B0CBB61BB681B0C88
:103D90007B61BA69FB691343A022D2051A43FB6811
:103DA0009A627A69FB691343D02212061A43FB68B0
:103DB0009A627B68DB7801225340DBB2002B1AD079
:103DC000FA698023DB0213400AD07B689B78012BC1
:103DD00003D1FB68BA689A6102E0FB68BA685A616D
:103DE0007B685B78012B03D07B685B78022B02D168
:103DF000FB68BA689A60C046BD4608B080BDC04640
:103E0000FFFFFBFF80B584B000AF02003960FB1DEF
:103E10001A70FB1D1B7818000A4B98470300FB60C3
:103E2000FB1D1B781F22134001229A401300BB6028
:103E30003A68B968FB681800034B9847C046BD460E
:103E400004B080BD953C0000F53C000080B500AF9B
:103E5000C046BD4680BDC04680B500AF064B984702
:103E6000064B9847064B9847064B9847064B984792
:103E7000C046BD4680BDC046DD36000019200000AA
:103E80004D3E0000690400004D3E000080B582B048
:103E900000AF2F4B7B602F4B3B607A683B689A42A8
:103EA0000CD007E03B681A1D3A607A68111D7960F2
:103EB00012681A603A68284B9A42F3D3274B3B604A
:103EC00004E03B681A1D3A6000221A603A68244BED
:103ED0009A42F6D3234B7B60234B7A68FF218A43B7
:103EE0009A60224A90235B000221D150204AD37865
:103EF00003218B43191C02230B43D3701C4AD37834
:103F00000C218B43191C08230B43D370194A937B54
:103F100030218B43191C20230B439373154A937B49
:103F20000C218B43191C08230B439373114A937B79
:103F300003218B43191C02230B4393730E4A5368CE
:103F400080210B4353600D4B98470D4B9847FEE77C
:103F500040AF0100000000207C0000208000002015
:103F6000042100200000000000ED00E0007000418E
:103F70000050004100480041004000419D97010071
:103F8000190B000080B500AFFEE7C04680B584B0D5
:103F900000AF78600A4B1B68002B02D1084B094A1E
:103FA0001A60074B1B68FB60054B1A687B68D218C8
:103FB000034B1A60FB681800BD4604B080BDC046C4
:103FC000F40000202042002080B582B000AF78606D
:103FD00001235B421800BD4602B080BD80B582B0AF
:103FE00000AF786039603B68802292015A600023FC
:103FF0001800BD4602B080BD80B582B000AF7860C9
:1040000001231800BD4602B080BDC04680B584B013
:1040100000AFF860B9607A6000231800BD4604B0B4
:1040200080BDC04680B500AF064B1B78DBB2012BCC
:1040300001D1002303E0034B01221A700123180071
:10404000BD4680BDF800002080B582B000AF020000
:10405000FB1D1A70FB1D1B78012B02D1034B0022A4
:104060001A70C046BD4602B080BDC046F8000020B0
:10407000B6070081485800002002070014530000D2
:1040800000000000D84F00001C00100000000000DD
:10409000B70700815858000020030800CC4F0000EB
:1040A00000000000944E000064001C0000000000AE
:1040B000B807038168580000000236000C50000069
:1040C000784E0000844E00000C0008000000000044
:1040D000BB0700818858000028010B00904E0000AB
:1040E00000000000944E0000040000001CA000002E
:1040F000B70703819858000020023500CC4E00001D
:1041000000000000BC4F00002C0010000000000068
:10411000B3070281B858000000022300F84E0000E7
:10412000D84E0000E84E00000C0000000000000027
:10413000B0070381D858000028015800004F000044
:10414000000000002C540000040000001CA000002F
:10415000BE0700812859000000034600444F0000BC
:10416000384F0000504F000008000400000000001D
:10417000BD0703813859000030013A00385400006F
:104180005C4F0000E45500000C000000087C0000BB
:10419000B30702814859000030055000E854000080
:1041A0003C560000545600001800100024A00000E7
:1041B000B107038158590000300159006C4F0000CD
:1041C000000000002C540000040000001CA00000AF
:1041D000BD070081C859000030020C0034520000B5
:1041E00000000000BC4F0000140008009091000087
:1041F000BA070081D859000030020500CC4F0000FA
:1042000000000000D84F000024001800387B000098
:10421000B7070181E859000030011700EC4F00009A
:104220000000000090560000040000001CA00000E8
:10423000BE070281085A0000280157001C500000E8
:10424000000000002C540000040000001CA000002E
:10425000B2070381185A000000025A0038500000CB
:10426000285000004050000008000000000000003E
:10427000BC070281285A000030015600505000004F
:10428000485000002C540000040000001CA0000056
:10429000BB070181385A000030024D00D4520000A3
:1042A0005450000004510000040000001CA0000055
:1042B000BA070181485A000020024B004853000011
:1042C000685000007C50000008000400000000005E
:1042D000B1070181585A000000034800BC5000009B
:1042E000B0500000C85000000C00040000000000A6
:1042F000B8070181685A000030011800F050000032
:104300000000000090560000040000001CA0000007
:10431000BB070281785A00002801550000510000B7
:104320000000000004510000040000001CA0000078
:10433000B5070281885A000030025200F051000097
:1043400018510000285100000C0004001C980000C7
:10435000BF070081985A0000300147003C5100001F
:10436000000000008052000004000000688200008D
:10437000B4070081A85A000030013D004051000000
:1043800000000000E4550000040000001CA0000034
:10439000B3070181B85A000020021100AC5400009C
:1043A000445100004C5100002400140000000000A3
:1043B000B4070181C85A00003001120058510000B2
:1043C0000000000090560000040000001CA0000047
:1043D000B9070181E85A000030051C00AC5200000A
:1043E0003C560000545600001800100024A00000A5
:1043F000B8070081585B000030034100F052000014
:104400003C560000545600001800100024A0000084
:10441000B7070081A85B0000300140008051000018
:104420007851000084510000040000001CA000002E
:10443000BA070381B85B000001003800484E000055
:10444000B7070181C85B000020024A00BC51000090
:10445000A8510000C451000010000C000000000032
:10446000B3070081E85B000030016200F8510000F2
:10447000000000002C540000040000001CA00000FC
:10448000BF070081085C000030020E0018520000D7
:1044900008520000205200000C00040004910000AB
:1044A000BC070081185C000030030D00345200008E
:1044B000000000004052000014000800909100002D
:1044C000B5070081285C0000300306005052000050
:1044D000000000005C520000240018006488000006
:1044E000B6070181385C000030041600F853000064
:1044F0003C560000545600001800100024A0000094
:10450000BB070081485C0000300144007C52000081
:104510007052000080520000040000001CA0000047
:10452000B5070081585C000000023E009852000070
:104530008C520000A05200000C0008000000000097
:10454000BF070281685C000030041B00AC52000011
:104550003C560000545600001800100024A0000033
:10456000B2070381985C000030032600305500003C
:104570003C560000545600001800100024A0000013
:10458000B6070381A85C000030021400F05200005E
:104590003C560000545600001800100024A00000F3
:1045A000B0070381B85C000030031A00E853000034
:1045B0003C560000545600001800100024A00000D3
:1045C000B2070281D85C0000300219006856000072
:1045D0003C560000545600001800100024A00000B3
:1045E000B9070381E85C000001005C00C0470000DF
:1045F000B5070181185D000020024900FC5200004F
:104600000000000004530000080004000000000047
:10461000BB070381385D0000200139001C530000F6
:1046200000000000E45500000C0004000000000041
:10463000BD070381485D000028015F002C53000086
:10464000205300002C540000040000001CA00000B7
:10465000B2070081585D000028016100305300005E
:10466000000000002C540000040000001CA000000A
:10467000BB070381685D000001005D00E04A0000A7
:10468000B9070181785D000020034C004853000009
:1046900034530000545300001000080000000000D4
:1046A000B4070081885D0000300263007853000089
:1046B00068530000805300000C0004001C980000A8
:1046C000B3070081985D000030013C008C5300006E
:1046D00000000000E4550000040000001CA00000E1
:1046E000BF070381A85D000001003B00D44D00001E
:1046F000B2070081D85E0000010002000600000041
:10470000B9070081885E000001000A000B0000006C
:10471000B3070081B85E000001000300090000003B
:10472000B1070181E85E000030030F0090530000E4
:10473000000000009056000014000C0024930000BC
:10474000B8070081A85E0000010009000400000015
:10475000B4070081C85E0000300204009C530000D2
:1047600000000000A453000008000400589B000053
:10477000B1070081785E0000010001000700000021
:10478000BA070181385E000030041D00E8530000C4
:104790003C560000545600001800100024A00000F1
:1047A000B5070381485E000030031500F853000090
:1047B0003C560000545600001800100024A00000D1
:1047C000BA070381585E00003001130068560000EC
:1047D0003C560000545600001800100024A00000B1
:1047E000BB070081685E00003001650028540000AE
:1047F000000000002C540000080004001CA0000071
:10480000BC070081F85E0000300000003854000052
:10481000000000003C540000040000001CA0000048
:10482000B7070281085F00002801540060540000AF
:104830004C54000064540000040000001CA0000060
:10484000BF070381185F0000100160007C54000066
:104850006C5400008054000014000400E49D00002B
:10486000BC070181285F000020021E009054000058
:1048700088540000985400001C000C00FC9D0000AF
:10488000B7070381385F000030011000AC5400000E
:10489000A4540000B45400001C000C00FC9D000057
:1048A000B6070081485F000030043F00C854000094
:1048B000C0540000545600001800100024A000004E
:1048C000BD070081585F000030044500D854000047
:1048D0003C560000545600001800100024A00000B0
:1048E000BF070281685F000030044F00E8540000F9
:1048F0003C560000545600001800100024A0000090
:10490000B4070281785F000030055100FC540000BC
:104910003C560000545600001800100024A000006F
:10492000B4070381885F000030045B00105500006D
:104930003C560000545600001800100024A000004F
:10494000B3070381985F0000300432002055000057
:104950003C560000545600001800100024A000002F
:10496000B1070381A85F000030043100305500001A
:104970003C560000545600001800100024A000000F
:10498000BE070281B85F00003005300040550000CE
:104990003C560000545600001800100024A00000EF
:1049A000B0070181C85F0000300429007455000081
:1049B0003C560000545600001800100024A00000CF
:1049C000BD070281D85F000030042F00545500005D
:1049D0003C560000545600001800100024A00000AF
:1049E000BC070281E85F000030042E00645500001F
:1049F0003C560000545600001800100024A000008F
:104A0000BB070281F85F000030052D0074550000DF
:104A10003C560000545600001800100024A000006E
:104A2000BA0702810860000030032C00885500009E
:104A30003C560000545600001800100024A000004E
:104A4000B90702811860000030042B009455000063
:104A50003C560000545600001800100024A000002E
:104A6000B80702812860000030052A00A455000024
:104A70003C560000545600001800100024A000000E
:104A8000B70702813860000030042800B8550000E4
:104A90003C560000545600001800100024A00000EE
:104AA000BA070081486000000100430008000000D0
:104AB000B907008158600000010042000A000000B0
:104AC000B507008168600000010064000500000077
:104AD000B50703817860000001003400C04A00007F
:104AE000BC0703818860000001005E0040480000B0
:104AF000B407038198600000010033008048000083
:104B0000B9070381A86000000100370000480000D9
:104B1000B0070281B860000030022200DC550000BE
:104B2000C8550000E4550000040000001CA000006F
:104B3000BE070181C8600000200221000C56000061
:104B4000F85500009056000014000000000000001E
:104B5000B6070281D8600000300427001456000018
:104B60003C560000545600001800100024A000001D
:104B7000B0070281E860000020044E002C560000BF
:104B800024560000545600001800100000000000D9
:104B9000B5070281F860000030042500445600008B
:104BA0003C560000545600001800100024A00000DD
:104BB000B407028108610000300424006856000038
:104BC00060560000785600001800100024A0000075
:104BD000B10702811861000020021F008456000006
:104BE00000000000905600001800100000000000B7
:104BF000BD070181286100002003200084560000C9
:104C00000000000090560000180010000000000096
:104C1000BE07038178580000060000000000000075
:104C2000B6070381A858000024030000CC4E000002
:104C300000000000B3070381C858000034010000E1
:104C4000F84E0000F04E0000B2070181E858000065
:104C500004020000444F0000144F0000BD07028111
:104C6000F85800000600000000000000BC070081AA
:104C7000085900000600010000000000B40701818F
:104C8000185900000600010000000000BE07038163
:104C9000685900000600010000000000B80701810B
:104CA0007859000024010000BC510000884F00002A
:104CB000B7070081885900000600020000000000CC
:104CC000B20700819859000006010100A44F0000BE
:104CD000B0070181A85900003401000018520000FB
:104CE000AC4F0000BE070081B8590000340100003D
:104CF000B84F000000000000B3070181F859000020
:104D0000040100000C50000000500000B2070181B7
:104D1000D85A000034020000905300000000000048
:104D2000BA070281F85A00000600010000000000E6
:104D3000B9070281085B00000600020000000000C5
:104D4000B8070281185B00000600030000000000A5
:104D5000B8070081285B0000060001000000000089
:104D6000B1070081385B000006000200000000006F
:104D7000B8070381485B0000060000000000000047
:104D8000BE070181685B0000060001000000000012
:104D9000BF070181785B00000600000000000000F2
:104DA000BD070181885B0000060103006851000017
:104DB000B9070081985B00000600000000000000B9
:104DC000B6070081D85B000034010000F0510000FC
:104DD000E0510000B1070081F85B0000060202000C
:104DE000FC510000BC070181785C00003401000028
:104DF000D4520000C0520000BF070181885C00004F
:104E0000340100000C560000DC520000B1070281A2
:104E1000C85C000034030000685600003C560000E7
:104E2000B2070281F85C00002401000084560000F3
:104E300000000000B6070181085D000024010000A9
:104E4000FC52000000000000BC070381285D000048
:104E5000340100001453000000000000BA07008174
:104E6000985E00002C01000090530000000000003C
:104E7000B04D00007C4C000000000100704E0000AE
:104E8000744E0000A0810000486A00005C6A0000C7
:104E900000480000E8960000389700009477000072
:104EA000506C0000A06C0000B04D0000604D000090
:104EB000B04D0000B04D00007C4C0000B04D000033
:104EC0007C4C0000104C0000CC7200000048000038
:104ED000484E0000F040000000000200A84E000014
:104EE00000000000AC4E0000747500008C750000DE
:104EF00000000000B04E000000480000344C0000EC
:104F000000480000904D0000804D0000B04C0000B3
:104F1000A04D000000000100B44E0000B84E00009B
:104F2000704D0000BC7F0000C04C0000507A0000B3
:104F3000B04D00007C4C000000000100BC4E0000A1
:104F4000C04E000000480000F84C0000484C000033
:104F5000A08100009C790000D475000000000000D2
:104F6000C44E0000B04D0000604D0000004800003D
:104F70005C4C0000088F0000904D0000804D000048
:104F8000A04D0000804D000000000300044F000011
:104F9000084F00000C4F0000104F0000B04D000003
:104FA0007C4C000001000000704D0000000001007A
:104FB000204F0000284F000000480000E896000045
:104FC00038970000947700006080000000480000DF
:104FD000484E0000F0410000E896000038970000BD
:104FE00094770000C080000040810000004800006D
:104FF000B04D0000504D0000647B0000B04C00003C
:1050000000000100304F0000344F00000048000055
:10501000F84C0000704D0000F47B000000480000D8
:105020005C4C0000407E000000000200644F000065
:1050300000000000684F000000480000344C0000F1
:10504000387900005079000000000000704F000027
:105050000048000000000300784F00007C4F000073
:1050600000000000804F0000000003009851000085
:10507000844F000000000000A4510000E8960000EA
:1050800038970000587900006C7900008C79000096
:10509000904D0000804D0000B04C0000A04D00007D
:1050A000B04D0000504D0000D8860000B04C00000C
:1050B000000001009C4F0000A04F000000480000CD
:1050C000F84C0000484C0000A08100009C790000D2
:1050D000B4790000704D0000BC7F0000C04C00009F
:1050E000847F0000D44D0000207A0000347A000054
:1050F000004800005C4C0000548100006C4C000033
:1051000000480000E8960000389700004C7B000043
:10511000F49500001CA0000000000200F04F000009
:10512000F44F0000FC4F0000647B00003897000043
:10513000907B0000B04D00007C4C00000048000057
:105140000048000000000000145000003C940000E3
:1051500038970000F47B000000480000904D0000EC
:10516000804D0000A04D000001000000904D0000A7
:10517000904D0000A04D00000000000020500000F5
:1051800000480000E896000038970000407E0000CC
:10519000B04D00008C4C0000904D0000804D000090
:1051A000B04C0000A04D0000000003009050000033
:1051B00094500000985000009C50000000480000EF
:1051C0009C4C0000E896000038970000AC7E000080
:1051D000B04D0000504D0000D8860000B04C0000DB
:1051E00000000200A0500000A4500000AC500000DD
:1051F00000480000C04D0000004800000200000010
:10520000C04C0000704D000000000200D4500000AF
:10521000DC500000E450000000480000D04C0000CA
:10522000E8960000389700006C7F0000847F000043
:10523000BC7F000000480000484E0000D041000044
:10524000E8960000389700004C8000006080000065
:1052500000480000484E0000F0410000E8960000C1
:105260003897000068800000C08000004081000086
:1052700000000100F4500000FC5000000048000055
:10528000E8960000389700005481000000000100FB
:10529000345100003851000000480000F84C000074
:1052A000A08100004C8200006082000000480000E5
:1052B000C0470000C0450000A04500004045000078
:1052C000000003005C51000060510000000000007D
:1052D0006451000000480000E44D0000000003009D
:1052E0007051000000000000000000007451000038
:1052F00000480000C0470000804500000048000052
:10530000344E0000E89600003897000084850000C5
:10531000C085000000480000484E00000048000022
:10532000000001009051000094510000004800006E
:105330000048000000000300985100009C5100004C
:10534000A0510000A451000000480000E44D0000FE
:10535000B0420000E8960000389700003886000050
:1053600074860000B086000000000200D0510000EA
:10537000D4510000DC51000000480000C04D000086
:10538000D886000038970000F8860000004800002A
:10539000004800005C4E00000C4D0000004800007A
:1053A000344E0000E8960000389700002C9C000066
:1053B0004C9B0000B04D0000204D0000304D00001F
:1053C000404D0000B04D0000504D0000B093000073
:1053D000604D0000704D0000DC930000704D000037
:1053E000FCA20000B04D000000480000C0470000D3
:1053F000C0450000A045000000480000C047000074
:1054000080450000A0470000904D0000804D000046
:10541000A04D0000904D0000A04D0000B04D0000D8
:10542000B04D0000B04D000000480000E8960000BC
:1054300038970000088F000000480000E896000040
:1054400038970000389300003893000000000300F4
:10545000B4530000B8530000BC530000C053000018
:105460000048000050930000389700000000020040
:10547000C4530000C8530000D0530000004800008F
:10548000B0930000B893000000000000D453000067
:1054900000480000804800003C940000389700005D
:1054A000DC93000000000000DC5300000048000016
:1054B000804800003C94000038970000FCA20000E7
:1054C00000000000E453000000480000C047000056
:1054D000C04500000C4E000000480000C04700001E
:1054E00080450000A047000000480000C0470000C1
:1054F00080450000A0470000E04800000048000090
:10550000C047000080450000A0470000E0480000C0
:1055100000480000C047000080450000A047000090
:1055200000480000C047000080450000A047000080
:1055300000480000C04700008045000060450000B2
:1055400000480000C0470000C0450000A045000022
:105550004045000000480000C047000080450000B2
:105560006045000000480000C04700008045000082
:10557000A047000000480000C04700008045000030
:10558000A0470000A049000000480000C0470000FC
:105590008045000000480000C04700008045000032
:1055A000A047000000480000C04700008045000000
:1055B000A0470000A049000000480000C0470000CC
:1055C00080450000A04700000000030008540000D0
:1055D0000C540000000000001054000000480000BF
:1055E000E44D0000E896000038970000E8950000C0
:1055F000F49500001CA000000000030014540000FB
:1056000000000000000000001854000000480000E6
:10561000F84D000000480000C04700008045000031
:1056200060450000000000001C540000004800001D
:10563000C0470000C04500000C4E00000000000004
:105640002054000000480000C0470000C045000092
:10565000A045000054960000389700001C960000FA
:10566000000000002454000000480000C047000073
:10567000C04500000C4E0000549600003897000012
:10568000B496000000480000204E0000D04B0000FF
:10569000E896000038970000F09A0000A882A3E086
:1056A000590100009A7CB909000000006600000062
:1056B00089B3000004000000E8570000A7B3000011
:1056C0000400000018580000E0B2000004000000D0
:1056D00088570000D8B2000004000000C85600003F
:1056E000FCB2000007000000345700004AB300007D
:1056F00009000000945700006DAF00000800000092
:10570000C45700003BB300000800000088570000A9
:1057100005AD0000050000008857000089B30000B7
:1057200004000000C4570000DFAE000005000000C8
:10573000D057000066B300000700000004570000C7
:105740003CAD000007000000245800009AB30000A0
:105750000300000000000000CFAE000003000000C6
:1057600018580000C4B200000200000034570000C6
:1057700038B300000300000034570000CFAE000033
:1057800003000000E857000096B30000040000008A
:105790004C57000061B3000005000000E85700000E
:1057A000C4B2000002000000C45700009AB200001A
:1057B000070000008857000094B3000002000000BA
:1057C00088570000ABB30000040000000000000098
:1057D0006DB3000002000000000000002CAF0000CC
:1057E000040000000000000066B300000700000095
:1057F000D057000089B300000400000018580000D2
:1058000066B3000007000000AC570000C4B20000FF
:1058100002000000185800008DB3000007000000CF
:10582000B8570000A7B3000004000000C4570000F0
:1058300076B10000030000002458000070B20000A0
:1058400003000000D057000025B300000600000050
:10585000EC560000000000001EB30000070000002E
:10586000EC560000000000004FAF00000F000000E9
:10587000945700000000000030AF00000C00000052
:10588000B05600000000000017B300000500000043
:1058900094570000000000007BAF000008000000EB
:1058A000EC5600000000000075AF0000060000008C
:1058B000EC56000000000000DFB000000400000013
:1058C0002458000000000000EDB0000006000000B9
:1058D0002458000000000000E2AC000008000000B6
:1058E000BC5600000000000069AE00000F00000080
:1058F000F856000000000000D2AE00000D000000CD
:105900002857000000000000A0AE000012000000B8
:105910007C5700000000000068AF00000500000098
:10592000F85600000000000058AE00001100000012
:1059300024580000000000001CAF00001000000010
:10594000DC5700000000000092AD00001F000000C6
:105950002458000000000000D5AC00000D0000003D
:10596000BC56000000000000A4AC00000A000000CB
:105970001C570000000000001CAE000006000000E4
:10598000A05700000000000022AE00000A00000046
:105990002458000000000000DCB2000004000000F9
:1059A000C856000000000000D1B20000070000004F
:1059B000D456000000000000ECB20000100000000F
:1059C000E05600000000000010B3000007000000D7
:1059D000EC5600000000000043B300000700000088
:1059E000EC5600000000000001B200000B000000B7
:1059F0003C580000000000005EAF00000A000000FC
:105A0000F856000000000000EAAC00000A000000A8
:105A10001057000000000000CEAC0000070000009E
:105A20002458000000000000F4AC00001100000049
:105A30001057000000000000DDAD00001000000065
:105A40000C58000000000000F8AD0000120000003B
:105A5000A05700000000000037AE00001200000058
:105A60001C57000000000000FDB100000400000011
:105A70003C580000000000000AAD000007000000D4
:105A8000285700000000000047AD00000C00000097
:105A9000245800000000000049AE00000F00000084
:105AA000245800000000000005AF00000E000000B8
:105AB000E85700000000000073B200001000000072
:105AC000E85700000000000067B200000900000075
:105AD0003C58000000000000A1B200000D000000D2
